{
	"data": {
		"bytecode": {
			"linkReferences": {},
			"object": "60806040526040518060400160405280600c81526020017f48656c6c6f20476972696b210000000000000000000000000000000000000000815250600090816200004a9190620002d9565b503480156200005857600080fd5b50620003c0565b600081519050919050565b7f4e487b7100000000000000000000000000000000000000000000000000000000600052604160045260246000fd5b7f4e487b7100000000000000000000000000000000000000000000000000000000600052602260045260246000fd5b60006002820490506001821680620000e157607f821691505b602082108103620000f757620000f662000099565b5b50919050565b60008190508160005260206000209050919050565b60006020601f8301049050919050565b600082821b905092915050565b600060088302620001617fffffffffffffffffffffffffffffffffffffffffffffffffffffffffffffffff8262000122565b6200016d868362000122565b95508019841693508086168417925050509392505050565b6000819050919050565b6000819050919050565b6000620001ba620001b4620001ae8462000185565b6200018f565b62000185565b9050919050565b6000819050919050565b620001d68362000199565b620001ee620001e582620001c1565b8484546200012f565b825550505050565b600090565b62000205620001f6565b62000212818484620001cb565b505050565b5b818110156200023a576200022e600082620001fb565b60018101905062000218565b5050565b601f82111562000289576200025381620000fd565b6200025e8462000112565b810160208510156200026e578190505b620002866200027d8562000112565b83018262000217565b50505b505050565b600082821c905092915050565b6000620002ae600019846008026200028e565b1980831691505092915050565b6000620002c983836200029b565b9150826002028217905092915050565b620002e4826200005f565b67ffffffffffffffff8111156200030057620002ff6200006a565b5b6200030c8254620000c8565b620003198282856200023e565b600060209050601f8311600181146200035157600084156200033c578287015190505b620003488582620002bb565b865550620003b8565b601f1984166200036186620000fd565b60005b828110156200038b5784890151825560018201915060208501945060208101905062000364565b86831015620003ab5784890151620003a7601f8916826200029b565b8355505b6001600288020188555050505b505050505050565b6109f480620003d06000396000f3fe608060405234801561001057600080fd5b50600436106100625760003560e01c80632cb777a6146100675780635949b1dc146100855780635ce25353146100a1578063c261fa36146100d1578063c3ccf402146100ef578063ceddb7b11461010b575b600080fd5b61006f610127565b60405161007c919061026e565b60405180910390f35b61009f600480360381019061009a91906102c9565b61012d565b005b6100bb60048036038101906100b6919061043c565b610144565b6040516100c891906104a0565b60405180910390f35b6100d961019d565b6040516100e6919061053a565b60405180910390f35b6101096004803603810190610104919061043c565b61022b565b005b610125600480360381019061012091906102c9565b61023e565b005b60015481565b8060015461013b919061058b565b60018190555050565b60008160405160200161015791906105fb565b60405160208183030381529060405280519060200120600060405160200161017f919061070a565b60405160208183030381529060405280519060200120149050919050565b600080546101aa90610641565b80601f01602080910402602001604051908101604052809291908181526020018280546101d690610641565b80156102235780601f106101f857610100808354040283529160200191610223565b820191906000526020600020905b81548152906001019060200180831161020657829003601f168201915b505050505081565b806000908161023a91906108b8565b5050565b8060015461024c919061098a565b60018190555050565b6000819050919050565b61026881610255565b82525050565b6000602082019050610283600083018461025f565b92915050565b6000604051905090565b600080fd5b600080fd5b6102a681610255565b81146102b157600080fd5b50565b6000813590506102c38161029d565b92915050565b6000602082840312156102df576102de610293565b5b60006102ed848285016102b4565b91505092915050565b600080fd5b600080fd5b6000601f19601f8301169050919050565b7f4e487b7100000000000000000000000000000000000000000000000000000000600052604160045260246000fd5b61034982610300565b810181811067ffffffffffffffff8211171561036857610367610311565b5b80604052505050565b600061037b610289565b90506103878282610340565b919050565b600067ffffffffffffffff8211156103a7576103a6610311565b5b6103b082610300565b9050602081019050919050565b82818337600083830152505050565b60006103df6103da8461038c565b610371565b9050828152602081018484840111156103fb576103fa6102fb565b5b6104068482856103bd565b509392505050565b600082601f830112610423576104226102f6565b5b81356104338482602086016103cc565b91505092915050565b60006020828403121561045257610451610293565b5b600082013567ffffffffffffffff8111156104705761046f610298565b5b61047c8482850161040e565b91505092915050565b60008115159050919050565b61049a81610485565b82525050565b60006020820190506104b56000830184610491565b92915050565b600081519050919050565b600082825260208201905092915050565b60005b838110156104f55780820151818401526020810190506104da565b60008484015250505050565b600061050c826104bb565b61051681856104c6565b93506105268185602086016104d7565b61052f81610300565b840191505092915050565b600060208201905081810360008301526105548184610501565b905092915050565b7f4e487b7100000000000000000000000000000000000000000000000000000000600052601160045260246000fd5b600061059682610255565b91506105a183610255565b92508282039050818111156105b9576105b861055c565b5b92915050565b600081905092915050565b60006105d5826104bb565b6105df81856105bf565b93506105ef8185602086016104d7565b80840191505092915050565b600061060782846105ca565b915081905092915050565b7f4e487b7100000000000000000000000000000000000000000000000000000000600052602260045260246000fd5b6000600282049050600182168061065957607f821691505b60208210810361066c5761066b610612565b5b50919050565b60008190508160005260206000209050919050565b6000815461069481610641565b61069e81866105bf565b945060018216600081146106b957600181146106ce57610701565b60ff1983168652811515820286019350610701565b6106d785610672565b60005b838110156106f9578154818901526001820191506020810190506106da565b838801955050505b50505092915050565b60006107168284610687565b915081905092915050565b60006020601f8301049050919050565b600082821b905092915050565b60006008830261076e7fffffffffffffffffffffffffffffffffffffffffffffffffffffffffffffffff82610731565b6107788683610731565b95508019841693508086168417925050509392505050565b6000819050919050565b60006107b56107b06107ab84610255565b610790565b610255565b9050919050565b6000819050919050565b6107cf8361079a565b6107e36107db826107bc565b84845461073e565b825550505050565b600090565b6107f86107eb565b6108038184846107c6565b505050565b5b818110156108275761081c6000826107f0565b600181019050610809565b5050565b601f82111561086c5761083d81610672565b61084684610721565b81016020851015610855578190505b61086961086185610721565b830182610808565b50505b505050565b600082821c905092915050565b600061088f60001984600802610871565b1980831691505092915050565b60006108a8838361087e565b9150826002028217905092915050565b6108c1826104bb565b67ffffffffffffffff8111156108da576108d9610311565b5b6108e48254610641565b6108ef82828561082b565b600060209050601f8311600181146109225760008415610910578287015190505b61091a858261089c565b865550610982565b601f19841661093086610672565b60005b8281101561095857848901518255600182019150602085019450602081019050610933565b868310156109755784890151610971601f89168261087e565b8355505b6001600288020188555050505b505050505050565b600061099582610255565b91506109a083610255565b92508282019050808211156109b8576109b761055c565b5b9291505056fea2646970667358221220a673655523757ff262872e50044352c1357476177b70a4f734fbfa4d6444f69064736f6c63430008130033",
			"opcodes": "PUSH1 0x80 PUSH1 0x40 MSTORE PUSH1 0x40 MLOAD DUP1 PUSH1 0x40 ADD PUSH1 0x40 MSTORE DUP1 PUSH1 0xC DUP2 MSTORE PUSH1 0x20 ADD PUSH32 0x48656C6C6F20476972696B210000000000000000000000000000000000000000 DUP2 MSTORE POP PUSH1 0x0 SWAP1 DUP2 PUSH3 0x4A SWAP2 SWAP1 PUSH3 0x2D9 JUMP JUMPDEST POP CALLVALUE DUP1 ISZERO PUSH3 0x58 JUMPI PUSH1 0x0 DUP1 REVERT JUMPDEST POP PUSH3 0x3C0 JUMP JUMPDEST PUSH1 0x0 DUP2 MLOAD SWAP1 POP SWAP2 SWAP1 POP JUMP JUMPDEST PUSH32 0x4E487B7100000000000000000000000000000000000000000000000000000000 PUSH1 0x0 MSTORE PUSH1 0x41 PUSH1 0x4 MSTORE PUSH1 0x24 PUSH1 0x0 REVERT JUMPDEST PUSH32 0x4E487B7100000000000000000000000000000000000000000000000000000000 PUSH1 0x0 MSTORE PUSH1 0x22 PUSH1 0x4 MSTORE PUSH1 0x24 PUSH1 0x0 REVERT JUMPDEST PUSH1 0x0 PUSH1 0x2 DUP3 DIV SWAP1 POP PUSH1 0x1 DUP3 AND DUP1 PUSH3 0xE1 JUMPI PUSH1 0x7F DUP3 AND SWAP2 POP JUMPDEST PUSH1 0x20 DUP3 LT DUP2 SUB PUSH3 0xF7 JUMPI PUSH3 0xF6 PUSH3 0x99 JUMP JUMPDEST JUMPDEST POP SWAP2 SWAP1 POP JUMP JUMPDEST PUSH1 0x0 DUP2 SWAP1 POP DUP2 PUSH1 0x0 MSTORE PUSH1 0x20 PUSH1 0x0 KECCAK256 SWAP1 POP SWAP2 SWAP1 POP JUMP JUMPDEST PUSH1 0x0 PUSH1 0x20 PUSH1 0x1F DUP4 ADD DIV SWAP1 POP SWAP2 SWAP1 POP JUMP JUMPDEST PUSH1 0x0 DUP3 DUP3 SHL SWAP1 POP SWAP3 SWAP2 POP POP JUMP JUMPDEST PUSH1 0x0 PUSH1 0x8 DUP4 MUL PUSH3 0x161 PUSH32 0xFFFFFFFFFFFFFFFFFFFFFFFFFFFFFFFFFFFFFFFFFFFFFFFFFFFFFFFFFFFFFFFF DUP3 PUSH3 0x122 JUMP JUMPDEST PUSH3 0x16D DUP7 DUP4 PUSH3 0x122 JUMP JUMPDEST SWAP6 POP DUP1 NOT DUP5 AND SWAP4 POP DUP1 DUP7 AND DUP5 OR SWAP3 POP POP POP SWAP4 SWAP3 POP POP POP JUMP JUMPDEST PUSH1 0x0 DUP2 SWAP1 POP SWAP2 SWAP1 POP JUMP JUMPDEST PUSH1 0x0 DUP2 SWAP1 POP SWAP2 SWAP1 POP JUMP JUMPDEST PUSH1 0x0 PUSH3 0x1BA PUSH3 0x1B4 PUSH3 0x1AE DUP5 PUSH3 0x185 JUMP JUMPDEST PUSH3 0x18F JUMP JUMPDEST PUSH3 0x185 JUMP JUMPDEST SWAP1 POP SWAP2 SWAP1 POP JUMP JUMPDEST PUSH1 0x0 DUP2 SWAP1 POP SWAP2 SWAP1 POP JUMP JUMPDEST PUSH3 0x1D6 DUP4 PUSH3 0x199 JUMP JUMPDEST PUSH3 0x1EE PUSH3 0x1E5 DUP3 PUSH3 0x1C1 JUMP JUMPDEST DUP5 DUP5 SLOAD PUSH3 0x12F JUMP JUMPDEST DUP3 SSTORE POP POP POP POP JUMP JUMPDEST PUSH1 0x0 SWAP1 JUMP JUMPDEST PUSH3 0x205 PUSH3 0x1F6 JUMP JUMPDEST PUSH3 0x212 DUP2 DUP5 DUP5 PUSH3 0x1CB JUMP JUMPDEST POP POP POP JUMP JUMPDEST JUMPDEST DUP2 DUP2 LT ISZERO PUSH3 0x23A JUMPI PUSH3 0x22E PUSH1 0x0 DUP3 PUSH3 0x1FB JUMP JUMPDEST PUSH1 0x1 DUP2 ADD SWAP1 POP PUSH3 0x218 JUMP JUMPDEST POP POP JUMP JUMPDEST PUSH1 0x1F DUP3 GT ISZERO PUSH3 0x289 JUMPI PUSH3 0x253 DUP2 PUSH3 0xFD JUMP JUMPDEST PUSH3 0x25E DUP5 PUSH3 0x112 JUMP JUMPDEST DUP2 ADD PUSH1 0x20 DUP6 LT ISZERO PUSH3 0x26E JUMPI DUP2 SWAP1 POP JUMPDEST PUSH3 0x286 PUSH3 0x27D DUP6 PUSH3 0x112 JUMP JUMPDEST DUP4 ADD DUP3 PUSH3 0x217 JUMP JUMPDEST POP POP JUMPDEST POP POP POP JUMP JUMPDEST PUSH1 0x0 DUP3 DUP3 SHR SWAP1 POP SWAP3 SWAP2 POP POP JUMP JUMPDEST PUSH1 0x0 PUSH3 0x2AE PUSH1 0x0 NOT DUP5 PUSH1 0x8 MUL PUSH3 0x28E JUMP JUMPDEST NOT DUP1 DUP4 AND SWAP2 POP POP SWAP3 SWAP2 POP POP JUMP JUMPDEST PUSH1 0x0 PUSH3 0x2C9 DUP4 DUP4 PUSH3 0x29B JUMP JUMPDEST SWAP2 POP DUP3 PUSH1 0x2 MUL DUP3 OR SWAP1 POP SWAP3 SWAP2 POP POP JUMP JUMPDEST PUSH3 0x2E4 DUP3 PUSH3 0x5F JUMP JUMPDEST PUSH8 0xFFFFFFFFFFFFFFFF DUP2 GT ISZERO PUSH3 0x300 JUMPI PUSH3 0x2FF PUSH3 0x6A JUMP JUMPDEST JUMPDEST PUSH3 0x30C DUP3 SLOAD PUSH3 0xC8 JUMP JUMPDEST PUSH3 0x319 DUP3 DUP3 DUP6 PUSH3 0x23E JUMP JUMPDEST PUSH1 0x0 PUSH1 0x20 SWAP1 POP PUSH1 0x1F DUP4 GT PUSH1 0x1 DUP2 EQ PUSH3 0x351 JUMPI PUSH1 0x0 DUP5 ISZERO PUSH3 0x33C JUMPI DUP3 DUP8 ADD MLOAD SWAP1 POP JUMPDEST PUSH3 0x348 DUP6 DUP3 PUSH3 0x2BB JUMP JUMPDEST DUP7 SSTORE POP PUSH3 0x3B8 JUMP JUMPDEST PUSH1 0x1F NOT DUP5 AND PUSH3 0x361 DUP7 PUSH3 0xFD JUMP JUMPDEST PUSH1 0x0 JUMPDEST DUP3 DUP2 LT ISZERO PUSH3 0x38B JUMPI DUP5 DUP10 ADD MLOAD DUP3 SSTORE PUSH1 0x1 DUP3 ADD SWAP2 POP PUSH1 0x20 DUP6 ADD SWAP5 POP PUSH1 0x20 DUP2 ADD SWAP1 POP PUSH3 0x364 JUMP JUMPDEST DUP7 DUP4 LT ISZERO PUSH3 0x3AB JUMPI DUP5 DUP10 ADD MLOAD PUSH3 0x3A7 PUSH1 0x1F DUP10 AND DUP3 PUSH3 0x29B JUMP JUMPDEST DUP4 SSTORE POP JUMPDEST PUSH1 0x1 PUSH1 0x2 DUP9 MUL ADD DUP9 SSTORE POP POP POP JUMPDEST POP POP POP POP POP POP JUMP JUMPDEST PUSH2 0x9F4 DUP1 PUSH3 0x3D0 PUSH1 0x0 CODECOPY PUSH1 0x0 RETURN INVALID PUSH1 0x80 PUSH1 0x40 MSTORE CALLVALUE DUP1 ISZERO PUSH2 0x10 JUMPI PUSH1 0x0 DUP1 REVERT JUMPDEST POP PUSH1 0x4 CALLDATASIZE LT PUSH2 0x62 JUMPI PUSH1 0x0 CALLDATALOAD PUSH1 0xE0 SHR DUP1 PUSH4 0x2CB777A6 EQ PUSH2 0x67 JUMPI DUP1 PUSH4 0x5949B1DC EQ PUSH2 0x85 JUMPI DUP1 PUSH4 0x5CE25353 EQ PUSH2 0xA1 JUMPI DUP1 PUSH4 0xC261FA36 EQ PUSH2 0xD1 JUMPI DUP1 PUSH4 0xC3CCF402 EQ PUSH2 0xEF JUMPI DUP1 PUSH4 0xCEDDB7B1 EQ PUSH2 0x10B JUMPI JUMPDEST PUSH1 0x0 DUP1 REVERT JUMPDEST PUSH2 0x6F PUSH2 0x127 JUMP JUMPDEST PUSH1 0x40 MLOAD PUSH2 0x7C SWAP2 SWAP1 PUSH2 0x26E JUMP JUMPDEST PUSH1 0x40 MLOAD DUP1 SWAP2 SUB SWAP1 RETURN JUMPDEST PUSH2 0x9F PUSH1 0x4 DUP1 CALLDATASIZE SUB DUP2 ADD SWAP1 PUSH2 0x9A SWAP2 SWAP1 PUSH2 0x2C9 JUMP JUMPDEST PUSH2 0x12D JUMP JUMPDEST STOP JUMPDEST PUSH2 0xBB PUSH1 0x4 DUP1 CALLDATASIZE SUB DUP2 ADD SWAP1 PUSH2 0xB6 SWAP2 SWAP1 PUSH2 0x43C JUMP JUMPDEST PUSH2 0x144 JUMP JUMPDEST PUSH1 0x40 MLOAD PUSH2 0xC8 SWAP2 SWAP1 PUSH2 0x4A0 JUMP JUMPDEST PUSH1 0x40 MLOAD DUP1 SWAP2 SUB SWAP1 RETURN JUMPDEST PUSH2 0xD9 PUSH2 0x19D JUMP JUMPDEST PUSH1 0x40 MLOAD PUSH2 0xE6 SWAP2 SWAP1 PUSH2 0x53A JUMP JUMPDEST PUSH1 0x40 MLOAD DUP1 SWAP2 SUB SWAP1 RETURN JUMPDEST PUSH2 0x109 PUSH1 0x4 DUP1 CALLDATASIZE SUB DUP2 ADD SWAP1 PUSH2 0x104 SWAP2 SWAP1 PUSH2 0x43C JUMP JUMPDEST PUSH2 0x22B JUMP JUMPDEST STOP JUMPDEST PUSH2 0x125 PUSH1 0x4 DUP1 CALLDATASIZE SUB DUP2 ADD SWAP1 PUSH2 0x120 SWAP2 SWAP1 PUSH2 0x2C9 JUMP JUMPDEST PUSH2 0x23E JUMP JUMPDEST STOP JUMPDEST PUSH1 0x1 SLOAD DUP2 JUMP JUMPDEST DUP1 PUSH1 0x1 SLOAD PUSH2 0x13B SWAP2 SWAP1 PUSH2 0x58B JUMP JUMPDEST PUSH1 0x1 DUP2 SWAP1 SSTORE POP POP JUMP JUMPDEST PUSH1 0x0 DUP2 PUSH1 0x40 MLOAD PUSH1 0x20 ADD PUSH2 0x157 SWAP2 SWAP1 PUSH2 0x5FB JUMP JUMPDEST PUSH1 0x40 MLOAD PUSH1 0x20 DUP2 DUP4 SUB SUB DUP2 MSTORE SWAP1 PUSH1 0x40 MSTORE DUP1 MLOAD SWAP1 PUSH1 0x20 ADD KECCAK256 PUSH1 0x0 PUSH1 0x40 MLOAD PUSH1 0x20 ADD PUSH2 0x17F SWAP2 SWAP1 PUSH2 0x70A JUMP JUMPDEST PUSH1 0x40 MLOAD PUSH1 0x20 DUP2 DUP4 SUB SUB DUP2 MSTORE SWAP1 PUSH1 0x40 MSTORE DUP1 MLOAD SWAP1 PUSH1 0x20 ADD KECCAK256 EQ SWAP1 POP SWAP2 SWAP1 POP JUMP JUMPDEST PUSH1 0x0 DUP1 SLOAD PUSH2 0x1AA SWAP1 PUSH2 0x641 JUMP JUMPDEST DUP1 PUSH1 0x1F ADD PUSH1 0x20 DUP1 SWAP2 DIV MUL PUSH1 0x20 ADD PUSH1 0x40 MLOAD SWAP1 DUP2 ADD PUSH1 0x40 MSTORE DUP1 SWAP3 SWAP2 SWAP1 DUP2 DUP2 MSTORE PUSH1 0x20 ADD DUP3 DUP1 SLOAD PUSH2 0x1D6 SWAP1 PUSH2 0x641 JUMP JUMPDEST DUP1 ISZERO PUSH2 0x223 JUMPI DUP1 PUSH1 0x1F LT PUSH2 0x1F8 JUMPI PUSH2 0x100 DUP1 DUP4 SLOAD DIV MUL DUP4 MSTORE SWAP2 PUSH1 0x20 ADD SWAP2 PUSH2 0x223 JUMP JUMPDEST DUP3 ADD SWAP2 SWAP1 PUSH1 0x0 MSTORE PUSH1 0x20 PUSH1 0x0 KECCAK256 SWAP1 JUMPDEST DUP2 SLOAD DUP2 MSTORE SWAP1 PUSH1 0x1 ADD SWAP1 PUSH1 0x20 ADD DUP1 DUP4 GT PUSH2 0x206 JUMPI DUP3 SWAP1 SUB PUSH1 0x1F AND DUP3 ADD SWAP2 JUMPDEST POP POP POP POP POP DUP2 JUMP JUMPDEST DUP1 PUSH1 0x0 SWAP1 DUP2 PUSH2 0x23A SWAP2 SWAP1 PUSH2 0x8B8 JUMP JUMPDEST POP POP JUMP JUMPDEST DUP1 PUSH1 0x1 SLOAD PUSH2 0x24C SWAP2 SWAP1 PUSH2 0x98A JUMP JUMPDEST PUSH1 0x1 DUP2 SWAP1 SSTORE POP POP JUMP JUMPDEST PUSH1 0x0 DUP2 SWAP1 POP SWAP2 SWAP1 POP JUMP JUMPDEST PUSH2 0x268 DUP2 PUSH2 0x255 JUMP JUMPDEST DUP3 MSTORE POP POP JUMP JUMPDEST PUSH1 0x0 PUSH1 0x20 DUP3 ADD SWAP1 POP PUSH2 0x283 PUSH1 0x0 DUP4 ADD DUP5 PUSH2 0x25F JUMP JUMPDEST SWAP3 SWAP2 POP POP JUMP JUMPDEST PUSH1 0x0 PUSH1 0x40 MLOAD SWAP1 POP SWAP1 JUMP JUMPDEST PUSH1 0x0 DUP1 REVERT JUMPDEST PUSH1 0x0 DUP1 REVERT JUMPDEST PUSH2 0x2A6 DUP2 PUSH2 0x255 JUMP JUMPDEST DUP2 EQ PUSH2 0x2B1 JUMPI PUSH1 0x0 DUP1 REVERT JUMPDEST POP JUMP JUMPDEST PUSH1 0x0 DUP2 CALLDATALOAD SWAP1 POP PUSH2 0x2C3 DUP2 PUSH2 0x29D JUMP JUMPDEST SWAP3 SWAP2 POP POP JUMP JUMPDEST PUSH1 0x0 PUSH1 0x20 DUP3 DUP5 SUB SLT ISZERO PUSH2 0x2DF JUMPI PUSH2 0x2DE PUSH2 0x293 JUMP JUMPDEST JUMPDEST PUSH1 0x0 PUSH2 0x2ED DUP5 DUP3 DUP6 ADD PUSH2 0x2B4 JUMP JUMPDEST SWAP2 POP POP SWAP3 SWAP2 POP POP JUMP JUMPDEST PUSH1 0x0 DUP1 REVERT JUMPDEST PUSH1 0x0 DUP1 REVERT JUMPDEST PUSH1 0x0 PUSH1 0x1F NOT PUSH1 0x1F DUP4 ADD AND SWAP1 POP SWAP2 SWAP1 POP JUMP JUMPDEST PUSH32 0x4E487B7100000000000000000000000000000000000000000000000000000000 PUSH1 0x0 MSTORE PUSH1 0x41 PUSH1 0x4 MSTORE PUSH1 0x24 PUSH1 0x0 REVERT JUMPDEST PUSH2 0x349 DUP3 PUSH2 0x300 JUMP JUMPDEST DUP2 ADD DUP2 DUP2 LT PUSH8 0xFFFFFFFFFFFFFFFF DUP3 GT OR ISZERO PUSH2 0x368 JUMPI PUSH2 0x367 PUSH2 0x311 JUMP JUMPDEST JUMPDEST DUP1 PUSH1 0x40 MSTORE POP POP POP JUMP JUMPDEST PUSH1 0x0 PUSH2 0x37B PUSH2 0x289 JUMP JUMPDEST SWAP1 POP PUSH2 0x387 DUP3 DUP3 PUSH2 0x340 JUMP JUMPDEST SWAP2 SWAP1 POP JUMP JUMPDEST PUSH1 0x0 PUSH8 0xFFFFFFFFFFFFFFFF DUP3 GT ISZERO PUSH2 0x3A7 JUMPI PUSH2 0x3A6 PUSH2 0x311 JUMP JUMPDEST JUMPDEST PUSH2 0x3B0 DUP3 PUSH2 0x300 JUMP JUMPDEST SWAP1 POP PUSH1 0x20 DUP2 ADD SWAP1 POP SWAP2 SWAP1 POP JUMP JUMPDEST DUP3 DUP2 DUP4 CALLDATACOPY PUSH1 0x0 DUP4 DUP4 ADD MSTORE POP POP POP JUMP JUMPDEST PUSH1 0x0 PUSH2 0x3DF PUSH2 0x3DA DUP5 PUSH2 0x38C JUMP JUMPDEST PUSH2 0x371 JUMP JUMPDEST SWAP1 POP DUP3 DUP2 MSTORE PUSH1 0x20 DUP2 ADD DUP5 DUP5 DUP5 ADD GT ISZERO PUSH2 0x3FB JUMPI PUSH2 0x3FA PUSH2 0x2FB JUMP JUMPDEST JUMPDEST PUSH2 0x406 DUP5 DUP3 DUP6 PUSH2 0x3BD JUMP JUMPDEST POP SWAP4 SWAP3 POP POP POP JUMP JUMPDEST PUSH1 0x0 DUP3 PUSH1 0x1F DUP4 ADD SLT PUSH2 0x423 JUMPI PUSH2 0x422 PUSH2 0x2F6 JUMP JUMPDEST JUMPDEST DUP2 CALLDATALOAD PUSH2 0x433 DUP5 DUP3 PUSH1 0x20 DUP7 ADD PUSH2 0x3CC JUMP JUMPDEST SWAP2 POP POP SWAP3 SWAP2 POP POP JUMP JUMPDEST PUSH1 0x0 PUSH1 0x20 DUP3 DUP5 SUB SLT ISZERO PUSH2 0x452 JUMPI PUSH2 0x451 PUSH2 0x293 JUMP JUMPDEST JUMPDEST PUSH1 0x0 DUP3 ADD CALLDATALOAD PUSH8 0xFFFFFFFFFFFFFFFF DUP2 GT ISZERO PUSH2 0x470 JUMPI PUSH2 0x46F PUSH2 0x298 JUMP JUMPDEST JUMPDEST PUSH2 0x47C DUP5 DUP3 DUP6 ADD PUSH2 0x40E JUMP JUMPDEST SWAP2 POP POP SWAP3 SWAP2 POP POP JUMP JUMPDEST PUSH1 0x0 DUP2 ISZERO ISZERO SWAP1 POP SWAP2 SWAP1 POP JUMP JUMPDEST PUSH2 0x49A DUP2 PUSH2 0x485 JUMP JUMPDEST DUP3 MSTORE POP POP JUMP JUMPDEST PUSH1 0x0 PUSH1 0x20 DUP3 ADD SWAP1 POP PUSH2 0x4B5 PUSH1 0x0 DUP4 ADD DUP5 PUSH2 0x491 JUMP JUMPDEST SWAP3 SWAP2 POP POP JUMP JUMPDEST PUSH1 0x0 DUP2 MLOAD SWAP1 POP SWAP2 SWAP1 POP JUMP JUMPDEST PUSH1 0x0 DUP3 DUP3 MSTORE PUSH1 0x20 DUP3 ADD SWAP1 POP SWAP3 SWAP2 POP POP JUMP JUMPDEST PUSH1 0x0 JUMPDEST DUP4 DUP2 LT ISZERO PUSH2 0x4F5 JUMPI DUP1 DUP3 ADD MLOAD DUP2 DUP5 ADD MSTORE PUSH1 0x20 DUP2 ADD SWAP1 POP PUSH2 0x4DA JUMP JUMPDEST PUSH1 0x0 DUP5 DUP5 ADD MSTORE POP POP POP POP JUMP JUMPDEST PUSH1 0x0 PUSH2 0x50C DUP3 PUSH2 0x4BB JUMP JUMPDEST PUSH2 0x516 DUP2 DUP6 PUSH2 0x4C6 JUMP JUMPDEST SWAP4 POP PUSH2 0x526 DUP2 DUP6 PUSH1 0x20 DUP7 ADD PUSH2 0x4D7 JUMP JUMPDEST PUSH2 0x52F DUP2 PUSH2 0x300 JUMP JUMPDEST DUP5 ADD SWAP2 POP POP SWAP3 SWAP2 POP POP JUMP JUMPDEST PUSH1 0x0 PUSH1 0x20 DUP3 ADD SWAP1 POP DUP2 DUP2 SUB PUSH1 0x0 DUP4 ADD MSTORE PUSH2 0x554 DUP2 DUP5 PUSH2 0x501 JUMP JUMPDEST SWAP1 POP SWAP3 SWAP2 POP POP JUMP JUMPDEST PUSH32 0x4E487B7100000000000000000000000000000000000000000000000000000000 PUSH1 0x0 MSTORE PUSH1 0x11 PUSH1 0x4 MSTORE PUSH1 0x24 PUSH1 0x0 REVERT JUMPDEST PUSH1 0x0 PUSH2 0x596 DUP3 PUSH2 0x255 JUMP JUMPDEST SWAP2 POP PUSH2 0x5A1 DUP4 PUSH2 0x255 JUMP JUMPDEST SWAP3 POP DUP3 DUP3 SUB SWAP1 POP DUP2 DUP2 GT ISZERO PUSH2 0x5B9 JUMPI PUSH2 0x5B8 PUSH2 0x55C JUMP JUMPDEST JUMPDEST SWAP3 SWAP2 POP POP JUMP JUMPDEST PUSH1 0x0 DUP2 SWAP1 POP SWAP3 SWAP2 POP POP JUMP JUMPDEST PUSH1 0x0 PUSH2 0x5D5 DUP3 PUSH2 0x4BB JUMP JUMPDEST PUSH2 0x5DF DUP2 DUP6 PUSH2 0x5BF JUMP JUMPDEST SWAP4 POP PUSH2 0x5EF DUP2 DUP6 PUSH1 0x20 DUP7 ADD PUSH2 0x4D7 JUMP JUMPDEST DUP1 DUP5 ADD SWAP2 POP POP SWAP3 SWAP2 POP POP JUMP JUMPDEST PUSH1 0x0 PUSH2 0x607 DUP3 DUP5 PUSH2 0x5CA JUMP JUMPDEST SWAP2 POP DUP2 SWAP1 POP SWAP3 SWAP2 POP POP JUMP JUMPDEST PUSH32 0x4E487B7100000000000000000000000000000000000000000000000000000000 PUSH1 0x0 MSTORE PUSH1 0x22 PUSH1 0x4 MSTORE PUSH1 0x24 PUSH1 0x0 REVERT JUMPDEST PUSH1 0x0 PUSH1 0x2 DUP3 DIV SWAP1 POP PUSH1 0x1 DUP3 AND DUP1 PUSH2 0x659 JUMPI PUSH1 0x7F DUP3 AND SWAP2 POP JUMPDEST PUSH1 0x20 DUP3 LT DUP2 SUB PUSH2 0x66C JUMPI PUSH2 0x66B PUSH2 0x612 JUMP JUMPDEST JUMPDEST POP SWAP2 SWAP1 POP JUMP JUMPDEST PUSH1 0x0 DUP2 SWAP1 POP DUP2 PUSH1 0x0 MSTORE PUSH1 0x20 PUSH1 0x0 KECCAK256 SWAP1 POP SWAP2 SWAP1 POP JUMP JUMPDEST PUSH1 0x0 DUP2 SLOAD PUSH2 0x694 DUP2 PUSH2 0x641 JUMP JUMPDEST PUSH2 0x69E DUP2 DUP7 PUSH2 0x5BF JUMP JUMPDEST SWAP5 POP PUSH1 0x1 DUP3 AND PUSH1 0x0 DUP2 EQ PUSH2 0x6B9 JUMPI PUSH1 0x1 DUP2 EQ PUSH2 0x6CE JUMPI PUSH2 0x701 JUMP JUMPDEST PUSH1 0xFF NOT DUP4 AND DUP7 MSTORE DUP2 ISZERO ISZERO DUP3 MUL DUP7 ADD SWAP4 POP PUSH2 0x701 JUMP JUMPDEST PUSH2 0x6D7 DUP6 PUSH2 0x672 JUMP JUMPDEST PUSH1 0x0 JUMPDEST DUP4 DUP2 LT ISZERO PUSH2 0x6F9 JUMPI DUP2 SLOAD DUP2 DUP10 ADD MSTORE PUSH1 0x1 DUP3 ADD SWAP2 POP PUSH1 0x20 DUP2 ADD SWAP1 POP PUSH2 0x6DA JUMP JUMPDEST DUP4 DUP9 ADD SWAP6 POP POP POP JUMPDEST POP POP POP SWAP3 SWAP2 POP POP JUMP JUMPDEST PUSH1 0x0 PUSH2 0x716 DUP3 DUP5 PUSH2 0x687 JUMP JUMPDEST SWAP2 POP DUP2 SWAP1 POP SWAP3 SWAP2 POP POP JUMP JUMPDEST PUSH1 0x0 PUSH1 0x20 PUSH1 0x1F DUP4 ADD DIV SWAP1 POP SWAP2 SWAP1 POP JUMP JUMPDEST PUSH1 0x0 DUP3 DUP3 SHL SWAP1 POP SWAP3 SWAP2 POP POP JUMP JUMPDEST PUSH1 0x0 PUSH1 0x8 DUP4 MUL PUSH2 0x76E PUSH32 0xFFFFFFFFFFFFFFFFFFFFFFFFFFFFFFFFFFFFFFFFFFFFFFFFFFFFFFFFFFFFFFFF DUP3 PUSH2 0x731 JUMP JUMPDEST PUSH2 0x778 DUP7 DUP4 PUSH2 0x731 JUMP JUMPDEST SWAP6 POP DUP1 NOT DUP5 AND SWAP4 POP DUP1 DUP7 AND DUP5 OR SWAP3 POP POP POP SWAP4 SWAP3 POP POP POP JUMP JUMPDEST PUSH1 0x0 DUP2 SWAP1 POP SWAP2 SWAP1 POP JUMP JUMPDEST PUSH1 0x0 PUSH2 0x7B5 PUSH2 0x7B0 PUSH2 0x7AB DUP5 PUSH2 0x255 JUMP JUMPDEST PUSH2 0x790 JUMP JUMPDEST PUSH2 0x255 JUMP JUMPDEST SWAP1 POP SWAP2 SWAP1 POP JUMP JUMPDEST PUSH1 0x0 DUP2 SWAP1 POP SWAP2 SWAP1 POP JUMP JUMPDEST PUSH2 0x7CF DUP4 PUSH2 0x79A JUMP JUMPDEST PUSH2 0x7E3 PUSH2 0x7DB DUP3 PUSH2 0x7BC JUMP JUMPDEST DUP5 DUP5 SLOAD PUSH2 0x73E JUMP JUMPDEST DUP3 SSTORE POP POP POP POP JUMP JUMPDEST PUSH1 0x0 SWAP1 JUMP JUMPDEST PUSH2 0x7F8 PUSH2 0x7EB JUMP JUMPDEST PUSH2 0x803 DUP2 DUP5 DUP5 PUSH2 0x7C6 JUMP JUMPDEST POP POP POP JUMP JUMPDEST JUMPDEST DUP2 DUP2 LT ISZERO PUSH2 0x827 JUMPI PUSH2 0x81C PUSH1 0x0 DUP3 PUSH2 0x7F0 JUMP JUMPDEST PUSH1 0x1 DUP2 ADD SWAP1 POP PUSH2 0x809 JUMP JUMPDEST POP POP JUMP JUMPDEST PUSH1 0x1F DUP3 GT ISZERO PUSH2 0x86C JUMPI PUSH2 0x83D DUP2 PUSH2 0x672 JUMP JUMPDEST PUSH2 0x846 DUP5 PUSH2 0x721 JUMP JUMPDEST DUP2 ADD PUSH1 0x20 DUP6 LT ISZERO PUSH2 0x855 JUMPI DUP2 SWAP1 POP JUMPDEST PUSH2 0x869 PUSH2 0x861 DUP6 PUSH2 0x721 JUMP JUMPDEST DUP4 ADD DUP3 PUSH2 0x808 JUMP JUMPDEST POP POP JUMPDEST POP POP POP JUMP JUMPDEST PUSH1 0x0 DUP3 DUP3 SHR SWAP1 POP SWAP3 SWAP2 POP POP JUMP JUMPDEST PUSH1 0x0 PUSH2 0x88F PUSH1 0x0 NOT DUP5 PUSH1 0x8 MUL PUSH2 0x871 JUMP JUMPDEST NOT DUP1 DUP4 AND SWAP2 POP POP SWAP3 SWAP2 POP POP JUMP JUMPDEST PUSH1 0x0 PUSH2 0x8A8 DUP4 DUP4 PUSH2 0x87E JUMP JUMPDEST SWAP2 POP DUP3 PUSH1 0x2 MUL DUP3 OR SWAP1 POP SWAP3 SWAP2 POP POP JUMP JUMPDEST PUSH2 0x8C1 DUP3 PUSH2 0x4BB JUMP JUMPDEST PUSH8 0xFFFFFFFFFFFFFFFF DUP2 GT ISZERO PUSH2 0x8DA JUMPI PUSH2 0x8D9 PUSH2 0x311 JUMP JUMPDEST JUMPDEST PUSH2 0x8E4 DUP3 SLOAD PUSH2 0x641 JUMP JUMPDEST PUSH2 0x8EF DUP3 DUP3 DUP6 PUSH2 0x82B JUMP JUMPDEST PUSH1 0x0 PUSH1 0x20 SWAP1 POP PUSH1 0x1F DUP4 GT PUSH1 0x1 DUP2 EQ PUSH2 0x922 JUMPI PUSH1 0x0 DUP5 ISZERO PUSH2 0x910 JUMPI DUP3 DUP8 ADD MLOAD SWAP1 POP JUMPDEST PUSH2 0x91A DUP6 DUP3 PUSH2 0x89C JUMP JUMPDEST DUP7 SSTORE POP PUSH2 0x982 JUMP JUMPDEST PUSH1 0x1F NOT DUP5 AND PUSH2 0x930 DUP7 PUSH2 0x672 JUMP JUMPDEST PUSH1 0x0 JUMPDEST DUP3 DUP2 LT ISZERO PUSH2 0x958 JUMPI DUP5 DUP10 ADD MLOAD DUP3 SSTORE PUSH1 0x1 DUP3 ADD SWAP2 POP PUSH1 0x20 DUP6 ADD SWAP5 POP PUSH1 0x20 DUP2 ADD SWAP1 POP PUSH2 0x933 JUMP JUMPDEST DUP7 DUP4 LT ISZERO PUSH2 0x975 JUMPI DUP5 DUP10 ADD MLOAD PUSH2 0x971 PUSH1 0x1F DUP10 AND DUP3 PUSH2 0x87E JUMP JUMPDEST DUP4 SSTORE POP JUMPDEST PUSH1 0x1 PUSH1 0x2 DUP9 MUL ADD DUP9 SSTORE POP POP POP JUMPDEST POP POP POP POP POP POP JUMP JUMPDEST PUSH1 0x0 PUSH2 0x995 DUP3 PUSH2 0x255 JUMP JUMPDEST SWAP2 POP PUSH2 0x9A0 DUP4 PUSH2 0x255 JUMP JUMPDEST SWAP3 POP DUP3 DUP3 ADD SWAP1 POP DUP1 DUP3 GT ISZERO PUSH2 0x9B8 JUMPI PUSH2 0x9B7 PUSH2 0x55C JUMP JUMPDEST JUMPDEST SWAP3 SWAP2 POP POP JUMP INVALID LOG2 PUSH5 0x6970667358 0x22 SLT KECCAK256 0xA6 PUSH20 0x655523757FF262872E50044352C1357476177B70 LOG4 0xF7 CALLVALUE 0xFB STATICCALL 0x4D PUSH5 0x44F6906473 PUSH16 0x6C634300081300330000000000000000 "
		},
		"gasEstimates": {
			"creation": {
				"codeDepositCost": "509600",
				"executionCost": "infinite",
				"totalCost": "infinite"
			},
			"external": {
				"compareTwoStrings(string)": "infinite",
				"decrementMyInt(uint256)": "infinite",
				"incrementMyInt(uint256)": "infinite",
				"myInt()": "2407",
				"mystring()": "infinite",
				"updateString(string)": "infinite"
			}
		},
		"methodIdentifiers": {
			"compareTwoStrings(string)": "5ce25353",
			"decrementMyInt(uint256)": "5949b1dc",
			"incrementMyInt(uint256)": "ceddb7b1",
			"myInt()": "2cb777a6",
			"mystring()": "c261fa36",
			"updateString(string)": "c3ccf402"
		}
	},
	"abi": [
		{
			"inputs": [
				{
					"internalType": "string",
					"name": "_mystring",
					"type": "string"
				}
			],
			"name": "compareTwoStrings",
			"outputs": [
				{
					"internalType": "bool",
					"name": "",
					"type": "bool"
				}
			],
			"stateMutability": "view",
			"type": "function"
		},
		{
			"inputs": [
				{
					"internalType": "uint256",
					"name": "_myint",
					"type": "uint256"
				}
			],
			"name": "decrementMyInt",
			"outputs": [],
			"stateMutability": "nonpayable",
			"type": "function"
		},
		{
			"inputs": [
				{
					"internalType": "uint256",
					"name": "_myint",
					"type": "uint256"
				}
			],
			"name": "incrementMyInt",
			"outputs": [],
			"stateMutability": "nonpayable",
			"type": "function"
		},
		{
			"inputs": [],
			"name": "myInt",
			"outputs": [
				{
					"internalType": "uint256",
					"name": "",
					"type": "uint256"
				}
			],
			"stateMutability": "view",
			"type": "function"
		},
		{
			"inputs": [],
			"name": "mystring",
			"outputs": [
				{
					"internalType": "string",
					"name": "",
					"type": "string"
				}
			],
			"stateMutability": "view",
			"type": "function"
		},
		{
			"inputs": [
				{
					"internalType": "string",
					"name": "_newString",
					"type": "string"
				}
			],
			"name": "updateString",
			"outputs": [],
			"stateMutability": "nonpayable",
			"type": "function"
		}
	]
}