{
	"remix-project-files/Raffle.sol": {
		"Raffle": {
			"abi": [
				{
					"inputs": [
						{
							"internalType": "uint64",
							"name": "subscriptionId",
							"type": "uint64"
						}
					],
					"stateMutability": "nonpayable",
					"type": "constructor"
				},
				{
					"inputs": [
						{
							"internalType": "address",
							"name": "have",
							"type": "address"
						},
						{
							"internalType": "address",
							"name": "want",
							"type": "address"
						}
					],
					"name": "OnlyCoordinatorCanFulfill",
					"type": "error"
				},
				{
					"anonymous": false,
					"inputs": [
						{
							"indexed": true,
							"internalType": "address",
							"name": "from",
							"type": "address"
						},
						{
							"indexed": true,
							"internalType": "address",
							"name": "to",
							"type": "address"
						}
					],
					"name": "OwnershipTransferRequested",
					"type": "event"
				},
				{
					"anonymous": false,
					"inputs": [
						{
							"indexed": true,
							"internalType": "address",
							"name": "from",
							"type": "address"
						},
						{
							"indexed": true,
							"internalType": "address",
							"name": "to",
							"type": "address"
						}
					],
					"name": "OwnershipTransferred",
					"type": "event"
				},
				{
					"anonymous": false,
					"inputs": [
						{
							"indexed": false,
							"internalType": "uint256",
							"name": "requestId",
							"type": "uint256"
						},
						{
							"indexed": false,
							"internalType": "uint256[]",
							"name": "randomWords",
							"type": "uint256[]"
						}
					],
					"name": "RequestFulfilled",
					"type": "event"
				},
				{
					"anonymous": false,
					"inputs": [
						{
							"indexed": false,
							"internalType": "uint256",
							"name": "requestId",
							"type": "uint256"
						},
						{
							"indexed": false,
							"internalType": "uint32",
							"name": "numWords",
							"type": "uint32"
						}
					],
					"name": "RequestSent",
					"type": "event"
				},
				{
					"inputs": [],
					"name": "acceptOwnership",
					"outputs": [],
					"stateMutability": "nonpayable",
					"type": "function"
				},
				{
					"inputs": [
						{
							"internalType": "uint32",
							"name": "quant",
							"type": "uint32"
						},
						{
							"internalType": "uint256",
							"name": "max",
							"type": "uint256"
						}
					],
					"name": "execute",
					"outputs": [
						{
							"internalType": "uint256",
							"name": "requestId",
							"type": "uint256"
						}
					],
					"stateMutability": "nonpayable",
					"type": "function"
				},
				{
					"inputs": [
						{
							"internalType": "uint256",
							"name": "",
							"type": "uint256"
						}
					],
					"name": "lastRandomWords",
					"outputs": [
						{
							"internalType": "uint256",
							"name": "",
							"type": "uint256"
						}
					],
					"stateMutability": "view",
					"type": "function"
				},
				{
					"inputs": [],
					"name": "lastRequestId",
					"outputs": [
						{
							"internalType": "uint256",
							"name": "",
							"type": "uint256"
						}
					],
					"stateMutability": "view",
					"type": "function"
				},
				{
					"inputs": [],
					"name": "listNumbers",
					"outputs": [
						{
							"internalType": "uint256[]",
							"name": "",
							"type": "uint256[]"
						}
					],
					"stateMutability": "view",
					"type": "function"
				},
				{
					"inputs": [],
					"name": "maximum",
					"outputs": [
						{
							"internalType": "uint256",
							"name": "",
							"type": "uint256"
						}
					],
					"stateMutability": "view",
					"type": "function"
				},
				{
					"inputs": [],
					"name": "owner",
					"outputs": [
						{
							"internalType": "address",
							"name": "",
							"type": "address"
						}
					],
					"stateMutability": "view",
					"type": "function"
				},
				{
					"inputs": [
						{
							"internalType": "uint256",
							"name": "",
							"type": "uint256"
						}
					],
					"name": "raffleResult",
					"outputs": [
						{
							"internalType": "uint256",
							"name": "",
							"type": "uint256"
						}
					],
					"stateMutability": "view",
					"type": "function"
				},
				{
					"inputs": [
						{
							"internalType": "uint256",
							"name": "requestId",
							"type": "uint256"
						},
						{
							"internalType": "uint256[]",
							"name": "randomWords",
							"type": "uint256[]"
						}
					],
					"name": "rawFulfillRandomWords",
					"outputs": [],
					"stateMutability": "nonpayable",
					"type": "function"
				},
				{
					"inputs": [
						{
							"internalType": "uint256",
							"name": "",
							"type": "uint256"
						}
					],
					"name": "requestIds",
					"outputs": [
						{
							"internalType": "uint256",
							"name": "",
							"type": "uint256"
						}
					],
					"stateMutability": "view",
					"type": "function"
				},
				{
					"inputs": [
						{
							"internalType": "uint256",
							"name": "",
							"type": "uint256"
						}
					],
					"name": "s_requests",
					"outputs": [
						{
							"internalType": "bool",
							"name": "fulfilled",
							"type": "bool"
						},
						{
							"internalType": "bool",
							"name": "exists",
							"type": "bool"
						}
					],
					"stateMutability": "view",
					"type": "function"
				},
				{
					"inputs": [],
					"name": "s_subscriptionId",
					"outputs": [
						{
							"internalType": "uint64",
							"name": "",
							"type": "uint64"
						}
					],
					"stateMutability": "view",
					"type": "function"
				},
				{
					"inputs": [
						{
							"internalType": "uint256",
							"name": "",
							"type": "uint256"
						}
					],
					"name": "selected",
					"outputs": [
						{
							"internalType": "bool",
							"name": "",
							"type": "bool"
						}
					],
					"stateMutability": "view",
					"type": "function"
				},
				{
					"inputs": [
						{
							"internalType": "address",
							"name": "to",
							"type": "address"
						}
					],
					"name": "transferOwnership",
					"outputs": [],
					"stateMutability": "nonpayable",
					"type": "function"
				}
			],
			"devdoc": {
				"kind": "dev",
				"methods": {},
				"version": 1
			},
			"evm": {
				"assembly": "    /* \"remix-project-files/Raffle.sol\":269:3090  contract Raffle is VRFConsumerBaseV2, ConfirmedOwner {... */\n  mstore(0x40, 0xa0)\n    /* \"remix-project-files/Raffle.sol\":851:893  0x7a1BaC17Ccc5b313516C5E16fb24f7659aA5ebed */\n  0x7a1bac17ccc5b313516c5e16fb24f7659aa5ebed\n    /* \"remix-project-files/Raffle.sol\":826:893  address vrfCoordinator = 0x7a1BaC17Ccc5b313516C5E16fb24f7659aA5ebed */\n  0x04\n  exp(0x0100, 0x00)\n  dup2\n  sload\n  dup2\n  0xffffffffffffffffffffffffffffffffffffffff\n  mul\n  not\n  and\n  swap1\n  dup4\n  0xffffffffffffffffffffffffffffffffffffffff\n  and\n  mul\n  or\n  swap1\n  sstore\n  pop\n    /* \"remix-project-files/Raffle.sol\":917:983  0x4b09e658ed251bcafeebbc69400383d49f344ace09b9576fe248bb02c003fe9f */\n  0x4b09e658ed251bcafeebbc69400383d49f344ace09b9576fe248bb02c003fe9f\n    /* \"remix-project-files/Raffle.sol\":899:983  bytes32 keyHash = 0x4b09e658ed251bcafeebbc69400383d49f344ace09b9576fe248bb02c003fe9f */\n  0x00\n  shl\n  0x05\n  sstore\n    /* \"remix-project-files/Raffle.sol\":1015:1022  2500000 */\n  0x2625a0\n    /* \"remix-project-files/Raffle.sol\":989:1022  uint32 callbackGasLimit = 2500000 */\n  0x06\n  exp(0x0100, 0x00)\n  dup2\n  sload\n  dup2\n  0xffffffff\n  mul\n  not\n  and\n  swap1\n  dup4\n  0xffffffff\n  and\n  mul\n  or\n  swap1\n  sstore\n  pop\n    /* \"remix-project-files/Raffle.sol\":1058:1059  3 */\n  0x03\n    /* \"remix-project-files/Raffle.sol\":1028:1059  uint16 requestConfirmations = 3 */\n  0x06\n  exp(0x0100, 0x04)\n  dup2\n  sload\n  dup2\n  0xffff\n  mul\n  not\n  and\n  swap1\n  dup4\n  0xffff\n  and\n  mul\n  or\n  swap1\n  sstore\n  pop\n    /* \"remix-project-files/Raffle.sol\":1084:1085  3 */\n  0x03\n    /* \"remix-project-files/Raffle.sol\":1065:1085  uint32 numWords =  3 */\n  0x06\n  dup1\n  0x0100\n  exp\n  dup2\n  sload\n  dup2\n  0xffffffff\n  mul\n  not\n  and\n  swap1\n  dup4\n  0xffffffff\n  and\n  mul\n  or\n  swap1\n  sstore\n  pop\n    /* \"remix-project-files/Raffle.sol\":1402:1633  constructor(uint64 subscriptionId)... */\n  callvalue\n  dup1\n  iszero\n  tag_1\n  jumpi\n  0x00\n  dup1\n  revert\ntag_1:\n  pop\n  mload(0x40)\n  sub(codesize, bytecodeSize)\n  dup1\n  bytecodeSize\n  dup4\n  codecopy\n  dup2\n  dup2\n  add\n  0x40\n  mstore\n  dup2\n  add\n  swap1\n  tag_2\n  swap2\n  swap1\n  tag_3\n  jump\t// in\ntag_2:\n    /* \"remix-project-files/Raffle.sol\":1502:1512  msg.sender */\n  caller\n    /* \"@chainlink/contracts/src/v0.8/ConfirmedOwner.sol\":327:335  newOwner */\n  dup1\n    /* \"@chainlink/contracts/src/v0.8/ConfirmedOwner.sol\":345:346  0 */\n  0x00\n    /* \"remix-project-files/Raffle.sol\":1463:1477  vrfCoordinator */\n  0x04\n  0x00\n  swap1\n  sload\n  swap1\n  0x0100\n  exp\n  swap1\n  div\n  0xffffffffffffffffffffffffffffffffffffffff\n  and\n    /* \"@chainlink/contracts/src/v0.8/VRFConsumerBaseV2.sol\":5616:5631  _vrfCoordinator */\n  dup1\n    /* \"@chainlink/contracts/src/v0.8/VRFConsumerBaseV2.sol\":5599:5631  vrfCoordinator = _vrfCoordinator */\n  0xffffffffffffffffffffffffffffffffffffffff\n  and\n  0x80\n  dup2\n  0xffffffffffffffffffffffffffffffffffffffff\n  and\n  dup2\n  mstore\n  pop\n  pop\n    /* \"@chainlink/contracts/src/v0.8/VRFConsumerBaseV2.sol\":5556:5636  constructor(address _vrfCoordinator) {... */\n  pop\n    /* \"@chainlink/contracts/src/v0.8/ConfirmedOwnerWithProposal.sol\":572:573  0 */\n  0x00\n    /* \"@chainlink/contracts/src/v0.8/ConfirmedOwnerWithProposal.sol\":552:574  newOwner != address(0) */\n  0xffffffffffffffffffffffffffffffffffffffff\n  and\n    /* \"@chainlink/contracts/src/v0.8/ConfirmedOwnerWithProposal.sol\":552:560  newOwner */\n  dup3\n    /* \"@chainlink/contracts/src/v0.8/ConfirmedOwnerWithProposal.sol\":552:574  newOwner != address(0) */\n  0xffffffffffffffffffffffffffffffffffffffff\n  and\n  sub\n    /* \"@chainlink/contracts/src/v0.8/ConfirmedOwnerWithProposal.sol\":544:603  require(newOwner != address(0), \"Cannot set owner to zero\") */\n  tag_10\n  jumpi\n  mload(0x40)\n  0x08c379a000000000000000000000000000000000000000000000000000000000\n  dup2\n  mstore\n  0x04\n  add\n  tag_11\n  swap1\n  tag_12\n  jump\t// in\ntag_11:\n  mload(0x40)\n  dup1\n  swap2\n  sub\n  swap1\n  revert\ntag_10:\n    /* \"@chainlink/contracts/src/v0.8/ConfirmedOwnerWithProposal.sol\":620:628  newOwner */\n  dup2\n    /* \"@chainlink/contracts/src/v0.8/ConfirmedOwnerWithProposal.sol\":610:617  s_owner */\n  0x00\n  dup1\n    /* \"@chainlink/contracts/src/v0.8/ConfirmedOwnerWithProposal.sol\":610:628  s_owner = newOwner */\n  0x0100\n  exp\n  dup2\n  sload\n  dup2\n  0xffffffffffffffffffffffffffffffffffffffff\n  mul\n  not\n  and\n  swap1\n  dup4\n  0xffffffffffffffffffffffffffffffffffffffff\n  and\n  mul\n  or\n  swap1\n  sstore\n  pop\n    /* \"@chainlink/contracts/src/v0.8/ConfirmedOwnerWithProposal.sol\":662:663  0 */\n  0x00\n    /* \"@chainlink/contracts/src/v0.8/ConfirmedOwnerWithProposal.sol\":638:664  pendingOwner != address(0) */\n  0xffffffffffffffffffffffffffffffffffffffff\n  and\n    /* \"@chainlink/contracts/src/v0.8/ConfirmedOwnerWithProposal.sol\":638:650  pendingOwner */\n  dup2\n    /* \"@chainlink/contracts/src/v0.8/ConfirmedOwnerWithProposal.sol\":638:664  pendingOwner != address(0) */\n  0xffffffffffffffffffffffffffffffffffffffff\n  and\n  eq\n    /* \"@chainlink/contracts/src/v0.8/ConfirmedOwnerWithProposal.sol\":634:713  if (pendingOwner != address(0)) {... */\n  tag_13\n  jumpi\n    /* \"@chainlink/contracts/src/v0.8/ConfirmedOwnerWithProposal.sol\":674:706  _transferOwnership(pendingOwner) */\n  tag_14\n    /* \"@chainlink/contracts/src/v0.8/ConfirmedOwnerWithProposal.sol\":693:705  pendingOwner */\n  dup2\n    /* \"@chainlink/contracts/src/v0.8/ConfirmedOwnerWithProposal.sol\":674:692  _transferOwnership */\n  shl(0x20, tag_15)\n    /* \"@chainlink/contracts/src/v0.8/ConfirmedOwnerWithProposal.sol\":674:706  _transferOwnership(pendingOwner) */\n  0x20\n  shr\n  jump\t// in\ntag_14:\n    /* \"@chainlink/contracts/src/v0.8/ConfirmedOwnerWithProposal.sol\":634:713  if (pendingOwner != address(0)) {... */\ntag_13:\n    /* \"@chainlink/contracts/src/v0.8/ConfirmedOwnerWithProposal.sol\":486:717  constructor(address newOwner, address pendingOwner) {... */\n  pop\n  pop\n    /* \"@chainlink/contracts/src/v0.8/ConfirmedOwner.sol\":270:351  constructor(address newOwner) ConfirmedOwnerWithProposal(newOwner, address(0)) {} */\n  pop\n    /* \"remix-project-files/Raffle.sol\":1568:1582  vrfCoordinator */\n  0x04\n  0x00\n  swap1\n  sload\n  swap1\n  0x0100\n  exp\n  swap1\n  div\n  0xffffffffffffffffffffffffffffffffffffffff\n  and\n    /* \"remix-project-files/Raffle.sol\":1528:1539  COORDINATOR */\n  0x03\n  0x00\n    /* \"remix-project-files/Raffle.sol\":1528:1583  COORDINATOR = VRFCoordinatorV2Interface(vrfCoordinator) */\n  0x0100\n  exp\n  dup2\n  sload\n  dup2\n  0xffffffffffffffffffffffffffffffffffffffff\n  mul\n  not\n  and\n  swap1\n  dup4\n  0xffffffffffffffffffffffffffffffffffffffff\n  and\n  mul\n  or\n  swap1\n  sstore\n  pop\n    /* \"remix-project-files/Raffle.sol\":1612:1626  subscriptionId */\n  dup1\n    /* \"remix-project-files/Raffle.sol\":1593:1609  s_subscriptionId */\n  0x0a\n  0x00\n    /* \"remix-project-files/Raffle.sol\":1593:1626  s_subscriptionId = subscriptionId */\n  0x0100\n  exp\n  dup2\n  sload\n  dup2\n  0xffffffffffffffff\n  mul\n  not\n  and\n  swap1\n  dup4\n  0xffffffffffffffff\n  and\n  mul\n  or\n  swap1\n  sstore\n  pop\n    /* \"remix-project-files/Raffle.sol\":1402:1633  constructor(uint64 subscriptionId)... */\n  pop\n    /* \"remix-project-files/Raffle.sol\":269:3090  contract Raffle is VRFConsumerBaseV2, ConfirmedOwner {... */\n  jump(tag_18)\n    /* \"@chainlink/contracts/src/v0.8/ConfirmedOwnerWithProposal.sol\":1497:1685  function _transferOwnership(address to) private {... */\ntag_15:\n    /* \"@chainlink/contracts/src/v0.8/ConfirmedOwnerWithProposal.sol\":1565:1575  msg.sender */\n  caller\n    /* \"@chainlink/contracts/src/v0.8/ConfirmedOwnerWithProposal.sol\":1559:1575  to != msg.sender */\n  0xffffffffffffffffffffffffffffffffffffffff\n  and\n    /* \"@chainlink/contracts/src/v0.8/ConfirmedOwnerWithProposal.sol\":1559:1561  to */\n  dup2\n    /* \"@chainlink/contracts/src/v0.8/ConfirmedOwnerWithProposal.sol\":1559:1575  to != msg.sender */\n  0xffffffffffffffffffffffffffffffffffffffff\n  and\n  sub\n    /* \"@chainlink/contracts/src/v0.8/ConfirmedOwnerWithProposal.sol\":1551:1603  require(to != msg.sender, \"Cannot transfer to self\") */\n  tag_20\n  jumpi\n  mload(0x40)\n  0x08c379a000000000000000000000000000000000000000000000000000000000\n  dup2\n  mstore\n  0x04\n  add\n  tag_21\n  swap1\n  tag_22\n  jump\t// in\ntag_21:\n  mload(0x40)\n  dup1\n  swap2\n  sub\n  swap1\n  revert\ntag_20:\n    /* \"@chainlink/contracts/src/v0.8/ConfirmedOwnerWithProposal.sol\":1627:1629  to */\n  dup1\n    /* \"@chainlink/contracts/src/v0.8/ConfirmedOwnerWithProposal.sol\":1610:1624  s_pendingOwner */\n  0x01\n  0x00\n    /* \"@chainlink/contracts/src/v0.8/ConfirmedOwnerWithProposal.sol\":1610:1629  s_pendingOwner = to */\n  0x0100\n  exp\n  dup2\n  sload\n  dup2\n  0xffffffffffffffffffffffffffffffffffffffff\n  mul\n  not\n  and\n  swap1\n  dup4\n  0xffffffffffffffffffffffffffffffffffffffff\n  and\n  mul\n  or\n  swap1\n  sstore\n  pop\n    /* \"@chainlink/contracts/src/v0.8/ConfirmedOwnerWithProposal.sol\":1677:1679  to */\n  dup1\n    /* \"@chainlink/contracts/src/v0.8/ConfirmedOwnerWithProposal.sol\":1641:1680  OwnershipTransferRequested(s_owner, to) */\n  0xffffffffffffffffffffffffffffffffffffffff\n  and\n    /* \"@chainlink/contracts/src/v0.8/ConfirmedOwnerWithProposal.sol\":1668:1675  s_owner */\n  0x00\n  dup1\n  sload\n  swap1\n  0x0100\n  exp\n  swap1\n  div\n  0xffffffffffffffffffffffffffffffffffffffff\n  and\n    /* \"@chainlink/contracts/src/v0.8/ConfirmedOwnerWithProposal.sol\":1641:1680  OwnershipTransferRequested(s_owner, to) */\n  0xffffffffffffffffffffffffffffffffffffffff\n  and\n  0xed8889f560326eb138920d842192f0eb3dd22b4f139c87a2c57538e05bae1278\n  mload(0x40)\n  mload(0x40)\n  dup1\n  swap2\n  sub\n  swap1\n  log3\n    /* \"@chainlink/contracts/src/v0.8/ConfirmedOwnerWithProposal.sol\":1497:1685  function _transferOwnership(address to) private {... */\n  pop\n  jump\t// out\n    /* \"#utility.yul\":88:205   */\ntag_24:\n    /* \"#utility.yul\":197:198   */\n  0x00\n    /* \"#utility.yul\":194:195   */\n  dup1\n    /* \"#utility.yul\":187:199   */\n  revert\n    /* \"#utility.yul\":334:435   */\ntag_26:\n    /* \"#utility.yul\":370:377   */\n  0x00\n    /* \"#utility.yul\":410:428   */\n  0xffffffffffffffff\n    /* \"#utility.yul\":403:408   */\n  dup3\n    /* \"#utility.yul\":399:429   */\n  and\n    /* \"#utility.yul\":388:429   */\n  swap1\n  pop\n    /* \"#utility.yul\":334:435   */\n  swap2\n  swap1\n  pop\n  jump\t// out\n    /* \"#utility.yul\":441:561   */\ntag_27:\n    /* \"#utility.yul\":513:536   */\n  tag_40\n    /* \"#utility.yul\":530:535   */\n  dup2\n    /* \"#utility.yul\":513:536   */\n  tag_26\n  jump\t// in\ntag_40:\n    /* \"#utility.yul\":506:511   */\n  dup2\n    /* \"#utility.yul\":503:537   */\n  eq\n    /* \"#utility.yul\":493:555   */\n  tag_41\n  jumpi\n    /* \"#utility.yul\":551:552   */\n  0x00\n    /* \"#utility.yul\":548:549   */\n  dup1\n    /* \"#utility.yul\":541:553   */\n  revert\n    /* \"#utility.yul\":493:555   */\ntag_41:\n    /* \"#utility.yul\":441:561   */\n  pop\n  jump\t// out\n    /* \"#utility.yul\":567:708   */\ntag_28:\n    /* \"#utility.yul\":623:628   */\n  0x00\n    /* \"#utility.yul\":654:660   */\n  dup2\n    /* \"#utility.yul\":648:661   */\n  mload\n    /* \"#utility.yul\":639:661   */\n  swap1\n  pop\n    /* \"#utility.yul\":670:702   */\n  tag_43\n    /* \"#utility.yul\":696:701   */\n  dup2\n    /* \"#utility.yul\":670:702   */\n  tag_27\n  jump\t// in\ntag_43:\n    /* \"#utility.yul\":567:708   */\n  swap3\n  swap2\n  pop\n  pop\n  jump\t// out\n    /* \"#utility.yul\":714:1063   */\ntag_3:\n    /* \"#utility.yul\":783:789   */\n  0x00\n    /* \"#utility.yul\":832:834   */\n  0x20\n    /* \"#utility.yul\":820:829   */\n  dup3\n    /* \"#utility.yul\":811:818   */\n  dup5\n    /* \"#utility.yul\":807:830   */\n  sub\n    /* \"#utility.yul\":803:835   */\n  slt\n    /* \"#utility.yul\":800:919   */\n  iszero\n  tag_45\n  jumpi\n    /* \"#utility.yul\":838:917   */\n  tag_46\n  tag_24\n  jump\t// in\ntag_46:\n    /* \"#utility.yul\":800:919   */\ntag_45:\n    /* \"#utility.yul\":958:959   */\n  0x00\n    /* \"#utility.yul\":983:1046   */\n  tag_47\n    /* \"#utility.yul\":1038:1045   */\n  dup5\n    /* \"#utility.yul\":1029:1035   */\n  dup3\n    /* \"#utility.yul\":1018:1027   */\n  dup6\n    /* \"#utility.yul\":1014:1036   */\n  add\n    /* \"#utility.yul\":983:1046   */\n  tag_28\n  jump\t// in\ntag_47:\n    /* \"#utility.yul\":973:1046   */\n  swap2\n  pop\n    /* \"#utility.yul\":929:1056   */\n  pop\n    /* \"#utility.yul\":714:1063   */\n  swap3\n  swap2\n  pop\n  pop\n  jump\t// out\n    /* \"#utility.yul\":1069:1238   */\ntag_29:\n    /* \"#utility.yul\":1153:1164   */\n  0x00\n    /* \"#utility.yul\":1187:1193   */\n  dup3\n    /* \"#utility.yul\":1182:1185   */\n  dup3\n    /* \"#utility.yul\":1175:1194   */\n  mstore\n    /* \"#utility.yul\":1227:1231   */\n  0x20\n    /* \"#utility.yul\":1222:1225   */\n  dup3\n    /* \"#utility.yul\":1218:1232   */\n  add\n    /* \"#utility.yul\":1203:1232   */\n  swap1\n  pop\n    /* \"#utility.yul\":1069:1238   */\n  swap3\n  swap2\n  pop\n  pop\n  jump\t// out\n    /* \"#utility.yul\":1244:1418   */\ntag_30:\n    /* \"#utility.yul\":1384:1410   */\n  0x43616e6e6f7420736574206f776e657220746f207a65726f0000000000000000\n    /* \"#utility.yul\":1380:1381   */\n  0x00\n    /* \"#utility.yul\":1372:1378   */\n  dup3\n    /* \"#utility.yul\":1368:1382   */\n  add\n    /* \"#utility.yul\":1361:1411   */\n  mstore\n    /* \"#utility.yul\":1244:1418   */\n  pop\n  jump\t// out\n    /* \"#utility.yul\":1424:1790   */\ntag_31:\n    /* \"#utility.yul\":1566:1569   */\n  0x00\n    /* \"#utility.yul\":1587:1654   */\n  tag_51\n    /* \"#utility.yul\":1651:1653   */\n  0x18\n    /* \"#utility.yul\":1646:1649   */\n  dup4\n    /* \"#utility.yul\":1587:1654   */\n  tag_29\n  jump\t// in\ntag_51:\n    /* \"#utility.yul\":1580:1654   */\n  swap2\n  pop\n    /* \"#utility.yul\":1663:1756   */\n  tag_52\n    /* \"#utility.yul\":1752:1755   */\n  dup3\n    /* \"#utility.yul\":1663:1756   */\n  tag_30\n  jump\t// in\ntag_52:\n    /* \"#utility.yul\":1781:1783   */\n  0x20\n    /* \"#utility.yul\":1776:1779   */\n  dup3\n    /* \"#utility.yul\":1772:1784   */\n  add\n    /* \"#utility.yul\":1765:1784   */\n  swap1\n  pop\n    /* \"#utility.yul\":1424:1790   */\n  swap2\n  swap1\n  pop\n  jump\t// out\n    /* \"#utility.yul\":1796:2215   */\ntag_12:\n    /* \"#utility.yul\":1962:1966   */\n  0x00\n    /* \"#utility.yul\":2000:2002   */\n  0x20\n    /* \"#utility.yul\":1989:1998   */\n  dup3\n    /* \"#utility.yul\":1985:2003   */\n  add\n    /* \"#utility.yul\":1977:2003   */\n  swap1\n  pop\n    /* \"#utility.yul\":2049:2058   */\n  dup2\n    /* \"#utility.yul\":2043:2047   */\n  dup2\n    /* \"#utility.yul\":2039:2059   */\n  sub\n    /* \"#utility.yul\":2035:2036   */\n  0x00\n    /* \"#utility.yul\":2024:2033   */\n  dup4\n    /* \"#utility.yul\":2020:2037   */\n  add\n    /* \"#utility.yul\":2013:2060   */\n  mstore\n    /* \"#utility.yul\":2077:2208   */\n  tag_54\n    /* \"#utility.yul\":2203:2207   */\n  dup2\n    /* \"#utility.yul\":2077:2208   */\n  tag_31\n  jump\t// in\ntag_54:\n    /* \"#utility.yul\":2069:2208   */\n  swap1\n  pop\n    /* \"#utility.yul\":1796:2215   */\n  swap2\n  swap1\n  pop\n  jump\t// out\n    /* \"#utility.yul\":2221:2394   */\ntag_32:\n    /* \"#utility.yul\":2361:2386   */\n  0x43616e6e6f74207472616e7366657220746f2073656c66000000000000000000\n    /* \"#utility.yul\":2357:2358   */\n  0x00\n    /* \"#utility.yul\":2349:2355   */\n  dup3\n    /* \"#utility.yul\":2345:2359   */\n  add\n    /* \"#utility.yul\":2338:2387   */\n  mstore\n    /* \"#utility.yul\":2221:2394   */\n  pop\n  jump\t// out\n    /* \"#utility.yul\":2400:2766   */\ntag_33:\n    /* \"#utility.yul\":2542:2545   */\n  0x00\n    /* \"#utility.yul\":2563:2630   */\n  tag_57\n    /* \"#utility.yul\":2627:2629   */\n  0x17\n    /* \"#utility.yul\":2622:2625   */\n  dup4\n    /* \"#utility.yul\":2563:2630   */\n  tag_29\n  jump\t// in\ntag_57:\n    /* \"#utility.yul\":2556:2630   */\n  swap2\n  pop\n    /* \"#utility.yul\":2639:2732   */\n  tag_58\n    /* \"#utility.yul\":2728:2731   */\n  dup3\n    /* \"#utility.yul\":2639:2732   */\n  tag_32\n  jump\t// in\ntag_58:\n    /* \"#utility.yul\":2757:2759   */\n  0x20\n    /* \"#utility.yul\":2752:2755   */\n  dup3\n    /* \"#utility.yul\":2748:2760   */\n  add\n    /* \"#utility.yul\":2741:2760   */\n  swap1\n  pop\n    /* \"#utility.yul\":2400:2766   */\n  swap2\n  swap1\n  pop\n  jump\t// out\n    /* \"#utility.yul\":2772:3191   */\ntag_22:\n    /* \"#utility.yul\":2938:2942   */\n  0x00\n    /* \"#utility.yul\":2976:2978   */\n  0x20\n    /* \"#utility.yul\":2965:2974   */\n  dup3\n    /* \"#utility.yul\":2961:2979   */\n  add\n    /* \"#utility.yul\":2953:2979   */\n  swap1\n  pop\n    /* \"#utility.yul\":3025:3034   */\n  dup2\n    /* \"#utility.yul\":3019:3023   */\n  dup2\n    /* \"#utility.yul\":3015:3035   */\n  sub\n    /* \"#utility.yul\":3011:3012   */\n  0x00\n    /* \"#utility.yul\":3000:3009   */\n  dup4\n    /* \"#utility.yul\":2996:3013   */\n  add\n    /* \"#utility.yul\":2989:3036   */\n  mstore\n    /* \"#utility.yul\":3053:3184   */\n  tag_60\n    /* \"#utility.yul\":3179:3183   */\n  dup2\n    /* \"#utility.yul\":3053:3184   */\n  tag_33\n  jump\t// in\ntag_60:\n    /* \"#utility.yul\":3045:3184   */\n  swap1\n  pop\n    /* \"#utility.yul\":2772:3191   */\n  swap2\n  swap1\n  pop\n  jump\t// out\n    /* \"remix-project-files/Raffle.sol\":269:3090  contract Raffle is VRFConsumerBaseV2, ConfirmedOwner {... */\ntag_18:\n  mload(0x80)\n  codecopy(0x00, dataOffset(sub_0), dataSize(sub_0))\n  0x00\n  assignImmutable(\"0xa75e2cf51d42f4164e4624f425e61448777a748393b6f6a5bcb1d94d1e8e5e98\")\n  return(0x00, dataSize(sub_0))\nstop\n\nsub_0: assembly {\n        /* \"remix-project-files/Raffle.sol\":269:3090  contract Raffle is VRFConsumerBaseV2, ConfirmedOwner {... */\n      mstore(0x40, 0x80)\n      callvalue\n      dup1\n      iszero\n      tag_1\n      jumpi\n      0x00\n      dup1\n      revert\n    tag_1:\n      pop\n      jumpi(tag_2, lt(calldatasize, 0x04))\n      shr(0xe0, calldataload(0x00))\n      dup1\n      0x8da5cb5b\n      gt\n      tag_17\n      jumpi\n      dup1\n      0xc6b0f15b\n      gt\n      tag_18\n      jumpi\n      dup1\n      0xc6b0f15b\n      eq\n      tag_13\n      jumpi\n      dup1\n      0xc7d06a72\n      eq\n      tag_14\n      jumpi\n      dup1\n      0xf2fde38b\n      eq\n      tag_15\n      jumpi\n      dup1\n      0xfc2a88c3\n      eq\n      tag_16\n      jumpi\n      jump(tag_2)\n    tag_18:\n      dup1\n      0x8da5cb5b\n      eq\n      tag_10\n      jumpi\n      dup1\n      0x900fc869\n      eq\n      tag_11\n      jumpi\n      dup1\n      0xa168fa89\n      eq\n      tag_12\n      jumpi\n      jump(tag_2)\n    tag_17:\n      dup1\n      0x7816a3a1\n      gt\n      tag_19\n      jumpi\n      dup1\n      0x7816a3a1\n      eq\n      tag_6\n      jumpi\n      dup1\n      0x79ba5097\n      eq\n      tag_7\n      jumpi\n      dup1\n      0x8796ba8c\n      eq\n      tag_8\n      jumpi\n      dup1\n      0x8ac00021\n      eq\n      tag_9\n      jumpi\n      jump(tag_2)\n    tag_19:\n      dup1\n      0x1fe543e3\n      eq\n      tag_3\n      jumpi\n      dup1\n      0x52342f13\n      eq\n      tag_4\n      jumpi\n      dup1\n      0x723dfc9e\n      eq\n      tag_5\n      jumpi\n    tag_2:\n      0x00\n      dup1\n      revert\n        /* \"@chainlink/contracts/src/v0.8/VRFConsumerBaseV2.sol\":6618:6874  function rawFulfillRandomWords(uint256 requestId, uint256[] memory randomWords) external {... */\n    tag_3:\n      tag_20\n      0x04\n      dup1\n      calldatasize\n      sub\n      dup2\n      add\n      swap1\n      tag_21\n      swap2\n      swap1\n      tag_22\n      jump\t// in\n    tag_21:\n      tag_23\n      jump\t// in\n    tag_20:\n      stop\n        /* \"remix-project-files/Raffle.sol\":1290:1312  uint256 public maximum */\n    tag_4:\n      tag_24\n      tag_25\n      jump\t// in\n    tag_24:\n      mload(0x40)\n      tag_26\n      swap2\n      swap1\n      tag_27\n      jump\t// in\n    tag_26:\n      mload(0x40)\n      dup1\n      swap2\n      sub\n      swap1\n      return\n        /* \"remix-project-files/Raffle.sol\":1318:1347  uint256[] public raffleResult */\n    tag_5:\n      tag_28\n      0x04\n      dup1\n      calldatasize\n      sub\n      dup2\n      add\n      swap1\n      tag_29\n      swap2\n      swap1\n      tag_30\n      jump\t// in\n    tag_29:\n      tag_31\n      jump\t// in\n    tag_28:\n      mload(0x40)\n      tag_32\n      swap2\n      swap1\n      tag_27\n      jump\t// in\n    tag_32:\n      mload(0x40)\n      dup1\n      swap2\n      sub\n      swap1\n      return\n        /* \"remix-project-files/Raffle.sol\":1357:1395  mapping (uint => bool) public selected */\n    tag_6:\n      tag_33\n      0x04\n      dup1\n      calldatasize\n      sub\n      dup2\n      add\n      swap1\n      tag_34\n      swap2\n      swap1\n      tag_30\n      jump\t// in\n    tag_34:\n      tag_35\n      jump\t// in\n    tag_33:\n      mload(0x40)\n      tag_36\n      swap2\n      swap1\n      tag_37\n      jump\t// in\n    tag_36:\n      mload(0x40)\n      dup1\n      swap2\n      sub\n      swap1\n      return\n        /* \"@chainlink/contracts/src/v0.8/ConfirmedOwnerWithProposal.sol\":1016:1281  function acceptOwnership() external override {... */\n    tag_7:\n      tag_38\n      tag_39\n      jump\t// in\n    tag_38:\n      stop\n        /* \"remix-project-files/Raffle.sol\":1118:1145  uint256[] public requestIds */\n    tag_8:\n      tag_40\n      0x04\n      dup1\n      calldatasize\n      sub\n      dup2\n      add\n      swap1\n      tag_41\n      swap2\n      swap1\n      tag_30\n      jump\t// in\n    tag_41:\n      tag_42\n      jump\t// in\n    tag_40:\n      mload(0x40)\n      tag_43\n      swap2\n      swap1\n      tag_27\n      jump\t// in\n    tag_43:\n      mload(0x40)\n      dup1\n      swap2\n      sub\n      swap1\n      return\n        /* \"remix-project-files/Raffle.sol\":1253:1283  uint64 public s_subscriptionId */\n    tag_9:\n      tag_44\n      tag_45\n      jump\t// in\n    tag_44:\n      mload(0x40)\n      tag_46\n      swap2\n      swap1\n      tag_47\n      jump\t// in\n    tag_46:\n      mload(0x40)\n      dup1\n      swap2\n      sub\n      swap1\n      return\n        /* \"@chainlink/contracts/src/v0.8/ConfirmedOwnerWithProposal.sol\":1332:1413  function owner() public view override returns (address) {... */\n    tag_10:\n      tag_48\n      tag_49\n      jump\t// in\n    tag_48:\n      mload(0x40)\n      tag_50\n      swap2\n      swap1\n      tag_51\n      jump\t// in\n    tag_50:\n      mload(0x40)\n      dup1\n      swap2\n      sub\n      swap1\n      return\n        /* \"remix-project-files/Raffle.sol\":1185:1217  uint256[] public lastRandomWords */\n    tag_11:\n      tag_52\n      0x04\n      dup1\n      calldatasize\n      sub\n      dup2\n      add\n      swap1\n      tag_53\n      swap2\n      swap1\n      tag_30\n      jump\t// in\n    tag_53:\n      tag_54\n      jump\t// in\n    tag_52:\n      mload(0x40)\n      tag_55\n      swap2\n      swap1\n      tag_27\n      jump\t// in\n    tag_55:\n      mload(0x40)\n      dup1\n      swap2\n      sub\n      swap1\n      return\n        /* \"remix-project-files/Raffle.sol\":663:714  mapping(uint256 => RequestStatus) public s_requests */\n    tag_12:\n      tag_56\n      0x04\n      dup1\n      calldatasize\n      sub\n      dup2\n      add\n      swap1\n      tag_57\n      swap2\n      swap1\n      tag_30\n      jump\t// in\n    tag_57:\n      tag_58\n      jump\t// in\n    tag_56:\n      mload(0x40)\n      tag_59\n      swap3\n      swap2\n      swap1\n      tag_60\n      jump\t// in\n    tag_59:\n      mload(0x40)\n      dup1\n      swap2\n      sub\n      swap1\n      return\n        /* \"remix-project-files/Raffle.sol\":1639:1737  function listNumbers() public view returns (uint256[] memory) {... */\n    tag_13:\n      tag_61\n      tag_62\n      jump\t// in\n    tag_61:\n      mload(0x40)\n      tag_63\n      swap2\n      swap1\n      tag_64\n      jump\t// in\n    tag_63:\n      mload(0x40)\n      dup1\n      swap2\n      sub\n      swap1\n      return\n        /* \"remix-project-files/Raffle.sol\":1743:2535  function execute(uint32 quant, uint max) public returns (uint256 requestId) {... */\n    tag_14:\n      tag_65\n      0x04\n      dup1\n      calldatasize\n      sub\n      dup2\n      add\n      swap1\n      tag_66\n      swap2\n      swap1\n      tag_67\n      jump\t// in\n    tag_66:\n      tag_68\n      jump\t// in\n    tag_65:\n      mload(0x40)\n      tag_69\n      swap2\n      swap1\n      tag_27\n      jump\t// in\n    tag_69:\n      mload(0x40)\n      dup1\n      swap2\n      sub\n      swap1\n      return\n        /* \"@chainlink/contracts/src/v0.8/ConfirmedOwnerWithProposal.sol\":826:924  function transferOwnership(address to) public override onlyOwner {... */\n    tag_15:\n      tag_70\n      0x04\n      dup1\n      calldatasize\n      sub\n      dup2\n      add\n      swap1\n      tag_71\n      swap2\n      swap1\n      tag_72\n      jump\t// in\n    tag_71:\n      tag_73\n      jump\t// in\n    tag_70:\n      stop\n        /* \"remix-project-files/Raffle.sol\":1151:1179  uint256 public lastRequestId */\n    tag_16:\n      tag_74\n      tag_75\n      jump\t// in\n    tag_74:\n      mload(0x40)\n      tag_76\n      swap2\n      swap1\n      tag_27\n      jump\t// in\n    tag_76:\n      mload(0x40)\n      dup1\n      swap2\n      sub\n      swap1\n      return\n        /* \"@chainlink/contracts/src/v0.8/VRFConsumerBaseV2.sol\":6618:6874  function rawFulfillRandomWords(uint256 requestId, uint256[] memory randomWords) external {... */\n    tag_23:\n        /* \"@chainlink/contracts/src/v0.8/VRFConsumerBaseV2.sol\":6731:6745  vrfCoordinator */\n      immutable(\"0xa75e2cf51d42f4164e4624f425e61448777a748393b6f6a5bcb1d94d1e8e5e98\")\n        /* \"@chainlink/contracts/src/v0.8/VRFConsumerBaseV2.sol\":6717:6745  msg.sender != vrfCoordinator */\n      0xffffffffffffffffffffffffffffffffffffffff\n      and\n        /* \"@chainlink/contracts/src/v0.8/VRFConsumerBaseV2.sol\":6717:6727  msg.sender */\n      caller\n        /* \"@chainlink/contracts/src/v0.8/VRFConsumerBaseV2.sol\":6717:6745  msg.sender != vrfCoordinator */\n      0xffffffffffffffffffffffffffffffffffffffff\n      and\n      eq\n        /* \"@chainlink/contracts/src/v0.8/VRFConsumerBaseV2.sol\":6713:6822  if (msg.sender != vrfCoordinator) {... */\n      tag_78\n      jumpi\n        /* \"@chainlink/contracts/src/v0.8/VRFConsumerBaseV2.sol\":6788:6798  msg.sender */\n      caller\n        /* \"@chainlink/contracts/src/v0.8/VRFConsumerBaseV2.sol\":6800:6814  vrfCoordinator */\n      immutable(\"0xa75e2cf51d42f4164e4624f425e61448777a748393b6f6a5bcb1d94d1e8e5e98\")\n        /* \"@chainlink/contracts/src/v0.8/VRFConsumerBaseV2.sol\":6762:6815  OnlyCoordinatorCanFulfill(msg.sender, vrfCoordinator) */\n      mload(0x40)\n      0x1cf993f400000000000000000000000000000000000000000000000000000000\n      dup2\n      mstore\n      0x04\n      add\n      tag_79\n      swap3\n      swap2\n      swap1\n      tag_80\n      jump\t// in\n    tag_79:\n      mload(0x40)\n      dup1\n      swap2\n      sub\n      swap1\n      revert\n        /* \"@chainlink/contracts/src/v0.8/VRFConsumerBaseV2.sol\":6713:6822  if (msg.sender != vrfCoordinator) {... */\n    tag_78:\n        /* \"@chainlink/contracts/src/v0.8/VRFConsumerBaseV2.sol\":6827:6869  fulfillRandomWords(requestId, randomWords) */\n      tag_81\n        /* \"@chainlink/contracts/src/v0.8/VRFConsumerBaseV2.sol\":6846:6855  requestId */\n      dup3\n        /* \"@chainlink/contracts/src/v0.8/VRFConsumerBaseV2.sol\":6857:6868  randomWords */\n      dup3\n        /* \"@chainlink/contracts/src/v0.8/VRFConsumerBaseV2.sol\":6827:6845  fulfillRandomWords */\n      tag_82\n        /* \"@chainlink/contracts/src/v0.8/VRFConsumerBaseV2.sol\":6827:6869  fulfillRandomWords(requestId, randomWords) */\n      jump\t// in\n    tag_81:\n        /* \"@chainlink/contracts/src/v0.8/VRFConsumerBaseV2.sol\":6618:6874  function rawFulfillRandomWords(uint256 requestId, uint256[] memory randomWords) external {... */\n      pop\n      pop\n      jump\t// out\n        /* \"remix-project-files/Raffle.sol\":1290:1312  uint256 public maximum */\n    tag_25:\n      sload(0x0b)\n      dup2\n      jump\t// out\n        /* \"remix-project-files/Raffle.sol\":1318:1347  uint256[] public raffleResult */\n    tag_31:\n      0x0c\n      dup2\n      dup2\n      sload\n      dup2\n      lt\n      tag_83\n      jumpi\n      0x00\n      dup1\n      revert\n    tag_83:\n      swap1\n      0x00\n      mstore\n      keccak256(0x00, 0x20)\n      add\n      0x00\n      swap2\n      pop\n      swap1\n      pop\n      sload\n      dup2\n      jump\t// out\n        /* \"remix-project-files/Raffle.sol\":1357:1395  mapping (uint => bool) public selected */\n    tag_35:\n      mstore(0x20, 0x0d)\n      dup1\n      0x00\n      mstore\n      keccak256(0x00, 0x40)\n      0x00\n      swap2\n      pop\n      sload\n      swap1\n      0x0100\n      exp\n      swap1\n      div\n      0xff\n      and\n      dup2\n      jump\t// out\n        /* \"@chainlink/contracts/src/v0.8/ConfirmedOwnerWithProposal.sol\":1016:1281  function acceptOwnership() external override {... */\n    tag_39:\n        /* \"@chainlink/contracts/src/v0.8/ConfirmedOwnerWithProposal.sol\":1089:1103  s_pendingOwner */\n      0x01\n      0x00\n      swap1\n      sload\n      swap1\n      0x0100\n      exp\n      swap1\n      div\n      0xffffffffffffffffffffffffffffffffffffffff\n      and\n        /* \"@chainlink/contracts/src/v0.8/ConfirmedOwnerWithProposal.sol\":1075:1103  msg.sender == s_pendingOwner */\n      0xffffffffffffffffffffffffffffffffffffffff\n      and\n        /* \"@chainlink/contracts/src/v0.8/ConfirmedOwnerWithProposal.sol\":1075:1085  msg.sender */\n      caller\n        /* \"@chainlink/contracts/src/v0.8/ConfirmedOwnerWithProposal.sol\":1075:1103  msg.sender == s_pendingOwner */\n      0xffffffffffffffffffffffffffffffffffffffff\n      and\n      eq\n        /* \"@chainlink/contracts/src/v0.8/ConfirmedOwnerWithProposal.sol\":1067:1130  require(msg.sender == s_pendingOwner, \"Must be proposed owner\") */\n      tag_86\n      jumpi\n      mload(0x40)\n      0x08c379a000000000000000000000000000000000000000000000000000000000\n      dup2\n      mstore\n      0x04\n      add\n      tag_87\n      swap1\n      tag_88\n      jump\t// in\n    tag_87:\n      mload(0x40)\n      dup1\n      swap2\n      sub\n      swap1\n      revert\n    tag_86:\n        /* \"@chainlink/contracts/src/v0.8/ConfirmedOwnerWithProposal.sol\":1137:1153  address oldOwner */\n      0x00\n        /* \"@chainlink/contracts/src/v0.8/ConfirmedOwnerWithProposal.sol\":1156:1163  s_owner */\n      dup1\n      0x00\n      swap1\n      sload\n      swap1\n      0x0100\n      exp\n      swap1\n      div\n      0xffffffffffffffffffffffffffffffffffffffff\n      and\n        /* \"@chainlink/contracts/src/v0.8/ConfirmedOwnerWithProposal.sol\":1137:1163  address oldOwner = s_owner */\n      swap1\n      pop\n        /* \"@chainlink/contracts/src/v0.8/ConfirmedOwnerWithProposal.sol\":1179:1189  msg.sender */\n      caller\n        /* \"@chainlink/contracts/src/v0.8/ConfirmedOwnerWithProposal.sol\":1169:1176  s_owner */\n      0x00\n      dup1\n        /* \"@chainlink/contracts/src/v0.8/ConfirmedOwnerWithProposal.sol\":1169:1189  s_owner = msg.sender */\n      0x0100\n      exp\n      dup2\n      sload\n      dup2\n      0xffffffffffffffffffffffffffffffffffffffff\n      mul\n      not\n      and\n      swap1\n      dup4\n      0xffffffffffffffffffffffffffffffffffffffff\n      and\n      mul\n      or\n      swap1\n      sstore\n      pop\n        /* \"@chainlink/contracts/src/v0.8/ConfirmedOwnerWithProposal.sol\":1220:1221  0 */\n      0x00\n        /* \"@chainlink/contracts/src/v0.8/ConfirmedOwnerWithProposal.sol\":1195:1209  s_pendingOwner */\n      0x01\n      0x00\n        /* \"@chainlink/contracts/src/v0.8/ConfirmedOwnerWithProposal.sol\":1195:1222  s_pendingOwner = address(0) */\n      0x0100\n      exp\n      dup2\n      sload\n      dup2\n      0xffffffffffffffffffffffffffffffffffffffff\n      mul\n      not\n      and\n      swap1\n      dup4\n      0xffffffffffffffffffffffffffffffffffffffff\n      and\n      mul\n      or\n      swap1\n      sstore\n      pop\n        /* \"@chainlink/contracts/src/v0.8/ConfirmedOwnerWithProposal.sol\":1265:1275  msg.sender */\n      caller\n        /* \"@chainlink/contracts/src/v0.8/ConfirmedOwnerWithProposal.sol\":1234:1276  OwnershipTransferred(oldOwner, msg.sender) */\n      0xffffffffffffffffffffffffffffffffffffffff\n      and\n        /* \"@chainlink/contracts/src/v0.8/ConfirmedOwnerWithProposal.sol\":1255:1263  oldOwner */\n      dup2\n        /* \"@chainlink/contracts/src/v0.8/ConfirmedOwnerWithProposal.sol\":1234:1276  OwnershipTransferred(oldOwner, msg.sender) */\n      0xffffffffffffffffffffffffffffffffffffffff\n      and\n      0x8be0079c531659141344cd1fd0a4f28419497f9722a3daafe3b4186f6b6457e0\n      mload(0x40)\n      mload(0x40)\n      dup1\n      swap2\n      sub\n      swap1\n      log3\n        /* \"@chainlink/contracts/src/v0.8/ConfirmedOwnerWithProposal.sol\":1061:1281  {... */\n      pop\n        /* \"@chainlink/contracts/src/v0.8/ConfirmedOwnerWithProposal.sol\":1016:1281  function acceptOwnership() external override {... */\n      jump\t// out\n        /* \"remix-project-files/Raffle.sol\":1118:1145  uint256[] public requestIds */\n    tag_42:\n      0x07\n      dup2\n      dup2\n      sload\n      dup2\n      lt\n      tag_89\n      jumpi\n      0x00\n      dup1\n      revert\n    tag_89:\n      swap1\n      0x00\n      mstore\n      keccak256(0x00, 0x20)\n      add\n      0x00\n      swap2\n      pop\n      swap1\n      pop\n      sload\n      dup2\n      jump\t// out\n        /* \"remix-project-files/Raffle.sol\":1253:1283  uint64 public s_subscriptionId */\n    tag_45:\n      0x0a\n      0x00\n      swap1\n      sload\n      swap1\n      0x0100\n      exp\n      swap1\n      div\n      0xffffffffffffffff\n      and\n      dup2\n      jump\t// out\n        /* \"@chainlink/contracts/src/v0.8/ConfirmedOwnerWithProposal.sol\":1332:1413  function owner() public view override returns (address) {... */\n    tag_49:\n        /* \"@chainlink/contracts/src/v0.8/ConfirmedOwnerWithProposal.sol\":1379:1386  address */\n      0x00\n        /* \"@chainlink/contracts/src/v0.8/ConfirmedOwnerWithProposal.sol\":1401:1408  s_owner */\n      dup1\n      0x00\n      swap1\n      sload\n      swap1\n      0x0100\n      exp\n      swap1\n      div\n      0xffffffffffffffffffffffffffffffffffffffff\n      and\n        /* \"@chainlink/contracts/src/v0.8/ConfirmedOwnerWithProposal.sol\":1394:1408  return s_owner */\n      swap1\n      pop\n        /* \"@chainlink/contracts/src/v0.8/ConfirmedOwnerWithProposal.sol\":1332:1413  function owner() public view override returns (address) {... */\n      swap1\n      jump\t// out\n        /* \"remix-project-files/Raffle.sol\":1185:1217  uint256[] public lastRandomWords */\n    tag_54:\n      0x09\n      dup2\n      dup2\n      sload\n      dup2\n      lt\n      tag_92\n      jumpi\n      0x00\n      dup1\n      revert\n    tag_92:\n      swap1\n      0x00\n      mstore\n      keccak256(0x00, 0x20)\n      add\n      0x00\n      swap2\n      pop\n      swap1\n      pop\n      sload\n      dup2\n      jump\t// out\n        /* \"remix-project-files/Raffle.sol\":663:714  mapping(uint256 => RequestStatus) public s_requests */\n    tag_58:\n      mstore(0x20, 0x02)\n      dup1\n      0x00\n      mstore\n      keccak256(0x00, 0x40)\n      0x00\n      swap2\n      pop\n      swap1\n      pop\n      dup1\n      0x00\n      add\n      0x00\n      swap1\n      sload\n      swap1\n      0x0100\n      exp\n      swap1\n      div\n      0xff\n      and\n      swap1\n      dup1\n      0x00\n      add\n      0x01\n      swap1\n      sload\n      swap1\n      0x0100\n      exp\n      swap1\n      div\n      0xff\n      and\n      swap1\n      pop\n      dup3\n      jump\t// out\n        /* \"remix-project-files/Raffle.sol\":1639:1737  function listNumbers() public view returns (uint256[] memory) {... */\n    tag_62:\n        /* \"remix-project-files/Raffle.sol\":1683:1699  uint256[] memory */\n      0x60\n        /* \"remix-project-files/Raffle.sol\":1718:1730  raffleResult */\n      0x0c\n        /* \"remix-project-files/Raffle.sol\":1711:1730  return raffleResult */\n      dup1\n      sload\n      dup1\n      0x20\n      mul\n      0x20\n      add\n      mload(0x40)\n      swap1\n      dup2\n      add\n      0x40\n      mstore\n      dup1\n      swap3\n      swap2\n      swap1\n      dup2\n      dup2\n      mstore\n      0x20\n      add\n      dup3\n      dup1\n      sload\n      dup1\n      iszero\n      tag_95\n      jumpi\n      0x20\n      mul\n      dup3\n      add\n      swap2\n      swap1\n      0x00\n      mstore\n      keccak256(0x00, 0x20)\n      swap1\n    tag_96:\n      dup2\n      sload\n      dup2\n      mstore\n      0x20\n      add\n      swap1\n      0x01\n      add\n      swap1\n      dup1\n      dup4\n      gt\n      tag_96\n      jumpi\n    tag_95:\n      pop\n      pop\n      pop\n      pop\n      pop\n      swap1\n      pop\n        /* \"remix-project-files/Raffle.sol\":1639:1737  function listNumbers() public view returns (uint256[] memory) {... */\n      swap1\n      jump\t// out\n        /* \"remix-project-files/Raffle.sol\":1743:2535  function execute(uint32 quant, uint max) public returns (uint256 requestId) {... */\n    tag_68:\n        /* \"remix-project-files/Raffle.sol\":1800:1817  uint256 requestId */\n      0x00\n        /* \"remix-project-files/Raffle.sol\":1908:1909  0 */\n      dup1\n        /* \"remix-project-files/Raffle.sol\":1900:1905  quant */\n      dup4\n        /* \"remix-project-files/Raffle.sol\":1900:1909  quant > 0 */\n      0xffffffff\n      and\n      gt\n        /* \"remix-project-files/Raffle.sol\":1900:1923  quant > 0 && quant < 10 */\n      dup1\n      iszero\n      tag_98\n      jumpi\n      pop\n        /* \"remix-project-files/Raffle.sol\":1921:1923  10 */\n      0x0a\n        /* \"remix-project-files/Raffle.sol\":1913:1918  quant */\n      dup4\n        /* \"remix-project-files/Raffle.sol\":1913:1923  quant < 10 */\n      0xffffffff\n      and\n      lt\n        /* \"remix-project-files/Raffle.sol\":1900:1923  quant > 0 && quant < 10 */\n    tag_98:\n        /* \"remix-project-files/Raffle.sol\":1891:1972  require (quant > 0 && quant < 10, \"quantity of numbers must be between 1 and 10\") */\n      tag_99\n      jumpi\n      mload(0x40)\n      0x08c379a000000000000000000000000000000000000000000000000000000000\n      dup2\n      mstore\n      0x04\n      add\n      tag_100\n      swap1\n      tag_101\n      jump\t// in\n    tag_100:\n      mload(0x40)\n      dup1\n      swap2\n      sub\n      swap1\n      revert\n    tag_99:\n        /* \"remix-project-files/Raffle.sol\":1993:1998  quant */\n      dup3\n        /* \"remix-project-files/Raffle.sol\":1982:1990  numWords */\n      0x06\n      dup1\n        /* \"remix-project-files/Raffle.sol\":1982:1998  numWords = quant */\n      0x0100\n      exp\n      dup2\n      sload\n      dup2\n      0xffffffff\n      mul\n      not\n      and\n      swap1\n      dup4\n      0xffffffff\n      and\n      mul\n      or\n      swap1\n      sstore\n      pop\n        /* \"remix-project-files/Raffle.sol\":2018:2021  max */\n      dup2\n        /* \"remix-project-files/Raffle.sol\":2008:2015  maximum */\n      0x0b\n        /* \"remix-project-files/Raffle.sol\":2008:2021  maximum = max */\n      dup2\n      swap1\n      sstore\n      pop\n        /* \"remix-project-files/Raffle.sol\":2043:2054  COORDINATOR */\n      0x03\n      0x00\n      swap1\n      sload\n      swap1\n      0x0100\n      exp\n      swap1\n      div\n      0xffffffffffffffffffffffffffffffffffffffff\n      and\n        /* \"remix-project-files/Raffle.sol\":2043:2073  COORDINATOR.requestRandomWords */\n      0xffffffffffffffffffffffffffffffffffffffff\n      and\n      0x5d3b1d30\n        /* \"remix-project-files/Raffle.sol\":2087:2094  keyHash */\n      sload(0x05)\n        /* \"remix-project-files/Raffle.sol\":2108:2124  s_subscriptionId */\n      0x0a\n      0x00\n      swap1\n      sload\n      swap1\n      0x0100\n      exp\n      swap1\n      div\n      0xffffffffffffffff\n      and\n        /* \"remix-project-files/Raffle.sol\":2138:2158  requestConfirmations */\n      0x06\n      0x04\n      swap1\n      sload\n      swap1\n      0x0100\n      exp\n      swap1\n      div\n      0xffff\n      and\n        /* \"remix-project-files/Raffle.sol\":2172:2188  callbackGasLimit */\n      0x06\n      0x00\n      swap1\n      sload\n      swap1\n      0x0100\n      exp\n      swap1\n      div\n      0xffffffff\n      and\n        /* \"remix-project-files/Raffle.sol\":2202:2210  numWords */\n      0x06\n      dup1\n      sload\n      swap1\n      0x0100\n      exp\n      swap1\n      div\n      0xffffffff\n      and\n        /* \"remix-project-files/Raffle.sol\":2043:2220  COORDINATOR.requestRandomWords(... */\n      mload(0x40)\n      dup7\n      0xffffffff\n      and\n      0xe0\n      shl\n      dup2\n      mstore\n      0x04\n      add\n      tag_102\n      swap6\n      swap5\n      swap4\n      swap3\n      swap2\n      swap1\n      tag_103\n      jump\t// in\n    tag_102:\n      0x20\n      mload(0x40)\n      dup1\n      dup4\n      sub\n      dup2\n      0x00\n      dup8\n      gas\n      call\n      iszero\n      dup1\n      iszero\n      tag_105\n      jumpi\n      returndatasize\n      0x00\n      dup1\n      returndatacopy\n      revert(0x00, returndatasize)\n    tag_105:\n      pop\n      pop\n      pop\n      pop\n      mload(0x40)\n      returndatasize\n      not(0x1f)\n      0x1f\n      dup3\n      add\n      and\n      dup3\n      add\n      dup1\n      0x40\n      mstore\n      pop\n      dup2\n      add\n      swap1\n      tag_106\n      swap2\n      swap1\n      tag_107\n      jump\t// in\n    tag_106:\n        /* \"remix-project-files/Raffle.sol\":2031:2220  requestId = COORDINATOR.requestRandomWords(... */\n      swap1\n      pop\n        /* \"remix-project-files/Raffle.sol\":2254:2378  RequestStatus({... */\n      mload(0x40)\n      dup1\n      0x60\n      add\n      0x40\n      mstore\n      dup1\n        /* \"remix-project-files/Raffle.sol\":2362:2367  false */\n      0x00\n        /* \"remix-project-files/Raffle.sol\":2254:2378  RequestStatus({... */\n      iszero\n      iszero\n      dup2\n      mstore\n      0x20\n      add\n        /* \"remix-project-files/Raffle.sol\":2333:2337  true */\n      0x01\n        /* \"remix-project-files/Raffle.sol\":2254:2378  RequestStatus({... */\n      iszero\n      iszero\n      dup2\n      mstore\n      0x20\n      add\n        /* \"remix-project-files/Raffle.sol\":2309:2310  0 */\n      0x00\n        /* \"remix-project-files/Raffle.sol\":2295:2311  new uint256[](0) */\n      0xffffffffffffffff\n      dup2\n      gt\n      iszero\n      tag_108\n      jumpi\n      tag_109\n      tag_110\n      jump\t// in\n    tag_109:\n    tag_108:\n      mload(0x40)\n      swap1\n      dup1\n      dup3\n      mstore\n      dup1\n      0x20\n      mul\n      0x20\n      add\n      dup3\n      add\n      0x40\n      mstore\n      dup1\n      iszero\n      tag_111\n      jumpi\n      dup2\n      0x20\n      add\n      0x20\n      dup3\n      mul\n      dup1\n      calldatasize\n      dup4\n      calldatacopy\n      dup1\n      dup3\n      add\n      swap2\n      pop\n      pop\n      swap1\n      pop\n    tag_111:\n      pop\n        /* \"remix-project-files/Raffle.sol\":2254:2378  RequestStatus({... */\n      dup2\n      mstore\n      pop\n        /* \"remix-project-files/Raffle.sol\":2230:2240  s_requests */\n      0x02\n        /* \"remix-project-files/Raffle.sol\":2230:2251  s_requests[requestId] */\n      0x00\n        /* \"remix-project-files/Raffle.sol\":2241:2250  requestId */\n      dup4\n        /* \"remix-project-files/Raffle.sol\":2230:2251  s_requests[requestId] */\n      dup2\n      mstore\n      0x20\n      add\n      swap1\n      dup2\n      mstore\n      0x20\n      add\n      0x00\n      keccak256\n        /* \"remix-project-files/Raffle.sol\":2230:2378  s_requests[requestId] = RequestStatus({... */\n      0x00\n      dup3\n      add\n      mload\n      dup2\n      0x00\n      add\n      exp(0x0100, 0x00)\n      dup2\n      sload\n      dup2\n      0xff\n      mul\n      not\n      and\n      swap1\n      dup4\n      iszero\n      iszero\n      mul\n      or\n      swap1\n      sstore\n      pop\n      0x20\n      dup3\n      add\n      mload\n      dup2\n      0x00\n      add\n      exp(0x0100, 0x01)\n      dup2\n      sload\n      dup2\n      0xff\n      mul\n      not\n      and\n      swap1\n      dup4\n      iszero\n      iszero\n      mul\n      or\n      swap1\n      sstore\n      pop\n      0x40\n      dup3\n      add\n      mload\n      dup2\n      0x01\n      add\n      swap1\n      dup1\n      mload\n      swap1\n      0x20\n      add\n      swap1\n      tag_112\n      swap3\n      swap2\n      swap1\n      tag_113\n      jump\t// in\n    tag_112:\n      pop\n      swap1\n      pop\n      pop\n        /* \"remix-project-files/Raffle.sol\":2388:2398  requestIds */\n      0x07\n        /* \"remix-project-files/Raffle.sol\":2404:2413  requestId */\n      dup2\n        /* \"remix-project-files/Raffle.sol\":2388:2414  requestIds.push(requestId) */\n      swap1\n      dup1\n      0x01\n      dup2\n      sload\n      add\n      dup1\n      dup3\n      sstore\n      dup1\n      swap2\n      pop\n      pop\n      0x01\n      swap1\n      sub\n      swap1\n      0x00\n      mstore\n      keccak256(0x00, 0x20)\n      add\n      0x00\n      swap1\n      swap2\n      swap1\n      swap2\n      swap1\n      swap2\n      pop\n      sstore\n        /* \"remix-project-files/Raffle.sol\":2440:2449  requestId */\n      dup1\n        /* \"remix-project-files/Raffle.sol\":2424:2437  lastRequestId */\n      0x08\n        /* \"remix-project-files/Raffle.sol\":2424:2449  lastRequestId = requestId */\n      dup2\n      swap1\n      sstore\n      pop\n        /* \"remix-project-files/Raffle.sol\":2464:2496  RequestSent(requestId, numWords) */\n      0xcc58b13ad3eab50626c6a6300b1d139cd6ebb1688a7cced9461c2f7e762665ee\n        /* \"remix-project-files/Raffle.sol\":2476:2485  requestId */\n      dup2\n        /* \"remix-project-files/Raffle.sol\":2487:2495  numWords */\n      0x06\n      dup1\n      sload\n      swap1\n      0x0100\n      exp\n      swap1\n      div\n      0xffffffff\n      and\n        /* \"remix-project-files/Raffle.sol\":2464:2496  RequestSent(requestId, numWords) */\n      mload(0x40)\n      tag_115\n      swap3\n      swap2\n      swap1\n      tag_116\n      jump\t// in\n    tag_115:\n      mload(0x40)\n      dup1\n      swap2\n      sub\n      swap1\n      log1\n        /* \"remix-project-files/Raffle.sol\":1743:2535  function execute(uint32 quant, uint max) public returns (uint256 requestId) {... */\n      swap3\n      swap2\n      pop\n      pop\n      jump\t// out\n        /* \"@chainlink/contracts/src/v0.8/ConfirmedOwnerWithProposal.sol\":826:924  function transferOwnership(address to) public override onlyOwner {... */\n    tag_73:\n        /* \"@chainlink/contracts/src/v0.8/ConfirmedOwnerWithProposal.sol\":1956:1976  _validateOwnership() */\n      tag_118\n        /* \"@chainlink/contracts/src/v0.8/ConfirmedOwnerWithProposal.sol\":1956:1974  _validateOwnership */\n      tag_119\n        /* \"@chainlink/contracts/src/v0.8/ConfirmedOwnerWithProposal.sol\":1956:1976  _validateOwnership() */\n      jump\t// in\n    tag_118:\n        /* \"@chainlink/contracts/src/v0.8/ConfirmedOwnerWithProposal.sol\":897:919  _transferOwnership(to) */\n      tag_121\n        /* \"@chainlink/contracts/src/v0.8/ConfirmedOwnerWithProposal.sol\":916:918  to */\n      dup2\n        /* \"@chainlink/contracts/src/v0.8/ConfirmedOwnerWithProposal.sol\":897:915  _transferOwnership */\n      tag_122\n        /* \"@chainlink/contracts/src/v0.8/ConfirmedOwnerWithProposal.sol\":897:919  _transferOwnership(to) */\n      jump\t// in\n    tag_121:\n        /* \"@chainlink/contracts/src/v0.8/ConfirmedOwnerWithProposal.sol\":826:924  function transferOwnership(address to) public override onlyOwner {... */\n      pop\n      jump\t// out\n        /* \"remix-project-files/Raffle.sol\":1151:1179  uint256 public lastRequestId */\n    tag_75:\n      sload(0x08)\n      dup2\n      jump\t// out\n        /* \"remix-project-files/Raffle.sol\":2542:3087  function fulfillRandomWords(uint256 _requestId, uint256[] memory _randomWords) internal override {... */\n    tag_82:\n        /* \"remix-project-files/Raffle.sol\":2657:2667  s_requests */\n      0x02\n        /* \"remix-project-files/Raffle.sol\":2657:2679  s_requests[_requestId] */\n      0x00\n        /* \"remix-project-files/Raffle.sol\":2668:2678  _requestId */\n      dup4\n        /* \"remix-project-files/Raffle.sol\":2657:2679  s_requests[_requestId] */\n      dup2\n      mstore\n      0x20\n      add\n      swap1\n      dup2\n      mstore\n      0x20\n      add\n      0x00\n      keccak256\n        /* \"remix-project-files/Raffle.sol\":2657:2686  s_requests[_requestId].exists */\n      0x00\n      add\n      0x01\n      swap1\n      sload\n      swap1\n      0x0100\n      exp\n      swap1\n      div\n      0xff\n      and\n        /* \"remix-project-files/Raffle.sol\":2649:2708  require(s_requests[_requestId].exists, \"request not found\") */\n      tag_124\n      jumpi\n      mload(0x40)\n      0x08c379a000000000000000000000000000000000000000000000000000000000\n      dup2\n      mstore\n      0x04\n      add\n      tag_125\n      swap1\n      tag_126\n      jump\t// in\n    tag_125:\n      mload(0x40)\n      dup1\n      swap2\n      sub\n      swap1\n      revert\n    tag_124:\n        /* \"remix-project-files/Raffle.sol\":2753:2757  true */\n      0x01\n        /* \"remix-project-files/Raffle.sol\":2718:2728  s_requests */\n      0x02\n        /* \"remix-project-files/Raffle.sol\":2718:2740  s_requests[_requestId] */\n      0x00\n        /* \"remix-project-files/Raffle.sol\":2729:2739  _requestId */\n      dup5\n        /* \"remix-project-files/Raffle.sol\":2718:2740  s_requests[_requestId] */\n      dup2\n      mstore\n      0x20\n      add\n      swap1\n      dup2\n      mstore\n      0x20\n      add\n      0x00\n      keccak256\n        /* \"remix-project-files/Raffle.sol\":2718:2750  s_requests[_requestId].fulfilled */\n      0x00\n      add\n      0x00\n        /* \"remix-project-files/Raffle.sol\":2718:2757  s_requests[_requestId].fulfilled = true */\n      0x0100\n      exp\n      dup2\n      sload\n      dup2\n      0xff\n      mul\n      not\n      and\n      swap1\n      dup4\n      iszero\n      iszero\n      mul\n      or\n      swap1\n      sstore\n      pop\n        /* \"remix-project-files/Raffle.sol\":2804:2816  _randomWords */\n      dup1\n        /* \"remix-project-files/Raffle.sol\":2767:2777  s_requests */\n      0x02\n        /* \"remix-project-files/Raffle.sol\":2767:2789  s_requests[_requestId] */\n      0x00\n        /* \"remix-project-files/Raffle.sol\":2778:2788  _requestId */\n      dup5\n        /* \"remix-project-files/Raffle.sol\":2767:2789  s_requests[_requestId] */\n      dup2\n      mstore\n      0x20\n      add\n      swap1\n      dup2\n      mstore\n      0x20\n      add\n      0x00\n      keccak256\n        /* \"remix-project-files/Raffle.sol\":2767:2801  s_requests[_requestId].randomWords */\n      0x01\n      add\n        /* \"remix-project-files/Raffle.sol\":2767:2816  s_requests[_requestId].randomWords = _randomWords */\n      swap1\n      dup1\n      mload\n      swap1\n      0x20\n      add\n      swap1\n      tag_127\n      swap3\n      swap2\n      swap1\n      tag_113\n      jump\t// in\n    tag_127:\n      pop\n        /* \"remix-project-files/Raffle.sol\":2844:2856  _randomWords */\n      dup1\n        /* \"remix-project-files/Raffle.sol\":2826:2841  lastRandomWords */\n      0x09\n        /* \"remix-project-files/Raffle.sol\":2826:2856  lastRandomWords = _randomWords */\n      swap1\n      dup1\n      mload\n      swap1\n      0x20\n      add\n      swap1\n      tag_128\n      swap3\n      swap2\n      swap1\n      tag_113\n      jump\t// in\n    tag_128:\n      pop\n        /* \"remix-project-files/Raffle.sol\":2867:2875  uint aux */\n      0x00\n        /* \"remix-project-files/Raffle.sol\":2890:2896  uint i */\n      dup1\n        /* \"remix-project-files/Raffle.sol\":2899:2900  0 */\n      0x00\n        /* \"remix-project-files/Raffle.sol\":2890:2900  uint i = 0 */\n      swap1\n      pop\n        /* \"remix-project-files/Raffle.sol\":2885:3081  for (uint i = 0; i < numWords; i++) {... */\n    tag_129:\n        /* \"remix-project-files/Raffle.sol\":2906:2914  numWords */\n      0x06\n      dup1\n      sload\n      swap1\n      0x0100\n      exp\n      swap1\n      div\n      0xffffffff\n      and\n        /* \"remix-project-files/Raffle.sol\":2902:2914  i < numWords */\n      0xffffffff\n      and\n        /* \"remix-project-files/Raffle.sol\":2902:2903  i */\n      dup2\n        /* \"remix-project-files/Raffle.sol\":2902:2914  i < numWords */\n      lt\n        /* \"remix-project-files/Raffle.sol\":2885:3081  for (uint i = 0; i < numWords; i++) {... */\n      iszero\n      tag_130\n      jumpi\n        /* \"remix-project-files/Raffle.sol\":2969:2970  1 */\n      0x01\n        /* \"remix-project-files/Raffle.sol\":2959:2966  maximum */\n      sload(0x0b)\n        /* \"remix-project-files/Raffle.sol\":2941:2953  _randomWords */\n      dup5\n        /* \"remix-project-files/Raffle.sol\":2954:2955  i */\n      dup4\n        /* \"remix-project-files/Raffle.sol\":2941:2956  _randomWords[i] */\n      dup2\n      mload\n      dup2\n      lt\n      tag_132\n      jumpi\n      tag_133\n      tag_134\n      jump\t// in\n    tag_133:\n    tag_132:\n      0x20\n      mul\n      0x20\n      add\n      add\n      mload\n        /* \"remix-project-files/Raffle.sol\":2941:2966  _randomWords[i] % maximum */\n      tag_135\n      swap2\n      swap1\n      tag_136\n      jump\t// in\n    tag_135:\n        /* \"remix-project-files/Raffle.sol\":2941:2970  _randomWords[i] % maximum + 1 */\n      tag_137\n      swap2\n      swap1\n      tag_138\n      jump\t// in\n    tag_137:\n        /* \"remix-project-files/Raffle.sol\":2935:2970  aux = _randomWords[i] % maximum + 1 */\n      swap2\n      pop\n        /* \"remix-project-files/Raffle.sol\":2989:2997  selected */\n      0x0d\n        /* \"remix-project-files/Raffle.sol\":2989:3002  selected[aux] */\n      0x00\n        /* \"remix-project-files/Raffle.sol\":2998:3001  aux */\n      dup4\n        /* \"remix-project-files/Raffle.sol\":2989:3002  selected[aux] */\n      dup2\n      mstore\n      0x20\n      add\n      swap1\n      dup2\n      mstore\n      0x20\n      add\n      0x00\n      keccak256\n      0x00\n      swap1\n      sload\n      swap1\n      0x0100\n      exp\n      swap1\n      div\n      0xff\n      and\n        /* \"remix-project-files/Raffle.sol\":2984:3059  if (!selected[aux]) {... */\n      tag_139\n      jumpi\n        /* \"remix-project-files/Raffle.sol\":3022:3034  raffleResult */\n      0x0c\n        /* \"remix-project-files/Raffle.sol\":3040:3043  aux */\n      dup3\n        /* \"remix-project-files/Raffle.sol\":3022:3044  raffleResult.push(aux) */\n      swap1\n      dup1\n      0x01\n      dup2\n      sload\n      add\n      dup1\n      dup3\n      sstore\n      dup1\n      swap2\n      pop\n      pop\n      0x01\n      swap1\n      sub\n      swap1\n      0x00\n      mstore\n      keccak256(0x00, 0x20)\n      add\n      0x00\n      swap1\n      swap2\n      swap1\n      swap2\n      swap1\n      swap2\n      pop\n      sstore\n        /* \"remix-project-files/Raffle.sol\":2984:3059  if (!selected[aux]) {... */\n    tag_139:\n        /* \"remix-project-files/Raffle.sol\":2916:2919  i++ */\n      dup1\n      dup1\n      tag_141\n      swap1\n      tag_142\n      jump\t// in\n    tag_141:\n      swap2\n      pop\n      pop\n        /* \"remix-project-files/Raffle.sol\":2885:3081  for (uint i = 0; i < numWords; i++) {... */\n      jump(tag_129)\n    tag_130:\n      pop\n        /* \"remix-project-files/Raffle.sol\":2639:3087  {... */\n      pop\n        /* \"remix-project-files/Raffle.sol\":2542:3087  function fulfillRandomWords(uint256 _requestId, uint256[] memory _randomWords) internal override {... */\n      pop\n      pop\n      jump\t// out\n        /* \"@chainlink/contracts/src/v0.8/ConfirmedOwnerWithProposal.sol\":1730:1841  function _validateOwnership() internal view {... */\n    tag_119:\n        /* \"@chainlink/contracts/src/v0.8/ConfirmedOwnerWithProposal.sol\":1802:1809  s_owner */\n      0x00\n      dup1\n      sload\n      swap1\n      0x0100\n      exp\n      swap1\n      div\n      0xffffffffffffffffffffffffffffffffffffffff\n      and\n        /* \"@chainlink/contracts/src/v0.8/ConfirmedOwnerWithProposal.sol\":1788:1809  msg.sender == s_owner */\n      0xffffffffffffffffffffffffffffffffffffffff\n      and\n        /* \"@chainlink/contracts/src/v0.8/ConfirmedOwnerWithProposal.sol\":1788:1798  msg.sender */\n      caller\n        /* \"@chainlink/contracts/src/v0.8/ConfirmedOwnerWithProposal.sol\":1788:1809  msg.sender == s_owner */\n      0xffffffffffffffffffffffffffffffffffffffff\n      and\n      eq\n        /* \"@chainlink/contracts/src/v0.8/ConfirmedOwnerWithProposal.sol\":1780:1836  require(msg.sender == s_owner, \"Only callable by owner\") */\n      tag_144\n      jumpi\n      mload(0x40)\n      0x08c379a000000000000000000000000000000000000000000000000000000000\n      dup2\n      mstore\n      0x04\n      add\n      tag_145\n      swap1\n      tag_146\n      jump\t// in\n    tag_145:\n      mload(0x40)\n      dup1\n      swap2\n      sub\n      swap1\n      revert\n    tag_144:\n        /* \"@chainlink/contracts/src/v0.8/ConfirmedOwnerWithProposal.sol\":1730:1841  function _validateOwnership() internal view {... */\n      jump\t// out\n        /* \"@chainlink/contracts/src/v0.8/ConfirmedOwnerWithProposal.sol\":1497:1685  function _transferOwnership(address to) private {... */\n    tag_122:\n        /* \"@chainlink/contracts/src/v0.8/ConfirmedOwnerWithProposal.sol\":1565:1575  msg.sender */\n      caller\n        /* \"@chainlink/contracts/src/v0.8/ConfirmedOwnerWithProposal.sol\":1559:1575  to != msg.sender */\n      0xffffffffffffffffffffffffffffffffffffffff\n      and\n        /* \"@chainlink/contracts/src/v0.8/ConfirmedOwnerWithProposal.sol\":1559:1561  to */\n      dup2\n        /* \"@chainlink/contracts/src/v0.8/ConfirmedOwnerWithProposal.sol\":1559:1575  to != msg.sender */\n      0xffffffffffffffffffffffffffffffffffffffff\n      and\n      sub\n        /* \"@chainlink/contracts/src/v0.8/ConfirmedOwnerWithProposal.sol\":1551:1603  require(to != msg.sender, \"Cannot transfer to self\") */\n      tag_148\n      jumpi\n      mload(0x40)\n      0x08c379a000000000000000000000000000000000000000000000000000000000\n      dup2\n      mstore\n      0x04\n      add\n      tag_149\n      swap1\n      tag_150\n      jump\t// in\n    tag_149:\n      mload(0x40)\n      dup1\n      swap2\n      sub\n      swap1\n      revert\n    tag_148:\n        /* \"@chainlink/contracts/src/v0.8/ConfirmedOwnerWithProposal.sol\":1627:1629  to */\n      dup1\n        /* \"@chainlink/contracts/src/v0.8/ConfirmedOwnerWithProposal.sol\":1610:1624  s_pendingOwner */\n      0x01\n      0x00\n        /* \"@chainlink/contracts/src/v0.8/ConfirmedOwnerWithProposal.sol\":1610:1629  s_pendingOwner = to */\n      0x0100\n      exp\n      dup2\n      sload\n      dup2\n      0xffffffffffffffffffffffffffffffffffffffff\n      mul\n      not\n      and\n      swap1\n      dup4\n      0xffffffffffffffffffffffffffffffffffffffff\n      and\n      mul\n      or\n      swap1\n      sstore\n      pop\n        /* \"@chainlink/contracts/src/v0.8/ConfirmedOwnerWithProposal.sol\":1677:1679  to */\n      dup1\n        /* \"@chainlink/contracts/src/v0.8/ConfirmedOwnerWithProposal.sol\":1641:1680  OwnershipTransferRequested(s_owner, to) */\n      0xffffffffffffffffffffffffffffffffffffffff\n      and\n        /* \"@chainlink/contracts/src/v0.8/ConfirmedOwnerWithProposal.sol\":1668:1675  s_owner */\n      0x00\n      dup1\n      sload\n      swap1\n      0x0100\n      exp\n      swap1\n      div\n      0xffffffffffffffffffffffffffffffffffffffff\n      and\n        /* \"@chainlink/contracts/src/v0.8/ConfirmedOwnerWithProposal.sol\":1641:1680  OwnershipTransferRequested(s_owner, to) */\n      0xffffffffffffffffffffffffffffffffffffffff\n      and\n      0xed8889f560326eb138920d842192f0eb3dd22b4f139c87a2c57538e05bae1278\n      mload(0x40)\n      mload(0x40)\n      dup1\n      swap2\n      sub\n      swap1\n      log3\n        /* \"@chainlink/contracts/src/v0.8/ConfirmedOwnerWithProposal.sol\":1497:1685  function _transferOwnership(address to) private {... */\n      pop\n      jump\t// out\n    tag_113:\n      dup3\n      dup1\n      sload\n      dup3\n      dup3\n      sstore\n      swap1\n      0x00\n      mstore\n      keccak256(0x00, 0x20)\n      swap1\n      dup2\n      add\n      swap3\n      dup3\n      iszero\n      tag_151\n      jumpi\n      swap2\n      0x20\n      mul\n      dup3\n      add\n    tag_152:\n      dup3\n      dup2\n      gt\n      iszero\n      tag_153\n      jumpi\n      dup3\n      mload\n      dup3\n      sstore\n      swap2\n      0x20\n      add\n      swap2\n      swap1\n      0x01\n      add\n      swap1\n      jump(tag_152)\n    tag_153:\n    tag_151:\n      pop\n      swap1\n      pop\n      tag_154\n      swap2\n      swap1\n      tag_155\n      jump\t// in\n    tag_154:\n      pop\n      swap1\n      jump\t// out\n    tag_155:\n    tag_156:\n      dup1\n      dup3\n      gt\n      iszero\n      tag_157\n      jumpi\n      0x00\n      dup2\n      0x00\n      swap1\n      sstore\n      pop\n      0x01\n      add\n      jump(tag_156)\n    tag_157:\n      pop\n      swap1\n      jump\t// out\n        /* \"#utility.yul\":7:82   */\n    tag_158:\n        /* \"#utility.yul\":40:46   */\n      0x00\n        /* \"#utility.yul\":73:75   */\n      0x40\n        /* \"#utility.yul\":67:76   */\n      mload\n        /* \"#utility.yul\":57:76   */\n      swap1\n      pop\n        /* \"#utility.yul\":7:82   */\n      swap1\n      jump\t// out\n        /* \"#utility.yul\":88:205   */\n    tag_159:\n        /* \"#utility.yul\":197:198   */\n      0x00\n        /* \"#utility.yul\":194:195   */\n      dup1\n        /* \"#utility.yul\":187:199   */\n      revert\n        /* \"#utility.yul\":211:328   */\n    tag_160:\n        /* \"#utility.yul\":320:321   */\n      0x00\n        /* \"#utility.yul\":317:318   */\n      dup1\n        /* \"#utility.yul\":310:322   */\n      revert\n        /* \"#utility.yul\":334:411   */\n    tag_161:\n        /* \"#utility.yul\":371:378   */\n      0x00\n        /* \"#utility.yul\":400:405   */\n      dup2\n        /* \"#utility.yul\":389:405   */\n      swap1\n      pop\n        /* \"#utility.yul\":334:411   */\n      swap2\n      swap1\n      pop\n      jump\t// out\n        /* \"#utility.yul\":417:539   */\n    tag_162:\n        /* \"#utility.yul\":490:514   */\n      tag_217\n        /* \"#utility.yul\":508:513   */\n      dup2\n        /* \"#utility.yul\":490:514   */\n      tag_161\n      jump\t// in\n    tag_217:\n        /* \"#utility.yul\":483:488   */\n      dup2\n        /* \"#utility.yul\":480:515   */\n      eq\n        /* \"#utility.yul\":470:533   */\n      tag_218\n      jumpi\n        /* \"#utility.yul\":529:530   */\n      0x00\n        /* \"#utility.yul\":526:527   */\n      dup1\n        /* \"#utility.yul\":519:531   */\n      revert\n        /* \"#utility.yul\":470:533   */\n    tag_218:\n        /* \"#utility.yul\":417:539   */\n      pop\n      jump\t// out\n        /* \"#utility.yul\":545:684   */\n    tag_163:\n        /* \"#utility.yul\":591:596   */\n      0x00\n        /* \"#utility.yul\":629:635   */\n      dup2\n        /* \"#utility.yul\":616:636   */\n      calldataload\n        /* \"#utility.yul\":607:636   */\n      swap1\n      pop\n        /* \"#utility.yul\":645:678   */\n      tag_220\n        /* \"#utility.yul\":672:677   */\n      dup2\n        /* \"#utility.yul\":645:678   */\n      tag_162\n      jump\t// in\n    tag_220:\n        /* \"#utility.yul\":545:684   */\n      swap3\n      swap2\n      pop\n      pop\n      jump\t// out\n        /* \"#utility.yul\":690:807   */\n    tag_164:\n        /* \"#utility.yul\":799:800   */\n      0x00\n        /* \"#utility.yul\":796:797   */\n      dup1\n        /* \"#utility.yul\":789:801   */\n      revert\n        /* \"#utility.yul\":813:915   */\n    tag_165:\n        /* \"#utility.yul\":854:860   */\n      0x00\n        /* \"#utility.yul\":905:907   */\n      0x1f\n        /* \"#utility.yul\":901:908   */\n      not\n        /* \"#utility.yul\":896:898   */\n      0x1f\n        /* \"#utility.yul\":889:894   */\n      dup4\n        /* \"#utility.yul\":885:899   */\n      add\n        /* \"#utility.yul\":881:909   */\n      and\n        /* \"#utility.yul\":871:909   */\n      swap1\n      pop\n        /* \"#utility.yul\":813:915   */\n      swap2\n      swap1\n      pop\n      jump\t// out\n        /* \"#utility.yul\":921:1101   */\n    tag_110:\n        /* \"#utility.yul\":969:1046   */\n      0x4e487b7100000000000000000000000000000000000000000000000000000000\n        /* \"#utility.yul\":966:967   */\n      0x00\n        /* \"#utility.yul\":959:1047   */\n      mstore\n        /* \"#utility.yul\":1066:1070   */\n      0x41\n        /* \"#utility.yul\":1063:1064   */\n      0x04\n        /* \"#utility.yul\":1056:1071   */\n      mstore\n        /* \"#utility.yul\":1090:1094   */\n      0x24\n        /* \"#utility.yul\":1087:1088   */\n      0x00\n        /* \"#utility.yul\":1080:1095   */\n      revert\n        /* \"#utility.yul\":1107:1388   */\n    tag_166:\n        /* \"#utility.yul\":1190:1217   */\n      tag_225\n        /* \"#utility.yul\":1212:1216   */\n      dup3\n        /* \"#utility.yul\":1190:1217   */\n      tag_165\n      jump\t// in\n    tag_225:\n        /* \"#utility.yul\":1182:1188   */\n      dup2\n        /* \"#utility.yul\":1178:1218   */\n      add\n        /* \"#utility.yul\":1320:1326   */\n      dup2\n        /* \"#utility.yul\":1308:1318   */\n      dup2\n        /* \"#utility.yul\":1305:1327   */\n      lt\n        /* \"#utility.yul\":1284:1302   */\n      0xffffffffffffffff\n        /* \"#utility.yul\":1272:1282   */\n      dup3\n        /* \"#utility.yul\":1269:1303   */\n      gt\n        /* \"#utility.yul\":1266:1328   */\n      or\n        /* \"#utility.yul\":1263:1351   */\n      iszero\n      tag_226\n      jumpi\n        /* \"#utility.yul\":1331:1349   */\n      tag_227\n      tag_110\n      jump\t// in\n    tag_227:\n        /* \"#utility.yul\":1263:1351   */\n    tag_226:\n        /* \"#utility.yul\":1371:1381   */\n      dup1\n        /* \"#utility.yul\":1367:1369   */\n      0x40\n        /* \"#utility.yul\":1360:1382   */\n      mstore\n        /* \"#utility.yul\":1150:1388   */\n      pop\n        /* \"#utility.yul\":1107:1388   */\n      pop\n      pop\n      jump\t// out\n        /* \"#utility.yul\":1394:1523   */\n    tag_167:\n        /* \"#utility.yul\":1428:1434   */\n      0x00\n        /* \"#utility.yul\":1455:1475   */\n      tag_229\n      tag_158\n      jump\t// in\n    tag_229:\n        /* \"#utility.yul\":1445:1475   */\n      swap1\n      pop\n        /* \"#utility.yul\":1484:1517   */\n      tag_230\n        /* \"#utility.yul\":1512:1516   */\n      dup3\n        /* \"#utility.yul\":1504:1510   */\n      dup3\n        /* \"#utility.yul\":1484:1517   */\n      tag_166\n      jump\t// in\n    tag_230:\n        /* \"#utility.yul\":1394:1523   */\n      swap2\n      swap1\n      pop\n      jump\t// out\n        /* \"#utility.yul\":1529:1840   */\n    tag_168:\n        /* \"#utility.yul\":1606:1610   */\n      0x00\n        /* \"#utility.yul\":1696:1714   */\n      0xffffffffffffffff\n        /* \"#utility.yul\":1688:1694   */\n      dup3\n        /* \"#utility.yul\":1685:1715   */\n      gt\n        /* \"#utility.yul\":1682:1738   */\n      iszero\n      tag_232\n      jumpi\n        /* \"#utility.yul\":1718:1736   */\n      tag_233\n      tag_110\n      jump\t// in\n    tag_233:\n        /* \"#utility.yul\":1682:1738   */\n    tag_232:\n        /* \"#utility.yul\":1768:1772   */\n      0x20\n        /* \"#utility.yul\":1760:1766   */\n      dup3\n        /* \"#utility.yul\":1756:1773   */\n      mul\n        /* \"#utility.yul\":1748:1773   */\n      swap1\n      pop\n        /* \"#utility.yul\":1828:1832   */\n      0x20\n        /* \"#utility.yul\":1822:1826   */\n      dup2\n        /* \"#utility.yul\":1818:1833   */\n      add\n        /* \"#utility.yul\":1810:1833   */\n      swap1\n      pop\n        /* \"#utility.yul\":1529:1840   */\n      swap2\n      swap1\n      pop\n      jump\t// out\n        /* \"#utility.yul\":1846:1963   */\n    tag_169:\n        /* \"#utility.yul\":1955:1956   */\n      0x00\n        /* \"#utility.yul\":1952:1953   */\n      dup1\n        /* \"#utility.yul\":1945:1957   */\n      revert\n        /* \"#utility.yul\":1986:2696   */\n    tag_170:\n        /* \"#utility.yul\":2082:2087   */\n      0x00\n        /* \"#utility.yul\":2107:2188   */\n      tag_236\n        /* \"#utility.yul\":2123:2187   */\n      tag_237\n        /* \"#utility.yul\":2180:2186   */\n      dup5\n        /* \"#utility.yul\":2123:2187   */\n      tag_168\n      jump\t// in\n    tag_237:\n        /* \"#utility.yul\":2107:2188   */\n      tag_167\n      jump\t// in\n    tag_236:\n        /* \"#utility.yul\":2098:2188   */\n      swap1\n      pop\n        /* \"#utility.yul\":2208:2213   */\n      dup1\n        /* \"#utility.yul\":2237:2243   */\n      dup4\n        /* \"#utility.yul\":2230:2235   */\n      dup3\n        /* \"#utility.yul\":2223:2244   */\n      mstore\n        /* \"#utility.yul\":2271:2275   */\n      0x20\n        /* \"#utility.yul\":2264:2269   */\n      dup3\n        /* \"#utility.yul\":2260:2276   */\n      add\n        /* \"#utility.yul\":2253:2276   */\n      swap1\n      pop\n        /* \"#utility.yul\":2324:2328   */\n      0x20\n        /* \"#utility.yul\":2316:2322   */\n      dup5\n        /* \"#utility.yul\":2312:2329   */\n      mul\n        /* \"#utility.yul\":2304:2310   */\n      dup4\n        /* \"#utility.yul\":2300:2330   */\n      add\n        /* \"#utility.yul\":2353:2356   */\n      dup6\n        /* \"#utility.yul\":2345:2351   */\n      dup2\n        /* \"#utility.yul\":2342:2357   */\n      gt\n        /* \"#utility.yul\":2339:2461   */\n      iszero\n      tag_238\n      jumpi\n        /* \"#utility.yul\":2372:2451   */\n      tag_239\n      tag_169\n      jump\t// in\n    tag_239:\n        /* \"#utility.yul\":2339:2461   */\n    tag_238:\n        /* \"#utility.yul\":2487:2493   */\n      dup4\n        /* \"#utility.yul\":2470:2690   */\n    tag_240:\n        /* \"#utility.yul\":2504:2510   */\n      dup2\n        /* \"#utility.yul\":2499:2502   */\n      dup2\n        /* \"#utility.yul\":2496:2511   */\n      lt\n        /* \"#utility.yul\":2470:2690   */\n      iszero\n      tag_242\n      jumpi\n        /* \"#utility.yul\":2579:2582   */\n      dup1\n        /* \"#utility.yul\":2608:2645   */\n      tag_243\n        /* \"#utility.yul\":2641:2644   */\n      dup9\n        /* \"#utility.yul\":2629:2639   */\n      dup3\n        /* \"#utility.yul\":2608:2645   */\n      tag_163\n      jump\t// in\n    tag_243:\n        /* \"#utility.yul\":2603:2606   */\n      dup5\n        /* \"#utility.yul\":2596:2646   */\n      mstore\n        /* \"#utility.yul\":2675:2679   */\n      0x20\n        /* \"#utility.yul\":2670:2673   */\n      dup5\n        /* \"#utility.yul\":2666:2680   */\n      add\n        /* \"#utility.yul\":2659:2680   */\n      swap4\n      pop\n        /* \"#utility.yul\":2546:2690   */\n      pop\n        /* \"#utility.yul\":2530:2534   */\n      0x20\n        /* \"#utility.yul\":2525:2528   */\n      dup2\n        /* \"#utility.yul\":2521:2535   */\n      add\n        /* \"#utility.yul\":2514:2535   */\n      swap1\n      pop\n        /* \"#utility.yul\":2470:2690   */\n      jump(tag_240)\n    tag_242:\n        /* \"#utility.yul\":2474:2495   */\n      pop\n        /* \"#utility.yul\":2088:2696   */\n      pop\n      pop\n        /* \"#utility.yul\":1986:2696   */\n      swap4\n      swap3\n      pop\n      pop\n      pop\n      jump\t// out\n        /* \"#utility.yul\":2719:3089   */\n    tag_171:\n        /* \"#utility.yul\":2790:2795   */\n      0x00\n        /* \"#utility.yul\":2839:2842   */\n      dup3\n        /* \"#utility.yul\":2832:2836   */\n      0x1f\n        /* \"#utility.yul\":2824:2830   */\n      dup4\n        /* \"#utility.yul\":2820:2837   */\n      add\n        /* \"#utility.yul\":2816:2843   */\n      slt\n        /* \"#utility.yul\":2806:2928   */\n      tag_245\n      jumpi\n        /* \"#utility.yul\":2847:2926   */\n      tag_246\n      tag_164\n      jump\t// in\n    tag_246:\n        /* \"#utility.yul\":2806:2928   */\n    tag_245:\n        /* \"#utility.yul\":2964:2970   */\n      dup2\n        /* \"#utility.yul\":2951:2971   */\n      calldataload\n        /* \"#utility.yul\":2989:3083   */\n      tag_247\n        /* \"#utility.yul\":3079:3082   */\n      dup5\n        /* \"#utility.yul\":3071:3077   */\n      dup3\n        /* \"#utility.yul\":3064:3068   */\n      0x20\n        /* \"#utility.yul\":3056:3062   */\n      dup7\n        /* \"#utility.yul\":3052:3069   */\n      add\n        /* \"#utility.yul\":2989:3083   */\n      tag_170\n      jump\t// in\n    tag_247:\n        /* \"#utility.yul\":2980:3083   */\n      swap2\n      pop\n        /* \"#utility.yul\":2796:3089   */\n      pop\n        /* \"#utility.yul\":2719:3089   */\n      swap3\n      swap2\n      pop\n      pop\n      jump\t// out\n        /* \"#utility.yul\":3095:3779   */\n    tag_22:\n        /* \"#utility.yul\":3188:3194   */\n      0x00\n        /* \"#utility.yul\":3196:3202   */\n      dup1\n        /* \"#utility.yul\":3245:3247   */\n      0x40\n        /* \"#utility.yul\":3233:3242   */\n      dup4\n        /* \"#utility.yul\":3224:3231   */\n      dup6\n        /* \"#utility.yul\":3220:3243   */\n      sub\n        /* \"#utility.yul\":3216:3248   */\n      slt\n        /* \"#utility.yul\":3213:3332   */\n      iszero\n      tag_249\n      jumpi\n        /* \"#utility.yul\":3251:3330   */\n      tag_250\n      tag_159\n      jump\t// in\n    tag_250:\n        /* \"#utility.yul\":3213:3332   */\n    tag_249:\n        /* \"#utility.yul\":3371:3372   */\n      0x00\n        /* \"#utility.yul\":3396:3449   */\n      tag_251\n        /* \"#utility.yul\":3441:3448   */\n      dup6\n        /* \"#utility.yul\":3432:3438   */\n      dup3\n        /* \"#utility.yul\":3421:3430   */\n      dup7\n        /* \"#utility.yul\":3417:3439   */\n      add\n        /* \"#utility.yul\":3396:3449   */\n      tag_163\n      jump\t// in\n    tag_251:\n        /* \"#utility.yul\":3386:3449   */\n      swap3\n      pop\n        /* \"#utility.yul\":3342:3459   */\n      pop\n        /* \"#utility.yul\":3526:3528   */\n      0x20\n        /* \"#utility.yul\":3515:3524   */\n      dup4\n        /* \"#utility.yul\":3511:3529   */\n      add\n        /* \"#utility.yul\":3498:3530   */\n      calldataload\n        /* \"#utility.yul\":3557:3575   */\n      0xffffffffffffffff\n        /* \"#utility.yul\":3549:3555   */\n      dup2\n        /* \"#utility.yul\":3546:3576   */\n      gt\n        /* \"#utility.yul\":3543:3660   */\n      iszero\n      tag_252\n      jumpi\n        /* \"#utility.yul\":3579:3658   */\n      tag_253\n      tag_160\n      jump\t// in\n    tag_253:\n        /* \"#utility.yul\":3543:3660   */\n    tag_252:\n        /* \"#utility.yul\":3684:3762   */\n      tag_254\n        /* \"#utility.yul\":3754:3761   */\n      dup6\n        /* \"#utility.yul\":3745:3751   */\n      dup3\n        /* \"#utility.yul\":3734:3743   */\n      dup7\n        /* \"#utility.yul\":3730:3752   */\n      add\n        /* \"#utility.yul\":3684:3762   */\n      tag_171\n      jump\t// in\n    tag_254:\n        /* \"#utility.yul\":3674:3762   */\n      swap2\n      pop\n        /* \"#utility.yul\":3469:3772   */\n      pop\n        /* \"#utility.yul\":3095:3779   */\n      swap3\n      pop\n      swap3\n      swap1\n      pop\n      jump\t// out\n        /* \"#utility.yul\":3785:3903   */\n    tag_172:\n        /* \"#utility.yul\":3872:3896   */\n      tag_256\n        /* \"#utility.yul\":3890:3895   */\n      dup2\n        /* \"#utility.yul\":3872:3896   */\n      tag_161\n      jump\t// in\n    tag_256:\n        /* \"#utility.yul\":3867:3870   */\n      dup3\n        /* \"#utility.yul\":3860:3897   */\n      mstore\n        /* \"#utility.yul\":3785:3903   */\n      pop\n      pop\n      jump\t// out\n        /* \"#utility.yul\":3909:4131   */\n    tag_27:\n        /* \"#utility.yul\":4002:4006   */\n      0x00\n        /* \"#utility.yul\":4040:4042   */\n      0x20\n        /* \"#utility.yul\":4029:4038   */\n      dup3\n        /* \"#utility.yul\":4025:4043   */\n      add\n        /* \"#utility.yul\":4017:4043   */\n      swap1\n      pop\n        /* \"#utility.yul\":4053:4124   */\n      tag_258\n        /* \"#utility.yul\":4121:4122   */\n      0x00\n        /* \"#utility.yul\":4110:4119   */\n      dup4\n        /* \"#utility.yul\":4106:4123   */\n      add\n        /* \"#utility.yul\":4097:4103   */\n      dup5\n        /* \"#utility.yul\":4053:4124   */\n      tag_172\n      jump\t// in\n    tag_258:\n        /* \"#utility.yul\":3909:4131   */\n      swap3\n      swap2\n      pop\n      pop\n      jump\t// out\n        /* \"#utility.yul\":4137:4466   */\n    tag_30:\n        /* \"#utility.yul\":4196:4202   */\n      0x00\n        /* \"#utility.yul\":4245:4247   */\n      0x20\n        /* \"#utility.yul\":4233:4242   */\n      dup3\n        /* \"#utility.yul\":4224:4231   */\n      dup5\n        /* \"#utility.yul\":4220:4243   */\n      sub\n        /* \"#utility.yul\":4216:4248   */\n      slt\n        /* \"#utility.yul\":4213:4332   */\n      iszero\n      tag_260\n      jumpi\n        /* \"#utility.yul\":4251:4330   */\n      tag_261\n      tag_159\n      jump\t// in\n    tag_261:\n        /* \"#utility.yul\":4213:4332   */\n    tag_260:\n        /* \"#utility.yul\":4371:4372   */\n      0x00\n        /* \"#utility.yul\":4396:4449   */\n      tag_262\n        /* \"#utility.yul\":4441:4448   */\n      dup5\n        /* \"#utility.yul\":4432:4438   */\n      dup3\n        /* \"#utility.yul\":4421:4430   */\n      dup6\n        /* \"#utility.yul\":4417:4439   */\n      add\n        /* \"#utility.yul\":4396:4449   */\n      tag_163\n      jump\t// in\n    tag_262:\n        /* \"#utility.yul\":4386:4449   */\n      swap2\n      pop\n        /* \"#utility.yul\":4342:4459   */\n      pop\n        /* \"#utility.yul\":4137:4466   */\n      swap3\n      swap2\n      pop\n      pop\n      jump\t// out\n        /* \"#utility.yul\":4472:4562   */\n    tag_173:\n        /* \"#utility.yul\":4506:4513   */\n      0x00\n        /* \"#utility.yul\":4549:4554   */\n      dup2\n        /* \"#utility.yul\":4542:4555   */\n      iszero\n        /* \"#utility.yul\":4535:4556   */\n      iszero\n        /* \"#utility.yul\":4524:4556   */\n      swap1\n      pop\n        /* \"#utility.yul\":4472:4562   */\n      swap2\n      swap1\n      pop\n      jump\t// out\n        /* \"#utility.yul\":4568:4677   */\n    tag_174:\n        /* \"#utility.yul\":4649:4670   */\n      tag_265\n        /* \"#utility.yul\":4664:4669   */\n      dup2\n        /* \"#utility.yul\":4649:4670   */\n      tag_173\n      jump\t// in\n    tag_265:\n        /* \"#utility.yul\":4644:4647   */\n      dup3\n        /* \"#utility.yul\":4637:4671   */\n      mstore\n        /* \"#utility.yul\":4568:4677   */\n      pop\n      pop\n      jump\t// out\n        /* \"#utility.yul\":4683:4893   */\n    tag_37:\n        /* \"#utility.yul\":4770:4774   */\n      0x00\n        /* \"#utility.yul\":4808:4810   */\n      0x20\n        /* \"#utility.yul\":4797:4806   */\n      dup3\n        /* \"#utility.yul\":4793:4811   */\n      add\n        /* \"#utility.yul\":4785:4811   */\n      swap1\n      pop\n        /* \"#utility.yul\":4821:4886   */\n      tag_267\n        /* \"#utility.yul\":4883:4884   */\n      0x00\n        /* \"#utility.yul\":4872:4881   */\n      dup4\n        /* \"#utility.yul\":4868:4885   */\n      add\n        /* \"#utility.yul\":4859:4865   */\n      dup5\n        /* \"#utility.yul\":4821:4886   */\n      tag_174\n      jump\t// in\n    tag_267:\n        /* \"#utility.yul\":4683:4893   */\n      swap3\n      swap2\n      pop\n      pop\n      jump\t// out\n        /* \"#utility.yul\":4899:5000   */\n    tag_175:\n        /* \"#utility.yul\":4935:4942   */\n      0x00\n        /* \"#utility.yul\":4975:4993   */\n      0xffffffffffffffff\n        /* \"#utility.yul\":4968:4973   */\n      dup3\n        /* \"#utility.yul\":4964:4994   */\n      and\n        /* \"#utility.yul\":4953:4994   */\n      swap1\n      pop\n        /* \"#utility.yul\":4899:5000   */\n      swap2\n      swap1\n      pop\n      jump\t// out\n        /* \"#utility.yul\":5006:5121   */\n    tag_176:\n        /* \"#utility.yul\":5091:5114   */\n      tag_270\n        /* \"#utility.yul\":5108:5113   */\n      dup2\n        /* \"#utility.yul\":5091:5114   */\n      tag_175\n      jump\t// in\n    tag_270:\n        /* \"#utility.yul\":5086:5089   */\n      dup3\n        /* \"#utility.yul\":5079:5115   */\n      mstore\n        /* \"#utility.yul\":5006:5121   */\n      pop\n      pop\n      jump\t// out\n        /* \"#utility.yul\":5127:5345   */\n    tag_47:\n        /* \"#utility.yul\":5218:5222   */\n      0x00\n        /* \"#utility.yul\":5256:5258   */\n      0x20\n        /* \"#utility.yul\":5245:5254   */\n      dup3\n        /* \"#utility.yul\":5241:5259   */\n      add\n        /* \"#utility.yul\":5233:5259   */\n      swap1\n      pop\n        /* \"#utility.yul\":5269:5338   */\n      tag_272\n        /* \"#utility.yul\":5335:5336   */\n      0x00\n        /* \"#utility.yul\":5324:5333   */\n      dup4\n        /* \"#utility.yul\":5320:5337   */\n      add\n        /* \"#utility.yul\":5311:5317   */\n      dup5\n        /* \"#utility.yul\":5269:5338   */\n      tag_176\n      jump\t// in\n    tag_272:\n        /* \"#utility.yul\":5127:5345   */\n      swap3\n      swap2\n      pop\n      pop\n      jump\t// out\n        /* \"#utility.yul\":5351:5477   */\n    tag_177:\n        /* \"#utility.yul\":5388:5395   */\n      0x00\n        /* \"#utility.yul\":5428:5470   */\n      0xffffffffffffffffffffffffffffffffffffffff\n        /* \"#utility.yul\":5421:5426   */\n      dup3\n        /* \"#utility.yul\":5417:5471   */\n      and\n        /* \"#utility.yul\":5406:5471   */\n      swap1\n      pop\n        /* \"#utility.yul\":5351:5477   */\n      swap2\n      swap1\n      pop\n      jump\t// out\n        /* \"#utility.yul\":5483:5579   */\n    tag_178:\n        /* \"#utility.yul\":5520:5527   */\n      0x00\n        /* \"#utility.yul\":5549:5573   */\n      tag_275\n        /* \"#utility.yul\":5567:5572   */\n      dup3\n        /* \"#utility.yul\":5549:5573   */\n      tag_177\n      jump\t// in\n    tag_275:\n        /* \"#utility.yul\":5538:5573   */\n      swap1\n      pop\n        /* \"#utility.yul\":5483:5579   */\n      swap2\n      swap1\n      pop\n      jump\t// out\n        /* \"#utility.yul\":5585:5703   */\n    tag_179:\n        /* \"#utility.yul\":5672:5696   */\n      tag_277\n        /* \"#utility.yul\":5690:5695   */\n      dup2\n        /* \"#utility.yul\":5672:5696   */\n      tag_178\n      jump\t// in\n    tag_277:\n        /* \"#utility.yul\":5667:5670   */\n      dup3\n        /* \"#utility.yul\":5660:5697   */\n      mstore\n        /* \"#utility.yul\":5585:5703   */\n      pop\n      pop\n      jump\t// out\n        /* \"#utility.yul\":5709:5931   */\n    tag_51:\n        /* \"#utility.yul\":5802:5806   */\n      0x00\n        /* \"#utility.yul\":5840:5842   */\n      0x20\n        /* \"#utility.yul\":5829:5838   */\n      dup3\n        /* \"#utility.yul\":5825:5843   */\n      add\n        /* \"#utility.yul\":5817:5843   */\n      swap1\n      pop\n        /* \"#utility.yul\":5853:5924   */\n      tag_279\n        /* \"#utility.yul\":5921:5922   */\n      0x00\n        /* \"#utility.yul\":5910:5919   */\n      dup4\n        /* \"#utility.yul\":5906:5923   */\n      add\n        /* \"#utility.yul\":5897:5903   */\n      dup5\n        /* \"#utility.yul\":5853:5924   */\n      tag_179\n      jump\t// in\n    tag_279:\n        /* \"#utility.yul\":5709:5931   */\n      swap3\n      swap2\n      pop\n      pop\n      jump\t// out\n        /* \"#utility.yul\":5937:6245   */\n    tag_60:\n        /* \"#utility.yul\":6046:6050   */\n      0x00\n        /* \"#utility.yul\":6084:6086   */\n      0x40\n        /* \"#utility.yul\":6073:6082   */\n      dup3\n        /* \"#utility.yul\":6069:6087   */\n      add\n        /* \"#utility.yul\":6061:6087   */\n      swap1\n      pop\n        /* \"#utility.yul\":6097:6162   */\n      tag_281\n        /* \"#utility.yul\":6159:6160   */\n      0x00\n        /* \"#utility.yul\":6148:6157   */\n      dup4\n        /* \"#utility.yul\":6144:6161   */\n      add\n        /* \"#utility.yul\":6135:6141   */\n      dup6\n        /* \"#utility.yul\":6097:6162   */\n      tag_174\n      jump\t// in\n    tag_281:\n        /* \"#utility.yul\":6172:6238   */\n      tag_282\n        /* \"#utility.yul\":6234:6236   */\n      0x20\n        /* \"#utility.yul\":6223:6232   */\n      dup4\n        /* \"#utility.yul\":6219:6237   */\n      add\n        /* \"#utility.yul\":6210:6216   */\n      dup5\n        /* \"#utility.yul\":6172:6238   */\n      tag_174\n      jump\t// in\n    tag_282:\n        /* \"#utility.yul\":5937:6245   */\n      swap4\n      swap3\n      pop\n      pop\n      pop\n      jump\t// out\n        /* \"#utility.yul\":6251:6365   */\n    tag_180:\n        /* \"#utility.yul\":6318:6324   */\n      0x00\n        /* \"#utility.yul\":6352:6357   */\n      dup2\n        /* \"#utility.yul\":6346:6358   */\n      mload\n        /* \"#utility.yul\":6336:6358   */\n      swap1\n      pop\n        /* \"#utility.yul\":6251:6365   */\n      swap2\n      swap1\n      pop\n      jump\t// out\n        /* \"#utility.yul\":6371:6555   */\n    tag_181:\n        /* \"#utility.yul\":6470:6481   */\n      0x00\n        /* \"#utility.yul\":6504:6510   */\n      dup3\n        /* \"#utility.yul\":6499:6502   */\n      dup3\n        /* \"#utility.yul\":6492:6511   */\n      mstore\n        /* \"#utility.yul\":6544:6548   */\n      0x20\n        /* \"#utility.yul\":6539:6542   */\n      dup3\n        /* \"#utility.yul\":6535:6549   */\n      add\n        /* \"#utility.yul\":6520:6549   */\n      swap1\n      pop\n        /* \"#utility.yul\":6371:6555   */\n      swap3\n      swap2\n      pop\n      pop\n      jump\t// out\n        /* \"#utility.yul\":6561:6693   */\n    tag_182:\n        /* \"#utility.yul\":6628:6632   */\n      0x00\n        /* \"#utility.yul\":6651:6654   */\n      dup2\n        /* \"#utility.yul\":6643:6654   */\n      swap1\n      pop\n        /* \"#utility.yul\":6681:6685   */\n      0x20\n        /* \"#utility.yul\":6676:6679   */\n      dup3\n        /* \"#utility.yul\":6672:6686   */\n      add\n        /* \"#utility.yul\":6664:6686   */\n      swap1\n      pop\n        /* \"#utility.yul\":6561:6693   */\n      swap2\n      swap1\n      pop\n      jump\t// out\n        /* \"#utility.yul\":6699:6807   */\n    tag_183:\n        /* \"#utility.yul\":6776:6800   */\n      tag_287\n        /* \"#utility.yul\":6794:6799   */\n      dup2\n        /* \"#utility.yul\":6776:6800   */\n      tag_161\n      jump\t// in\n    tag_287:\n        /* \"#utility.yul\":6771:6774   */\n      dup3\n        /* \"#utility.yul\":6764:6801   */\n      mstore\n        /* \"#utility.yul\":6699:6807   */\n      pop\n      pop\n      jump\t// out\n        /* \"#utility.yul\":6813:6992   */\n    tag_184:\n        /* \"#utility.yul\":6882:6892   */\n      0x00\n        /* \"#utility.yul\":6903:6949   */\n      tag_289\n        /* \"#utility.yul\":6945:6948   */\n      dup4\n        /* \"#utility.yul\":6937:6943   */\n      dup4\n        /* \"#utility.yul\":6903:6949   */\n      tag_183\n      jump\t// in\n    tag_289:\n        /* \"#utility.yul\":6981:6985   */\n      0x20\n        /* \"#utility.yul\":6976:6979   */\n      dup4\n        /* \"#utility.yul\":6972:6986   */\n      add\n        /* \"#utility.yul\":6958:6986   */\n      swap1\n      pop\n        /* \"#utility.yul\":6813:6992   */\n      swap3\n      swap2\n      pop\n      pop\n      jump\t// out\n        /* \"#utility.yul\":6998:7111   */\n    tag_185:\n        /* \"#utility.yul\":7068:7072   */\n      0x00\n        /* \"#utility.yul\":7100:7104   */\n      0x20\n        /* \"#utility.yul\":7095:7098   */\n      dup3\n        /* \"#utility.yul\":7091:7105   */\n      add\n        /* \"#utility.yul\":7083:7105   */\n      swap1\n      pop\n        /* \"#utility.yul\":6998:7111   */\n      swap2\n      swap1\n      pop\n      jump\t// out\n        /* \"#utility.yul\":7147:7879   */\n    tag_186:\n        /* \"#utility.yul\":7266:7269   */\n      0x00\n        /* \"#utility.yul\":7295:7349   */\n      tag_292\n        /* \"#utility.yul\":7343:7348   */\n      dup3\n        /* \"#utility.yul\":7295:7349   */\n      tag_180\n      jump\t// in\n    tag_292:\n        /* \"#utility.yul\":7365:7451   */\n      tag_293\n        /* \"#utility.yul\":7444:7450   */\n      dup2\n        /* \"#utility.yul\":7439:7442   */\n      dup6\n        /* \"#utility.yul\":7365:7451   */\n      tag_181\n      jump\t// in\n    tag_293:\n        /* \"#utility.yul\":7358:7451   */\n      swap4\n      pop\n        /* \"#utility.yul\":7475:7531   */\n      tag_294\n        /* \"#utility.yul\":7525:7530   */\n      dup4\n        /* \"#utility.yul\":7475:7531   */\n      tag_182\n      jump\t// in\n    tag_294:\n        /* \"#utility.yul\":7554:7561   */\n      dup1\n        /* \"#utility.yul\":7585:7586   */\n      0x00\n        /* \"#utility.yul\":7570:7854   */\n    tag_295:\n        /* \"#utility.yul\":7595:7601   */\n      dup4\n        /* \"#utility.yul\":7592:7593   */\n      dup2\n        /* \"#utility.yul\":7589:7602   */\n      lt\n        /* \"#utility.yul\":7570:7854   */\n      iszero\n      tag_297\n      jumpi\n        /* \"#utility.yul\":7671:7677   */\n      dup2\n        /* \"#utility.yul\":7665:7678   */\n      mload\n        /* \"#utility.yul\":7698:7761   */\n      tag_298\n        /* \"#utility.yul\":7757:7760   */\n      dup9\n        /* \"#utility.yul\":7742:7755   */\n      dup3\n        /* \"#utility.yul\":7698:7761   */\n      tag_184\n      jump\t// in\n    tag_298:\n        /* \"#utility.yul\":7691:7761   */\n      swap8\n      pop\n        /* \"#utility.yul\":7784:7844   */\n      tag_299\n        /* \"#utility.yul\":7837:7843   */\n      dup4\n        /* \"#utility.yul\":7784:7844   */\n      tag_185\n      jump\t// in\n    tag_299:\n        /* \"#utility.yul\":7774:7844   */\n      swap3\n      pop\n        /* \"#utility.yul\":7630:7854   */\n      pop\n        /* \"#utility.yul\":7617:7618   */\n      0x01\n        /* \"#utility.yul\":7614:7615   */\n      dup2\n        /* \"#utility.yul\":7610:7619   */\n      add\n        /* \"#utility.yul\":7605:7619   */\n      swap1\n      pop\n        /* \"#utility.yul\":7570:7854   */\n      jump(tag_295)\n    tag_297:\n        /* \"#utility.yul\":7574:7588   */\n      pop\n        /* \"#utility.yul\":7870:7873   */\n      dup6\n        /* \"#utility.yul\":7863:7873   */\n      swap4\n      pop\n        /* \"#utility.yul\":7271:7879   */\n      pop\n      pop\n      pop\n        /* \"#utility.yul\":7147:7879   */\n      swap3\n      swap2\n      pop\n      pop\n      jump\t// out\n        /* \"#utility.yul\":7885:8258   */\n    tag_64:\n        /* \"#utility.yul\":8028:8032   */\n      0x00\n        /* \"#utility.yul\":8066:8068   */\n      0x20\n        /* \"#utility.yul\":8055:8064   */\n      dup3\n        /* \"#utility.yul\":8051:8069   */\n      add\n        /* \"#utility.yul\":8043:8069   */\n      swap1\n      pop\n        /* \"#utility.yul\":8115:8124   */\n      dup2\n        /* \"#utility.yul\":8109:8113   */\n      dup2\n        /* \"#utility.yul\":8105:8125   */\n      sub\n        /* \"#utility.yul\":8101:8102   */\n      0x00\n        /* \"#utility.yul\":8090:8099   */\n      dup4\n        /* \"#utility.yul\":8086:8103   */\n      add\n        /* \"#utility.yul\":8079:8126   */\n      mstore\n        /* \"#utility.yul\":8143:8251   */\n      tag_301\n        /* \"#utility.yul\":8246:8250   */\n      dup2\n        /* \"#utility.yul\":8237:8243   */\n      dup5\n        /* \"#utility.yul\":8143:8251   */\n      tag_186\n      jump\t// in\n    tag_301:\n        /* \"#utility.yul\":8135:8251   */\n      swap1\n      pop\n        /* \"#utility.yul\":7885:8258   */\n      swap3\n      swap2\n      pop\n      pop\n      jump\t// out\n        /* \"#utility.yul\":8264:8357   */\n    tag_187:\n        /* \"#utility.yul\":8300:8307   */\n      0x00\n        /* \"#utility.yul\":8340:8350   */\n      0xffffffff\n        /* \"#utility.yul\":8333:8338   */\n      dup3\n        /* \"#utility.yul\":8329:8351   */\n      and\n        /* \"#utility.yul\":8318:8351   */\n      swap1\n      pop\n        /* \"#utility.yul\":8264:8357   */\n      swap2\n      swap1\n      pop\n      jump\t// out\n        /* \"#utility.yul\":8363:8483   */\n    tag_188:\n        /* \"#utility.yul\":8435:8458   */\n      tag_304\n        /* \"#utility.yul\":8452:8457   */\n      dup2\n        /* \"#utility.yul\":8435:8458   */\n      tag_187\n      jump\t// in\n    tag_304:\n        /* \"#utility.yul\":8428:8433   */\n      dup2\n        /* \"#utility.yul\":8425:8459   */\n      eq\n        /* \"#utility.yul\":8415:8477   */\n      tag_305\n      jumpi\n        /* \"#utility.yul\":8473:8474   */\n      0x00\n        /* \"#utility.yul\":8470:8471   */\n      dup1\n        /* \"#utility.yul\":8463:8475   */\n      revert\n        /* \"#utility.yul\":8415:8477   */\n    tag_305:\n        /* \"#utility.yul\":8363:8483   */\n      pop\n      jump\t// out\n        /* \"#utility.yul\":8489:8626   */\n    tag_189:\n        /* \"#utility.yul\":8534:8539   */\n      0x00\n        /* \"#utility.yul\":8572:8578   */\n      dup2\n        /* \"#utility.yul\":8559:8579   */\n      calldataload\n        /* \"#utility.yul\":8550:8579   */\n      swap1\n      pop\n        /* \"#utility.yul\":8588:8620   */\n      tag_307\n        /* \"#utility.yul\":8614:8619   */\n      dup2\n        /* \"#utility.yul\":8588:8620   */\n      tag_188\n      jump\t// in\n    tag_307:\n        /* \"#utility.yul\":8489:8626   */\n      swap3\n      swap2\n      pop\n      pop\n      jump\t// out\n        /* \"#utility.yul\":8632:9104   */\n    tag_67:\n        /* \"#utility.yul\":8699:8705   */\n      0x00\n        /* \"#utility.yul\":8707:8713   */\n      dup1\n        /* \"#utility.yul\":8756:8758   */\n      0x40\n        /* \"#utility.yul\":8744:8753   */\n      dup4\n        /* \"#utility.yul\":8735:8742   */\n      dup6\n        /* \"#utility.yul\":8731:8754   */\n      sub\n        /* \"#utility.yul\":8727:8759   */\n      slt\n        /* \"#utility.yul\":8724:8843   */\n      iszero\n      tag_309\n      jumpi\n        /* \"#utility.yul\":8762:8841   */\n      tag_310\n      tag_159\n      jump\t// in\n    tag_310:\n        /* \"#utility.yul\":8724:8843   */\n    tag_309:\n        /* \"#utility.yul\":8882:8883   */\n      0x00\n        /* \"#utility.yul\":8907:8959   */\n      tag_311\n        /* \"#utility.yul\":8951:8958   */\n      dup6\n        /* \"#utility.yul\":8942:8948   */\n      dup3\n        /* \"#utility.yul\":8931:8940   */\n      dup7\n        /* \"#utility.yul\":8927:8949   */\n      add\n        /* \"#utility.yul\":8907:8959   */\n      tag_189\n      jump\t// in\n    tag_311:\n        /* \"#utility.yul\":8897:8959   */\n      swap3\n      pop\n        /* \"#utility.yul\":8853:8969   */\n      pop\n        /* \"#utility.yul\":9008:9010   */\n      0x20\n        /* \"#utility.yul\":9034:9087   */\n      tag_312\n        /* \"#utility.yul\":9079:9086   */\n      dup6\n        /* \"#utility.yul\":9070:9076   */\n      dup3\n        /* \"#utility.yul\":9059:9068   */\n      dup7\n        /* \"#utility.yul\":9055:9077   */\n      add\n        /* \"#utility.yul\":9034:9087   */\n      tag_163\n      jump\t// in\n    tag_312:\n        /* \"#utility.yul\":9024:9087   */\n      swap2\n      pop\n        /* \"#utility.yul\":8979:9097   */\n      pop\n        /* \"#utility.yul\":8632:9104   */\n      swap3\n      pop\n      swap3\n      swap1\n      pop\n      jump\t// out\n        /* \"#utility.yul\":9110:9232   */\n    tag_190:\n        /* \"#utility.yul\":9183:9207   */\n      tag_314\n        /* \"#utility.yul\":9201:9206   */\n      dup2\n        /* \"#utility.yul\":9183:9207   */\n      tag_178\n      jump\t// in\n    tag_314:\n        /* \"#utility.yul\":9176:9181   */\n      dup2\n        /* \"#utility.yul\":9173:9208   */\n      eq\n        /* \"#utility.yul\":9163:9226   */\n      tag_315\n      jumpi\n        /* \"#utility.yul\":9222:9223   */\n      0x00\n        /* \"#utility.yul\":9219:9220   */\n      dup1\n        /* \"#utility.yul\":9212:9224   */\n      revert\n        /* \"#utility.yul\":9163:9226   */\n    tag_315:\n        /* \"#utility.yul\":9110:9232   */\n      pop\n      jump\t// out\n        /* \"#utility.yul\":9238:9377   */\n    tag_191:\n        /* \"#utility.yul\":9284:9289   */\n      0x00\n        /* \"#utility.yul\":9322:9328   */\n      dup2\n        /* \"#utility.yul\":9309:9329   */\n      calldataload\n        /* \"#utility.yul\":9300:9329   */\n      swap1\n      pop\n        /* \"#utility.yul\":9338:9371   */\n      tag_317\n        /* \"#utility.yul\":9365:9370   */\n      dup2\n        /* \"#utility.yul\":9338:9371   */\n      tag_190\n      jump\t// in\n    tag_317:\n        /* \"#utility.yul\":9238:9377   */\n      swap3\n      swap2\n      pop\n      pop\n      jump\t// out\n        /* \"#utility.yul\":9383:9712   */\n    tag_72:\n        /* \"#utility.yul\":9442:9448   */\n      0x00\n        /* \"#utility.yul\":9491:9493   */\n      0x20\n        /* \"#utility.yul\":9479:9488   */\n      dup3\n        /* \"#utility.yul\":9470:9477   */\n      dup5\n        /* \"#utility.yul\":9466:9489   */\n      sub\n        /* \"#utility.yul\":9462:9494   */\n      slt\n        /* \"#utility.yul\":9459:9578   */\n      iszero\n      tag_319\n      jumpi\n        /* \"#utility.yul\":9497:9576   */\n      tag_320\n      tag_159\n      jump\t// in\n    tag_320:\n        /* \"#utility.yul\":9459:9578   */\n    tag_319:\n        /* \"#utility.yul\":9617:9618   */\n      0x00\n        /* \"#utility.yul\":9642:9695   */\n      tag_321\n        /* \"#utility.yul\":9687:9694   */\n      dup5\n        /* \"#utility.yul\":9678:9684   */\n      dup3\n        /* \"#utility.yul\":9667:9676   */\n      dup6\n        /* \"#utility.yul\":9663:9685   */\n      add\n        /* \"#utility.yul\":9642:9695   */\n      tag_191\n      jump\t// in\n    tag_321:\n        /* \"#utility.yul\":9632:9695   */\n      swap2\n      pop\n        /* \"#utility.yul\":9588:9705   */\n      pop\n        /* \"#utility.yul\":9383:9712   */\n      swap3\n      swap2\n      pop\n      pop\n      jump\t// out\n        /* \"#utility.yul\":9718:10050   */\n    tag_80:\n        /* \"#utility.yul\":9839:9843   */\n      0x00\n        /* \"#utility.yul\":9877:9879   */\n      0x40\n        /* \"#utility.yul\":9866:9875   */\n      dup3\n        /* \"#utility.yul\":9862:9880   */\n      add\n        /* \"#utility.yul\":9854:9880   */\n      swap1\n      pop\n        /* \"#utility.yul\":9890:9961   */\n      tag_323\n        /* \"#utility.yul\":9958:9959   */\n      0x00\n        /* \"#utility.yul\":9947:9956   */\n      dup4\n        /* \"#utility.yul\":9943:9960   */\n      add\n        /* \"#utility.yul\":9934:9940   */\n      dup6\n        /* \"#utility.yul\":9890:9961   */\n      tag_179\n      jump\t// in\n    tag_323:\n        /* \"#utility.yul\":9971:10043   */\n      tag_324\n        /* \"#utility.yul\":10039:10041   */\n      0x20\n        /* \"#utility.yul\":10028:10037   */\n      dup4\n        /* \"#utility.yul\":10024:10042   */\n      add\n        /* \"#utility.yul\":10015:10021   */\n      dup5\n        /* \"#utility.yul\":9971:10043   */\n      tag_179\n      jump\t// in\n    tag_324:\n        /* \"#utility.yul\":9718:10050   */\n      swap4\n      swap3\n      pop\n      pop\n      pop\n      jump\t// out\n        /* \"#utility.yul\":10056:10225   */\n    tag_192:\n        /* \"#utility.yul\":10140:10151   */\n      0x00\n        /* \"#utility.yul\":10174:10180   */\n      dup3\n        /* \"#utility.yul\":10169:10172   */\n      dup3\n        /* \"#utility.yul\":10162:10181   */\n      mstore\n        /* \"#utility.yul\":10214:10218   */\n      0x20\n        /* \"#utility.yul\":10209:10212   */\n      dup3\n        /* \"#utility.yul\":10205:10219   */\n      add\n        /* \"#utility.yul\":10190:10219   */\n      swap1\n      pop\n        /* \"#utility.yul\":10056:10225   */\n      swap3\n      swap2\n      pop\n      pop\n      jump\t// out\n        /* \"#utility.yul\":10231:10403   */\n    tag_193:\n        /* \"#utility.yul\":10371:10395   */\n      0x4d7573742062652070726f706f736564206f776e657200000000000000000000\n        /* \"#utility.yul\":10367:10368   */\n      0x00\n        /* \"#utility.yul\":10359:10365   */\n      dup3\n        /* \"#utility.yul\":10355:10369   */\n      add\n        /* \"#utility.yul\":10348:10396   */\n      mstore\n        /* \"#utility.yul\":10231:10403   */\n      pop\n      jump\t// out\n        /* \"#utility.yul\":10409:10775   */\n    tag_194:\n        /* \"#utility.yul\":10551:10554   */\n      0x00\n        /* \"#utility.yul\":10572:10639   */\n      tag_328\n        /* \"#utility.yul\":10636:10638   */\n      0x16\n        /* \"#utility.yul\":10631:10634   */\n      dup4\n        /* \"#utility.yul\":10572:10639   */\n      tag_192\n      jump\t// in\n    tag_328:\n        /* \"#utility.yul\":10565:10639   */\n      swap2\n      pop\n        /* \"#utility.yul\":10648:10741   */\n      tag_329\n        /* \"#utility.yul\":10737:10740   */\n      dup3\n        /* \"#utility.yul\":10648:10741   */\n      tag_193\n      jump\t// in\n    tag_329:\n        /* \"#utility.yul\":10766:10768   */\n      0x20\n        /* \"#utility.yul\":10761:10764   */\n      dup3\n        /* \"#utility.yul\":10757:10769   */\n      add\n        /* \"#utility.yul\":10750:10769   */\n      swap1\n      pop\n        /* \"#utility.yul\":10409:10775   */\n      swap2\n      swap1\n      pop\n      jump\t// out\n        /* \"#utility.yul\":10781:11200   */\n    tag_88:\n        /* \"#utility.yul\":10947:10951   */\n      0x00\n        /* \"#utility.yul\":10985:10987   */\n      0x20\n        /* \"#utility.yul\":10974:10983   */\n      dup3\n        /* \"#utility.yul\":10970:10988   */\n      add\n        /* \"#utility.yul\":10962:10988   */\n      swap1\n      pop\n        /* \"#utility.yul\":11034:11043   */\n      dup2\n        /* \"#utility.yul\":11028:11032   */\n      dup2\n        /* \"#utility.yul\":11024:11044   */\n      sub\n        /* \"#utility.yul\":11020:11021   */\n      0x00\n        /* \"#utility.yul\":11009:11018   */\n      dup4\n        /* \"#utility.yul\":11005:11022   */\n      add\n        /* \"#utility.yul\":10998:11045   */\n      mstore\n        /* \"#utility.yul\":11062:11193   */\n      tag_331\n        /* \"#utility.yul\":11188:11192   */\n      dup2\n        /* \"#utility.yul\":11062:11193   */\n      tag_194\n      jump\t// in\n    tag_331:\n        /* \"#utility.yul\":11054:11193   */\n      swap1\n      pop\n        /* \"#utility.yul\":10781:11200   */\n      swap2\n      swap1\n      pop\n      jump\t// out\n        /* \"#utility.yul\":11206:11437   */\n    tag_195:\n        /* \"#utility.yul\":11346:11380   */\n      0x7175616e74697479206f66206e756d62657273206d7573742062652062657477\n        /* \"#utility.yul\":11342:11343   */\n      0x00\n        /* \"#utility.yul\":11334:11340   */\n      dup3\n        /* \"#utility.yul\":11330:11344   */\n      add\n        /* \"#utility.yul\":11323:11381   */\n      mstore\n        /* \"#utility.yul\":11415:11429   */\n      0x65656e203120616e642031300000000000000000000000000000000000000000\n        /* \"#utility.yul\":11410:11412   */\n      0x20\n        /* \"#utility.yul\":11402:11408   */\n      dup3\n        /* \"#utility.yul\":11398:11413   */\n      add\n        /* \"#utility.yul\":11391:11430   */\n      mstore\n        /* \"#utility.yul\":11206:11437   */\n      pop\n      jump\t// out\n        /* \"#utility.yul\":11443:11809   */\n    tag_196:\n        /* \"#utility.yul\":11585:11588   */\n      0x00\n        /* \"#utility.yul\":11606:11673   */\n      tag_334\n        /* \"#utility.yul\":11670:11672   */\n      0x2c\n        /* \"#utility.yul\":11665:11668   */\n      dup4\n        /* \"#utility.yul\":11606:11673   */\n      tag_192\n      jump\t// in\n    tag_334:\n        /* \"#utility.yul\":11599:11673   */\n      swap2\n      pop\n        /* \"#utility.yul\":11682:11775   */\n      tag_335\n        /* \"#utility.yul\":11771:11774   */\n      dup3\n        /* \"#utility.yul\":11682:11775   */\n      tag_195\n      jump\t// in\n    tag_335:\n        /* \"#utility.yul\":11800:11802   */\n      0x40\n        /* \"#utility.yul\":11795:11798   */\n      dup3\n        /* \"#utility.yul\":11791:11803   */\n      add\n        /* \"#utility.yul\":11784:11803   */\n      swap1\n      pop\n        /* \"#utility.yul\":11443:11809   */\n      swap2\n      swap1\n      pop\n      jump\t// out\n        /* \"#utility.yul\":11815:12234   */\n    tag_101:\n        /* \"#utility.yul\":11981:11985   */\n      0x00\n        /* \"#utility.yul\":12019:12021   */\n      0x20\n        /* \"#utility.yul\":12008:12017   */\n      dup3\n        /* \"#utility.yul\":12004:12022   */\n      add\n        /* \"#utility.yul\":11996:12022   */\n      swap1\n      pop\n        /* \"#utility.yul\":12068:12077   */\n      dup2\n        /* \"#utility.yul\":12062:12066   */\n      dup2\n        /* \"#utility.yul\":12058:12078   */\n      sub\n        /* \"#utility.yul\":12054:12055   */\n      0x00\n        /* \"#utility.yul\":12043:12052   */\n      dup4\n        /* \"#utility.yul\":12039:12056   */\n      add\n        /* \"#utility.yul\":12032:12079   */\n      mstore\n        /* \"#utility.yul\":12096:12227   */\n      tag_337\n        /* \"#utility.yul\":12222:12226   */\n      dup2\n        /* \"#utility.yul\":12096:12227   */\n      tag_196\n      jump\t// in\n    tag_337:\n        /* \"#utility.yul\":12088:12227   */\n      swap1\n      pop\n        /* \"#utility.yul\":11815:12234   */\n      swap2\n      swap1\n      pop\n      jump\t// out\n        /* \"#utility.yul\":12240:12317   */\n    tag_197:\n        /* \"#utility.yul\":12277:12284   */\n      0x00\n        /* \"#utility.yul\":12306:12311   */\n      dup2\n        /* \"#utility.yul\":12295:12311   */\n      swap1\n      pop\n        /* \"#utility.yul\":12240:12317   */\n      swap2\n      swap1\n      pop\n      jump\t// out\n        /* \"#utility.yul\":12323:12441   */\n    tag_198:\n        /* \"#utility.yul\":12410:12434   */\n      tag_340\n        /* \"#utility.yul\":12428:12433   */\n      dup2\n        /* \"#utility.yul\":12410:12434   */\n      tag_197\n      jump\t// in\n    tag_340:\n        /* \"#utility.yul\":12405:12408   */\n      dup3\n        /* \"#utility.yul\":12398:12435   */\n      mstore\n        /* \"#utility.yul\":12323:12441   */\n      pop\n      pop\n      jump\t// out\n        /* \"#utility.yul\":12447:12536   */\n    tag_199:\n        /* \"#utility.yul\":12483:12490   */\n      0x00\n        /* \"#utility.yul\":12523:12529   */\n      0xffff\n        /* \"#utility.yul\":12516:12521   */\n      dup3\n        /* \"#utility.yul\":12512:12530   */\n      and\n        /* \"#utility.yul\":12501:12530   */\n      swap1\n      pop\n        /* \"#utility.yul\":12447:12536   */\n      swap2\n      swap1\n      pop\n      jump\t// out\n        /* \"#utility.yul\":12542:12657   */\n    tag_200:\n        /* \"#utility.yul\":12627:12650   */\n      tag_343\n        /* \"#utility.yul\":12644:12649   */\n      dup2\n        /* \"#utility.yul\":12627:12650   */\n      tag_199\n      jump\t// in\n    tag_343:\n        /* \"#utility.yul\":12622:12625   */\n      dup3\n        /* \"#utility.yul\":12615:12651   */\n      mstore\n        /* \"#utility.yul\":12542:12657   */\n      pop\n      pop\n      jump\t// out\n        /* \"#utility.yul\":12663:12778   */\n    tag_201:\n        /* \"#utility.yul\":12748:12771   */\n      tag_345\n        /* \"#utility.yul\":12765:12770   */\n      dup2\n        /* \"#utility.yul\":12748:12771   */\n      tag_187\n      jump\t// in\n    tag_345:\n        /* \"#utility.yul\":12743:12746   */\n      dup3\n        /* \"#utility.yul\":12736:12772   */\n      mstore\n        /* \"#utility.yul\":12663:12778   */\n      pop\n      pop\n      jump\t// out\n        /* \"#utility.yul\":12784:13432   */\n    tag_103:\n        /* \"#utility.yul\":12981:12985   */\n      0x00\n        /* \"#utility.yul\":13019:13022   */\n      0xa0\n        /* \"#utility.yul\":13008:13017   */\n      dup3\n        /* \"#utility.yul\":13004:13023   */\n      add\n        /* \"#utility.yul\":12996:13023   */\n      swap1\n      pop\n        /* \"#utility.yul\":13033:13104   */\n      tag_347\n        /* \"#utility.yul\":13101:13102   */\n      0x00\n        /* \"#utility.yul\":13090:13099   */\n      dup4\n        /* \"#utility.yul\":13086:13103   */\n      add\n        /* \"#utility.yul\":13077:13083   */\n      dup9\n        /* \"#utility.yul\":13033:13104   */\n      tag_198\n      jump\t// in\n    tag_347:\n        /* \"#utility.yul\":13114:13184   */\n      tag_348\n        /* \"#utility.yul\":13180:13182   */\n      0x20\n        /* \"#utility.yul\":13169:13178   */\n      dup4\n        /* \"#utility.yul\":13165:13183   */\n      add\n        /* \"#utility.yul\":13156:13162   */\n      dup8\n        /* \"#utility.yul\":13114:13184   */\n      tag_176\n      jump\t// in\n    tag_348:\n        /* \"#utility.yul\":13194:13264   */\n      tag_349\n        /* \"#utility.yul\":13260:13262   */\n      0x40\n        /* \"#utility.yul\":13249:13258   */\n      dup4\n        /* \"#utility.yul\":13245:13263   */\n      add\n        /* \"#utility.yul\":13236:13242   */\n      dup7\n        /* \"#utility.yul\":13194:13264   */\n      tag_200\n      jump\t// in\n    tag_349:\n        /* \"#utility.yul\":13274:13344   */\n      tag_350\n        /* \"#utility.yul\":13340:13342   */\n      0x60\n        /* \"#utility.yul\":13329:13338   */\n      dup4\n        /* \"#utility.yul\":13325:13343   */\n      add\n        /* \"#utility.yul\":13316:13322   */\n      dup6\n        /* \"#utility.yul\":13274:13344   */\n      tag_201\n      jump\t// in\n    tag_350:\n        /* \"#utility.yul\":13354:13425   */\n      tag_351\n        /* \"#utility.yul\":13420:13423   */\n      0x80\n        /* \"#utility.yul\":13409:13418   */\n      dup4\n        /* \"#utility.yul\":13405:13424   */\n      add\n        /* \"#utility.yul\":13396:13402   */\n      dup5\n        /* \"#utility.yul\":13354:13425   */\n      tag_201\n      jump\t// in\n    tag_351:\n        /* \"#utility.yul\":12784:13432   */\n      swap7\n      swap6\n      pop\n      pop\n      pop\n      pop\n      pop\n      pop\n      jump\t// out\n        /* \"#utility.yul\":13438:13581   */\n    tag_202:\n        /* \"#utility.yul\":13495:13500   */\n      0x00\n        /* \"#utility.yul\":13526:13532   */\n      dup2\n        /* \"#utility.yul\":13520:13533   */\n      mload\n        /* \"#utility.yul\":13511:13533   */\n      swap1\n      pop\n        /* \"#utility.yul\":13542:13575   */\n      tag_353\n        /* \"#utility.yul\":13569:13574   */\n      dup2\n        /* \"#utility.yul\":13542:13575   */\n      tag_162\n      jump\t// in\n    tag_353:\n        /* \"#utility.yul\":13438:13581   */\n      swap3\n      swap2\n      pop\n      pop\n      jump\t// out\n        /* \"#utility.yul\":13587:13938   */\n    tag_107:\n        /* \"#utility.yul\":13657:13663   */\n      0x00\n        /* \"#utility.yul\":13706:13708   */\n      0x20\n        /* \"#utility.yul\":13694:13703   */\n      dup3\n        /* \"#utility.yul\":13685:13692   */\n      dup5\n        /* \"#utility.yul\":13681:13704   */\n      sub\n        /* \"#utility.yul\":13677:13709   */\n      slt\n        /* \"#utility.yul\":13674:13793   */\n      iszero\n      tag_355\n      jumpi\n        /* \"#utility.yul\":13712:13791   */\n      tag_356\n      tag_159\n      jump\t// in\n    tag_356:\n        /* \"#utility.yul\":13674:13793   */\n    tag_355:\n        /* \"#utility.yul\":13832:13833   */\n      0x00\n        /* \"#utility.yul\":13857:13921   */\n      tag_357\n        /* \"#utility.yul\":13913:13920   */\n      dup5\n        /* \"#utility.yul\":13904:13910   */\n      dup3\n        /* \"#utility.yul\":13893:13902   */\n      dup6\n        /* \"#utility.yul\":13889:13911   */\n      add\n        /* \"#utility.yul\":13857:13921   */\n      tag_202\n      jump\t// in\n    tag_357:\n        /* \"#utility.yul\":13847:13921   */\n      swap2\n      pop\n        /* \"#utility.yul\":13803:13931   */\n      pop\n        /* \"#utility.yul\":13587:13938   */\n      swap3\n      swap2\n      pop\n      pop\n      jump\t// out\n        /* \"#utility.yul\":13944:14272   */\n    tag_116:\n        /* \"#utility.yul\":14063:14067   */\n      0x00\n        /* \"#utility.yul\":14101:14103   */\n      0x40\n        /* \"#utility.yul\":14090:14099   */\n      dup3\n        /* \"#utility.yul\":14086:14104   */\n      add\n        /* \"#utility.yul\":14078:14104   */\n      swap1\n      pop\n        /* \"#utility.yul\":14114:14185   */\n      tag_359\n        /* \"#utility.yul\":14182:14183   */\n      0x00\n        /* \"#utility.yul\":14171:14180   */\n      dup4\n        /* \"#utility.yul\":14167:14184   */\n      add\n        /* \"#utility.yul\":14158:14164   */\n      dup6\n        /* \"#utility.yul\":14114:14185   */\n      tag_172\n      jump\t// in\n    tag_359:\n        /* \"#utility.yul\":14195:14265   */\n      tag_360\n        /* \"#utility.yul\":14261:14263   */\n      0x20\n        /* \"#utility.yul\":14250:14259   */\n      dup4\n        /* \"#utility.yul\":14246:14264   */\n      add\n        /* \"#utility.yul\":14237:14243   */\n      dup5\n        /* \"#utility.yul\":14195:14265   */\n      tag_201\n      jump\t// in\n    tag_360:\n        /* \"#utility.yul\":13944:14272   */\n      swap4\n      swap3\n      pop\n      pop\n      pop\n      jump\t// out\n        /* \"#utility.yul\":14278:14445   */\n    tag_203:\n        /* \"#utility.yul\":14418:14437   */\n      0x72657175657374206e6f7420666f756e64000000000000000000000000000000\n        /* \"#utility.yul\":14414:14415   */\n      0x00\n        /* \"#utility.yul\":14406:14412   */\n      dup3\n        /* \"#utility.yul\":14402:14416   */\n      add\n        /* \"#utility.yul\":14395:14438   */\n      mstore\n        /* \"#utility.yul\":14278:14445   */\n      pop\n      jump\t// out\n        /* \"#utility.yul\":14451:14817   */\n    tag_204:\n        /* \"#utility.yul\":14593:14596   */\n      0x00\n        /* \"#utility.yul\":14614:14681   */\n      tag_363\n        /* \"#utility.yul\":14678:14680   */\n      0x11\n        /* \"#utility.yul\":14673:14676   */\n      dup4\n        /* \"#utility.yul\":14614:14681   */\n      tag_192\n      jump\t// in\n    tag_363:\n        /* \"#utility.yul\":14607:14681   */\n      swap2\n      pop\n        /* \"#utility.yul\":14690:14783   */\n      tag_364\n        /* \"#utility.yul\":14779:14782   */\n      dup3\n        /* \"#utility.yul\":14690:14783   */\n      tag_203\n      jump\t// in\n    tag_364:\n        /* \"#utility.yul\":14808:14810   */\n      0x20\n        /* \"#utility.yul\":14803:14806   */\n      dup3\n        /* \"#utility.yul\":14799:14811   */\n      add\n        /* \"#utility.yul\":14792:14811   */\n      swap1\n      pop\n        /* \"#utility.yul\":14451:14817   */\n      swap2\n      swap1\n      pop\n      jump\t// out\n        /* \"#utility.yul\":14823:15242   */\n    tag_126:\n        /* \"#utility.yul\":14989:14993   */\n      0x00\n        /* \"#utility.yul\":15027:15029   */\n      0x20\n        /* \"#utility.yul\":15016:15025   */\n      dup3\n        /* \"#utility.yul\":15012:15030   */\n      add\n        /* \"#utility.yul\":15004:15030   */\n      swap1\n      pop\n        /* \"#utility.yul\":15076:15085   */\n      dup2\n        /* \"#utility.yul\":15070:15074   */\n      dup2\n        /* \"#utility.yul\":15066:15086   */\n      sub\n        /* \"#utility.yul\":15062:15063   */\n      0x00\n        /* \"#utility.yul\":15051:15060   */\n      dup4\n        /* \"#utility.yul\":15047:15064   */\n      add\n        /* \"#utility.yul\":15040:15087   */\n      mstore\n        /* \"#utility.yul\":15104:15235   */\n      tag_366\n        /* \"#utility.yul\":15230:15234   */\n      dup2\n        /* \"#utility.yul\":15104:15235   */\n      tag_204\n      jump\t// in\n    tag_366:\n        /* \"#utility.yul\":15096:15235   */\n      swap1\n      pop\n        /* \"#utility.yul\":14823:15242   */\n      swap2\n      swap1\n      pop\n      jump\t// out\n        /* \"#utility.yul\":15248:15428   */\n    tag_134:\n        /* \"#utility.yul\":15296:15373   */\n      0x4e487b7100000000000000000000000000000000000000000000000000000000\n        /* \"#utility.yul\":15293:15294   */\n      0x00\n        /* \"#utility.yul\":15286:15374   */\n      mstore\n        /* \"#utility.yul\":15393:15397   */\n      0x32\n        /* \"#utility.yul\":15390:15391   */\n      0x04\n        /* \"#utility.yul\":15383:15398   */\n      mstore\n        /* \"#utility.yul\":15417:15421   */\n      0x24\n        /* \"#utility.yul\":15414:15415   */\n      0x00\n        /* \"#utility.yul\":15407:15422   */\n      revert\n        /* \"#utility.yul\":15434:15614   */\n    tag_205:\n        /* \"#utility.yul\":15482:15559   */\n      0x4e487b7100000000000000000000000000000000000000000000000000000000\n        /* \"#utility.yul\":15479:15480   */\n      0x00\n        /* \"#utility.yul\":15472:15560   */\n      mstore\n        /* \"#utility.yul\":15579:15583   */\n      0x12\n        /* \"#utility.yul\":15576:15577   */\n      0x04\n        /* \"#utility.yul\":15569:15584   */\n      mstore\n        /* \"#utility.yul\":15603:15607   */\n      0x24\n        /* \"#utility.yul\":15600:15601   */\n      0x00\n        /* \"#utility.yul\":15593:15608   */\n      revert\n        /* \"#utility.yul\":15620:15796   */\n    tag_136:\n        /* \"#utility.yul\":15652:15653   */\n      0x00\n        /* \"#utility.yul\":15669:15689   */\n      tag_370\n        /* \"#utility.yul\":15687:15688   */\n      dup3\n        /* \"#utility.yul\":15669:15689   */\n      tag_161\n      jump\t// in\n    tag_370:\n        /* \"#utility.yul\":15664:15689   */\n      swap2\n      pop\n        /* \"#utility.yul\":15703:15723   */\n      tag_371\n        /* \"#utility.yul\":15721:15722   */\n      dup4\n        /* \"#utility.yul\":15703:15723   */\n      tag_161\n      jump\t// in\n    tag_371:\n        /* \"#utility.yul\":15698:15723   */\n      swap3\n      pop\n        /* \"#utility.yul\":15742:15743   */\n      dup3\n        /* \"#utility.yul\":15732:15767   */\n      tag_372\n      jumpi\n        /* \"#utility.yul\":15747:15765   */\n      tag_373\n      tag_205\n      jump\t// in\n    tag_373:\n        /* \"#utility.yul\":15732:15767   */\n    tag_372:\n        /* \"#utility.yul\":15788:15789   */\n      dup3\n        /* \"#utility.yul\":15785:15786   */\n      dup3\n        /* \"#utility.yul\":15781:15790   */\n      mod\n        /* \"#utility.yul\":15776:15790   */\n      swap1\n      pop\n        /* \"#utility.yul\":15620:15796   */\n      swap3\n      swap2\n      pop\n      pop\n      jump\t// out\n        /* \"#utility.yul\":15802:15982   */\n    tag_206:\n        /* \"#utility.yul\":15850:15927   */\n      0x4e487b7100000000000000000000000000000000000000000000000000000000\n        /* \"#utility.yul\":15847:15848   */\n      0x00\n        /* \"#utility.yul\":15840:15928   */\n      mstore\n        /* \"#utility.yul\":15947:15951   */\n      0x11\n        /* \"#utility.yul\":15944:15945   */\n      0x04\n        /* \"#utility.yul\":15937:15952   */\n      mstore\n        /* \"#utility.yul\":15971:15975   */\n      0x24\n        /* \"#utility.yul\":15968:15969   */\n      0x00\n        /* \"#utility.yul\":15961:15976   */\n      revert\n        /* \"#utility.yul\":15988:16179   */\n    tag_138:\n        /* \"#utility.yul\":16028:16031   */\n      0x00\n        /* \"#utility.yul\":16047:16067   */\n      tag_376\n        /* \"#utility.yul\":16065:16066   */\n      dup3\n        /* \"#utility.yul\":16047:16067   */\n      tag_161\n      jump\t// in\n    tag_376:\n        /* \"#utility.yul\":16042:16067   */\n      swap2\n      pop\n        /* \"#utility.yul\":16081:16101   */\n      tag_377\n        /* \"#utility.yul\":16099:16100   */\n      dup4\n        /* \"#utility.yul\":16081:16101   */\n      tag_161\n      jump\t// in\n    tag_377:\n        /* \"#utility.yul\":16076:16101   */\n      swap3\n      pop\n        /* \"#utility.yul\":16124:16125   */\n      dup3\n        /* \"#utility.yul\":16121:16122   */\n      dup3\n        /* \"#utility.yul\":16117:16126   */\n      add\n        /* \"#utility.yul\":16110:16126   */\n      swap1\n      pop\n        /* \"#utility.yul\":16145:16148   */\n      dup1\n        /* \"#utility.yul\":16142:16143   */\n      dup3\n        /* \"#utility.yul\":16139:16149   */\n      gt\n        /* \"#utility.yul\":16136:16172   */\n      iszero\n      tag_378\n      jumpi\n        /* \"#utility.yul\":16152:16170   */\n      tag_379\n      tag_206\n      jump\t// in\n    tag_379:\n        /* \"#utility.yul\":16136:16172   */\n    tag_378:\n        /* \"#utility.yul\":15988:16179   */\n      swap3\n      swap2\n      pop\n      pop\n      jump\t// out\n        /* \"#utility.yul\":16185:16418   */\n    tag_142:\n        /* \"#utility.yul\":16224:16227   */\n      0x00\n        /* \"#utility.yul\":16247:16271   */\n      tag_381\n        /* \"#utility.yul\":16265:16270   */\n      dup3\n        /* \"#utility.yul\":16247:16271   */\n      tag_161\n      jump\t// in\n    tag_381:\n        /* \"#utility.yul\":16238:16271   */\n      swap2\n      pop\n        /* \"#utility.yul\":16293:16359   */\n      0xffffffffffffffffffffffffffffffffffffffffffffffffffffffffffffffff\n        /* \"#utility.yul\":16286:16291   */\n      dup3\n        /* \"#utility.yul\":16283:16360   */\n      sub\n        /* \"#utility.yul\":16280:16383   */\n      tag_382\n      jumpi\n        /* \"#utility.yul\":16363:16381   */\n      tag_383\n      tag_206\n      jump\t// in\n    tag_383:\n        /* \"#utility.yul\":16280:16383   */\n    tag_382:\n        /* \"#utility.yul\":16410:16411   */\n      0x01\n        /* \"#utility.yul\":16403:16408   */\n      dup3\n        /* \"#utility.yul\":16399:16412   */\n      add\n        /* \"#utility.yul\":16392:16412   */\n      swap1\n      pop\n        /* \"#utility.yul\":16185:16418   */\n      swap2\n      swap1\n      pop\n      jump\t// out\n        /* \"#utility.yul\":16424:16596   */\n    tag_207:\n        /* \"#utility.yul\":16564:16588   */\n      0x4f6e6c792063616c6c61626c65206279206f776e657200000000000000000000\n        /* \"#utility.yul\":16560:16561   */\n      0x00\n        /* \"#utility.yul\":16552:16558   */\n      dup3\n        /* \"#utility.yul\":16548:16562   */\n      add\n        /* \"#utility.yul\":16541:16589   */\n      mstore\n        /* \"#utility.yul\":16424:16596   */\n      pop\n      jump\t// out\n        /* \"#utility.yul\":16602:16968   */\n    tag_208:\n        /* \"#utility.yul\":16744:16747   */\n      0x00\n        /* \"#utility.yul\":16765:16832   */\n      tag_386\n        /* \"#utility.yul\":16829:16831   */\n      0x16\n        /* \"#utility.yul\":16824:16827   */\n      dup4\n        /* \"#utility.yul\":16765:16832   */\n      tag_192\n      jump\t// in\n    tag_386:\n        /* \"#utility.yul\":16758:16832   */\n      swap2\n      pop\n        /* \"#utility.yul\":16841:16934   */\n      tag_387\n        /* \"#utility.yul\":16930:16933   */\n      dup3\n        /* \"#utility.yul\":16841:16934   */\n      tag_207\n      jump\t// in\n    tag_387:\n        /* \"#utility.yul\":16959:16961   */\n      0x20\n        /* \"#utility.yul\":16954:16957   */\n      dup3\n        /* \"#utility.yul\":16950:16962   */\n      add\n        /* \"#utility.yul\":16943:16962   */\n      swap1\n      pop\n        /* \"#utility.yul\":16602:16968   */\n      swap2\n      swap1\n      pop\n      jump\t// out\n        /* \"#utility.yul\":16974:17393   */\n    tag_146:\n        /* \"#utility.yul\":17140:17144   */\n      0x00\n        /* \"#utility.yul\":17178:17180   */\n      0x20\n        /* \"#utility.yul\":17167:17176   */\n      dup3\n        /* \"#utility.yul\":17163:17181   */\n      add\n        /* \"#utility.yul\":17155:17181   */\n      swap1\n      pop\n        /* \"#utility.yul\":17227:17236   */\n      dup2\n        /* \"#utility.yul\":17221:17225   */\n      dup2\n        /* \"#utility.yul\":17217:17237   */\n      sub\n        /* \"#utility.yul\":17213:17214   */\n      0x00\n        /* \"#utility.yul\":17202:17211   */\n      dup4\n        /* \"#utility.yul\":17198:17215   */\n      add\n        /* \"#utility.yul\":17191:17238   */\n      mstore\n        /* \"#utility.yul\":17255:17386   */\n      tag_389\n        /* \"#utility.yul\":17381:17385   */\n      dup2\n        /* \"#utility.yul\":17255:17386   */\n      tag_208\n      jump\t// in\n    tag_389:\n        /* \"#utility.yul\":17247:17386   */\n      swap1\n      pop\n        /* \"#utility.yul\":16974:17393   */\n      swap2\n      swap1\n      pop\n      jump\t// out\n        /* \"#utility.yul\":17399:17572   */\n    tag_209:\n        /* \"#utility.yul\":17539:17564   */\n      0x43616e6e6f74207472616e7366657220746f2073656c66000000000000000000\n        /* \"#utility.yul\":17535:17536   */\n      0x00\n        /* \"#utility.yul\":17527:17533   */\n      dup3\n        /* \"#utility.yul\":17523:17537   */\n      add\n        /* \"#utility.yul\":17516:17565   */\n      mstore\n        /* \"#utility.yul\":17399:17572   */\n      pop\n      jump\t// out\n        /* \"#utility.yul\":17578:17944   */\n    tag_210:\n        /* \"#utility.yul\":17720:17723   */\n      0x00\n        /* \"#utility.yul\":17741:17808   */\n      tag_392\n        /* \"#utility.yul\":17805:17807   */\n      0x17\n        /* \"#utility.yul\":17800:17803   */\n      dup4\n        /* \"#utility.yul\":17741:17808   */\n      tag_192\n      jump\t// in\n    tag_392:\n        /* \"#utility.yul\":17734:17808   */\n      swap2\n      pop\n        /* \"#utility.yul\":17817:17910   */\n      tag_393\n        /* \"#utility.yul\":17906:17909   */\n      dup3\n        /* \"#utility.yul\":17817:17910   */\n      tag_209\n      jump\t// in\n    tag_393:\n        /* \"#utility.yul\":17935:17937   */\n      0x20\n        /* \"#utility.yul\":17930:17933   */\n      dup3\n        /* \"#utility.yul\":17926:17938   */\n      add\n        /* \"#utility.yul\":17919:17938   */\n      swap1\n      pop\n        /* \"#utility.yul\":17578:17944   */\n      swap2\n      swap1\n      pop\n      jump\t// out\n        /* \"#utility.yul\":17950:18369   */\n    tag_150:\n        /* \"#utility.yul\":18116:18120   */\n      0x00\n        /* \"#utility.yul\":18154:18156   */\n      0x20\n        /* \"#utility.yul\":18143:18152   */\n      dup3\n        /* \"#utility.yul\":18139:18157   */\n      add\n        /* \"#utility.yul\":18131:18157   */\n      swap1\n      pop\n        /* \"#utility.yul\":18203:18212   */\n      dup2\n        /* \"#utility.yul\":18197:18201   */\n      dup2\n        /* \"#utility.yul\":18193:18213   */\n      sub\n        /* \"#utility.yul\":18189:18190   */\n      0x00\n        /* \"#utility.yul\":18178:18187   */\n      dup4\n        /* \"#utility.yul\":18174:18191   */\n      add\n        /* \"#utility.yul\":18167:18214   */\n      mstore\n        /* \"#utility.yul\":18231:18362   */\n      tag_395\n        /* \"#utility.yul\":18357:18361   */\n      dup2\n        /* \"#utility.yul\":18231:18362   */\n      tag_210\n      jump\t// in\n    tag_395:\n        /* \"#utility.yul\":18223:18362   */\n      swap1\n      pop\n        /* \"#utility.yul\":17950:18369   */\n      swap2\n      swap1\n      pop\n      jump\t// out\n\n    auxdata: 0xa2646970667358221220a72038c76bba39e78b63f0d7ebabe84d610bb84c571ce03e560d1224a4407f4264736f6c63430008130033\n}\n",
				"bytecode": {
					"linkReferences": {},
					"object": "60a0604052737a1bac17ccc5b313516c5e16fb24f7659aa5ebed600460006101000a81548173ffffffffffffffffffffffffffffffffffffffff021916908373ffffffffffffffffffffffffffffffffffffffff1602179055507f4b09e658ed251bcafeebbc69400383d49f344ace09b9576fe248bb02c003fe9f60001b600555622625a0600660006101000a81548163ffffffff021916908363ffffffff1602179055506003600660046101000a81548161ffff021916908361ffff16021790555060036006806101000a81548163ffffffff021916908363ffffffff160217905550348015620000f057600080fd5b5060405162001d0838038062001d0883398181016040528101906200011691906200047a565b33806000600460009054906101000a900473ffffffffffffffffffffffffffffffffffffffff168073ffffffffffffffffffffffffffffffffffffffff1660808173ffffffffffffffffffffffffffffffffffffffff168152505050600073ffffffffffffffffffffffffffffffffffffffff168273ffffffffffffffffffffffffffffffffffffffff1603620001e4576040517f08c379a0000000000000000000000000000000000000000000000000000000008152600401620001db906200050d565b60405180910390fd5b816000806101000a81548173ffffffffffffffffffffffffffffffffffffffff021916908373ffffffffffffffffffffffffffffffffffffffff160217905550600073ffffffffffffffffffffffffffffffffffffffff168173ffffffffffffffffffffffffffffffffffffffff16146200026b576200026a816200030160201b60201c565b5b505050600460009054906101000a900473ffffffffffffffffffffffffffffffffffffffff16600360006101000a81548173ffffffffffffffffffffffffffffffffffffffff021916908373ffffffffffffffffffffffffffffffffffffffff16021790555080600a60006101000a81548167ffffffffffffffff021916908367ffffffffffffffff16021790555050620005a1565b3373ffffffffffffffffffffffffffffffffffffffff168173ffffffffffffffffffffffffffffffffffffffff160362000372576040517f08c379a000000000000000000000000000000000000000000000000000000000815260040162000369906200057f565b60405180910390fd5b80600160006101000a81548173ffffffffffffffffffffffffffffffffffffffff021916908373ffffffffffffffffffffffffffffffffffffffff1602179055508073ffffffffffffffffffffffffffffffffffffffff1660008054906101000a900473ffffffffffffffffffffffffffffffffffffffff1673ffffffffffffffffffffffffffffffffffffffff167fed8889f560326eb138920d842192f0eb3dd22b4f139c87a2c57538e05bae127860405160405180910390a350565b600080fd5b600067ffffffffffffffff82169050919050565b620004548162000435565b81146200046057600080fd5b50565b600081519050620004748162000449565b92915050565b60006020828403121562000493576200049262000430565b5b6000620004a38482850162000463565b91505092915050565b600082825260208201905092915050565b7f43616e6e6f7420736574206f776e657220746f207a65726f0000000000000000600082015250565b6000620004f5601883620004ac565b91506200050282620004bd565b602082019050919050565b600060208201905081810360008301526200052881620004e6565b9050919050565b7f43616e6e6f74207472616e7366657220746f2073656c66000000000000000000600082015250565b600062000567601783620004ac565b915062000574826200052f565b602082019050919050565b600060208201905081810360008301526200059a8162000558565b9050919050565b608051611744620005c4600039600081816102ea015261033e01526117446000f3fe608060405234801561001057600080fd5b50600436106100ea5760003560e01c80638da5cb5b1161008c578063c6b0f15b11610066578063c6b0f15b14610260578063c7d06a721461027e578063f2fde38b146102ae578063fc2a88c3146102ca576100ea565b80638da5cb5b146101e1578063900fc869146101ff578063a168fa891461022f576100ea565b80637816a3a1116100c85780637816a3a11461015957806379ba5097146101895780638796ba8c146101935780638ac00021146101c3576100ea565b80631fe543e3146100ef57806352342f131461010b578063723dfc9e14610129575b600080fd5b61010960048036038101906101049190610ef4565b6102e8565b005b6101136103a8565b6040516101209190610f5f565b60405180910390f35b610143600480360381019061013e9190610f7a565b6103ae565b6040516101509190610f5f565b60405180910390f35b610173600480360381019061016e9190610f7a565b6103d2565b6040516101809190610fc2565b60405180910390f35b6101916103f2565b005b6101ad60048036038101906101a89190610f7a565b610587565b6040516101ba9190610f5f565b60405180910390f35b6101cb6105ab565b6040516101d89190611000565b60405180910390f35b6101e96105c5565b6040516101f6919061105c565b60405180910390f35b61021960048036038101906102149190610f7a565b6105ee565b6040516102269190610f5f565b60405180910390f35b61024960048036038101906102449190610f7a565b610612565b604051610257929190611077565b60405180910390f35b610268610650565b604051610275919061115e565b60405180910390f35b610298600480360381019061029391906111bc565b6106a8565b6040516102a59190610f5f565b60405180910390f35b6102c860048036038101906102c39190611228565b610979565b005b6102d261098d565b6040516102df9190610f5f565b60405180910390f35b7f000000000000000000000000000000000000000000000000000000000000000073ffffffffffffffffffffffffffffffffffffffff163373ffffffffffffffffffffffffffffffffffffffff161461039a57337f00000000000000000000000000000000000000000000000000000000000000006040517f1cf993f4000000000000000000000000000000000000000000000000000000008152600401610391929190611255565b60405180910390fd5b6103a48282610993565b5050565b600b5481565b600c81815481106103be57600080fd5b906000526020600020016000915090505481565b600d6020528060005260406000206000915054906101000a900460ff1681565b600160009054906101000a900473ffffffffffffffffffffffffffffffffffffffff1673ffffffffffffffffffffffffffffffffffffffff163373ffffffffffffffffffffffffffffffffffffffff1614610482576040517f08c379a0000000000000000000000000000000000000000000000000000000008152600401610479906112db565b60405180910390fd5b60008060009054906101000a900473ffffffffffffffffffffffffffffffffffffffff169050336000806101000a81548173ffffffffffffffffffffffffffffffffffffffff021916908373ffffffffffffffffffffffffffffffffffffffff1602179055506000600160006101000a81548173ffffffffffffffffffffffffffffffffffffffff021916908373ffffffffffffffffffffffffffffffffffffffff1602179055503373ffffffffffffffffffffffffffffffffffffffff168173ffffffffffffffffffffffffffffffffffffffff167f8be0079c531659141344cd1fd0a4f28419497f9722a3daafe3b4186f6b6457e060405160405180910390a350565b6007818154811061059757600080fd5b906000526020600020016000915090505481565b600a60009054906101000a900467ffffffffffffffff1681565b60008060009054906101000a900473ffffffffffffffffffffffffffffffffffffffff16905090565b600981815481106105fe57600080fd5b906000526020600020016000915090505481565b60026020528060005260406000206000915090508060000160009054906101000a900460ff16908060000160019054906101000a900460ff16905082565b6060600c80548060200260200160405190810160405280929190818152602001828054801561069e57602002820191906000526020600020905b81548152602001906001019080831161068a575b5050505050905090565b6000808363ffffffff161180156106c55750600a8363ffffffff16105b610704576040517f08c379a00000000000000000000000000000000000000000000000000000000081526004016106fb9061136d565b60405180910390fd5b826006806101000a81548163ffffffff021916908363ffffffff16021790555081600b81905550600360009054906101000a900473ffffffffffffffffffffffffffffffffffffffff1673ffffffffffffffffffffffffffffffffffffffff16635d3b1d30600554600a60009054906101000a900467ffffffffffffffff16600660049054906101000a900461ffff16600660009054906101000a900463ffffffff1660068054906101000a900463ffffffff166040518663ffffffff1660e01b81526004016107d89594939291906113d2565b6020604051808303816000875af11580156107f7573d6000803e3d6000fd5b505050506040513d601f19601f8201168201806040525081019061081b919061143a565b90506040518060600160405280600015158152602001600115158152602001600067ffffffffffffffff81111561085557610854610db1565b5b6040519080825280602002602001820160405280156108835781602001602082028036833780820191505090505b508152506002600083815260200190815260200160002060008201518160000160006101000a81548160ff02191690831515021790555060208201518160000160016101000a81548160ff02191690831515021790555060408201518160010190805190602001906108f6929190610ce7565b509050506007819080600181540180825580915050600190039060005260206000200160009091909190915055806008819055507fcc58b13ad3eab50626c6a6300b1d139cd6ebb1688a7cced9461c2f7e762665ee8160068054906101000a900463ffffffff1660405161096b929190611467565b60405180910390a192915050565b610981610b2b565b61098a81610bbb565b50565b60085481565b6002600083815260200190815260200160002060000160019054906101000a900460ff166109f6576040517f08c379a00000000000000000000000000000000000000000000000000000000081526004016109ed906114dc565b60405180910390fd5b60016002600084815260200190815260200160002060000160006101000a81548160ff02191690831515021790555080600260008481526020019081526020016000206001019080519060200190610a4f929190610ce7565b508060099080519060200190610a66929190610ce7565b50600080600090505b60068054906101000a900463ffffffff1663ffffffff16811015610b25576001600b54848381518110610aa557610aa46114fc565b5b6020026020010151610ab7919061155a565b610ac191906115ba565b9150600d600083815260200190815260200160002060009054906101000a900460ff16610b1257600c8290806001815401808255809150506001900390600052602060002001600090919091909150555b8080610b1d906115ee565b915050610a6f565b50505050565b60008054906101000a900473ffffffffffffffffffffffffffffffffffffffff1673ffffffffffffffffffffffffffffffffffffffff163373ffffffffffffffffffffffffffffffffffffffff1614610bb9576040517f08c379a0000000000000000000000000000000000000000000000000000000008152600401610bb090611682565b60405180910390fd5b565b3373ffffffffffffffffffffffffffffffffffffffff168173ffffffffffffffffffffffffffffffffffffffff1603610c29576040517f08c379a0000000000000000000000000000000000000000000000000000000008152600401610c20906116ee565b60405180910390fd5b80600160006101000a81548173ffffffffffffffffffffffffffffffffffffffff021916908373ffffffffffffffffffffffffffffffffffffffff1602179055508073ffffffffffffffffffffffffffffffffffffffff1660008054906101000a900473ffffffffffffffffffffffffffffffffffffffff1673ffffffffffffffffffffffffffffffffffffffff167fed8889f560326eb138920d842192f0eb3dd22b4f139c87a2c57538e05bae127860405160405180910390a350565b828054828255906000526020600020908101928215610d23579160200282015b82811115610d22578251825591602001919060010190610d07565b5b509050610d309190610d34565b5090565b5b80821115610d4d576000816000905550600101610d35565b5090565b6000604051905090565b600080fd5b600080fd5b6000819050919050565b610d7881610d65565b8114610d8357600080fd5b50565b600081359050610d9581610d6f565b92915050565b600080fd5b6000601f19601f8301169050919050565b7f4e487b7100000000000000000000000000000000000000000000000000000000600052604160045260246000fd5b610de982610da0565b810181811067ffffffffffffffff82111715610e0857610e07610db1565b5b80604052505050565b6000610e1b610d51565b9050610e278282610de0565b919050565b600067ffffffffffffffff821115610e4757610e46610db1565b5b602082029050602081019050919050565b600080fd5b6000610e70610e6b84610e2c565b610e11565b90508083825260208201905060208402830185811115610e9357610e92610e58565b5b835b81811015610ebc5780610ea88882610d86565b845260208401935050602081019050610e95565b5050509392505050565b600082601f830112610edb57610eda610d9b565b5b8135610eeb848260208601610e5d565b91505092915050565b60008060408385031215610f0b57610f0a610d5b565b5b6000610f1985828601610d86565b925050602083013567ffffffffffffffff811115610f3a57610f39610d60565b5b610f4685828601610ec6565b9150509250929050565b610f5981610d65565b82525050565b6000602082019050610f746000830184610f50565b92915050565b600060208284031215610f9057610f8f610d5b565b5b6000610f9e84828501610d86565b91505092915050565b60008115159050919050565b610fbc81610fa7565b82525050565b6000602082019050610fd76000830184610fb3565b92915050565b600067ffffffffffffffff82169050919050565b610ffa81610fdd565b82525050565b60006020820190506110156000830184610ff1565b92915050565b600073ffffffffffffffffffffffffffffffffffffffff82169050919050565b60006110468261101b565b9050919050565b6110568161103b565b82525050565b6000602082019050611071600083018461104d565b92915050565b600060408201905061108c6000830185610fb3565b6110996020830184610fb3565b9392505050565b600081519050919050565b600082825260208201905092915050565b6000819050602082019050919050565b6110d581610d65565b82525050565b60006110e783836110cc565b60208301905092915050565b6000602082019050919050565b600061110b826110a0565b61111581856110ab565b9350611120836110bc565b8060005b8381101561115157815161113888826110db565b9750611143836110f3565b925050600181019050611124565b5085935050505092915050565b600060208201905081810360008301526111788184611100565b905092915050565b600063ffffffff82169050919050565b61119981611180565b81146111a457600080fd5b50565b6000813590506111b681611190565b92915050565b600080604083850312156111d3576111d2610d5b565b5b60006111e1858286016111a7565b92505060206111f285828601610d86565b9150509250929050565b6112058161103b565b811461121057600080fd5b50565b600081359050611222816111fc565b92915050565b60006020828403121561123e5761123d610d5b565b5b600061124c84828501611213565b91505092915050565b600060408201905061126a600083018561104d565b611277602083018461104d565b9392505050565b600082825260208201905092915050565b7f4d7573742062652070726f706f736564206f776e657200000000000000000000600082015250565b60006112c560168361127e565b91506112d08261128f565b602082019050919050565b600060208201905081810360008301526112f4816112b8565b9050919050565b7f7175616e74697479206f66206e756d62657273206d757374206265206265747760008201527f65656e203120616e642031300000000000000000000000000000000000000000602082015250565b6000611357602c8361127e565b9150611362826112fb565b604082019050919050565b600060208201905081810360008301526113868161134a565b9050919050565b6000819050919050565b6113a08161138d565b82525050565b600061ffff82169050919050565b6113bd816113a6565b82525050565b6113cc81611180565b82525050565b600060a0820190506113e76000830188611397565b6113f46020830187610ff1565b61140160408301866113b4565b61140e60608301856113c3565b61141b60808301846113c3565b9695505050505050565b60008151905061143481610d6f565b92915050565b6000602082840312156114505761144f610d5b565b5b600061145e84828501611425565b91505092915050565b600060408201905061147c6000830185610f50565b61148960208301846113c3565b9392505050565b7f72657175657374206e6f7420666f756e64000000000000000000000000000000600082015250565b60006114c660118361127e565b91506114d182611490565b602082019050919050565b600060208201905081810360008301526114f5816114b9565b9050919050565b7f4e487b7100000000000000000000000000000000000000000000000000000000600052603260045260246000fd5b7f4e487b7100000000000000000000000000000000000000000000000000000000600052601260045260246000fd5b600061156582610d65565b915061157083610d65565b9250826115805761157f61152b565b5b828206905092915050565b7f4e487b7100000000000000000000000000000000000000000000000000000000600052601160045260246000fd5b60006115c582610d65565b91506115d083610d65565b92508282019050808211156115e8576115e761158b565b5b92915050565b60006115f982610d65565b91507fffffffffffffffffffffffffffffffffffffffffffffffffffffffffffffffff820361162b5761162a61158b565b5b600182019050919050565b7f4f6e6c792063616c6c61626c65206279206f776e657200000000000000000000600082015250565b600061166c60168361127e565b915061167782611636565b602082019050919050565b6000602082019050818103600083015261169b8161165f565b9050919050565b7f43616e6e6f74207472616e7366657220746f2073656c66000000000000000000600082015250565b60006116d860178361127e565b91506116e3826116a2565b602082019050919050565b60006020820190508181036000830152611707816116cb565b905091905056fea2646970667358221220a72038c76bba39e78b63f0d7ebabe84d610bb84c571ce03e560d1224a4407f4264736f6c63430008130033",
					"opcodes": "PUSH1 0xA0 PUSH1 0x40 MSTORE PUSH20 0x7A1BAC17CCC5B313516C5E16FB24F7659AA5EBED PUSH1 0x4 PUSH1 0x0 PUSH2 0x100 EXP DUP2 SLOAD DUP2 PUSH20 0xFFFFFFFFFFFFFFFFFFFFFFFFFFFFFFFFFFFFFFFF MUL NOT AND SWAP1 DUP4 PUSH20 0xFFFFFFFFFFFFFFFFFFFFFFFFFFFFFFFFFFFFFFFF AND MUL OR SWAP1 SSTORE POP PUSH32 0x4B09E658ED251BCAFEEBBC69400383D49F344ACE09B9576FE248BB02C003FE9F PUSH1 0x0 SHL PUSH1 0x5 SSTORE PUSH3 0x2625A0 PUSH1 0x6 PUSH1 0x0 PUSH2 0x100 EXP DUP2 SLOAD DUP2 PUSH4 0xFFFFFFFF MUL NOT AND SWAP1 DUP4 PUSH4 0xFFFFFFFF AND MUL OR SWAP1 SSTORE POP PUSH1 0x3 PUSH1 0x6 PUSH1 0x4 PUSH2 0x100 EXP DUP2 SLOAD DUP2 PUSH2 0xFFFF MUL NOT AND SWAP1 DUP4 PUSH2 0xFFFF AND MUL OR SWAP1 SSTORE POP PUSH1 0x3 PUSH1 0x6 DUP1 PUSH2 0x100 EXP DUP2 SLOAD DUP2 PUSH4 0xFFFFFFFF MUL NOT AND SWAP1 DUP4 PUSH4 0xFFFFFFFF AND MUL OR SWAP1 SSTORE POP CALLVALUE DUP1 ISZERO PUSH3 0xF0 JUMPI PUSH1 0x0 DUP1 REVERT JUMPDEST POP PUSH1 0x40 MLOAD PUSH3 0x1D08 CODESIZE SUB DUP1 PUSH3 0x1D08 DUP4 CODECOPY DUP2 DUP2 ADD PUSH1 0x40 MSTORE DUP2 ADD SWAP1 PUSH3 0x116 SWAP2 SWAP1 PUSH3 0x47A JUMP JUMPDEST CALLER DUP1 PUSH1 0x0 PUSH1 0x4 PUSH1 0x0 SWAP1 SLOAD SWAP1 PUSH2 0x100 EXP SWAP1 DIV PUSH20 0xFFFFFFFFFFFFFFFFFFFFFFFFFFFFFFFFFFFFFFFF AND DUP1 PUSH20 0xFFFFFFFFFFFFFFFFFFFFFFFFFFFFFFFFFFFFFFFF AND PUSH1 0x80 DUP2 PUSH20 0xFFFFFFFFFFFFFFFFFFFFFFFFFFFFFFFFFFFFFFFF AND DUP2 MSTORE POP POP POP PUSH1 0x0 PUSH20 0xFFFFFFFFFFFFFFFFFFFFFFFFFFFFFFFFFFFFFFFF AND DUP3 PUSH20 0xFFFFFFFFFFFFFFFFFFFFFFFFFFFFFFFFFFFFFFFF AND SUB PUSH3 0x1E4 JUMPI PUSH1 0x40 MLOAD PUSH32 0x8C379A000000000000000000000000000000000000000000000000000000000 DUP2 MSTORE PUSH1 0x4 ADD PUSH3 0x1DB SWAP1 PUSH3 0x50D JUMP JUMPDEST PUSH1 0x40 MLOAD DUP1 SWAP2 SUB SWAP1 REVERT JUMPDEST DUP2 PUSH1 0x0 DUP1 PUSH2 0x100 EXP DUP2 SLOAD DUP2 PUSH20 0xFFFFFFFFFFFFFFFFFFFFFFFFFFFFFFFFFFFFFFFF MUL NOT AND SWAP1 DUP4 PUSH20 0xFFFFFFFFFFFFFFFFFFFFFFFFFFFFFFFFFFFFFFFF AND MUL OR SWAP1 SSTORE POP PUSH1 0x0 PUSH20 0xFFFFFFFFFFFFFFFFFFFFFFFFFFFFFFFFFFFFFFFF AND DUP2 PUSH20 0xFFFFFFFFFFFFFFFFFFFFFFFFFFFFFFFFFFFFFFFF AND EQ PUSH3 0x26B JUMPI PUSH3 0x26A DUP2 PUSH3 0x301 PUSH1 0x20 SHL PUSH1 0x20 SHR JUMP JUMPDEST JUMPDEST POP POP POP PUSH1 0x4 PUSH1 0x0 SWAP1 SLOAD SWAP1 PUSH2 0x100 EXP SWAP1 DIV PUSH20 0xFFFFFFFFFFFFFFFFFFFFFFFFFFFFFFFFFFFFFFFF AND PUSH1 0x3 PUSH1 0x0 PUSH2 0x100 EXP DUP2 SLOAD DUP2 PUSH20 0xFFFFFFFFFFFFFFFFFFFFFFFFFFFFFFFFFFFFFFFF MUL NOT AND SWAP1 DUP4 PUSH20 0xFFFFFFFFFFFFFFFFFFFFFFFFFFFFFFFFFFFFFFFF AND MUL OR SWAP1 SSTORE POP DUP1 PUSH1 0xA PUSH1 0x0 PUSH2 0x100 EXP DUP2 SLOAD DUP2 PUSH8 0xFFFFFFFFFFFFFFFF MUL NOT AND SWAP1 DUP4 PUSH8 0xFFFFFFFFFFFFFFFF AND MUL OR SWAP1 SSTORE POP POP PUSH3 0x5A1 JUMP JUMPDEST CALLER PUSH20 0xFFFFFFFFFFFFFFFFFFFFFFFFFFFFFFFFFFFFFFFF AND DUP2 PUSH20 0xFFFFFFFFFFFFFFFFFFFFFFFFFFFFFFFFFFFFFFFF AND SUB PUSH3 0x372 JUMPI PUSH1 0x40 MLOAD PUSH32 0x8C379A000000000000000000000000000000000000000000000000000000000 DUP2 MSTORE PUSH1 0x4 ADD PUSH3 0x369 SWAP1 PUSH3 0x57F JUMP JUMPDEST PUSH1 0x40 MLOAD DUP1 SWAP2 SUB SWAP1 REVERT JUMPDEST DUP1 PUSH1 0x1 PUSH1 0x0 PUSH2 0x100 EXP DUP2 SLOAD DUP2 PUSH20 0xFFFFFFFFFFFFFFFFFFFFFFFFFFFFFFFFFFFFFFFF MUL NOT AND SWAP1 DUP4 PUSH20 0xFFFFFFFFFFFFFFFFFFFFFFFFFFFFFFFFFFFFFFFF AND MUL OR SWAP1 SSTORE POP DUP1 PUSH20 0xFFFFFFFFFFFFFFFFFFFFFFFFFFFFFFFFFFFFFFFF AND PUSH1 0x0 DUP1 SLOAD SWAP1 PUSH2 0x100 EXP SWAP1 DIV PUSH20 0xFFFFFFFFFFFFFFFFFFFFFFFFFFFFFFFFFFFFFFFF AND PUSH20 0xFFFFFFFFFFFFFFFFFFFFFFFFFFFFFFFFFFFFFFFF AND PUSH32 0xED8889F560326EB138920D842192F0EB3DD22B4F139C87A2C57538E05BAE1278 PUSH1 0x40 MLOAD PUSH1 0x40 MLOAD DUP1 SWAP2 SUB SWAP1 LOG3 POP JUMP JUMPDEST PUSH1 0x0 DUP1 REVERT JUMPDEST PUSH1 0x0 PUSH8 0xFFFFFFFFFFFFFFFF DUP3 AND SWAP1 POP SWAP2 SWAP1 POP JUMP JUMPDEST PUSH3 0x454 DUP2 PUSH3 0x435 JUMP JUMPDEST DUP2 EQ PUSH3 0x460 JUMPI PUSH1 0x0 DUP1 REVERT JUMPDEST POP JUMP JUMPDEST PUSH1 0x0 DUP2 MLOAD SWAP1 POP PUSH3 0x474 DUP2 PUSH3 0x449 JUMP JUMPDEST SWAP3 SWAP2 POP POP JUMP JUMPDEST PUSH1 0x0 PUSH1 0x20 DUP3 DUP5 SUB SLT ISZERO PUSH3 0x493 JUMPI PUSH3 0x492 PUSH3 0x430 JUMP JUMPDEST JUMPDEST PUSH1 0x0 PUSH3 0x4A3 DUP5 DUP3 DUP6 ADD PUSH3 0x463 JUMP JUMPDEST SWAP2 POP POP SWAP3 SWAP2 POP POP JUMP JUMPDEST PUSH1 0x0 DUP3 DUP3 MSTORE PUSH1 0x20 DUP3 ADD SWAP1 POP SWAP3 SWAP2 POP POP JUMP JUMPDEST PUSH32 0x43616E6E6F7420736574206F776E657220746F207A65726F0000000000000000 PUSH1 0x0 DUP3 ADD MSTORE POP JUMP JUMPDEST PUSH1 0x0 PUSH3 0x4F5 PUSH1 0x18 DUP4 PUSH3 0x4AC JUMP JUMPDEST SWAP2 POP PUSH3 0x502 DUP3 PUSH3 0x4BD JUMP JUMPDEST PUSH1 0x20 DUP3 ADD SWAP1 POP SWAP2 SWAP1 POP JUMP JUMPDEST PUSH1 0x0 PUSH1 0x20 DUP3 ADD SWAP1 POP DUP2 DUP2 SUB PUSH1 0x0 DUP4 ADD MSTORE PUSH3 0x528 DUP2 PUSH3 0x4E6 JUMP JUMPDEST SWAP1 POP SWAP2 SWAP1 POP JUMP JUMPDEST PUSH32 0x43616E6E6F74207472616E7366657220746F2073656C66000000000000000000 PUSH1 0x0 DUP3 ADD MSTORE POP JUMP JUMPDEST PUSH1 0x0 PUSH3 0x567 PUSH1 0x17 DUP4 PUSH3 0x4AC JUMP JUMPDEST SWAP2 POP PUSH3 0x574 DUP3 PUSH3 0x52F JUMP JUMPDEST PUSH1 0x20 DUP3 ADD SWAP1 POP SWAP2 SWAP1 POP JUMP JUMPDEST PUSH1 0x0 PUSH1 0x20 DUP3 ADD SWAP1 POP DUP2 DUP2 SUB PUSH1 0x0 DUP4 ADD MSTORE PUSH3 0x59A DUP2 PUSH3 0x558 JUMP JUMPDEST SWAP1 POP SWAP2 SWAP1 POP JUMP JUMPDEST PUSH1 0x80 MLOAD PUSH2 0x1744 PUSH3 0x5C4 PUSH1 0x0 CODECOPY PUSH1 0x0 DUP2 DUP2 PUSH2 0x2EA ADD MSTORE PUSH2 0x33E ADD MSTORE PUSH2 0x1744 PUSH1 0x0 RETURN INVALID PUSH1 0x80 PUSH1 0x40 MSTORE CALLVALUE DUP1 ISZERO PUSH2 0x10 JUMPI PUSH1 0x0 DUP1 REVERT JUMPDEST POP PUSH1 0x4 CALLDATASIZE LT PUSH2 0xEA JUMPI PUSH1 0x0 CALLDATALOAD PUSH1 0xE0 SHR DUP1 PUSH4 0x8DA5CB5B GT PUSH2 0x8C JUMPI DUP1 PUSH4 0xC6B0F15B GT PUSH2 0x66 JUMPI DUP1 PUSH4 0xC6B0F15B EQ PUSH2 0x260 JUMPI DUP1 PUSH4 0xC7D06A72 EQ PUSH2 0x27E JUMPI DUP1 PUSH4 0xF2FDE38B EQ PUSH2 0x2AE JUMPI DUP1 PUSH4 0xFC2A88C3 EQ PUSH2 0x2CA JUMPI PUSH2 0xEA JUMP JUMPDEST DUP1 PUSH4 0x8DA5CB5B EQ PUSH2 0x1E1 JUMPI DUP1 PUSH4 0x900FC869 EQ PUSH2 0x1FF JUMPI DUP1 PUSH4 0xA168FA89 EQ PUSH2 0x22F JUMPI PUSH2 0xEA JUMP JUMPDEST DUP1 PUSH4 0x7816A3A1 GT PUSH2 0xC8 JUMPI DUP1 PUSH4 0x7816A3A1 EQ PUSH2 0x159 JUMPI DUP1 PUSH4 0x79BA5097 EQ PUSH2 0x189 JUMPI DUP1 PUSH4 0x8796BA8C EQ PUSH2 0x193 JUMPI DUP1 PUSH4 0x8AC00021 EQ PUSH2 0x1C3 JUMPI PUSH2 0xEA JUMP JUMPDEST DUP1 PUSH4 0x1FE543E3 EQ PUSH2 0xEF JUMPI DUP1 PUSH4 0x52342F13 EQ PUSH2 0x10B JUMPI DUP1 PUSH4 0x723DFC9E EQ PUSH2 0x129 JUMPI JUMPDEST PUSH1 0x0 DUP1 REVERT JUMPDEST PUSH2 0x109 PUSH1 0x4 DUP1 CALLDATASIZE SUB DUP2 ADD SWAP1 PUSH2 0x104 SWAP2 SWAP1 PUSH2 0xEF4 JUMP JUMPDEST PUSH2 0x2E8 JUMP JUMPDEST STOP JUMPDEST PUSH2 0x113 PUSH2 0x3A8 JUMP JUMPDEST PUSH1 0x40 MLOAD PUSH2 0x120 SWAP2 SWAP1 PUSH2 0xF5F JUMP JUMPDEST PUSH1 0x40 MLOAD DUP1 SWAP2 SUB SWAP1 RETURN JUMPDEST PUSH2 0x143 PUSH1 0x4 DUP1 CALLDATASIZE SUB DUP2 ADD SWAP1 PUSH2 0x13E SWAP2 SWAP1 PUSH2 0xF7A JUMP JUMPDEST PUSH2 0x3AE JUMP JUMPDEST PUSH1 0x40 MLOAD PUSH2 0x150 SWAP2 SWAP1 PUSH2 0xF5F JUMP JUMPDEST PUSH1 0x40 MLOAD DUP1 SWAP2 SUB SWAP1 RETURN JUMPDEST PUSH2 0x173 PUSH1 0x4 DUP1 CALLDATASIZE SUB DUP2 ADD SWAP1 PUSH2 0x16E SWAP2 SWAP1 PUSH2 0xF7A JUMP JUMPDEST PUSH2 0x3D2 JUMP JUMPDEST PUSH1 0x40 MLOAD PUSH2 0x180 SWAP2 SWAP1 PUSH2 0xFC2 JUMP JUMPDEST PUSH1 0x40 MLOAD DUP1 SWAP2 SUB SWAP1 RETURN JUMPDEST PUSH2 0x191 PUSH2 0x3F2 JUMP JUMPDEST STOP JUMPDEST PUSH2 0x1AD PUSH1 0x4 DUP1 CALLDATASIZE SUB DUP2 ADD SWAP1 PUSH2 0x1A8 SWAP2 SWAP1 PUSH2 0xF7A JUMP JUMPDEST PUSH2 0x587 JUMP JUMPDEST PUSH1 0x40 MLOAD PUSH2 0x1BA SWAP2 SWAP1 PUSH2 0xF5F JUMP JUMPDEST PUSH1 0x40 MLOAD DUP1 SWAP2 SUB SWAP1 RETURN JUMPDEST PUSH2 0x1CB PUSH2 0x5AB JUMP JUMPDEST PUSH1 0x40 MLOAD PUSH2 0x1D8 SWAP2 SWAP1 PUSH2 0x1000 JUMP JUMPDEST PUSH1 0x40 MLOAD DUP1 SWAP2 SUB SWAP1 RETURN JUMPDEST PUSH2 0x1E9 PUSH2 0x5C5 JUMP JUMPDEST PUSH1 0x40 MLOAD PUSH2 0x1F6 SWAP2 SWAP1 PUSH2 0x105C JUMP JUMPDEST PUSH1 0x40 MLOAD DUP1 SWAP2 SUB SWAP1 RETURN JUMPDEST PUSH2 0x219 PUSH1 0x4 DUP1 CALLDATASIZE SUB DUP2 ADD SWAP1 PUSH2 0x214 SWAP2 SWAP1 PUSH2 0xF7A JUMP JUMPDEST PUSH2 0x5EE JUMP JUMPDEST PUSH1 0x40 MLOAD PUSH2 0x226 SWAP2 SWAP1 PUSH2 0xF5F JUMP JUMPDEST PUSH1 0x40 MLOAD DUP1 SWAP2 SUB SWAP1 RETURN JUMPDEST PUSH2 0x249 PUSH1 0x4 DUP1 CALLDATASIZE SUB DUP2 ADD SWAP1 PUSH2 0x244 SWAP2 SWAP1 PUSH2 0xF7A JUMP JUMPDEST PUSH2 0x612 JUMP JUMPDEST PUSH1 0x40 MLOAD PUSH2 0x257 SWAP3 SWAP2 SWAP1 PUSH2 0x1077 JUMP JUMPDEST PUSH1 0x40 MLOAD DUP1 SWAP2 SUB SWAP1 RETURN JUMPDEST PUSH2 0x268 PUSH2 0x650 JUMP JUMPDEST PUSH1 0x40 MLOAD PUSH2 0x275 SWAP2 SWAP1 PUSH2 0x115E JUMP JUMPDEST PUSH1 0x40 MLOAD DUP1 SWAP2 SUB SWAP1 RETURN JUMPDEST PUSH2 0x298 PUSH1 0x4 DUP1 CALLDATASIZE SUB DUP2 ADD SWAP1 PUSH2 0x293 SWAP2 SWAP1 PUSH2 0x11BC JUMP JUMPDEST PUSH2 0x6A8 JUMP JUMPDEST PUSH1 0x40 MLOAD PUSH2 0x2A5 SWAP2 SWAP1 PUSH2 0xF5F JUMP JUMPDEST PUSH1 0x40 MLOAD DUP1 SWAP2 SUB SWAP1 RETURN JUMPDEST PUSH2 0x2C8 PUSH1 0x4 DUP1 CALLDATASIZE SUB DUP2 ADD SWAP1 PUSH2 0x2C3 SWAP2 SWAP1 PUSH2 0x1228 JUMP JUMPDEST PUSH2 0x979 JUMP JUMPDEST STOP JUMPDEST PUSH2 0x2D2 PUSH2 0x98D JUMP JUMPDEST PUSH1 0x40 MLOAD PUSH2 0x2DF SWAP2 SWAP1 PUSH2 0xF5F JUMP JUMPDEST PUSH1 0x40 MLOAD DUP1 SWAP2 SUB SWAP1 RETURN JUMPDEST PUSH32 0x0 PUSH20 0xFFFFFFFFFFFFFFFFFFFFFFFFFFFFFFFFFFFFFFFF AND CALLER PUSH20 0xFFFFFFFFFFFFFFFFFFFFFFFFFFFFFFFFFFFFFFFF AND EQ PUSH2 0x39A JUMPI CALLER PUSH32 0x0 PUSH1 0x40 MLOAD PUSH32 0x1CF993F400000000000000000000000000000000000000000000000000000000 DUP2 MSTORE PUSH1 0x4 ADD PUSH2 0x391 SWAP3 SWAP2 SWAP1 PUSH2 0x1255 JUMP JUMPDEST PUSH1 0x40 MLOAD DUP1 SWAP2 SUB SWAP1 REVERT JUMPDEST PUSH2 0x3A4 DUP3 DUP3 PUSH2 0x993 JUMP JUMPDEST POP POP JUMP JUMPDEST PUSH1 0xB SLOAD DUP2 JUMP JUMPDEST PUSH1 0xC DUP2 DUP2 SLOAD DUP2 LT PUSH2 0x3BE JUMPI PUSH1 0x0 DUP1 REVERT JUMPDEST SWAP1 PUSH1 0x0 MSTORE PUSH1 0x20 PUSH1 0x0 KECCAK256 ADD PUSH1 0x0 SWAP2 POP SWAP1 POP SLOAD DUP2 JUMP JUMPDEST PUSH1 0xD PUSH1 0x20 MSTORE DUP1 PUSH1 0x0 MSTORE PUSH1 0x40 PUSH1 0x0 KECCAK256 PUSH1 0x0 SWAP2 POP SLOAD SWAP1 PUSH2 0x100 EXP SWAP1 DIV PUSH1 0xFF AND DUP2 JUMP JUMPDEST PUSH1 0x1 PUSH1 0x0 SWAP1 SLOAD SWAP1 PUSH2 0x100 EXP SWAP1 DIV PUSH20 0xFFFFFFFFFFFFFFFFFFFFFFFFFFFFFFFFFFFFFFFF AND PUSH20 0xFFFFFFFFFFFFFFFFFFFFFFFFFFFFFFFFFFFFFFFF AND CALLER PUSH20 0xFFFFFFFFFFFFFFFFFFFFFFFFFFFFFFFFFFFFFFFF AND EQ PUSH2 0x482 JUMPI PUSH1 0x40 MLOAD PUSH32 0x8C379A000000000000000000000000000000000000000000000000000000000 DUP2 MSTORE PUSH1 0x4 ADD PUSH2 0x479 SWAP1 PUSH2 0x12DB JUMP JUMPDEST PUSH1 0x40 MLOAD DUP1 SWAP2 SUB SWAP1 REVERT JUMPDEST PUSH1 0x0 DUP1 PUSH1 0x0 SWAP1 SLOAD SWAP1 PUSH2 0x100 EXP SWAP1 DIV PUSH20 0xFFFFFFFFFFFFFFFFFFFFFFFFFFFFFFFFFFFFFFFF AND SWAP1 POP CALLER PUSH1 0x0 DUP1 PUSH2 0x100 EXP DUP2 SLOAD DUP2 PUSH20 0xFFFFFFFFFFFFFFFFFFFFFFFFFFFFFFFFFFFFFFFF MUL NOT AND SWAP1 DUP4 PUSH20 0xFFFFFFFFFFFFFFFFFFFFFFFFFFFFFFFFFFFFFFFF AND MUL OR SWAP1 SSTORE POP PUSH1 0x0 PUSH1 0x1 PUSH1 0x0 PUSH2 0x100 EXP DUP2 SLOAD DUP2 PUSH20 0xFFFFFFFFFFFFFFFFFFFFFFFFFFFFFFFFFFFFFFFF MUL NOT AND SWAP1 DUP4 PUSH20 0xFFFFFFFFFFFFFFFFFFFFFFFFFFFFFFFFFFFFFFFF AND MUL OR SWAP1 SSTORE POP CALLER PUSH20 0xFFFFFFFFFFFFFFFFFFFFFFFFFFFFFFFFFFFFFFFF AND DUP2 PUSH20 0xFFFFFFFFFFFFFFFFFFFFFFFFFFFFFFFFFFFFFFFF AND PUSH32 0x8BE0079C531659141344CD1FD0A4F28419497F9722A3DAAFE3B4186F6B6457E0 PUSH1 0x40 MLOAD PUSH1 0x40 MLOAD DUP1 SWAP2 SUB SWAP1 LOG3 POP JUMP JUMPDEST PUSH1 0x7 DUP2 DUP2 SLOAD DUP2 LT PUSH2 0x597 JUMPI PUSH1 0x0 DUP1 REVERT JUMPDEST SWAP1 PUSH1 0x0 MSTORE PUSH1 0x20 PUSH1 0x0 KECCAK256 ADD PUSH1 0x0 SWAP2 POP SWAP1 POP SLOAD DUP2 JUMP JUMPDEST PUSH1 0xA PUSH1 0x0 SWAP1 SLOAD SWAP1 PUSH2 0x100 EXP SWAP1 DIV PUSH8 0xFFFFFFFFFFFFFFFF AND DUP2 JUMP JUMPDEST PUSH1 0x0 DUP1 PUSH1 0x0 SWAP1 SLOAD SWAP1 PUSH2 0x100 EXP SWAP1 DIV PUSH20 0xFFFFFFFFFFFFFFFFFFFFFFFFFFFFFFFFFFFFFFFF AND SWAP1 POP SWAP1 JUMP JUMPDEST PUSH1 0x9 DUP2 DUP2 SLOAD DUP2 LT PUSH2 0x5FE JUMPI PUSH1 0x0 DUP1 REVERT JUMPDEST SWAP1 PUSH1 0x0 MSTORE PUSH1 0x20 PUSH1 0x0 KECCAK256 ADD PUSH1 0x0 SWAP2 POP SWAP1 POP SLOAD DUP2 JUMP JUMPDEST PUSH1 0x2 PUSH1 0x20 MSTORE DUP1 PUSH1 0x0 MSTORE PUSH1 0x40 PUSH1 0x0 KECCAK256 PUSH1 0x0 SWAP2 POP SWAP1 POP DUP1 PUSH1 0x0 ADD PUSH1 0x0 SWAP1 SLOAD SWAP1 PUSH2 0x100 EXP SWAP1 DIV PUSH1 0xFF AND SWAP1 DUP1 PUSH1 0x0 ADD PUSH1 0x1 SWAP1 SLOAD SWAP1 PUSH2 0x100 EXP SWAP1 DIV PUSH1 0xFF AND SWAP1 POP DUP3 JUMP JUMPDEST PUSH1 0x60 PUSH1 0xC DUP1 SLOAD DUP1 PUSH1 0x20 MUL PUSH1 0x20 ADD PUSH1 0x40 MLOAD SWAP1 DUP2 ADD PUSH1 0x40 MSTORE DUP1 SWAP3 SWAP2 SWAP1 DUP2 DUP2 MSTORE PUSH1 0x20 ADD DUP3 DUP1 SLOAD DUP1 ISZERO PUSH2 0x69E JUMPI PUSH1 0x20 MUL DUP3 ADD SWAP2 SWAP1 PUSH1 0x0 MSTORE PUSH1 0x20 PUSH1 0x0 KECCAK256 SWAP1 JUMPDEST DUP2 SLOAD DUP2 MSTORE PUSH1 0x20 ADD SWAP1 PUSH1 0x1 ADD SWAP1 DUP1 DUP4 GT PUSH2 0x68A JUMPI JUMPDEST POP POP POP POP POP SWAP1 POP SWAP1 JUMP JUMPDEST PUSH1 0x0 DUP1 DUP4 PUSH4 0xFFFFFFFF AND GT DUP1 ISZERO PUSH2 0x6C5 JUMPI POP PUSH1 0xA DUP4 PUSH4 0xFFFFFFFF AND LT JUMPDEST PUSH2 0x704 JUMPI PUSH1 0x40 MLOAD PUSH32 0x8C379A000000000000000000000000000000000000000000000000000000000 DUP2 MSTORE PUSH1 0x4 ADD PUSH2 0x6FB SWAP1 PUSH2 0x136D JUMP JUMPDEST PUSH1 0x40 MLOAD DUP1 SWAP2 SUB SWAP1 REVERT JUMPDEST DUP3 PUSH1 0x6 DUP1 PUSH2 0x100 EXP DUP2 SLOAD DUP2 PUSH4 0xFFFFFFFF MUL NOT AND SWAP1 DUP4 PUSH4 0xFFFFFFFF AND MUL OR SWAP1 SSTORE POP DUP2 PUSH1 0xB DUP2 SWAP1 SSTORE POP PUSH1 0x3 PUSH1 0x0 SWAP1 SLOAD SWAP1 PUSH2 0x100 EXP SWAP1 DIV PUSH20 0xFFFFFFFFFFFFFFFFFFFFFFFFFFFFFFFFFFFFFFFF AND PUSH20 0xFFFFFFFFFFFFFFFFFFFFFFFFFFFFFFFFFFFFFFFF AND PUSH4 0x5D3B1D30 PUSH1 0x5 SLOAD PUSH1 0xA PUSH1 0x0 SWAP1 SLOAD SWAP1 PUSH2 0x100 EXP SWAP1 DIV PUSH8 0xFFFFFFFFFFFFFFFF AND PUSH1 0x6 PUSH1 0x4 SWAP1 SLOAD SWAP1 PUSH2 0x100 EXP SWAP1 DIV PUSH2 0xFFFF AND PUSH1 0x6 PUSH1 0x0 SWAP1 SLOAD SWAP1 PUSH2 0x100 EXP SWAP1 DIV PUSH4 0xFFFFFFFF AND PUSH1 0x6 DUP1 SLOAD SWAP1 PUSH2 0x100 EXP SWAP1 DIV PUSH4 0xFFFFFFFF AND PUSH1 0x40 MLOAD DUP7 PUSH4 0xFFFFFFFF AND PUSH1 0xE0 SHL DUP2 MSTORE PUSH1 0x4 ADD PUSH2 0x7D8 SWAP6 SWAP5 SWAP4 SWAP3 SWAP2 SWAP1 PUSH2 0x13D2 JUMP JUMPDEST PUSH1 0x20 PUSH1 0x40 MLOAD DUP1 DUP4 SUB DUP2 PUSH1 0x0 DUP8 GAS CALL ISZERO DUP1 ISZERO PUSH2 0x7F7 JUMPI RETURNDATASIZE PUSH1 0x0 DUP1 RETURNDATACOPY RETURNDATASIZE PUSH1 0x0 REVERT JUMPDEST POP POP POP POP PUSH1 0x40 MLOAD RETURNDATASIZE PUSH1 0x1F NOT PUSH1 0x1F DUP3 ADD AND DUP3 ADD DUP1 PUSH1 0x40 MSTORE POP DUP2 ADD SWAP1 PUSH2 0x81B SWAP2 SWAP1 PUSH2 0x143A JUMP JUMPDEST SWAP1 POP PUSH1 0x40 MLOAD DUP1 PUSH1 0x60 ADD PUSH1 0x40 MSTORE DUP1 PUSH1 0x0 ISZERO ISZERO DUP2 MSTORE PUSH1 0x20 ADD PUSH1 0x1 ISZERO ISZERO DUP2 MSTORE PUSH1 0x20 ADD PUSH1 0x0 PUSH8 0xFFFFFFFFFFFFFFFF DUP2 GT ISZERO PUSH2 0x855 JUMPI PUSH2 0x854 PUSH2 0xDB1 JUMP JUMPDEST JUMPDEST PUSH1 0x40 MLOAD SWAP1 DUP1 DUP3 MSTORE DUP1 PUSH1 0x20 MUL PUSH1 0x20 ADD DUP3 ADD PUSH1 0x40 MSTORE DUP1 ISZERO PUSH2 0x883 JUMPI DUP2 PUSH1 0x20 ADD PUSH1 0x20 DUP3 MUL DUP1 CALLDATASIZE DUP4 CALLDATACOPY DUP1 DUP3 ADD SWAP2 POP POP SWAP1 POP JUMPDEST POP DUP2 MSTORE POP PUSH1 0x2 PUSH1 0x0 DUP4 DUP2 MSTORE PUSH1 0x20 ADD SWAP1 DUP2 MSTORE PUSH1 0x20 ADD PUSH1 0x0 KECCAK256 PUSH1 0x0 DUP3 ADD MLOAD DUP2 PUSH1 0x0 ADD PUSH1 0x0 PUSH2 0x100 EXP DUP2 SLOAD DUP2 PUSH1 0xFF MUL NOT AND SWAP1 DUP4 ISZERO ISZERO MUL OR SWAP1 SSTORE POP PUSH1 0x20 DUP3 ADD MLOAD DUP2 PUSH1 0x0 ADD PUSH1 0x1 PUSH2 0x100 EXP DUP2 SLOAD DUP2 PUSH1 0xFF MUL NOT AND SWAP1 DUP4 ISZERO ISZERO MUL OR SWAP1 SSTORE POP PUSH1 0x40 DUP3 ADD MLOAD DUP2 PUSH1 0x1 ADD SWAP1 DUP1 MLOAD SWAP1 PUSH1 0x20 ADD SWAP1 PUSH2 0x8F6 SWAP3 SWAP2 SWAP1 PUSH2 0xCE7 JUMP JUMPDEST POP SWAP1 POP POP PUSH1 0x7 DUP2 SWAP1 DUP1 PUSH1 0x1 DUP2 SLOAD ADD DUP1 DUP3 SSTORE DUP1 SWAP2 POP POP PUSH1 0x1 SWAP1 SUB SWAP1 PUSH1 0x0 MSTORE PUSH1 0x20 PUSH1 0x0 KECCAK256 ADD PUSH1 0x0 SWAP1 SWAP2 SWAP1 SWAP2 SWAP1 SWAP2 POP SSTORE DUP1 PUSH1 0x8 DUP2 SWAP1 SSTORE POP PUSH32 0xCC58B13AD3EAB50626C6A6300B1D139CD6EBB1688A7CCED9461C2F7E762665EE DUP2 PUSH1 0x6 DUP1 SLOAD SWAP1 PUSH2 0x100 EXP SWAP1 DIV PUSH4 0xFFFFFFFF AND PUSH1 0x40 MLOAD PUSH2 0x96B SWAP3 SWAP2 SWAP1 PUSH2 0x1467 JUMP JUMPDEST PUSH1 0x40 MLOAD DUP1 SWAP2 SUB SWAP1 LOG1 SWAP3 SWAP2 POP POP JUMP JUMPDEST PUSH2 0x981 PUSH2 0xB2B JUMP JUMPDEST PUSH2 0x98A DUP2 PUSH2 0xBBB JUMP JUMPDEST POP JUMP JUMPDEST PUSH1 0x8 SLOAD DUP2 JUMP JUMPDEST PUSH1 0x2 PUSH1 0x0 DUP4 DUP2 MSTORE PUSH1 0x20 ADD SWAP1 DUP2 MSTORE PUSH1 0x20 ADD PUSH1 0x0 KECCAK256 PUSH1 0x0 ADD PUSH1 0x1 SWAP1 SLOAD SWAP1 PUSH2 0x100 EXP SWAP1 DIV PUSH1 0xFF AND PUSH2 0x9F6 JUMPI PUSH1 0x40 MLOAD PUSH32 0x8C379A000000000000000000000000000000000000000000000000000000000 DUP2 MSTORE PUSH1 0x4 ADD PUSH2 0x9ED SWAP1 PUSH2 0x14DC JUMP JUMPDEST PUSH1 0x40 MLOAD DUP1 SWAP2 SUB SWAP1 REVERT JUMPDEST PUSH1 0x1 PUSH1 0x2 PUSH1 0x0 DUP5 DUP2 MSTORE PUSH1 0x20 ADD SWAP1 DUP2 MSTORE PUSH1 0x20 ADD PUSH1 0x0 KECCAK256 PUSH1 0x0 ADD PUSH1 0x0 PUSH2 0x100 EXP DUP2 SLOAD DUP2 PUSH1 0xFF MUL NOT AND SWAP1 DUP4 ISZERO ISZERO MUL OR SWAP1 SSTORE POP DUP1 PUSH1 0x2 PUSH1 0x0 DUP5 DUP2 MSTORE PUSH1 0x20 ADD SWAP1 DUP2 MSTORE PUSH1 0x20 ADD PUSH1 0x0 KECCAK256 PUSH1 0x1 ADD SWAP1 DUP1 MLOAD SWAP1 PUSH1 0x20 ADD SWAP1 PUSH2 0xA4F SWAP3 SWAP2 SWAP1 PUSH2 0xCE7 JUMP JUMPDEST POP DUP1 PUSH1 0x9 SWAP1 DUP1 MLOAD SWAP1 PUSH1 0x20 ADD SWAP1 PUSH2 0xA66 SWAP3 SWAP2 SWAP1 PUSH2 0xCE7 JUMP JUMPDEST POP PUSH1 0x0 DUP1 PUSH1 0x0 SWAP1 POP JUMPDEST PUSH1 0x6 DUP1 SLOAD SWAP1 PUSH2 0x100 EXP SWAP1 DIV PUSH4 0xFFFFFFFF AND PUSH4 0xFFFFFFFF AND DUP2 LT ISZERO PUSH2 0xB25 JUMPI PUSH1 0x1 PUSH1 0xB SLOAD DUP5 DUP4 DUP2 MLOAD DUP2 LT PUSH2 0xAA5 JUMPI PUSH2 0xAA4 PUSH2 0x14FC JUMP JUMPDEST JUMPDEST PUSH1 0x20 MUL PUSH1 0x20 ADD ADD MLOAD PUSH2 0xAB7 SWAP2 SWAP1 PUSH2 0x155A JUMP JUMPDEST PUSH2 0xAC1 SWAP2 SWAP1 PUSH2 0x15BA JUMP JUMPDEST SWAP2 POP PUSH1 0xD PUSH1 0x0 DUP4 DUP2 MSTORE PUSH1 0x20 ADD SWAP1 DUP2 MSTORE PUSH1 0x20 ADD PUSH1 0x0 KECCAK256 PUSH1 0x0 SWAP1 SLOAD SWAP1 PUSH2 0x100 EXP SWAP1 DIV PUSH1 0xFF AND PUSH2 0xB12 JUMPI PUSH1 0xC DUP3 SWAP1 DUP1 PUSH1 0x1 DUP2 SLOAD ADD DUP1 DUP3 SSTORE DUP1 SWAP2 POP POP PUSH1 0x1 SWAP1 SUB SWAP1 PUSH1 0x0 MSTORE PUSH1 0x20 PUSH1 0x0 KECCAK256 ADD PUSH1 0x0 SWAP1 SWAP2 SWAP1 SWAP2 SWAP1 SWAP2 POP SSTORE JUMPDEST DUP1 DUP1 PUSH2 0xB1D SWAP1 PUSH2 0x15EE JUMP JUMPDEST SWAP2 POP POP PUSH2 0xA6F JUMP JUMPDEST POP POP POP POP JUMP JUMPDEST PUSH1 0x0 DUP1 SLOAD SWAP1 PUSH2 0x100 EXP SWAP1 DIV PUSH20 0xFFFFFFFFFFFFFFFFFFFFFFFFFFFFFFFFFFFFFFFF AND PUSH20 0xFFFFFFFFFFFFFFFFFFFFFFFFFFFFFFFFFFFFFFFF AND CALLER PUSH20 0xFFFFFFFFFFFFFFFFFFFFFFFFFFFFFFFFFFFFFFFF AND EQ PUSH2 0xBB9 JUMPI PUSH1 0x40 MLOAD PUSH32 0x8C379A000000000000000000000000000000000000000000000000000000000 DUP2 MSTORE PUSH1 0x4 ADD PUSH2 0xBB0 SWAP1 PUSH2 0x1682 JUMP JUMPDEST PUSH1 0x40 MLOAD DUP1 SWAP2 SUB SWAP1 REVERT JUMPDEST JUMP JUMPDEST CALLER PUSH20 0xFFFFFFFFFFFFFFFFFFFFFFFFFFFFFFFFFFFFFFFF AND DUP2 PUSH20 0xFFFFFFFFFFFFFFFFFFFFFFFFFFFFFFFFFFFFFFFF AND SUB PUSH2 0xC29 JUMPI PUSH1 0x40 MLOAD PUSH32 0x8C379A000000000000000000000000000000000000000000000000000000000 DUP2 MSTORE PUSH1 0x4 ADD PUSH2 0xC20 SWAP1 PUSH2 0x16EE JUMP JUMPDEST PUSH1 0x40 MLOAD DUP1 SWAP2 SUB SWAP1 REVERT JUMPDEST DUP1 PUSH1 0x1 PUSH1 0x0 PUSH2 0x100 EXP DUP2 SLOAD DUP2 PUSH20 0xFFFFFFFFFFFFFFFFFFFFFFFFFFFFFFFFFFFFFFFF MUL NOT AND SWAP1 DUP4 PUSH20 0xFFFFFFFFFFFFFFFFFFFFFFFFFFFFFFFFFFFFFFFF AND MUL OR SWAP1 SSTORE POP DUP1 PUSH20 0xFFFFFFFFFFFFFFFFFFFFFFFFFFFFFFFFFFFFFFFF AND PUSH1 0x0 DUP1 SLOAD SWAP1 PUSH2 0x100 EXP SWAP1 DIV PUSH20 0xFFFFFFFFFFFFFFFFFFFFFFFFFFFFFFFFFFFFFFFF AND PUSH20 0xFFFFFFFFFFFFFFFFFFFFFFFFFFFFFFFFFFFFFFFF AND PUSH32 0xED8889F560326EB138920D842192F0EB3DD22B4F139C87A2C57538E05BAE1278 PUSH1 0x40 MLOAD PUSH1 0x40 MLOAD DUP1 SWAP2 SUB SWAP1 LOG3 POP JUMP JUMPDEST DUP3 DUP1 SLOAD DUP3 DUP3 SSTORE SWAP1 PUSH1 0x0 MSTORE PUSH1 0x20 PUSH1 0x0 KECCAK256 SWAP1 DUP2 ADD SWAP3 DUP3 ISZERO PUSH2 0xD23 JUMPI SWAP2 PUSH1 0x20 MUL DUP3 ADD JUMPDEST DUP3 DUP2 GT ISZERO PUSH2 0xD22 JUMPI DUP3 MLOAD DUP3 SSTORE SWAP2 PUSH1 0x20 ADD SWAP2 SWAP1 PUSH1 0x1 ADD SWAP1 PUSH2 0xD07 JUMP JUMPDEST JUMPDEST POP SWAP1 POP PUSH2 0xD30 SWAP2 SWAP1 PUSH2 0xD34 JUMP JUMPDEST POP SWAP1 JUMP JUMPDEST JUMPDEST DUP1 DUP3 GT ISZERO PUSH2 0xD4D JUMPI PUSH1 0x0 DUP2 PUSH1 0x0 SWAP1 SSTORE POP PUSH1 0x1 ADD PUSH2 0xD35 JUMP JUMPDEST POP SWAP1 JUMP JUMPDEST PUSH1 0x0 PUSH1 0x40 MLOAD SWAP1 POP SWAP1 JUMP JUMPDEST PUSH1 0x0 DUP1 REVERT JUMPDEST PUSH1 0x0 DUP1 REVERT JUMPDEST PUSH1 0x0 DUP2 SWAP1 POP SWAP2 SWAP1 POP JUMP JUMPDEST PUSH2 0xD78 DUP2 PUSH2 0xD65 JUMP JUMPDEST DUP2 EQ PUSH2 0xD83 JUMPI PUSH1 0x0 DUP1 REVERT JUMPDEST POP JUMP JUMPDEST PUSH1 0x0 DUP2 CALLDATALOAD SWAP1 POP PUSH2 0xD95 DUP2 PUSH2 0xD6F JUMP JUMPDEST SWAP3 SWAP2 POP POP JUMP JUMPDEST PUSH1 0x0 DUP1 REVERT JUMPDEST PUSH1 0x0 PUSH1 0x1F NOT PUSH1 0x1F DUP4 ADD AND SWAP1 POP SWAP2 SWAP1 POP JUMP JUMPDEST PUSH32 0x4E487B7100000000000000000000000000000000000000000000000000000000 PUSH1 0x0 MSTORE PUSH1 0x41 PUSH1 0x4 MSTORE PUSH1 0x24 PUSH1 0x0 REVERT JUMPDEST PUSH2 0xDE9 DUP3 PUSH2 0xDA0 JUMP JUMPDEST DUP2 ADD DUP2 DUP2 LT PUSH8 0xFFFFFFFFFFFFFFFF DUP3 GT OR ISZERO PUSH2 0xE08 JUMPI PUSH2 0xE07 PUSH2 0xDB1 JUMP JUMPDEST JUMPDEST DUP1 PUSH1 0x40 MSTORE POP POP POP JUMP JUMPDEST PUSH1 0x0 PUSH2 0xE1B PUSH2 0xD51 JUMP JUMPDEST SWAP1 POP PUSH2 0xE27 DUP3 DUP3 PUSH2 0xDE0 JUMP JUMPDEST SWAP2 SWAP1 POP JUMP JUMPDEST PUSH1 0x0 PUSH8 0xFFFFFFFFFFFFFFFF DUP3 GT ISZERO PUSH2 0xE47 JUMPI PUSH2 0xE46 PUSH2 0xDB1 JUMP JUMPDEST JUMPDEST PUSH1 0x20 DUP3 MUL SWAP1 POP PUSH1 0x20 DUP2 ADD SWAP1 POP SWAP2 SWAP1 POP JUMP JUMPDEST PUSH1 0x0 DUP1 REVERT JUMPDEST PUSH1 0x0 PUSH2 0xE70 PUSH2 0xE6B DUP5 PUSH2 0xE2C JUMP JUMPDEST PUSH2 0xE11 JUMP JUMPDEST SWAP1 POP DUP1 DUP4 DUP3 MSTORE PUSH1 0x20 DUP3 ADD SWAP1 POP PUSH1 0x20 DUP5 MUL DUP4 ADD DUP6 DUP2 GT ISZERO PUSH2 0xE93 JUMPI PUSH2 0xE92 PUSH2 0xE58 JUMP JUMPDEST JUMPDEST DUP4 JUMPDEST DUP2 DUP2 LT ISZERO PUSH2 0xEBC JUMPI DUP1 PUSH2 0xEA8 DUP9 DUP3 PUSH2 0xD86 JUMP JUMPDEST DUP5 MSTORE PUSH1 0x20 DUP5 ADD SWAP4 POP POP PUSH1 0x20 DUP2 ADD SWAP1 POP PUSH2 0xE95 JUMP JUMPDEST POP POP POP SWAP4 SWAP3 POP POP POP JUMP JUMPDEST PUSH1 0x0 DUP3 PUSH1 0x1F DUP4 ADD SLT PUSH2 0xEDB JUMPI PUSH2 0xEDA PUSH2 0xD9B JUMP JUMPDEST JUMPDEST DUP2 CALLDATALOAD PUSH2 0xEEB DUP5 DUP3 PUSH1 0x20 DUP7 ADD PUSH2 0xE5D JUMP JUMPDEST SWAP2 POP POP SWAP3 SWAP2 POP POP JUMP JUMPDEST PUSH1 0x0 DUP1 PUSH1 0x40 DUP4 DUP6 SUB SLT ISZERO PUSH2 0xF0B JUMPI PUSH2 0xF0A PUSH2 0xD5B JUMP JUMPDEST JUMPDEST PUSH1 0x0 PUSH2 0xF19 DUP6 DUP3 DUP7 ADD PUSH2 0xD86 JUMP JUMPDEST SWAP3 POP POP PUSH1 0x20 DUP4 ADD CALLDATALOAD PUSH8 0xFFFFFFFFFFFFFFFF DUP2 GT ISZERO PUSH2 0xF3A JUMPI PUSH2 0xF39 PUSH2 0xD60 JUMP JUMPDEST JUMPDEST PUSH2 0xF46 DUP6 DUP3 DUP7 ADD PUSH2 0xEC6 JUMP JUMPDEST SWAP2 POP POP SWAP3 POP SWAP3 SWAP1 POP JUMP JUMPDEST PUSH2 0xF59 DUP2 PUSH2 0xD65 JUMP JUMPDEST DUP3 MSTORE POP POP JUMP JUMPDEST PUSH1 0x0 PUSH1 0x20 DUP3 ADD SWAP1 POP PUSH2 0xF74 PUSH1 0x0 DUP4 ADD DUP5 PUSH2 0xF50 JUMP JUMPDEST SWAP3 SWAP2 POP POP JUMP JUMPDEST PUSH1 0x0 PUSH1 0x20 DUP3 DUP5 SUB SLT ISZERO PUSH2 0xF90 JUMPI PUSH2 0xF8F PUSH2 0xD5B JUMP JUMPDEST JUMPDEST PUSH1 0x0 PUSH2 0xF9E DUP5 DUP3 DUP6 ADD PUSH2 0xD86 JUMP JUMPDEST SWAP2 POP POP SWAP3 SWAP2 POP POP JUMP JUMPDEST PUSH1 0x0 DUP2 ISZERO ISZERO SWAP1 POP SWAP2 SWAP1 POP JUMP JUMPDEST PUSH2 0xFBC DUP2 PUSH2 0xFA7 JUMP JUMPDEST DUP3 MSTORE POP POP JUMP JUMPDEST PUSH1 0x0 PUSH1 0x20 DUP3 ADD SWAP1 POP PUSH2 0xFD7 PUSH1 0x0 DUP4 ADD DUP5 PUSH2 0xFB3 JUMP JUMPDEST SWAP3 SWAP2 POP POP JUMP JUMPDEST PUSH1 0x0 PUSH8 0xFFFFFFFFFFFFFFFF DUP3 AND SWAP1 POP SWAP2 SWAP1 POP JUMP JUMPDEST PUSH2 0xFFA DUP2 PUSH2 0xFDD JUMP JUMPDEST DUP3 MSTORE POP POP JUMP JUMPDEST PUSH1 0x0 PUSH1 0x20 DUP3 ADD SWAP1 POP PUSH2 0x1015 PUSH1 0x0 DUP4 ADD DUP5 PUSH2 0xFF1 JUMP JUMPDEST SWAP3 SWAP2 POP POP JUMP JUMPDEST PUSH1 0x0 PUSH20 0xFFFFFFFFFFFFFFFFFFFFFFFFFFFFFFFFFFFFFFFF DUP3 AND SWAP1 POP SWAP2 SWAP1 POP JUMP JUMPDEST PUSH1 0x0 PUSH2 0x1046 DUP3 PUSH2 0x101B JUMP JUMPDEST SWAP1 POP SWAP2 SWAP1 POP JUMP JUMPDEST PUSH2 0x1056 DUP2 PUSH2 0x103B JUMP JUMPDEST DUP3 MSTORE POP POP JUMP JUMPDEST PUSH1 0x0 PUSH1 0x20 DUP3 ADD SWAP1 POP PUSH2 0x1071 PUSH1 0x0 DUP4 ADD DUP5 PUSH2 0x104D JUMP JUMPDEST SWAP3 SWAP2 POP POP JUMP JUMPDEST PUSH1 0x0 PUSH1 0x40 DUP3 ADD SWAP1 POP PUSH2 0x108C PUSH1 0x0 DUP4 ADD DUP6 PUSH2 0xFB3 JUMP JUMPDEST PUSH2 0x1099 PUSH1 0x20 DUP4 ADD DUP5 PUSH2 0xFB3 JUMP JUMPDEST SWAP4 SWAP3 POP POP POP JUMP JUMPDEST PUSH1 0x0 DUP2 MLOAD SWAP1 POP SWAP2 SWAP1 POP JUMP JUMPDEST PUSH1 0x0 DUP3 DUP3 MSTORE PUSH1 0x20 DUP3 ADD SWAP1 POP SWAP3 SWAP2 POP POP JUMP JUMPDEST PUSH1 0x0 DUP2 SWAP1 POP PUSH1 0x20 DUP3 ADD SWAP1 POP SWAP2 SWAP1 POP JUMP JUMPDEST PUSH2 0x10D5 DUP2 PUSH2 0xD65 JUMP JUMPDEST DUP3 MSTORE POP POP JUMP JUMPDEST PUSH1 0x0 PUSH2 0x10E7 DUP4 DUP4 PUSH2 0x10CC JUMP JUMPDEST PUSH1 0x20 DUP4 ADD SWAP1 POP SWAP3 SWAP2 POP POP JUMP JUMPDEST PUSH1 0x0 PUSH1 0x20 DUP3 ADD SWAP1 POP SWAP2 SWAP1 POP JUMP JUMPDEST PUSH1 0x0 PUSH2 0x110B DUP3 PUSH2 0x10A0 JUMP JUMPDEST PUSH2 0x1115 DUP2 DUP6 PUSH2 0x10AB JUMP JUMPDEST SWAP4 POP PUSH2 0x1120 DUP4 PUSH2 0x10BC JUMP JUMPDEST DUP1 PUSH1 0x0 JUMPDEST DUP4 DUP2 LT ISZERO PUSH2 0x1151 JUMPI DUP2 MLOAD PUSH2 0x1138 DUP9 DUP3 PUSH2 0x10DB JUMP JUMPDEST SWAP8 POP PUSH2 0x1143 DUP4 PUSH2 0x10F3 JUMP JUMPDEST SWAP3 POP POP PUSH1 0x1 DUP2 ADD SWAP1 POP PUSH2 0x1124 JUMP JUMPDEST POP DUP6 SWAP4 POP POP POP POP SWAP3 SWAP2 POP POP JUMP JUMPDEST PUSH1 0x0 PUSH1 0x20 DUP3 ADD SWAP1 POP DUP2 DUP2 SUB PUSH1 0x0 DUP4 ADD MSTORE PUSH2 0x1178 DUP2 DUP5 PUSH2 0x1100 JUMP JUMPDEST SWAP1 POP SWAP3 SWAP2 POP POP JUMP JUMPDEST PUSH1 0x0 PUSH4 0xFFFFFFFF DUP3 AND SWAP1 POP SWAP2 SWAP1 POP JUMP JUMPDEST PUSH2 0x1199 DUP2 PUSH2 0x1180 JUMP JUMPDEST DUP2 EQ PUSH2 0x11A4 JUMPI PUSH1 0x0 DUP1 REVERT JUMPDEST POP JUMP JUMPDEST PUSH1 0x0 DUP2 CALLDATALOAD SWAP1 POP PUSH2 0x11B6 DUP2 PUSH2 0x1190 JUMP JUMPDEST SWAP3 SWAP2 POP POP JUMP JUMPDEST PUSH1 0x0 DUP1 PUSH1 0x40 DUP4 DUP6 SUB SLT ISZERO PUSH2 0x11D3 JUMPI PUSH2 0x11D2 PUSH2 0xD5B JUMP JUMPDEST JUMPDEST PUSH1 0x0 PUSH2 0x11E1 DUP6 DUP3 DUP7 ADD PUSH2 0x11A7 JUMP JUMPDEST SWAP3 POP POP PUSH1 0x20 PUSH2 0x11F2 DUP6 DUP3 DUP7 ADD PUSH2 0xD86 JUMP JUMPDEST SWAP2 POP POP SWAP3 POP SWAP3 SWAP1 POP JUMP JUMPDEST PUSH2 0x1205 DUP2 PUSH2 0x103B JUMP JUMPDEST DUP2 EQ PUSH2 0x1210 JUMPI PUSH1 0x0 DUP1 REVERT JUMPDEST POP JUMP JUMPDEST PUSH1 0x0 DUP2 CALLDATALOAD SWAP1 POP PUSH2 0x1222 DUP2 PUSH2 0x11FC JUMP JUMPDEST SWAP3 SWAP2 POP POP JUMP JUMPDEST PUSH1 0x0 PUSH1 0x20 DUP3 DUP5 SUB SLT ISZERO PUSH2 0x123E JUMPI PUSH2 0x123D PUSH2 0xD5B JUMP JUMPDEST JUMPDEST PUSH1 0x0 PUSH2 0x124C DUP5 DUP3 DUP6 ADD PUSH2 0x1213 JUMP JUMPDEST SWAP2 POP POP SWAP3 SWAP2 POP POP JUMP JUMPDEST PUSH1 0x0 PUSH1 0x40 DUP3 ADD SWAP1 POP PUSH2 0x126A PUSH1 0x0 DUP4 ADD DUP6 PUSH2 0x104D JUMP JUMPDEST PUSH2 0x1277 PUSH1 0x20 DUP4 ADD DUP5 PUSH2 0x104D JUMP JUMPDEST SWAP4 SWAP3 POP POP POP JUMP JUMPDEST PUSH1 0x0 DUP3 DUP3 MSTORE PUSH1 0x20 DUP3 ADD SWAP1 POP SWAP3 SWAP2 POP POP JUMP JUMPDEST PUSH32 0x4D7573742062652070726F706F736564206F776E657200000000000000000000 PUSH1 0x0 DUP3 ADD MSTORE POP JUMP JUMPDEST PUSH1 0x0 PUSH2 0x12C5 PUSH1 0x16 DUP4 PUSH2 0x127E JUMP JUMPDEST SWAP2 POP PUSH2 0x12D0 DUP3 PUSH2 0x128F JUMP JUMPDEST PUSH1 0x20 DUP3 ADD SWAP1 POP SWAP2 SWAP1 POP JUMP JUMPDEST PUSH1 0x0 PUSH1 0x20 DUP3 ADD SWAP1 POP DUP2 DUP2 SUB PUSH1 0x0 DUP4 ADD MSTORE PUSH2 0x12F4 DUP2 PUSH2 0x12B8 JUMP JUMPDEST SWAP1 POP SWAP2 SWAP1 POP JUMP JUMPDEST PUSH32 0x7175616E74697479206F66206E756D62657273206D7573742062652062657477 PUSH1 0x0 DUP3 ADD MSTORE PUSH32 0x65656E203120616E642031300000000000000000000000000000000000000000 PUSH1 0x20 DUP3 ADD MSTORE POP JUMP JUMPDEST PUSH1 0x0 PUSH2 0x1357 PUSH1 0x2C DUP4 PUSH2 0x127E JUMP JUMPDEST SWAP2 POP PUSH2 0x1362 DUP3 PUSH2 0x12FB JUMP JUMPDEST PUSH1 0x40 DUP3 ADD SWAP1 POP SWAP2 SWAP1 POP JUMP JUMPDEST PUSH1 0x0 PUSH1 0x20 DUP3 ADD SWAP1 POP DUP2 DUP2 SUB PUSH1 0x0 DUP4 ADD MSTORE PUSH2 0x1386 DUP2 PUSH2 0x134A JUMP JUMPDEST SWAP1 POP SWAP2 SWAP1 POP JUMP JUMPDEST PUSH1 0x0 DUP2 SWAP1 POP SWAP2 SWAP1 POP JUMP JUMPDEST PUSH2 0x13A0 DUP2 PUSH2 0x138D JUMP JUMPDEST DUP3 MSTORE POP POP JUMP JUMPDEST PUSH1 0x0 PUSH2 0xFFFF DUP3 AND SWAP1 POP SWAP2 SWAP1 POP JUMP JUMPDEST PUSH2 0x13BD DUP2 PUSH2 0x13A6 JUMP JUMPDEST DUP3 MSTORE POP POP JUMP JUMPDEST PUSH2 0x13CC DUP2 PUSH2 0x1180 JUMP JUMPDEST DUP3 MSTORE POP POP JUMP JUMPDEST PUSH1 0x0 PUSH1 0xA0 DUP3 ADD SWAP1 POP PUSH2 0x13E7 PUSH1 0x0 DUP4 ADD DUP9 PUSH2 0x1397 JUMP JUMPDEST PUSH2 0x13F4 PUSH1 0x20 DUP4 ADD DUP8 PUSH2 0xFF1 JUMP JUMPDEST PUSH2 0x1401 PUSH1 0x40 DUP4 ADD DUP7 PUSH2 0x13B4 JUMP JUMPDEST PUSH2 0x140E PUSH1 0x60 DUP4 ADD DUP6 PUSH2 0x13C3 JUMP JUMPDEST PUSH2 0x141B PUSH1 0x80 DUP4 ADD DUP5 PUSH2 0x13C3 JUMP JUMPDEST SWAP7 SWAP6 POP POP POP POP POP POP JUMP JUMPDEST PUSH1 0x0 DUP2 MLOAD SWAP1 POP PUSH2 0x1434 DUP2 PUSH2 0xD6F JUMP JUMPDEST SWAP3 SWAP2 POP POP JUMP JUMPDEST PUSH1 0x0 PUSH1 0x20 DUP3 DUP5 SUB SLT ISZERO PUSH2 0x1450 JUMPI PUSH2 0x144F PUSH2 0xD5B JUMP JUMPDEST JUMPDEST PUSH1 0x0 PUSH2 0x145E DUP5 DUP3 DUP6 ADD PUSH2 0x1425 JUMP JUMPDEST SWAP2 POP POP SWAP3 SWAP2 POP POP JUMP JUMPDEST PUSH1 0x0 PUSH1 0x40 DUP3 ADD SWAP1 POP PUSH2 0x147C PUSH1 0x0 DUP4 ADD DUP6 PUSH2 0xF50 JUMP JUMPDEST PUSH2 0x1489 PUSH1 0x20 DUP4 ADD DUP5 PUSH2 0x13C3 JUMP JUMPDEST SWAP4 SWAP3 POP POP POP JUMP JUMPDEST PUSH32 0x72657175657374206E6F7420666F756E64000000000000000000000000000000 PUSH1 0x0 DUP3 ADD MSTORE POP JUMP JUMPDEST PUSH1 0x0 PUSH2 0x14C6 PUSH1 0x11 DUP4 PUSH2 0x127E JUMP JUMPDEST SWAP2 POP PUSH2 0x14D1 DUP3 PUSH2 0x1490 JUMP JUMPDEST PUSH1 0x20 DUP3 ADD SWAP1 POP SWAP2 SWAP1 POP JUMP JUMPDEST PUSH1 0x0 PUSH1 0x20 DUP3 ADD SWAP1 POP DUP2 DUP2 SUB PUSH1 0x0 DUP4 ADD MSTORE PUSH2 0x14F5 DUP2 PUSH2 0x14B9 JUMP JUMPDEST SWAP1 POP SWAP2 SWAP1 POP JUMP JUMPDEST PUSH32 0x4E487B7100000000000000000000000000000000000000000000000000000000 PUSH1 0x0 MSTORE PUSH1 0x32 PUSH1 0x4 MSTORE PUSH1 0x24 PUSH1 0x0 REVERT JUMPDEST PUSH32 0x4E487B7100000000000000000000000000000000000000000000000000000000 PUSH1 0x0 MSTORE PUSH1 0x12 PUSH1 0x4 MSTORE PUSH1 0x24 PUSH1 0x0 REVERT JUMPDEST PUSH1 0x0 PUSH2 0x1565 DUP3 PUSH2 0xD65 JUMP JUMPDEST SWAP2 POP PUSH2 0x1570 DUP4 PUSH2 0xD65 JUMP JUMPDEST SWAP3 POP DUP3 PUSH2 0x1580 JUMPI PUSH2 0x157F PUSH2 0x152B JUMP JUMPDEST JUMPDEST DUP3 DUP3 MOD SWAP1 POP SWAP3 SWAP2 POP POP JUMP JUMPDEST PUSH32 0x4E487B7100000000000000000000000000000000000000000000000000000000 PUSH1 0x0 MSTORE PUSH1 0x11 PUSH1 0x4 MSTORE PUSH1 0x24 PUSH1 0x0 REVERT JUMPDEST PUSH1 0x0 PUSH2 0x15C5 DUP3 PUSH2 0xD65 JUMP JUMPDEST SWAP2 POP PUSH2 0x15D0 DUP4 PUSH2 0xD65 JUMP JUMPDEST SWAP3 POP DUP3 DUP3 ADD SWAP1 POP DUP1 DUP3 GT ISZERO PUSH2 0x15E8 JUMPI PUSH2 0x15E7 PUSH2 0x158B JUMP JUMPDEST JUMPDEST SWAP3 SWAP2 POP POP JUMP JUMPDEST PUSH1 0x0 PUSH2 0x15F9 DUP3 PUSH2 0xD65 JUMP JUMPDEST SWAP2 POP PUSH32 0xFFFFFFFFFFFFFFFFFFFFFFFFFFFFFFFFFFFFFFFFFFFFFFFFFFFFFFFFFFFFFFFF DUP3 SUB PUSH2 0x162B JUMPI PUSH2 0x162A PUSH2 0x158B JUMP JUMPDEST JUMPDEST PUSH1 0x1 DUP3 ADD SWAP1 POP SWAP2 SWAP1 POP JUMP JUMPDEST PUSH32 0x4F6E6C792063616C6C61626C65206279206F776E657200000000000000000000 PUSH1 0x0 DUP3 ADD MSTORE POP JUMP JUMPDEST PUSH1 0x0 PUSH2 0x166C PUSH1 0x16 DUP4 PUSH2 0x127E JUMP JUMPDEST SWAP2 POP PUSH2 0x1677 DUP3 PUSH2 0x1636 JUMP JUMPDEST PUSH1 0x20 DUP3 ADD SWAP1 POP SWAP2 SWAP1 POP JUMP JUMPDEST PUSH1 0x0 PUSH1 0x20 DUP3 ADD SWAP1 POP DUP2 DUP2 SUB PUSH1 0x0 DUP4 ADD MSTORE PUSH2 0x169B DUP2 PUSH2 0x165F JUMP JUMPDEST SWAP1 POP SWAP2 SWAP1 POP JUMP JUMPDEST PUSH32 0x43616E6E6F74207472616E7366657220746F2073656C66000000000000000000 PUSH1 0x0 DUP3 ADD MSTORE POP JUMP JUMPDEST PUSH1 0x0 PUSH2 0x16D8 PUSH1 0x17 DUP4 PUSH2 0x127E JUMP JUMPDEST SWAP2 POP PUSH2 0x16E3 DUP3 PUSH2 0x16A2 JUMP JUMPDEST PUSH1 0x20 DUP3 ADD SWAP1 POP SWAP2 SWAP1 POP JUMP JUMPDEST PUSH1 0x0 PUSH1 0x20 DUP3 ADD SWAP1 POP DUP2 DUP2 SUB PUSH1 0x0 DUP4 ADD MSTORE PUSH2 0x1707 DUP2 PUSH2 0x16CB JUMP JUMPDEST SWAP1 POP SWAP2 SWAP1 POP JUMP INVALID LOG2 PUSH5 0x6970667358 0x22 SLT KECCAK256 0xA7 KECCAK256 CODESIZE 0xC7 PUSH12 0xBA39E78B63F0D7EBABE84D61 SIGNEXTEND 0xB8 0x4C JUMPI SHR 0xE0 RETURNDATACOPY JUMP 0xD SLT 0x24 LOG4 BLOCKHASH PUSH32 0x4264736F6C634300081300330000000000000000000000000000000000000000 "
				},
				"gasEstimates": {
					"creation": {
						"codeDepositCost": "1191200",
						"executionCost": "infinite",
						"totalCost": "infinite"
					},
					"external": {
						"acceptOwnership()": "54585",
						"execute(uint32,uint256)": "infinite",
						"lastRandomWords(uint256)": "infinite",
						"lastRequestId()": "2517",
						"listNumbers()": "infinite",
						"maximum()": "2475",
						"owner()": "2545",
						"raffleResult(uint256)": "infinite",
						"rawFulfillRandomWords(uint256,uint256[])": "infinite",
						"requestIds(uint256)": "infinite",
						"s_requests(uint256)": "infinite",
						"s_subscriptionId()": "2560",
						"selected(uint256)": "2819",
						"transferOwnership(address)": "30720"
					},
					"internal": {
						"fulfillRandomWords(uint256,uint256[] memory)": "infinite"
					}
				},
				"methodIdentifiers": {
					"acceptOwnership()": "79ba5097",
					"execute(uint32,uint256)": "c7d06a72",
					"lastRandomWords(uint256)": "900fc869",
					"lastRequestId()": "fc2a88c3",
					"listNumbers()": "c6b0f15b",
					"maximum()": "52342f13",
					"owner()": "8da5cb5b",
					"raffleResult(uint256)": "723dfc9e",
					"rawFulfillRandomWords(uint256,uint256[])": "1fe543e3",
					"requestIds(uint256)": "8796ba8c",
					"s_requests(uint256)": "a168fa89",
					"s_subscriptionId()": "8ac00021",
					"selected(uint256)": "7816a3a1",
					"transferOwnership(address)": "f2fde38b"
				}
			},
			"storageLayout": {
				"storage": [
					{
						"astId": 27,
						"contract": "remix-project-files/Raffle.sol:Raffle",
						"label": "s_owner",
						"offset": 0,
						"slot": "0",
						"type": "t_address"
					},
					{
						"astId": 29,
						"contract": "remix-project-files/Raffle.sol:Raffle",
						"label": "s_pendingOwner",
						"offset": 0,
						"slot": "1",
						"type": "t_address"
					},
					{
						"astId": 386,
						"contract": "remix-project-files/Raffle.sol:Raffle",
						"label": "s_requests",
						"offset": 0,
						"slot": "2",
						"type": "t_mapping(t_uint256,t_struct(RequestStatus)381_storage)"
					},
					{
						"astId": 389,
						"contract": "remix-project-files/Raffle.sol:Raffle",
						"label": "COORDINATOR",
						"offset": 0,
						"slot": "3",
						"type": "t_contract(VRFCoordinatorV2Interface)351"
					},
					{
						"astId": 392,
						"contract": "remix-project-files/Raffle.sol:Raffle",
						"label": "vrfCoordinator",
						"offset": 0,
						"slot": "4",
						"type": "t_address"
					},
					{
						"astId": 395,
						"contract": "remix-project-files/Raffle.sol:Raffle",
						"label": "keyHash",
						"offset": 0,
						"slot": "5",
						"type": "t_bytes32"
					},
					{
						"astId": 398,
						"contract": "remix-project-files/Raffle.sol:Raffle",
						"label": "callbackGasLimit",
						"offset": 0,
						"slot": "6",
						"type": "t_uint32"
					},
					{
						"astId": 401,
						"contract": "remix-project-files/Raffle.sol:Raffle",
						"label": "requestConfirmations",
						"offset": 4,
						"slot": "6",
						"type": "t_uint16"
					},
					{
						"astId": 404,
						"contract": "remix-project-files/Raffle.sol:Raffle",
						"label": "numWords",
						"offset": 6,
						"slot": "6",
						"type": "t_uint32"
					},
					{
						"astId": 407,
						"contract": "remix-project-files/Raffle.sol:Raffle",
						"label": "requestIds",
						"offset": 0,
						"slot": "7",
						"type": "t_array(t_uint256)dyn_storage"
					},
					{
						"astId": 409,
						"contract": "remix-project-files/Raffle.sol:Raffle",
						"label": "lastRequestId",
						"offset": 0,
						"slot": "8",
						"type": "t_uint256"
					},
					{
						"astId": 412,
						"contract": "remix-project-files/Raffle.sol:Raffle",
						"label": "lastRandomWords",
						"offset": 0,
						"slot": "9",
						"type": "t_array(t_uint256)dyn_storage"
					},
					{
						"astId": 414,
						"contract": "remix-project-files/Raffle.sol:Raffle",
						"label": "s_subscriptionId",
						"offset": 0,
						"slot": "10",
						"type": "t_uint64"
					},
					{
						"astId": 416,
						"contract": "remix-project-files/Raffle.sol:Raffle",
						"label": "maximum",
						"offset": 0,
						"slot": "11",
						"type": "t_uint256"
					},
					{
						"astId": 419,
						"contract": "remix-project-files/Raffle.sol:Raffle",
						"label": "raffleResult",
						"offset": 0,
						"slot": "12",
						"type": "t_array(t_uint256)dyn_storage"
					},
					{
						"astId": 423,
						"contract": "remix-project-files/Raffle.sol:Raffle",
						"label": "selected",
						"offset": 0,
						"slot": "13",
						"type": "t_mapping(t_uint256,t_bool)"
					}
				],
				"types": {
					"t_address": {
						"encoding": "inplace",
						"label": "address",
						"numberOfBytes": "20"
					},
					"t_array(t_uint256)dyn_storage": {
						"base": "t_uint256",
						"encoding": "dynamic_array",
						"label": "uint256[]",
						"numberOfBytes": "32"
					},
					"t_bool": {
						"encoding": "inplace",
						"label": "bool",
						"numberOfBytes": "1"
					},
					"t_bytes32": {
						"encoding": "inplace",
						"label": "bytes32",
						"numberOfBytes": "32"
					},
					"t_contract(VRFCoordinatorV2Interface)351": {
						"encoding": "inplace",
						"label": "contract VRFCoordinatorV2Interface",
						"numberOfBytes": "20"
					},
					"t_mapping(t_uint256,t_bool)": {
						"encoding": "mapping",
						"key": "t_uint256",
						"label": "mapping(uint256 => bool)",
						"numberOfBytes": "32",
						"value": "t_bool"
					},
					"t_mapping(t_uint256,t_struct(RequestStatus)381_storage)": {
						"encoding": "mapping",
						"key": "t_uint256",
						"label": "mapping(uint256 => struct Raffle.RequestStatus)",
						"numberOfBytes": "32",
						"value": "t_struct(RequestStatus)381_storage"
					},
					"t_struct(RequestStatus)381_storage": {
						"encoding": "inplace",
						"label": "struct Raffle.RequestStatus",
						"members": [
							{
								"astId": 375,
								"contract": "remix-project-files/Raffle.sol:Raffle",
								"label": "fulfilled",
								"offset": 0,
								"slot": "0",
								"type": "t_bool"
							},
							{
								"astId": 377,
								"contract": "remix-project-files/Raffle.sol:Raffle",
								"label": "exists",
								"offset": 1,
								"slot": "0",
								"type": "t_bool"
							},
							{
								"astId": 380,
								"contract": "remix-project-files/Raffle.sol:Raffle",
								"label": "randomWords",
								"offset": 0,
								"slot": "1",
								"type": "t_array(t_uint256)dyn_storage"
							}
						],
						"numberOfBytes": "64"
					},
					"t_uint16": {
						"encoding": "inplace",
						"label": "uint16",
						"numberOfBytes": "2"
					},
					"t_uint256": {
						"encoding": "inplace",
						"label": "uint256",
						"numberOfBytes": "32"
					},
					"t_uint32": {
						"encoding": "inplace",
						"label": "uint32",
						"numberOfBytes": "4"
					},
					"t_uint64": {
						"encoding": "inplace",
						"label": "uint64",
						"numberOfBytes": "8"
					}
				}
			},
			"userdoc": {
				"kind": "user",
				"methods": {
					"acceptOwnership()": {
						"notice": "Allows an ownership transfer to be completed by the recipient."
					},
					"owner()": {
						"notice": "Get the current owner"
					},
					"transferOwnership(address)": {
						"notice": "Allows an owner to begin transferring ownership to a new address, pending."
					}
				},
				"version": 1
			}
		}
	}
}