{
	"data": {
		"bytecode": {
			"linkReferences": {},
			"object": "608060405234801561000f575f80fd5b5060645f803373ffffffffffffffffffffffffffffffffffffffff1673ffffffffffffffffffffffffffffffffffffffff1681526020019081526020015f20819055506105848061005f5f395ff3fe608060405234801561000f575f80fd5b5060043610610034575f3560e01c8063a9059cbb14610038578063eedc966a14610054575b5f80fd5b610052600480360381019061004d9190610259565b610084565b005b61006e600480360381019061006991906102d2565b6101b4565b60405161007b919061030c565b60405180910390f35b7f82ba827476a89e18aa3043830a446f1326f6f8b5e62c30bda18343f8dafab87f3383836040516100b793929190610433565b60405180910390a15f803373ffffffffffffffffffffffffffffffffffffffff1673ffffffffffffffffffffffffffffffffffffffff1681526020019081526020015f205481111561010c5761010b61048e565b5b805f803373ffffffffffffffffffffffffffffffffffffffff1673ffffffffffffffffffffffffffffffffffffffff1681526020019081526020015f205f82825461015791906104e8565b92505081905550805f808473ffffffffffffffffffffffffffffffffffffffff1673ffffffffffffffffffffffffffffffffffffffff1681526020019081526020015f205f8282546101a9919061051b565b925050819055505050565b5f602052805f5260405f205f915090505481565b5f80fd5b5f73ffffffffffffffffffffffffffffffffffffffff82169050919050565b5f6101f5826101cc565b9050919050565b610205816101eb565b811461020f575f80fd5b50565b5f81359050610220816101fc565b92915050565b5f819050919050565b61023881610226565b8114610242575f80fd5b50565b5f813590506102538161022f565b92915050565b5f806040838503121561026f5761026e6101c8565b5b5f61027c85828601610212565b925050602061028d85828601610245565b9150509250929050565b5f6102a1826101cc565b9050919050565b6102b181610297565b81146102bb575f80fd5b50565b5f813590506102cc816102a8565b92915050565b5f602082840312156102e7576102e66101c8565b5b5f6102f4848285016102be565b91505092915050565b61030681610226565b82525050565b5f60208201905061031f5f8301846102fd565b92915050565b5f82825260208201905092915050565b7f65766e2d310000000000000000000000000000000000000000000000000000005f82015250565b5f610369600583610325565b915061037482610335565b602082019050919050565b61038881610297565b82525050565b5f819050919050565b5f6103b16103ac6103a7846101cc565b61038e565b6101cc565b9050919050565b5f6103c282610397565b9050919050565b5f6103d3826103b8565b9050919050565b6103e3816103c9565b82525050565b7f6d79206669727374206576656e740000000000000000000000000000000000005f82015250565b5f61041d600e83610325565b9150610428826103e9565b602082019050919050565b5f60a0820190508181035f83015261044a8161035d565b9050610459602083018661037f565b61046660408301856103da565b61047360608301846102fd565b818103608083015261048481610411565b9050949350505050565b7f4e487b71000000000000000000000000000000000000000000000000000000005f52600160045260245ffd5b7f4e487b71000000000000000000000000000000000000000000000000000000005f52601160045260245ffd5b5f6104f282610226565b91506104fd83610226565b9250828203905081811115610515576105146104bb565b5b92915050565b5f61052582610226565b915061053083610226565b9250828201905080821115610548576105476104bb565b5b9291505056fea264697066735822122032e7abe5ebd74bddb2ad2f65e6433adb4df5f6de263424fd364ca909c1b6be4564736f6c63430008140033",
			"opcodes": "PUSH1 0x80 PUSH1 0x40 MSTORE CALLVALUE DUP1 ISZERO PUSH2 0xF JUMPI PUSH0 DUP1 REVERT JUMPDEST POP PUSH1 0x64 PUSH0 DUP1 CALLER PUSH20 0xFFFFFFFFFFFFFFFFFFFFFFFFFFFFFFFFFFFFFFFF AND PUSH20 0xFFFFFFFFFFFFFFFFFFFFFFFFFFFFFFFFFFFFFFFF AND DUP2 MSTORE PUSH1 0x20 ADD SWAP1 DUP2 MSTORE PUSH1 0x20 ADD PUSH0 KECCAK256 DUP2 SWAP1 SSTORE POP PUSH2 0x584 DUP1 PUSH2 0x5F PUSH0 CODECOPY PUSH0 RETURN INVALID PUSH1 0x80 PUSH1 0x40 MSTORE CALLVALUE DUP1 ISZERO PUSH2 0xF JUMPI PUSH0 DUP1 REVERT JUMPDEST POP PUSH1 0x4 CALLDATASIZE LT PUSH2 0x34 JUMPI PUSH0 CALLDATALOAD PUSH1 0xE0 SHR DUP1 PUSH4 0xA9059CBB EQ PUSH2 0x38 JUMPI DUP1 PUSH4 0xEEDC966A EQ PUSH2 0x54 JUMPI JUMPDEST PUSH0 DUP1 REVERT JUMPDEST PUSH2 0x52 PUSH1 0x4 DUP1 CALLDATASIZE SUB DUP2 ADD SWAP1 PUSH2 0x4D SWAP2 SWAP1 PUSH2 0x259 JUMP JUMPDEST PUSH2 0x84 JUMP JUMPDEST STOP JUMPDEST PUSH2 0x6E PUSH1 0x4 DUP1 CALLDATASIZE SUB DUP2 ADD SWAP1 PUSH2 0x69 SWAP2 SWAP1 PUSH2 0x2D2 JUMP JUMPDEST PUSH2 0x1B4 JUMP JUMPDEST PUSH1 0x40 MLOAD PUSH2 0x7B SWAP2 SWAP1 PUSH2 0x30C JUMP JUMPDEST PUSH1 0x40 MLOAD DUP1 SWAP2 SUB SWAP1 RETURN JUMPDEST PUSH32 0x82BA827476A89E18AA3043830A446F1326F6F8B5E62C30BDA18343F8DAFAB87F CALLER DUP4 DUP4 PUSH1 0x40 MLOAD PUSH2 0xB7 SWAP4 SWAP3 SWAP2 SWAP1 PUSH2 0x433 JUMP JUMPDEST PUSH1 0x40 MLOAD DUP1 SWAP2 SUB SWAP1 LOG1 PUSH0 DUP1 CALLER PUSH20 0xFFFFFFFFFFFFFFFFFFFFFFFFFFFFFFFFFFFFFFFF AND PUSH20 0xFFFFFFFFFFFFFFFFFFFFFFFFFFFFFFFFFFFFFFFF AND DUP2 MSTORE PUSH1 0x20 ADD SWAP1 DUP2 MSTORE PUSH1 0x20 ADD PUSH0 KECCAK256 SLOAD DUP2 GT ISZERO PUSH2 0x10C JUMPI PUSH2 0x10B PUSH2 0x48E JUMP JUMPDEST JUMPDEST DUP1 PUSH0 DUP1 CALLER PUSH20 0xFFFFFFFFFFFFFFFFFFFFFFFFFFFFFFFFFFFFFFFF AND PUSH20 0xFFFFFFFFFFFFFFFFFFFFFFFFFFFFFFFFFFFFFFFF AND DUP2 MSTORE PUSH1 0x20 ADD SWAP1 DUP2 MSTORE PUSH1 0x20 ADD PUSH0 KECCAK256 PUSH0 DUP3 DUP3 SLOAD PUSH2 0x157 SWAP2 SWAP1 PUSH2 0x4E8 JUMP JUMPDEST SWAP3 POP POP DUP2 SWAP1 SSTORE POP DUP1 PUSH0 DUP1 DUP5 PUSH20 0xFFFFFFFFFFFFFFFFFFFFFFFFFFFFFFFFFFFFFFFF AND PUSH20 0xFFFFFFFFFFFFFFFFFFFFFFFFFFFFFFFFFFFFFFFF AND DUP2 MSTORE PUSH1 0x20 ADD SWAP1 DUP2 MSTORE PUSH1 0x20 ADD PUSH0 KECCAK256 PUSH0 DUP3 DUP3 SLOAD PUSH2 0x1A9 SWAP2 SWAP1 PUSH2 0x51B JUMP JUMPDEST SWAP3 POP POP DUP2 SWAP1 SSTORE POP POP POP JUMP JUMPDEST PUSH0 PUSH1 0x20 MSTORE DUP1 PUSH0 MSTORE PUSH1 0x40 PUSH0 KECCAK256 PUSH0 SWAP2 POP SWAP1 POP SLOAD DUP2 JUMP JUMPDEST PUSH0 DUP1 REVERT JUMPDEST PUSH0 PUSH20 0xFFFFFFFFFFFFFFFFFFFFFFFFFFFFFFFFFFFFFFFF DUP3 AND SWAP1 POP SWAP2 SWAP1 POP JUMP JUMPDEST PUSH0 PUSH2 0x1F5 DUP3 PUSH2 0x1CC JUMP JUMPDEST SWAP1 POP SWAP2 SWAP1 POP JUMP JUMPDEST PUSH2 0x205 DUP2 PUSH2 0x1EB JUMP JUMPDEST DUP2 EQ PUSH2 0x20F JUMPI PUSH0 DUP1 REVERT JUMPDEST POP JUMP JUMPDEST PUSH0 DUP2 CALLDATALOAD SWAP1 POP PUSH2 0x220 DUP2 PUSH2 0x1FC JUMP JUMPDEST SWAP3 SWAP2 POP POP JUMP JUMPDEST PUSH0 DUP2 SWAP1 POP SWAP2 SWAP1 POP JUMP JUMPDEST PUSH2 0x238 DUP2 PUSH2 0x226 JUMP JUMPDEST DUP2 EQ PUSH2 0x242 JUMPI PUSH0 DUP1 REVERT JUMPDEST POP JUMP JUMPDEST PUSH0 DUP2 CALLDATALOAD SWAP1 POP PUSH2 0x253 DUP2 PUSH2 0x22F JUMP JUMPDEST SWAP3 SWAP2 POP POP JUMP JUMPDEST PUSH0 DUP1 PUSH1 0x40 DUP4 DUP6 SUB SLT ISZERO PUSH2 0x26F JUMPI PUSH2 0x26E PUSH2 0x1C8 JUMP JUMPDEST JUMPDEST PUSH0 PUSH2 0x27C DUP6 DUP3 DUP7 ADD PUSH2 0x212 JUMP JUMPDEST SWAP3 POP POP PUSH1 0x20 PUSH2 0x28D DUP6 DUP3 DUP7 ADD PUSH2 0x245 JUMP JUMPDEST SWAP2 POP POP SWAP3 POP SWAP3 SWAP1 POP JUMP JUMPDEST PUSH0 PUSH2 0x2A1 DUP3 PUSH2 0x1CC JUMP JUMPDEST SWAP1 POP SWAP2 SWAP1 POP JUMP JUMPDEST PUSH2 0x2B1 DUP2 PUSH2 0x297 JUMP JUMPDEST DUP2 EQ PUSH2 0x2BB JUMPI PUSH0 DUP1 REVERT JUMPDEST POP JUMP JUMPDEST PUSH0 DUP2 CALLDATALOAD SWAP1 POP PUSH2 0x2CC DUP2 PUSH2 0x2A8 JUMP JUMPDEST SWAP3 SWAP2 POP POP JUMP JUMPDEST PUSH0 PUSH1 0x20 DUP3 DUP5 SUB SLT ISZERO PUSH2 0x2E7 JUMPI PUSH2 0x2E6 PUSH2 0x1C8 JUMP JUMPDEST JUMPDEST PUSH0 PUSH2 0x2F4 DUP5 DUP3 DUP6 ADD PUSH2 0x2BE JUMP JUMPDEST SWAP2 POP POP SWAP3 SWAP2 POP POP JUMP JUMPDEST PUSH2 0x306 DUP2 PUSH2 0x226 JUMP JUMPDEST DUP3 MSTORE POP POP JUMP JUMPDEST PUSH0 PUSH1 0x20 DUP3 ADD SWAP1 POP PUSH2 0x31F PUSH0 DUP4 ADD DUP5 PUSH2 0x2FD JUMP JUMPDEST SWAP3 SWAP2 POP POP JUMP JUMPDEST PUSH0 DUP3 DUP3 MSTORE PUSH1 0x20 DUP3 ADD SWAP1 POP SWAP3 SWAP2 POP POP JUMP JUMPDEST PUSH32 0x65766E2D31000000000000000000000000000000000000000000000000000000 PUSH0 DUP3 ADD MSTORE POP JUMP JUMPDEST PUSH0 PUSH2 0x369 PUSH1 0x5 DUP4 PUSH2 0x325 JUMP JUMPDEST SWAP2 POP PUSH2 0x374 DUP3 PUSH2 0x335 JUMP JUMPDEST PUSH1 0x20 DUP3 ADD SWAP1 POP SWAP2 SWAP1 POP JUMP JUMPDEST PUSH2 0x388 DUP2 PUSH2 0x297 JUMP JUMPDEST DUP3 MSTORE POP POP JUMP JUMPDEST PUSH0 DUP2 SWAP1 POP SWAP2 SWAP1 POP JUMP JUMPDEST PUSH0 PUSH2 0x3B1 PUSH2 0x3AC PUSH2 0x3A7 DUP5 PUSH2 0x1CC JUMP JUMPDEST PUSH2 0x38E JUMP JUMPDEST PUSH2 0x1CC JUMP JUMPDEST SWAP1 POP SWAP2 SWAP1 POP JUMP JUMPDEST PUSH0 PUSH2 0x3C2 DUP3 PUSH2 0x397 JUMP JUMPDEST SWAP1 POP SWAP2 SWAP1 POP JUMP JUMPDEST PUSH0 PUSH2 0x3D3 DUP3 PUSH2 0x3B8 JUMP JUMPDEST SWAP1 POP SWAP2 SWAP1 POP JUMP JUMPDEST PUSH2 0x3E3 DUP2 PUSH2 0x3C9 JUMP JUMPDEST DUP3 MSTORE POP POP JUMP JUMPDEST PUSH32 0x6D79206669727374206576656E74000000000000000000000000000000000000 PUSH0 DUP3 ADD MSTORE POP JUMP JUMPDEST PUSH0 PUSH2 0x41D PUSH1 0xE DUP4 PUSH2 0x325 JUMP JUMPDEST SWAP2 POP PUSH2 0x428 DUP3 PUSH2 0x3E9 JUMP JUMPDEST PUSH1 0x20 DUP3 ADD SWAP1 POP SWAP2 SWAP1 POP JUMP JUMPDEST PUSH0 PUSH1 0xA0 DUP3 ADD SWAP1 POP DUP2 DUP2 SUB PUSH0 DUP4 ADD MSTORE PUSH2 0x44A DUP2 PUSH2 0x35D JUMP JUMPDEST SWAP1 POP PUSH2 0x459 PUSH1 0x20 DUP4 ADD DUP7 PUSH2 0x37F JUMP JUMPDEST PUSH2 0x466 PUSH1 0x40 DUP4 ADD DUP6 PUSH2 0x3DA JUMP JUMPDEST PUSH2 0x473 PUSH1 0x60 DUP4 ADD DUP5 PUSH2 0x2FD JUMP JUMPDEST DUP2 DUP2 SUB PUSH1 0x80 DUP4 ADD MSTORE PUSH2 0x484 DUP2 PUSH2 0x411 JUMP JUMPDEST SWAP1 POP SWAP5 SWAP4 POP POP POP POP JUMP JUMPDEST PUSH32 0x4E487B7100000000000000000000000000000000000000000000000000000000 PUSH0 MSTORE PUSH1 0x1 PUSH1 0x4 MSTORE PUSH1 0x24 PUSH0 REVERT JUMPDEST PUSH32 0x4E487B7100000000000000000000000000000000000000000000000000000000 PUSH0 MSTORE PUSH1 0x11 PUSH1 0x4 MSTORE PUSH1 0x24 PUSH0 REVERT JUMPDEST PUSH0 PUSH2 0x4F2 DUP3 PUSH2 0x226 JUMP JUMPDEST SWAP2 POP PUSH2 0x4FD DUP4 PUSH2 0x226 JUMP JUMPDEST SWAP3 POP DUP3 DUP3 SUB SWAP1 POP DUP2 DUP2 GT ISZERO PUSH2 0x515 JUMPI PUSH2 0x514 PUSH2 0x4BB JUMP JUMPDEST JUMPDEST SWAP3 SWAP2 POP POP JUMP JUMPDEST PUSH0 PUSH2 0x525 DUP3 PUSH2 0x226 JUMP JUMPDEST SWAP2 POP PUSH2 0x530 DUP4 PUSH2 0x226 JUMP JUMPDEST SWAP3 POP DUP3 DUP3 ADD SWAP1 POP DUP1 DUP3 GT ISZERO PUSH2 0x548 JUMPI PUSH2 0x547 PUSH2 0x4BB JUMP JUMPDEST JUMPDEST SWAP3 SWAP2 POP POP JUMP INVALID LOG2 PUSH5 0x6970667358 0x22 SLT KECCAK256 ORIGIN 0xE7 0xAB 0xE5 0xEB 0xD7 0x4B 0xDD 0xB2 0xAD 0x2F PUSH6 0xE6433ADB4DF5 0xF6 0xDE 0x26 CALLVALUE 0x24 REVERT CALLDATASIZE 0x4C 0xA9 MULMOD 0xC1 0xB6 0xBE GASLIMIT PUSH5 0x736F6C6343 STOP ADDMOD EQ STOP CALLER "
		},
		"gasEstimates": {
			"creation": {
				"codeDepositCost": "282400",
				"executionCost": "22523",
				"totalCost": "304923"
			},
			"external": {
				"tokenBalance(address)": "2801",
				"transfer(address,uint256)": "infinite"
			}
		},
		"methodIdentifiers": {
			"tokenBalance(address)": "eedc966a",
			"transfer(address,uint256)": "a9059cbb"
		}
	},
	"abi": [
		{
			"inputs": [],
			"stateMutability": "nonpayable",
			"type": "constructor"
		},
		{
			"anonymous": false,
			"inputs": [
				{
					"indexed": false,
					"internalType": "string",
					"name": "eventId",
					"type": "string"
				},
				{
					"indexed": false,
					"internalType": "address",
					"name": "_from",
					"type": "address"
				},
				{
					"indexed": false,
					"internalType": "address",
					"name": "_to",
					"type": "address"
				},
				{
					"indexed": false,
					"internalType": "uint256",
					"name": "_amount",
					"type": "uint256"
				},
				{
					"indexed": false,
					"internalType": "string",
					"name": "str",
					"type": "string"
				}
			],
			"name": "TokenSent",
			"type": "event"
		},
		{
			"inputs": [
				{
					"internalType": "address",
					"name": "",
					"type": "address"
				}
			],
			"name": "tokenBalance",
			"outputs": [
				{
					"internalType": "uint256",
					"name": "",
					"type": "uint256"
				}
			],
			"stateMutability": "view",
			"type": "function"
		},
		{
			"inputs": [
				{
					"internalType": "address payable",
					"name": "_to",
					"type": "address"
				},
				{
					"internalType": "uint256",
					"name": "_amount",
					"type": "uint256"
				}
			],
			"name": "transfer",
			"outputs": [],
			"stateMutability": "nonpayable",
			"type": "function"
		}
	]
}