{
	"remix-project-files/contracts/myCodeFiles/MyContract.sol": {
		"MyContract": {
			"abi": [
				{
					"inputs": [
						{
							"internalType": "string",
							"name": "_mystring",
							"type": "string"
						}
					],
					"name": "compareTwoStrings",
					"outputs": [
						{
							"internalType": "bool",
							"name": "",
							"type": "bool"
						}
					],
					"stateMutability": "view",
					"type": "function"
				},
				{
					"inputs": [
						{
							"internalType": "uint256",
							"name": "_myint",
							"type": "uint256"
						}
					],
					"name": "decrementMyInt",
					"outputs": [],
					"stateMutability": "nonpayable",
					"type": "function"
				},
				{
					"inputs": [
						{
							"internalType": "uint256",
							"name": "_myint",
							"type": "uint256"
						}
					],
					"name": "incrementMyInt",
					"outputs": [],
					"stateMutability": "nonpayable",
					"type": "function"
				},
				{
					"inputs": [],
					"name": "myInt",
					"outputs": [
						{
							"internalType": "uint256",
							"name": "",
							"type": "uint256"
						}
					],
					"stateMutability": "view",
					"type": "function"
				},
				{
					"inputs": [],
					"name": "mystring",
					"outputs": [
						{
							"internalType": "string",
							"name": "",
							"type": "string"
						}
					],
					"stateMutability": "view",
					"type": "function"
				},
				{
					"inputs": [
						{
							"internalType": "string",
							"name": "_newString",
							"type": "string"
						}
					],
					"name": "updateString",
					"outputs": [],
					"stateMutability": "nonpayable",
					"type": "function"
				}
			],
			"devdoc": {
				"kind": "dev",
				"methods": {},
				"version": 1
			},
			"evm": {
				"assembly": "    /* \"remix-project-files/contracts/myCodeFiles/MyContract.sol\":59:620  contract MyContract {... */\n  mstore(0x40, 0x80)\n    /* \"remix-project-files/contracts/myCodeFiles/MyContract.sol\":86:125  string public mystring = \"Hello Girik!\" */\n  mload(0x40)\n  dup1\n  0x40\n  add\n  0x40\n  mstore\n  dup1\n  0x0c\n  dup2\n  mstore\n  0x20\n  add\n  0x48656c6c6f20476972696b210000000000000000000000000000000000000000\n  dup2\n  mstore\n  pop\n  0x00\n  swap1\n  dup2\n  tag_1\n  swap2\n  swap1\n  tag_2\n  jump\t// in\ntag_1:\n  pop\n    /* \"remix-project-files/contracts/myCodeFiles/MyContract.sol\":59:620  contract MyContract {... */\n  callvalue\n  dup1\n  iszero\n  tag_3\n  jumpi\n  0x00\n  dup1\n  revert\ntag_3:\n  pop\n  jump(tag_4)\n    /* \"#utility.yul\":7:106   */\ntag_5:\n    /* \"#utility.yul\":59:65   */\n  0x00\n    /* \"#utility.yul\":93:98   */\n  dup2\n    /* \"#utility.yul\":87:99   */\n  mload\n    /* \"#utility.yul\":77:99   */\n  swap1\n  pop\n    /* \"#utility.yul\":7:106   */\n  swap2\n  swap1\n  pop\n  jump\t// out\n    /* \"#utility.yul\":112:292   */\ntag_6:\n    /* \"#utility.yul\":160:237   */\n  0x4e487b7100000000000000000000000000000000000000000000000000000000\n    /* \"#utility.yul\":157:158   */\n  0x00\n    /* \"#utility.yul\":150:238   */\n  mstore\n    /* \"#utility.yul\":257:261   */\n  0x41\n    /* \"#utility.yul\":254:255   */\n  0x04\n    /* \"#utility.yul\":247:262   */\n  mstore\n    /* \"#utility.yul\":281:285   */\n  0x24\n    /* \"#utility.yul\":278:279   */\n  0x00\n    /* \"#utility.yul\":271:286   */\n  revert\n    /* \"#utility.yul\":298:478   */\ntag_7:\n    /* \"#utility.yul\":346:423   */\n  0x4e487b7100000000000000000000000000000000000000000000000000000000\n    /* \"#utility.yul\":343:344   */\n  0x00\n    /* \"#utility.yul\":336:424   */\n  mstore\n    /* \"#utility.yul\":443:447   */\n  0x22\n    /* \"#utility.yul\":440:441   */\n  0x04\n    /* \"#utility.yul\":433:448   */\n  mstore\n    /* \"#utility.yul\":467:471   */\n  0x24\n    /* \"#utility.yul\":464:465   */\n  0x00\n    /* \"#utility.yul\":457:472   */\n  revert\n    /* \"#utility.yul\":484:804   */\ntag_8:\n    /* \"#utility.yul\":528:534   */\n  0x00\n    /* \"#utility.yul\":565:566   */\n  0x02\n    /* \"#utility.yul\":559:563   */\n  dup3\n    /* \"#utility.yul\":555:567   */\n  div\n    /* \"#utility.yul\":545:567   */\n  swap1\n  pop\n    /* \"#utility.yul\":612:613   */\n  0x01\n    /* \"#utility.yul\":606:610   */\n  dup3\n    /* \"#utility.yul\":602:614   */\n  and\n    /* \"#utility.yul\":633:651   */\n  dup1\n    /* \"#utility.yul\":623:704   */\n  tag_30\n  jumpi\n    /* \"#utility.yul\":689:693   */\n  0x7f\n    /* \"#utility.yul\":681:687   */\n  dup3\n    /* \"#utility.yul\":677:694   */\n  and\n    /* \"#utility.yul\":667:694   */\n  swap2\n  pop\n    /* \"#utility.yul\":623:704   */\ntag_30:\n    /* \"#utility.yul\":751:753   */\n  0x20\n    /* \"#utility.yul\":743:749   */\n  dup3\n    /* \"#utility.yul\":740:754   */\n  lt\n    /* \"#utility.yul\":720:738   */\n  dup2\n    /* \"#utility.yul\":717:755   */\n  sub\n    /* \"#utility.yul\":714:798   */\n  tag_31\n  jumpi\n    /* \"#utility.yul\":770:788   */\n  tag_32\n  tag_7\n  jump\t// in\ntag_32:\n    /* \"#utility.yul\":714:798   */\ntag_31:\n    /* \"#utility.yul\":535:804   */\n  pop\n    /* \"#utility.yul\":484:804   */\n  swap2\n  swap1\n  pop\n  jump\t// out\n    /* \"#utility.yul\":810:951   */\ntag_9:\n    /* \"#utility.yul\":859:863   */\n  0x00\n    /* \"#utility.yul\":882:885   */\n  dup2\n    /* \"#utility.yul\":874:885   */\n  swap1\n  pop\n    /* \"#utility.yul\":905:908   */\n  dup2\n    /* \"#utility.yul\":902:903   */\n  0x00\n    /* \"#utility.yul\":895:909   */\n  mstore\n    /* \"#utility.yul\":939:943   */\n  0x20\n    /* \"#utility.yul\":936:937   */\n  0x00\n    /* \"#utility.yul\":926:944   */\n  keccak256\n    /* \"#utility.yul\":918:944   */\n  swap1\n  pop\n    /* \"#utility.yul\":810:951   */\n  swap2\n  swap1\n  pop\n  jump\t// out\n    /* \"#utility.yul\":957:1050   */\ntag_10:\n    /* \"#utility.yul\":994:1000   */\n  0x00\n    /* \"#utility.yul\":1041:1043   */\n  0x20\n    /* \"#utility.yul\":1036:1038   */\n  0x1f\n    /* \"#utility.yul\":1029:1034   */\n  dup4\n    /* \"#utility.yul\":1025:1039   */\n  add\n    /* \"#utility.yul\":1021:1044   */\n  div\n    /* \"#utility.yul\":1011:1044   */\n  swap1\n  pop\n    /* \"#utility.yul\":957:1050   */\n  swap2\n  swap1\n  pop\n  jump\t// out\n    /* \"#utility.yul\":1056:1163   */\ntag_11:\n    /* \"#utility.yul\":1100:1108   */\n  0x00\n    /* \"#utility.yul\":1150:1155   */\n  dup3\n    /* \"#utility.yul\":1144:1148   */\n  dup3\n    /* \"#utility.yul\":1140:1156   */\n  shl\n    /* \"#utility.yul\":1119:1156   */\n  swap1\n  pop\n    /* \"#utility.yul\":1056:1163   */\n  swap3\n  swap2\n  pop\n  pop\n  jump\t// out\n    /* \"#utility.yul\":1169:1562   */\ntag_12:\n    /* \"#utility.yul\":1238:1244   */\n  0x00\n    /* \"#utility.yul\":1288:1289   */\n  0x08\n    /* \"#utility.yul\":1276:1286   */\n  dup4\n    /* \"#utility.yul\":1272:1290   */\n  mul\n    /* \"#utility.yul\":1311:1408   */\n  tag_37\n    /* \"#utility.yul\":1341:1407   */\n  0xffffffffffffffffffffffffffffffffffffffffffffffffffffffffffffffff\n    /* \"#utility.yul\":1330:1339   */\n  dup3\n    /* \"#utility.yul\":1311:1408   */\n  tag_11\n  jump\t// in\ntag_37:\n    /* \"#utility.yul\":1429:1468   */\n  tag_38\n    /* \"#utility.yul\":1459:1467   */\n  dup7\n    /* \"#utility.yul\":1448:1457   */\n  dup4\n    /* \"#utility.yul\":1429:1468   */\n  tag_11\n  jump\t// in\ntag_38:\n    /* \"#utility.yul\":1417:1468   */\n  swap6\n  pop\n    /* \"#utility.yul\":1501:1505   */\n  dup1\n    /* \"#utility.yul\":1497:1506   */\n  not\n    /* \"#utility.yul\":1490:1495   */\n  dup5\n    /* \"#utility.yul\":1486:1507   */\n  and\n    /* \"#utility.yul\":1477:1507   */\n  swap4\n  pop\n    /* \"#utility.yul\":1550:1554   */\n  dup1\n    /* \"#utility.yul\":1540:1548   */\n  dup7\n    /* \"#utility.yul\":1536:1555   */\n  and\n    /* \"#utility.yul\":1529:1534   */\n  dup5\n    /* \"#utility.yul\":1526:1556   */\n  or\n    /* \"#utility.yul\":1516:1556   */\n  swap3\n  pop\n    /* \"#utility.yul\":1245:1562   */\n  pop\n  pop\n    /* \"#utility.yul\":1169:1562   */\n  swap4\n  swap3\n  pop\n  pop\n  pop\n  jump\t// out\n    /* \"#utility.yul\":1568:1645   */\ntag_13:\n    /* \"#utility.yul\":1605:1612   */\n  0x00\n    /* \"#utility.yul\":1634:1639   */\n  dup2\n    /* \"#utility.yul\":1623:1639   */\n  swap1\n  pop\n    /* \"#utility.yul\":1568:1645   */\n  swap2\n  swap1\n  pop\n  jump\t// out\n    /* \"#utility.yul\":1651:1711   */\ntag_14:\n    /* \"#utility.yul\":1679:1682   */\n  0x00\n    /* \"#utility.yul\":1700:1705   */\n  dup2\n    /* \"#utility.yul\":1693:1705   */\n  swap1\n  pop\n    /* \"#utility.yul\":1651:1711   */\n  swap2\n  swap1\n  pop\n  jump\t// out\n    /* \"#utility.yul\":1717:1859   */\ntag_15:\n    /* \"#utility.yul\":1767:1776   */\n  0x00\n    /* \"#utility.yul\":1800:1853   */\n  tag_42\n    /* \"#utility.yul\":1818:1852   */\n  tag_43\n    /* \"#utility.yul\":1827:1851   */\n  tag_44\n    /* \"#utility.yul\":1845:1850   */\n  dup5\n    /* \"#utility.yul\":1827:1851   */\n  tag_13\n  jump\t// in\ntag_44:\n    /* \"#utility.yul\":1818:1852   */\n  tag_14\n  jump\t// in\ntag_43:\n    /* \"#utility.yul\":1800:1853   */\n  tag_13\n  jump\t// in\ntag_42:\n    /* \"#utility.yul\":1787:1853   */\n  swap1\n  pop\n    /* \"#utility.yul\":1717:1859   */\n  swap2\n  swap1\n  pop\n  jump\t// out\n    /* \"#utility.yul\":1865:1940   */\ntag_16:\n    /* \"#utility.yul\":1908:1911   */\n  0x00\n    /* \"#utility.yul\":1929:1934   */\n  dup2\n    /* \"#utility.yul\":1922:1934   */\n  swap1\n  pop\n    /* \"#utility.yul\":1865:1940   */\n  swap2\n  swap1\n  pop\n  jump\t// out\n    /* \"#utility.yul\":1946:2215   */\ntag_17:\n    /* \"#utility.yul\":2056:2095   */\n  tag_47\n    /* \"#utility.yul\":2087:2094   */\n  dup4\n    /* \"#utility.yul\":2056:2095   */\n  tag_15\n  jump\t// in\ntag_47:\n    /* \"#utility.yul\":2117:2208   */\n  tag_48\n    /* \"#utility.yul\":2166:2207   */\n  tag_49\n    /* \"#utility.yul\":2190:2206   */\n  dup3\n    /* \"#utility.yul\":2166:2207   */\n  tag_16\n  jump\t// in\ntag_49:\n    /* \"#utility.yul\":2158:2164   */\n  dup5\n    /* \"#utility.yul\":2151:2155   */\n  dup5\n    /* \"#utility.yul\":2145:2156   */\n  sload\n    /* \"#utility.yul\":2117:2208   */\n  tag_12\n  jump\t// in\ntag_48:\n    /* \"#utility.yul\":2111:2115   */\n  dup3\n    /* \"#utility.yul\":2104:2209   */\n  sstore\n    /* \"#utility.yul\":2022:2215   */\n  pop\n    /* \"#utility.yul\":1946:2215   */\n  pop\n  pop\n  pop\n  jump\t// out\n    /* \"#utility.yul\":2221:2294   */\ntag_18:\n    /* \"#utility.yul\":2266:2269   */\n  0x00\n    /* \"#utility.yul\":2221:2294   */\n  swap1\n  jump\t// out\n    /* \"#utility.yul\":2300:2489   */\ntag_19:\n    /* \"#utility.yul\":2377:2409   */\n  tag_52\n  tag_18\n  jump\t// in\ntag_52:\n    /* \"#utility.yul\":2418:2483   */\n  tag_53\n    /* \"#utility.yul\":2476:2482   */\n  dup2\n    /* \"#utility.yul\":2468:2474   */\n  dup5\n    /* \"#utility.yul\":2462:2466   */\n  dup5\n    /* \"#utility.yul\":2418:2483   */\n  tag_17\n  jump\t// in\ntag_53:\n    /* \"#utility.yul\":2353:2489   */\n  pop\n    /* \"#utility.yul\":2300:2489   */\n  pop\n  pop\n  jump\t// out\n    /* \"#utility.yul\":2495:2681   */\ntag_20:\n    /* \"#utility.yul\":2555:2675   */\ntag_55:\n    /* \"#utility.yul\":2572:2575   */\n  dup2\n    /* \"#utility.yul\":2565:2570   */\n  dup2\n    /* \"#utility.yul\":2562:2576   */\n  lt\n    /* \"#utility.yul\":2555:2675   */\n  iszero\n  tag_57\n  jumpi\n    /* \"#utility.yul\":2626:2665   */\n  tag_58\n    /* \"#utility.yul\":2663:2664   */\n  0x00\n    /* \"#utility.yul\":2656:2661   */\n  dup3\n    /* \"#utility.yul\":2626:2665   */\n  tag_19\n  jump\t// in\ntag_58:\n    /* \"#utility.yul\":2599:2600   */\n  0x01\n    /* \"#utility.yul\":2592:2597   */\n  dup2\n    /* \"#utility.yul\":2588:2601   */\n  add\n    /* \"#utility.yul\":2579:2601   */\n  swap1\n  pop\n    /* \"#utility.yul\":2555:2675   */\n  jump(tag_55)\ntag_57:\n    /* \"#utility.yul\":2495:2681   */\n  pop\n  pop\n  jump\t// out\n    /* \"#utility.yul\":2687:3230   */\ntag_21:\n    /* \"#utility.yul\":2788:2790   */\n  0x1f\n    /* \"#utility.yul\":2783:2786   */\n  dup3\n    /* \"#utility.yul\":2780:2791   */\n  gt\n    /* \"#utility.yul\":2777:3223   */\n  iszero\n  tag_60\n  jumpi\n    /* \"#utility.yul\":2822:2860   */\n  tag_61\n    /* \"#utility.yul\":2854:2859   */\n  dup2\n    /* \"#utility.yul\":2822:2860   */\n  tag_9\n  jump\t// in\ntag_61:\n    /* \"#utility.yul\":2906:2935   */\n  tag_62\n    /* \"#utility.yul\":2924:2934   */\n  dup5\n    /* \"#utility.yul\":2906:2935   */\n  tag_10\n  jump\t// in\ntag_62:\n    /* \"#utility.yul\":2896:2904   */\n  dup2\n    /* \"#utility.yul\":2892:2936   */\n  add\n    /* \"#utility.yul\":3089:3091   */\n  0x20\n    /* \"#utility.yul\":3077:3087   */\n  dup6\n    /* \"#utility.yul\":3074:3092   */\n  lt\n    /* \"#utility.yul\":3071:3120   */\n  iszero\n  tag_63\n  jumpi\n    /* \"#utility.yul\":3110:3118   */\n  dup2\n    /* \"#utility.yul\":3095:3118   */\n  swap1\n  pop\n    /* \"#utility.yul\":3071:3120   */\ntag_63:\n    /* \"#utility.yul\":3133:3213   */\n  tag_64\n    /* \"#utility.yul\":3189:3211   */\n  tag_65\n    /* \"#utility.yul\":3207:3210   */\n  dup6\n    /* \"#utility.yul\":3189:3211   */\n  tag_10\n  jump\t// in\ntag_65:\n    /* \"#utility.yul\":3179:3187   */\n  dup4\n    /* \"#utility.yul\":3175:3212   */\n  add\n    /* \"#utility.yul\":3162:3173   */\n  dup3\n    /* \"#utility.yul\":3133:3213   */\n  tag_20\n  jump\t// in\ntag_64:\n    /* \"#utility.yul\":2792:3223   */\n  pop\n  pop\n    /* \"#utility.yul\":2777:3223   */\ntag_60:\n    /* \"#utility.yul\":2687:3230   */\n  pop\n  pop\n  pop\n  jump\t// out\n    /* \"#utility.yul\":3236:3353   */\ntag_22:\n    /* \"#utility.yul\":3290:3298   */\n  0x00\n    /* \"#utility.yul\":3340:3345   */\n  dup3\n    /* \"#utility.yul\":3334:3338   */\n  dup3\n    /* \"#utility.yul\":3330:3346   */\n  shr\n    /* \"#utility.yul\":3309:3346   */\n  swap1\n  pop\n    /* \"#utility.yul\":3236:3353   */\n  swap3\n  swap2\n  pop\n  pop\n  jump\t// out\n    /* \"#utility.yul\":3359:3528   */\ntag_23:\n    /* \"#utility.yul\":3403:3409   */\n  0x00\n    /* \"#utility.yul\":3436:3487   */\n  tag_68\n    /* \"#utility.yul\":3484:3485   */\n  0x00\n    /* \"#utility.yul\":3480:3486   */\n  not\n    /* \"#utility.yul\":3472:3477   */\n  dup5\n    /* \"#utility.yul\":3469:3470   */\n  0x08\n    /* \"#utility.yul\":3465:3478   */\n  mul\n    /* \"#utility.yul\":3436:3487   */\n  tag_22\n  jump\t// in\ntag_68:\n    /* \"#utility.yul\":3432:3488   */\n  not\n    /* \"#utility.yul\":3517:3521   */\n  dup1\n    /* \"#utility.yul\":3511:3515   */\n  dup4\n    /* \"#utility.yul\":3507:3522   */\n  and\n    /* \"#utility.yul\":3497:3522   */\n  swap2\n  pop\n    /* \"#utility.yul\":3410:3528   */\n  pop\n    /* \"#utility.yul\":3359:3528   */\n  swap3\n  swap2\n  pop\n  pop\n  jump\t// out\n    /* \"#utility.yul\":3533:3828   */\ntag_24:\n    /* \"#utility.yul\":3609:3613   */\n  0x00\n    /* \"#utility.yul\":3755:3784   */\n  tag_70\n    /* \"#utility.yul\":3780:3783   */\n  dup4\n    /* \"#utility.yul\":3774:3778   */\n  dup4\n    /* \"#utility.yul\":3755:3784   */\n  tag_23\n  jump\t// in\ntag_70:\n    /* \"#utility.yul\":3747:3784   */\n  swap2\n  pop\n    /* \"#utility.yul\":3817:3820   */\n  dup3\n    /* \"#utility.yul\":3814:3815   */\n  0x02\n    /* \"#utility.yul\":3810:3821   */\n  mul\n    /* \"#utility.yul\":3804:3808   */\n  dup3\n    /* \"#utility.yul\":3801:3822   */\n  or\n    /* \"#utility.yul\":3793:3822   */\n  swap1\n  pop\n    /* \"#utility.yul\":3533:3828   */\n  swap3\n  swap2\n  pop\n  pop\n  jump\t// out\n    /* \"#utility.yul\":3833:5228   */\ntag_2:\n    /* \"#utility.yul\":3950:3987   */\n  tag_72\n    /* \"#utility.yul\":3983:3986   */\n  dup3\n    /* \"#utility.yul\":3950:3987   */\n  tag_5\n  jump\t// in\ntag_72:\n    /* \"#utility.yul\":4052:4070   */\n  0xffffffffffffffff\n    /* \"#utility.yul\":4044:4050   */\n  dup2\n    /* \"#utility.yul\":4041:4071   */\n  gt\n    /* \"#utility.yul\":4038:4094   */\n  iszero\n  tag_73\n  jumpi\n    /* \"#utility.yul\":4074:4092   */\n  tag_74\n  tag_6\n  jump\t// in\ntag_74:\n    /* \"#utility.yul\":4038:4094   */\ntag_73:\n    /* \"#utility.yul\":4118:4156   */\n  tag_75\n    /* \"#utility.yul\":4150:4154   */\n  dup3\n    /* \"#utility.yul\":4144:4155   */\n  sload\n    /* \"#utility.yul\":4118:4156   */\n  tag_8\n  jump\t// in\ntag_75:\n    /* \"#utility.yul\":4203:4270   */\n  tag_76\n    /* \"#utility.yul\":4263:4269   */\n  dup3\n    /* \"#utility.yul\":4255:4261   */\n  dup3\n    /* \"#utility.yul\":4249:4253   */\n  dup6\n    /* \"#utility.yul\":4203:4270   */\n  tag_21\n  jump\t// in\ntag_76:\n    /* \"#utility.yul\":4297:4298   */\n  0x00\n    /* \"#utility.yul\":4321:4325   */\n  0x20\n    /* \"#utility.yul\":4308:4325   */\n  swap1\n  pop\n    /* \"#utility.yul\":4353:4355   */\n  0x1f\n    /* \"#utility.yul\":4345:4351   */\n  dup4\n    /* \"#utility.yul\":4342:4356   */\n  gt\n    /* \"#utility.yul\":4370:4371   */\n  0x01\n    /* \"#utility.yul\":4365:4983   */\n  dup2\n  eq\n  tag_78\n  jumpi\n    /* \"#utility.yul\":5027:5028   */\n  0x00\n    /* \"#utility.yul\":5044:5050   */\n  dup5\n    /* \"#utility.yul\":5041:5118   */\n  iszero\n  tag_79\n  jumpi\n    /* \"#utility.yul\":5093:5102   */\n  dup3\n    /* \"#utility.yul\":5088:5091   */\n  dup8\n    /* \"#utility.yul\":5084:5103   */\n  add\n    /* \"#utility.yul\":5078:5104   */\n  mload\n    /* \"#utility.yul\":5069:5104   */\n  swap1\n  pop\n    /* \"#utility.yul\":5041:5118   */\ntag_79:\n    /* \"#utility.yul\":5144:5211   */\n  tag_80\n    /* \"#utility.yul\":5204:5210   */\n  dup6\n    /* \"#utility.yul\":5197:5202   */\n  dup3\n    /* \"#utility.yul\":5144:5211   */\n  tag_24\n  jump\t// in\ntag_80:\n    /* \"#utility.yul\":5138:5142   */\n  dup7\n    /* \"#utility.yul\":5131:5212   */\n  sstore\n    /* \"#utility.yul\":5000:5222   */\n  pop\n    /* \"#utility.yul\":4335:5222   */\n  jump(tag_77)\n    /* \"#utility.yul\":4365:4983   */\ntag_78:\n    /* \"#utility.yul\":4417:4421   */\n  0x1f\n    /* \"#utility.yul\":4413:4422   */\n  not\n    /* \"#utility.yul\":4405:4411   */\n  dup5\n    /* \"#utility.yul\":4401:4423   */\n  and\n    /* \"#utility.yul\":4451:4488   */\n  tag_81\n    /* \"#utility.yul\":4483:4487   */\n  dup7\n    /* \"#utility.yul\":4451:4488   */\n  tag_9\n  jump\t// in\ntag_81:\n    /* \"#utility.yul\":4510:4511   */\n  0x00\n    /* \"#utility.yul\":4524:4732   */\ntag_82:\n    /* \"#utility.yul\":4538:4545   */\n  dup3\n    /* \"#utility.yul\":4535:4536   */\n  dup2\n    /* \"#utility.yul\":4532:4546   */\n  lt\n    /* \"#utility.yul\":4524:4732   */\n  iszero\n  tag_84\n  jumpi\n    /* \"#utility.yul\":4617:4626   */\n  dup5\n    /* \"#utility.yul\":4612:4615   */\n  dup10\n    /* \"#utility.yul\":4608:4627   */\n  add\n    /* \"#utility.yul\":4602:4628   */\n  mload\n    /* \"#utility.yul\":4594:4600   */\n  dup3\n    /* \"#utility.yul\":4587:4629   */\n  sstore\n    /* \"#utility.yul\":4668:4669   */\n  0x01\n    /* \"#utility.yul\":4660:4666   */\n  dup3\n    /* \"#utility.yul\":4656:4670   */\n  add\n    /* \"#utility.yul\":4646:4670   */\n  swap2\n  pop\n    /* \"#utility.yul\":4715:4717   */\n  0x20\n    /* \"#utility.yul\":4704:4713   */\n  dup6\n    /* \"#utility.yul\":4700:4718   */\n  add\n    /* \"#utility.yul\":4687:4718   */\n  swap5\n  pop\n    /* \"#utility.yul\":4561:4565   */\n  0x20\n    /* \"#utility.yul\":4558:4559   */\n  dup2\n    /* \"#utility.yul\":4554:4566   */\n  add\n    /* \"#utility.yul\":4549:4566   */\n  swap1\n  pop\n    /* \"#utility.yul\":4524:4732   */\n  jump(tag_82)\ntag_84:\n    /* \"#utility.yul\":4760:4766   */\n  dup7\n    /* \"#utility.yul\":4751:4758   */\n  dup4\n    /* \"#utility.yul\":4748:4767   */\n  lt\n    /* \"#utility.yul\":4745:4924   */\n  iszero\n  tag_85\n  jumpi\n    /* \"#utility.yul\":4818:4827   */\n  dup5\n    /* \"#utility.yul\":4813:4816   */\n  dup10\n    /* \"#utility.yul\":4809:4828   */\n  add\n    /* \"#utility.yul\":4803:4829   */\n  mload\n    /* \"#utility.yul\":4861:4909   */\n  tag_86\n    /* \"#utility.yul\":4903:4907   */\n  0x1f\n    /* \"#utility.yul\":4895:4901   */\n  dup10\n    /* \"#utility.yul\":4891:4908   */\n  and\n    /* \"#utility.yul\":4880:4889   */\n  dup3\n    /* \"#utility.yul\":4861:4909   */\n  tag_23\n  jump\t// in\ntag_86:\n    /* \"#utility.yul\":4853:4859   */\n  dup4\n    /* \"#utility.yul\":4846:4910   */\n  sstore\n    /* \"#utility.yul\":4768:4924   */\n  pop\n    /* \"#utility.yul\":4745:4924   */\ntag_85:\n    /* \"#utility.yul\":4970:4971   */\n  0x01\n    /* \"#utility.yul\":4966:4967   */\n  0x02\n    /* \"#utility.yul\":4958:4964   */\n  dup9\n    /* \"#utility.yul\":4954:4968   */\n  mul\n    /* \"#utility.yul\":4950:4972   */\n  add\n    /* \"#utility.yul\":4944:4948   */\n  dup9\n    /* \"#utility.yul\":4937:4973   */\n  sstore\n    /* \"#utility.yul\":4372:4983   */\n  pop\n  pop\n  pop\n    /* \"#utility.yul\":4335:5222   */\ntag_77:\n  pop\n    /* \"#utility.yul\":3925:5228   */\n  pop\n  pop\n  pop\n    /* \"#utility.yul\":3833:5228   */\n  pop\n  pop\n  jump\t// out\n    /* \"remix-project-files/contracts/myCodeFiles/MyContract.sol\":59:620  contract MyContract {... */\ntag_4:\n  dataSize(sub_0)\n  dup1\n  dataOffset(sub_0)\n  0x00\n  codecopy\n  0x00\n  return\nstop\n\nsub_0: assembly {\n        /* \"remix-project-files/contracts/myCodeFiles/MyContract.sol\":59:620  contract MyContract {... */\n      mstore(0x40, 0x80)\n      callvalue\n      dup1\n      iszero\n      tag_1\n      jumpi\n      0x00\n      dup1\n      revert\n    tag_1:\n      pop\n      jumpi(tag_2, lt(calldatasize, 0x04))\n      shr(0xe0, calldataload(0x00))\n      dup1\n      0x2cb777a6\n      eq\n      tag_3\n      jumpi\n      dup1\n      0x5949b1dc\n      eq\n      tag_4\n      jumpi\n      dup1\n      0x5ce25353\n      eq\n      tag_5\n      jumpi\n      dup1\n      0xc261fa36\n      eq\n      tag_6\n      jumpi\n      dup1\n      0xc3ccf402\n      eq\n      tag_7\n      jumpi\n      dup1\n      0xceddb7b1\n      eq\n      tag_8\n      jumpi\n    tag_2:\n      0x00\n      dup1\n      revert\n        /* \"remix-project-files/contracts/myCodeFiles/MyContract.sol\":132:149  uint public myInt */\n    tag_3:\n      tag_9\n      tag_10\n      jump\t// in\n    tag_9:\n      mload(0x40)\n      tag_11\n      swap2\n      swap1\n      tag_12\n      jump\t// in\n    tag_11:\n      mload(0x40)\n      dup1\n      swap2\n      sub\n      swap1\n      return\n        /* \"remix-project-files/contracts/myCodeFiles/MyContract.sol\":345:428  function decrementMyInt(uint _myint) public {... */\n    tag_4:\n      tag_13\n      0x04\n      dup1\n      calldatasize\n      sub\n      dup2\n      add\n      swap1\n      tag_14\n      swap2\n      swap1\n      tag_15\n      jump\t// in\n    tag_14:\n      tag_16\n      jump\t// in\n    tag_13:\n      stop\n        /* \"remix-project-files/contracts/myCodeFiles/MyContract.sol\":434:616  function compareTwoStrings(string memory _mystring) public view returns (bool) {... */\n    tag_5:\n      tag_17\n      0x04\n      dup1\n      calldatasize\n      sub\n      dup2\n      add\n      swap1\n      tag_18\n      swap2\n      swap1\n      tag_19\n      jump\t// in\n    tag_18:\n      tag_20\n      jump\t// in\n    tag_17:\n      mload(0x40)\n      tag_21\n      swap2\n      swap1\n      tag_22\n      jump\t// in\n    tag_21:\n      mload(0x40)\n      dup1\n      swap2\n      sub\n      swap1\n      return\n        /* \"remix-project-files/contracts/myCodeFiles/MyContract.sol\":86:125  string public mystring = \"Hello Girik!\" */\n    tag_6:\n      tag_23\n      tag_24\n      jump\t// in\n    tag_23:\n      mload(0x40)\n      tag_25\n      swap2\n      swap1\n      tag_26\n      jump\t// in\n    tag_25:\n      mload(0x40)\n      dup1\n      swap2\n      sub\n      swap1\n      return\n        /* \"remix-project-files/contracts/myCodeFiles/MyContract.sol\":156:250  function updateString (string memory _newString) public {... */\n    tag_7:\n      tag_27\n      0x04\n      dup1\n      calldatasize\n      sub\n      dup2\n      add\n      swap1\n      tag_28\n      swap2\n      swap1\n      tag_19\n      jump\t// in\n    tag_28:\n      tag_29\n      jump\t// in\n    tag_27:\n      stop\n        /* \"remix-project-files/contracts/myCodeFiles/MyContract.sol\":256:339  function incrementMyInt(uint _myint) public {... */\n    tag_8:\n      tag_30\n      0x04\n      dup1\n      calldatasize\n      sub\n      dup2\n      add\n      swap1\n      tag_31\n      swap2\n      swap1\n      tag_15\n      jump\t// in\n    tag_31:\n      tag_32\n      jump\t// in\n    tag_30:\n      stop\n        /* \"remix-project-files/contracts/myCodeFiles/MyContract.sol\":132:149  uint public myInt */\n    tag_10:\n      sload(0x01)\n      dup2\n      jump\t// out\n        /* \"remix-project-files/contracts/myCodeFiles/MyContract.sol\":345:428  function decrementMyInt(uint _myint) public {... */\n    tag_16:\n        /* \"remix-project-files/contracts/myCodeFiles/MyContract.sol\":415:421  _myint */\n      dup1\n        /* \"remix-project-files/contracts/myCodeFiles/MyContract.sol\":407:412  myInt */\n      sload(0x01)\n        /* \"remix-project-files/contracts/myCodeFiles/MyContract.sol\":407:421  myInt - _myint */\n      tag_34\n      swap2\n      swap1\n      tag_35\n      jump\t// in\n    tag_34:\n        /* \"remix-project-files/contracts/myCodeFiles/MyContract.sol\":399:404  myInt */\n      0x01\n        /* \"remix-project-files/contracts/myCodeFiles/MyContract.sol\":399:421  myInt = myInt - _myint */\n      dup2\n      swap1\n      sstore\n      pop\n        /* \"remix-project-files/contracts/myCodeFiles/MyContract.sol\":345:428  function decrementMyInt(uint _myint) public {... */\n      pop\n      jump\t// out\n        /* \"remix-project-files/contracts/myCodeFiles/MyContract.sol\":434:616  function compareTwoStrings(string memory _mystring) public view returns (bool) {... */\n    tag_20:\n        /* \"remix-project-files/contracts/myCodeFiles/MyContract.sol\":507:511  bool */\n      0x00\n        /* \"remix-project-files/contracts/myCodeFiles/MyContract.sol\":598:607  _mystring */\n      dup2\n        /* \"remix-project-files/contracts/myCodeFiles/MyContract.sol\":581:608  abi.encodePacked(_mystring) */\n      add(0x20, mload(0x40))\n      tag_37\n      swap2\n      swap1\n      tag_38\n      jump\t// in\n    tag_37:\n      mload(0x40)\n      0x20\n      dup2\n      dup4\n      sub\n      sub\n      dup2\n      mstore\n      swap1\n      0x40\n      mstore\n        /* \"remix-project-files/contracts/myCodeFiles/MyContract.sol\":571:609  keccak256(abi.encodePacked(_mystring)) */\n      dup1\n      mload\n      swap1\n      0x20\n      add\n      keccak256\n        /* \"remix-project-files/contracts/myCodeFiles/MyContract.sol\":557:565  mystring */\n      0x00\n        /* \"remix-project-files/contracts/myCodeFiles/MyContract.sol\":540:566  abi.encodePacked(mystring) */\n      add(0x20, mload(0x40))\n      tag_39\n      swap2\n      swap1\n      tag_40\n      jump\t// in\n    tag_39:\n      mload(0x40)\n      0x20\n      dup2\n      dup4\n      sub\n      sub\n      dup2\n      mstore\n      swap1\n      0x40\n      mstore\n        /* \"remix-project-files/contracts/myCodeFiles/MyContract.sol\":530:567  keccak256(abi.encodePacked(mystring)) */\n      dup1\n      mload\n      swap1\n      0x20\n      add\n      keccak256\n        /* \"remix-project-files/contracts/myCodeFiles/MyContract.sol\":530:609  keccak256(abi.encodePacked(mystring)) == keccak256(abi.encodePacked(_mystring)) */\n      eq\n        /* \"remix-project-files/contracts/myCodeFiles/MyContract.sol\":523:609  return keccak256(abi.encodePacked(mystring)) == keccak256(abi.encodePacked(_mystring)) */\n      swap1\n      pop\n        /* \"remix-project-files/contracts/myCodeFiles/MyContract.sol\":434:616  function compareTwoStrings(string memory _mystring) public view returns (bool) {... */\n      swap2\n      swap1\n      pop\n      jump\t// out\n        /* \"remix-project-files/contracts/myCodeFiles/MyContract.sol\":86:125  string public mystring = \"Hello Girik!\" */\n    tag_24:\n      0x00\n      dup1\n      sload\n      tag_41\n      swap1\n      tag_42\n      jump\t// in\n    tag_41:\n      dup1\n      0x1f\n      add\n      0x20\n      dup1\n      swap2\n      div\n      mul\n      0x20\n      add\n      mload(0x40)\n      swap1\n      dup2\n      add\n      0x40\n      mstore\n      dup1\n      swap3\n      swap2\n      swap1\n      dup2\n      dup2\n      mstore\n      0x20\n      add\n      dup3\n      dup1\n      sload\n      tag_43\n      swap1\n      tag_42\n      jump\t// in\n    tag_43:\n      dup1\n      iszero\n      tag_44\n      jumpi\n      dup1\n      0x1f\n      lt\n      tag_45\n      jumpi\n      0x0100\n      dup1\n      dup4\n      sload\n      div\n      mul\n      dup4\n      mstore\n      swap2\n      0x20\n      add\n      swap2\n      jump(tag_44)\n    tag_45:\n      dup3\n      add\n      swap2\n      swap1\n      0x00\n      mstore\n      keccak256(0x00, 0x20)\n      swap1\n    tag_46:\n      dup2\n      sload\n      dup2\n      mstore\n      swap1\n      0x01\n      add\n      swap1\n      0x20\n      add\n      dup1\n      dup4\n      gt\n      tag_46\n      jumpi\n      dup3\n      swap1\n      sub\n      0x1f\n      and\n      dup3\n      add\n      swap2\n    tag_44:\n      pop\n      pop\n      pop\n      pop\n      pop\n      dup2\n      jump\t// out\n        /* \"remix-project-files/contracts/myCodeFiles/MyContract.sol\":156:250  function updateString (string memory _newString) public {... */\n    tag_29:\n        /* \"remix-project-files/contracts/myCodeFiles/MyContract.sol\":233:243  _newString */\n      dup1\n        /* \"remix-project-files/contracts/myCodeFiles/MyContract.sol\":222:230  mystring */\n      0x00\n        /* \"remix-project-files/contracts/myCodeFiles/MyContract.sol\":222:243  mystring = _newString */\n      swap1\n      dup2\n      tag_48\n      swap2\n      swap1\n      tag_49\n      jump\t// in\n    tag_48:\n      pop\n        /* \"remix-project-files/contracts/myCodeFiles/MyContract.sol\":156:250  function updateString (string memory _newString) public {... */\n      pop\n      jump\t// out\n        /* \"remix-project-files/contracts/myCodeFiles/MyContract.sol\":256:339  function incrementMyInt(uint _myint) public {... */\n    tag_32:\n        /* \"remix-project-files/contracts/myCodeFiles/MyContract.sol\":326:332  _myint */\n      dup1\n        /* \"remix-project-files/contracts/myCodeFiles/MyContract.sol\":318:323  myInt */\n      sload(0x01)\n        /* \"remix-project-files/contracts/myCodeFiles/MyContract.sol\":318:332  myInt + _myint */\n      tag_51\n      swap2\n      swap1\n      tag_52\n      jump\t// in\n    tag_51:\n        /* \"remix-project-files/contracts/myCodeFiles/MyContract.sol\":310:315  myInt */\n      0x01\n        /* \"remix-project-files/contracts/myCodeFiles/MyContract.sol\":310:332  myInt = myInt + _myint */\n      dup2\n      swap1\n      sstore\n      pop\n        /* \"remix-project-files/contracts/myCodeFiles/MyContract.sol\":256:339  function incrementMyInt(uint _myint) public {... */\n      pop\n      jump\t// out\n        /* \"#utility.yul\":7:84   */\n    tag_53:\n        /* \"#utility.yul\":44:51   */\n      0x00\n        /* \"#utility.yul\":73:78   */\n      dup2\n        /* \"#utility.yul\":62:78   */\n      swap1\n      pop\n        /* \"#utility.yul\":7:84   */\n      swap2\n      swap1\n      pop\n      jump\t// out\n        /* \"#utility.yul\":90:208   */\n    tag_54:\n        /* \"#utility.yul\":177:201   */\n      tag_99\n        /* \"#utility.yul\":195:200   */\n      dup2\n        /* \"#utility.yul\":177:201   */\n      tag_53\n      jump\t// in\n    tag_99:\n        /* \"#utility.yul\":172:175   */\n      dup3\n        /* \"#utility.yul\":165:202   */\n      mstore\n        /* \"#utility.yul\":90:208   */\n      pop\n      pop\n      jump\t// out\n        /* \"#utility.yul\":214:436   */\n    tag_12:\n        /* \"#utility.yul\":307:311   */\n      0x00\n        /* \"#utility.yul\":345:347   */\n      0x20\n        /* \"#utility.yul\":334:343   */\n      dup3\n        /* \"#utility.yul\":330:348   */\n      add\n        /* \"#utility.yul\":322:348   */\n      swap1\n      pop\n        /* \"#utility.yul\":358:429   */\n      tag_101\n        /* \"#utility.yul\":426:427   */\n      0x00\n        /* \"#utility.yul\":415:424   */\n      dup4\n        /* \"#utility.yul\":411:428   */\n      add\n        /* \"#utility.yul\":402:408   */\n      dup5\n        /* \"#utility.yul\":358:429   */\n      tag_54\n      jump\t// in\n    tag_101:\n        /* \"#utility.yul\":214:436   */\n      swap3\n      swap2\n      pop\n      pop\n      jump\t// out\n        /* \"#utility.yul\":442:517   */\n    tag_55:\n        /* \"#utility.yul\":475:481   */\n      0x00\n        /* \"#utility.yul\":508:510   */\n      0x40\n        /* \"#utility.yul\":502:511   */\n      mload\n        /* \"#utility.yul\":492:511   */\n      swap1\n      pop\n        /* \"#utility.yul\":442:517   */\n      swap1\n      jump\t// out\n        /* \"#utility.yul\":523:640   */\n    tag_56:\n        /* \"#utility.yul\":632:633   */\n      0x00\n        /* \"#utility.yul\":629:630   */\n      dup1\n        /* \"#utility.yul\":622:634   */\n      revert\n        /* \"#utility.yul\":646:763   */\n    tag_57:\n        /* \"#utility.yul\":755:756   */\n      0x00\n        /* \"#utility.yul\":752:753   */\n      dup1\n        /* \"#utility.yul\":745:757   */\n      revert\n        /* \"#utility.yul\":769:891   */\n    tag_58:\n        /* \"#utility.yul\":842:866   */\n      tag_106\n        /* \"#utility.yul\":860:865   */\n      dup2\n        /* \"#utility.yul\":842:866   */\n      tag_53\n      jump\t// in\n    tag_106:\n        /* \"#utility.yul\":835:840   */\n      dup2\n        /* \"#utility.yul\":832:867   */\n      eq\n        /* \"#utility.yul\":822:885   */\n      tag_107\n      jumpi\n        /* \"#utility.yul\":881:882   */\n      0x00\n        /* \"#utility.yul\":878:879   */\n      dup1\n        /* \"#utility.yul\":871:883   */\n      revert\n        /* \"#utility.yul\":822:885   */\n    tag_107:\n        /* \"#utility.yul\":769:891   */\n      pop\n      jump\t// out\n        /* \"#utility.yul\":897:1036   */\n    tag_59:\n        /* \"#utility.yul\":943:948   */\n      0x00\n        /* \"#utility.yul\":981:987   */\n      dup2\n        /* \"#utility.yul\":968:988   */\n      calldataload\n        /* \"#utility.yul\":959:988   */\n      swap1\n      pop\n        /* \"#utility.yul\":997:1030   */\n      tag_109\n        /* \"#utility.yul\":1024:1029   */\n      dup2\n        /* \"#utility.yul\":997:1030   */\n      tag_58\n      jump\t// in\n    tag_109:\n        /* \"#utility.yul\":897:1036   */\n      swap3\n      swap2\n      pop\n      pop\n      jump\t// out\n        /* \"#utility.yul\":1042:1371   */\n    tag_15:\n        /* \"#utility.yul\":1101:1107   */\n      0x00\n        /* \"#utility.yul\":1150:1152   */\n      0x20\n        /* \"#utility.yul\":1138:1147   */\n      dup3\n        /* \"#utility.yul\":1129:1136   */\n      dup5\n        /* \"#utility.yul\":1125:1148   */\n      sub\n        /* \"#utility.yul\":1121:1153   */\n      slt\n        /* \"#utility.yul\":1118:1237   */\n      iszero\n      tag_111\n      jumpi\n        /* \"#utility.yul\":1156:1235   */\n      tag_112\n      tag_56\n      jump\t// in\n    tag_112:\n        /* \"#utility.yul\":1118:1237   */\n    tag_111:\n        /* \"#utility.yul\":1276:1277   */\n      0x00\n        /* \"#utility.yul\":1301:1354   */\n      tag_113\n        /* \"#utility.yul\":1346:1353   */\n      dup5\n        /* \"#utility.yul\":1337:1343   */\n      dup3\n        /* \"#utility.yul\":1326:1335   */\n      dup6\n        /* \"#utility.yul\":1322:1344   */\n      add\n        /* \"#utility.yul\":1301:1354   */\n      tag_59\n      jump\t// in\n    tag_113:\n        /* \"#utility.yul\":1291:1354   */\n      swap2\n      pop\n        /* \"#utility.yul\":1247:1364   */\n      pop\n        /* \"#utility.yul\":1042:1371   */\n      swap3\n      swap2\n      pop\n      pop\n      jump\t// out\n        /* \"#utility.yul\":1377:1494   */\n    tag_60:\n        /* \"#utility.yul\":1486:1487   */\n      0x00\n        /* \"#utility.yul\":1483:1484   */\n      dup1\n        /* \"#utility.yul\":1476:1488   */\n      revert\n        /* \"#utility.yul\":1500:1617   */\n    tag_61:\n        /* \"#utility.yul\":1609:1610   */\n      0x00\n        /* \"#utility.yul\":1606:1607   */\n      dup1\n        /* \"#utility.yul\":1599:1611   */\n      revert\n        /* \"#utility.yul\":1623:1725   */\n    tag_62:\n        /* \"#utility.yul\":1664:1670   */\n      0x00\n        /* \"#utility.yul\":1715:1717   */\n      0x1f\n        /* \"#utility.yul\":1711:1718   */\n      not\n        /* \"#utility.yul\":1706:1708   */\n      0x1f\n        /* \"#utility.yul\":1699:1704   */\n      dup4\n        /* \"#utility.yul\":1695:1709   */\n      add\n        /* \"#utility.yul\":1691:1719   */\n      and\n        /* \"#utility.yul\":1681:1719   */\n      swap1\n      pop\n        /* \"#utility.yul\":1623:1725   */\n      swap2\n      swap1\n      pop\n      jump\t// out\n        /* \"#utility.yul\":1731:1911   */\n    tag_63:\n        /* \"#utility.yul\":1779:1856   */\n      0x4e487b7100000000000000000000000000000000000000000000000000000000\n        /* \"#utility.yul\":1776:1777   */\n      0x00\n        /* \"#utility.yul\":1769:1857   */\n      mstore\n        /* \"#utility.yul\":1876:1880   */\n      0x41\n        /* \"#utility.yul\":1873:1874   */\n      0x04\n        /* \"#utility.yul\":1866:1881   */\n      mstore\n        /* \"#utility.yul\":1900:1904   */\n      0x24\n        /* \"#utility.yul\":1897:1898   */\n      0x00\n        /* \"#utility.yul\":1890:1905   */\n      revert\n        /* \"#utility.yul\":1917:2198   */\n    tag_64:\n        /* \"#utility.yul\":2000:2027   */\n      tag_119\n        /* \"#utility.yul\":2022:2026   */\n      dup3\n        /* \"#utility.yul\":2000:2027   */\n      tag_62\n      jump\t// in\n    tag_119:\n        /* \"#utility.yul\":1992:1998   */\n      dup2\n        /* \"#utility.yul\":1988:2028   */\n      add\n        /* \"#utility.yul\":2130:2136   */\n      dup2\n        /* \"#utility.yul\":2118:2128   */\n      dup2\n        /* \"#utility.yul\":2115:2137   */\n      lt\n        /* \"#utility.yul\":2094:2112   */\n      0xffffffffffffffff\n        /* \"#utility.yul\":2082:2092   */\n      dup3\n        /* \"#utility.yul\":2079:2113   */\n      gt\n        /* \"#utility.yul\":2076:2138   */\n      or\n        /* \"#utility.yul\":2073:2161   */\n      iszero\n      tag_120\n      jumpi\n        /* \"#utility.yul\":2141:2159   */\n      tag_121\n      tag_63\n      jump\t// in\n    tag_121:\n        /* \"#utility.yul\":2073:2161   */\n    tag_120:\n        /* \"#utility.yul\":2181:2191   */\n      dup1\n        /* \"#utility.yul\":2177:2179   */\n      0x40\n        /* \"#utility.yul\":2170:2192   */\n      mstore\n        /* \"#utility.yul\":1960:2198   */\n      pop\n        /* \"#utility.yul\":1917:2198   */\n      pop\n      pop\n      jump\t// out\n        /* \"#utility.yul\":2204:2333   */\n    tag_65:\n        /* \"#utility.yul\":2238:2244   */\n      0x00\n        /* \"#utility.yul\":2265:2285   */\n      tag_123\n      tag_55\n      jump\t// in\n    tag_123:\n        /* \"#utility.yul\":2255:2285   */\n      swap1\n      pop\n        /* \"#utility.yul\":2294:2327   */\n      tag_124\n        /* \"#utility.yul\":2322:2326   */\n      dup3\n        /* \"#utility.yul\":2314:2320   */\n      dup3\n        /* \"#utility.yul\":2294:2327   */\n      tag_64\n      jump\t// in\n    tag_124:\n        /* \"#utility.yul\":2204:2333   */\n      swap2\n      swap1\n      pop\n      jump\t// out\n        /* \"#utility.yul\":2339:2647   */\n    tag_66:\n        /* \"#utility.yul\":2401:2405   */\n      0x00\n        /* \"#utility.yul\":2491:2509   */\n      0xffffffffffffffff\n        /* \"#utility.yul\":2483:2489   */\n      dup3\n        /* \"#utility.yul\":2480:2510   */\n      gt\n        /* \"#utility.yul\":2477:2533   */\n      iszero\n      tag_126\n      jumpi\n        /* \"#utility.yul\":2513:2531   */\n      tag_127\n      tag_63\n      jump\t// in\n    tag_127:\n        /* \"#utility.yul\":2477:2533   */\n    tag_126:\n        /* \"#utility.yul\":2551:2580   */\n      tag_128\n        /* \"#utility.yul\":2573:2579   */\n      dup3\n        /* \"#utility.yul\":2551:2580   */\n      tag_62\n      jump\t// in\n    tag_128:\n        /* \"#utility.yul\":2543:2580   */\n      swap1\n      pop\n        /* \"#utility.yul\":2635:2639   */\n      0x20\n        /* \"#utility.yul\":2629:2633   */\n      dup2\n        /* \"#utility.yul\":2625:2640   */\n      add\n        /* \"#utility.yul\":2617:2640   */\n      swap1\n      pop\n        /* \"#utility.yul\":2339:2647   */\n      swap2\n      swap1\n      pop\n      jump\t// out\n        /* \"#utility.yul\":2653:2799   */\n    tag_67:\n        /* \"#utility.yul\":2750:2756   */\n      dup3\n        /* \"#utility.yul\":2745:2748   */\n      dup2\n        /* \"#utility.yul\":2740:2743   */\n      dup4\n        /* \"#utility.yul\":2727:2757   */\n      calldatacopy\n        /* \"#utility.yul\":2791:2792   */\n      0x00\n        /* \"#utility.yul\":2782:2788   */\n      dup4\n        /* \"#utility.yul\":2777:2780   */\n      dup4\n        /* \"#utility.yul\":2773:2789   */\n      add\n        /* \"#utility.yul\":2766:2793   */\n      mstore\n        /* \"#utility.yul\":2653:2799   */\n      pop\n      pop\n      pop\n      jump\t// out\n        /* \"#utility.yul\":2805:3230   */\n    tag_68:\n        /* \"#utility.yul\":2883:2888   */\n      0x00\n        /* \"#utility.yul\":2908:2974   */\n      tag_131\n        /* \"#utility.yul\":2924:2973   */\n      tag_132\n        /* \"#utility.yul\":2966:2972   */\n      dup5\n        /* \"#utility.yul\":2924:2973   */\n      tag_66\n      jump\t// in\n    tag_132:\n        /* \"#utility.yul\":2908:2974   */\n      tag_65\n      jump\t// in\n    tag_131:\n        /* \"#utility.yul\":2899:2974   */\n      swap1\n      pop\n        /* \"#utility.yul\":2997:3003   */\n      dup3\n        /* \"#utility.yul\":2990:2995   */\n      dup2\n        /* \"#utility.yul\":2983:3004   */\n      mstore\n        /* \"#utility.yul\":3035:3039   */\n      0x20\n        /* \"#utility.yul\":3028:3033   */\n      dup2\n        /* \"#utility.yul\":3024:3040   */\n      add\n        /* \"#utility.yul\":3073:3076   */\n      dup5\n        /* \"#utility.yul\":3064:3070   */\n      dup5\n        /* \"#utility.yul\":3059:3062   */\n      dup5\n        /* \"#utility.yul\":3055:3071   */\n      add\n        /* \"#utility.yul\":3052:3077   */\n      gt\n        /* \"#utility.yul\":3049:3161   */\n      iszero\n      tag_133\n      jumpi\n        /* \"#utility.yul\":3080:3159   */\n      tag_134\n      tag_61\n      jump\t// in\n    tag_134:\n        /* \"#utility.yul\":3049:3161   */\n    tag_133:\n        /* \"#utility.yul\":3170:3224   */\n      tag_135\n        /* \"#utility.yul\":3217:3223   */\n      dup5\n        /* \"#utility.yul\":3212:3215   */\n      dup3\n        /* \"#utility.yul\":3207:3210   */\n      dup6\n        /* \"#utility.yul\":3170:3224   */\n      tag_67\n      jump\t// in\n    tag_135:\n        /* \"#utility.yul\":2889:3230   */\n      pop\n        /* \"#utility.yul\":2805:3230   */\n      swap4\n      swap3\n      pop\n      pop\n      pop\n      jump\t// out\n        /* \"#utility.yul\":3250:3590   */\n    tag_69:\n        /* \"#utility.yul\":3306:3311   */\n      0x00\n        /* \"#utility.yul\":3355:3358   */\n      dup3\n        /* \"#utility.yul\":3348:3352   */\n      0x1f\n        /* \"#utility.yul\":3340:3346   */\n      dup4\n        /* \"#utility.yul\":3336:3353   */\n      add\n        /* \"#utility.yul\":3332:3359   */\n      slt\n        /* \"#utility.yul\":3322:3444   */\n      tag_137\n      jumpi\n        /* \"#utility.yul\":3363:3442   */\n      tag_138\n      tag_60\n      jump\t// in\n    tag_138:\n        /* \"#utility.yul\":3322:3444   */\n    tag_137:\n        /* \"#utility.yul\":3480:3486   */\n      dup2\n        /* \"#utility.yul\":3467:3487   */\n      calldataload\n        /* \"#utility.yul\":3505:3584   */\n      tag_139\n        /* \"#utility.yul\":3580:3583   */\n      dup5\n        /* \"#utility.yul\":3572:3578   */\n      dup3\n        /* \"#utility.yul\":3565:3569   */\n      0x20\n        /* \"#utility.yul\":3557:3563   */\n      dup7\n        /* \"#utility.yul\":3553:3570   */\n      add\n        /* \"#utility.yul\":3505:3584   */\n      tag_68\n      jump\t// in\n    tag_139:\n        /* \"#utility.yul\":3496:3584   */\n      swap2\n      pop\n        /* \"#utility.yul\":3312:3590   */\n      pop\n        /* \"#utility.yul\":3250:3590   */\n      swap3\n      swap2\n      pop\n      pop\n      jump\t// out\n        /* \"#utility.yul\":3596:4105   */\n    tag_19:\n        /* \"#utility.yul\":3665:3671   */\n      0x00\n        /* \"#utility.yul\":3714:3716   */\n      0x20\n        /* \"#utility.yul\":3702:3711   */\n      dup3\n        /* \"#utility.yul\":3693:3700   */\n      dup5\n        /* \"#utility.yul\":3689:3712   */\n      sub\n        /* \"#utility.yul\":3685:3717   */\n      slt\n        /* \"#utility.yul\":3682:3801   */\n      iszero\n      tag_141\n      jumpi\n        /* \"#utility.yul\":3720:3799   */\n      tag_142\n      tag_56\n      jump\t// in\n    tag_142:\n        /* \"#utility.yul\":3682:3801   */\n    tag_141:\n        /* \"#utility.yul\":3868:3869   */\n      0x00\n        /* \"#utility.yul\":3857:3866   */\n      dup3\n        /* \"#utility.yul\":3853:3870   */\n      add\n        /* \"#utility.yul\":3840:3871   */\n      calldataload\n        /* \"#utility.yul\":3898:3916   */\n      0xffffffffffffffff\n        /* \"#utility.yul\":3890:3896   */\n      dup2\n        /* \"#utility.yul\":3887:3917   */\n      gt\n        /* \"#utility.yul\":3884:4001   */\n      iszero\n      tag_143\n      jumpi\n        /* \"#utility.yul\":3920:3999   */\n      tag_144\n      tag_57\n      jump\t// in\n    tag_144:\n        /* \"#utility.yul\":3884:4001   */\n    tag_143:\n        /* \"#utility.yul\":4025:4088   */\n      tag_145\n        /* \"#utility.yul\":4080:4087   */\n      dup5\n        /* \"#utility.yul\":4071:4077   */\n      dup3\n        /* \"#utility.yul\":4060:4069   */\n      dup6\n        /* \"#utility.yul\":4056:4078   */\n      add\n        /* \"#utility.yul\":4025:4088   */\n      tag_69\n      jump\t// in\n    tag_145:\n        /* \"#utility.yul\":4015:4088   */\n      swap2\n      pop\n        /* \"#utility.yul\":3811:4098   */\n      pop\n        /* \"#utility.yul\":3596:4105   */\n      swap3\n      swap2\n      pop\n      pop\n      jump\t// out\n        /* \"#utility.yul\":4111:4201   */\n    tag_70:\n        /* \"#utility.yul\":4145:4152   */\n      0x00\n        /* \"#utility.yul\":4188:4193   */\n      dup2\n        /* \"#utility.yul\":4181:4194   */\n      iszero\n        /* \"#utility.yul\":4174:4195   */\n      iszero\n        /* \"#utility.yul\":4163:4195   */\n      swap1\n      pop\n        /* \"#utility.yul\":4111:4201   */\n      swap2\n      swap1\n      pop\n      jump\t// out\n        /* \"#utility.yul\":4207:4316   */\n    tag_71:\n        /* \"#utility.yul\":4288:4309   */\n      tag_148\n        /* \"#utility.yul\":4303:4308   */\n      dup2\n        /* \"#utility.yul\":4288:4309   */\n      tag_70\n      jump\t// in\n    tag_148:\n        /* \"#utility.yul\":4283:4286   */\n      dup3\n        /* \"#utility.yul\":4276:4310   */\n      mstore\n        /* \"#utility.yul\":4207:4316   */\n      pop\n      pop\n      jump\t// out\n        /* \"#utility.yul\":4322:4532   */\n    tag_22:\n        /* \"#utility.yul\":4409:4413   */\n      0x00\n        /* \"#utility.yul\":4447:4449   */\n      0x20\n        /* \"#utility.yul\":4436:4445   */\n      dup3\n        /* \"#utility.yul\":4432:4450   */\n      add\n        /* \"#utility.yul\":4424:4450   */\n      swap1\n      pop\n        /* \"#utility.yul\":4460:4525   */\n      tag_150\n        /* \"#utility.yul\":4522:4523   */\n      0x00\n        /* \"#utility.yul\":4511:4520   */\n      dup4\n        /* \"#utility.yul\":4507:4524   */\n      add\n        /* \"#utility.yul\":4498:4504   */\n      dup5\n        /* \"#utility.yul\":4460:4525   */\n      tag_71\n      jump\t// in\n    tag_150:\n        /* \"#utility.yul\":4322:4532   */\n      swap3\n      swap2\n      pop\n      pop\n      jump\t// out\n        /* \"#utility.yul\":4538:4637   */\n    tag_72:\n        /* \"#utility.yul\":4590:4596   */\n      0x00\n        /* \"#utility.yul\":4624:4629   */\n      dup2\n        /* \"#utility.yul\":4618:4630   */\n      mload\n        /* \"#utility.yul\":4608:4630   */\n      swap1\n      pop\n        /* \"#utility.yul\":4538:4637   */\n      swap2\n      swap1\n      pop\n      jump\t// out\n        /* \"#utility.yul\":4643:4812   */\n    tag_73:\n        /* \"#utility.yul\":4727:4738   */\n      0x00\n        /* \"#utility.yul\":4761:4767   */\n      dup3\n        /* \"#utility.yul\":4756:4759   */\n      dup3\n        /* \"#utility.yul\":4749:4768   */\n      mstore\n        /* \"#utility.yul\":4801:4805   */\n      0x20\n        /* \"#utility.yul\":4796:4799   */\n      dup3\n        /* \"#utility.yul\":4792:4806   */\n      add\n        /* \"#utility.yul\":4777:4806   */\n      swap1\n      pop\n        /* \"#utility.yul\":4643:4812   */\n      swap3\n      swap2\n      pop\n      pop\n      jump\t// out\n        /* \"#utility.yul\":4818:5064   */\n    tag_74:\n        /* \"#utility.yul\":4899:4900   */\n      0x00\n        /* \"#utility.yul\":4909:5022   */\n    tag_154:\n        /* \"#utility.yul\":4923:4929   */\n      dup4\n        /* \"#utility.yul\":4920:4921   */\n      dup2\n        /* \"#utility.yul\":4917:4930   */\n      lt\n        /* \"#utility.yul\":4909:5022   */\n      iszero\n      tag_156\n      jumpi\n        /* \"#utility.yul\":5008:5009   */\n      dup1\n        /* \"#utility.yul\":5003:5006   */\n      dup3\n        /* \"#utility.yul\":4999:5010   */\n      add\n        /* \"#utility.yul\":4993:5011   */\n      mload\n        /* \"#utility.yul\":4989:4990   */\n      dup2\n        /* \"#utility.yul\":4984:4987   */\n      dup5\n        /* \"#utility.yul\":4980:4991   */\n      add\n        /* \"#utility.yul\":4973:5012   */\n      mstore\n        /* \"#utility.yul\":4945:4947   */\n      0x20\n        /* \"#utility.yul\":4942:4943   */\n      dup2\n        /* \"#utility.yul\":4938:4948   */\n      add\n        /* \"#utility.yul\":4933:4948   */\n      swap1\n      pop\n        /* \"#utility.yul\":4909:5022   */\n      jump(tag_154)\n    tag_156:\n        /* \"#utility.yul\":5056:5057   */\n      0x00\n        /* \"#utility.yul\":5047:5053   */\n      dup5\n        /* \"#utility.yul\":5042:5045   */\n      dup5\n        /* \"#utility.yul\":5038:5054   */\n      add\n        /* \"#utility.yul\":5031:5058   */\n      mstore\n        /* \"#utility.yul\":4880:5064   */\n      pop\n        /* \"#utility.yul\":4818:5064   */\n      pop\n      pop\n      pop\n      jump\t// out\n        /* \"#utility.yul\":5070:5447   */\n    tag_75:\n        /* \"#utility.yul\":5158:5161   */\n      0x00\n        /* \"#utility.yul\":5186:5225   */\n      tag_158\n        /* \"#utility.yul\":5219:5224   */\n      dup3\n        /* \"#utility.yul\":5186:5225   */\n      tag_72\n      jump\t// in\n    tag_158:\n        /* \"#utility.yul\":5241:5312   */\n      tag_159\n        /* \"#utility.yul\":5305:5311   */\n      dup2\n        /* \"#utility.yul\":5300:5303   */\n      dup6\n        /* \"#utility.yul\":5241:5312   */\n      tag_73\n      jump\t// in\n    tag_159:\n        /* \"#utility.yul\":5234:5312   */\n      swap4\n      pop\n        /* \"#utility.yul\":5321:5386   */\n      tag_160\n        /* \"#utility.yul\":5379:5385   */\n      dup2\n        /* \"#utility.yul\":5374:5377   */\n      dup6\n        /* \"#utility.yul\":5367:5371   */\n      0x20\n        /* \"#utility.yul\":5360:5365   */\n      dup7\n        /* \"#utility.yul\":5356:5372   */\n      add\n        /* \"#utility.yul\":5321:5386   */\n      tag_74\n      jump\t// in\n    tag_160:\n        /* \"#utility.yul\":5411:5440   */\n      tag_161\n        /* \"#utility.yul\":5433:5439   */\n      dup2\n        /* \"#utility.yul\":5411:5440   */\n      tag_62\n      jump\t// in\n    tag_161:\n        /* \"#utility.yul\":5406:5409   */\n      dup5\n        /* \"#utility.yul\":5402:5441   */\n      add\n        /* \"#utility.yul\":5395:5441   */\n      swap2\n      pop\n        /* \"#utility.yul\":5162:5447   */\n      pop\n        /* \"#utility.yul\":5070:5447   */\n      swap3\n      swap2\n      pop\n      pop\n      jump\t// out\n        /* \"#utility.yul\":5453:5766   */\n    tag_26:\n        /* \"#utility.yul\":5566:5570   */\n      0x00\n        /* \"#utility.yul\":5604:5606   */\n      0x20\n        /* \"#utility.yul\":5593:5602   */\n      dup3\n        /* \"#utility.yul\":5589:5607   */\n      add\n        /* \"#utility.yul\":5581:5607   */\n      swap1\n      pop\n        /* \"#utility.yul\":5653:5662   */\n      dup2\n        /* \"#utility.yul\":5647:5651   */\n      dup2\n        /* \"#utility.yul\":5643:5663   */\n      sub\n        /* \"#utility.yul\":5639:5640   */\n      0x00\n        /* \"#utility.yul\":5628:5637   */\n      dup4\n        /* \"#utility.yul\":5624:5641   */\n      add\n        /* \"#utility.yul\":5617:5664   */\n      mstore\n        /* \"#utility.yul\":5681:5759   */\n      tag_163\n        /* \"#utility.yul\":5754:5758   */\n      dup2\n        /* \"#utility.yul\":5745:5751   */\n      dup5\n        /* \"#utility.yul\":5681:5759   */\n      tag_75\n      jump\t// in\n    tag_163:\n        /* \"#utility.yul\":5673:5759   */\n      swap1\n      pop\n        /* \"#utility.yul\":5453:5766   */\n      swap3\n      swap2\n      pop\n      pop\n      jump\t// out\n        /* \"#utility.yul\":5772:5952   */\n    tag_76:\n        /* \"#utility.yul\":5820:5897   */\n      0x4e487b7100000000000000000000000000000000000000000000000000000000\n        /* \"#utility.yul\":5817:5818   */\n      0x00\n        /* \"#utility.yul\":5810:5898   */\n      mstore\n        /* \"#utility.yul\":5917:5921   */\n      0x11\n        /* \"#utility.yul\":5914:5915   */\n      0x04\n        /* \"#utility.yul\":5907:5922   */\n      mstore\n        /* \"#utility.yul\":5941:5945   */\n      0x24\n        /* \"#utility.yul\":5938:5939   */\n      0x00\n        /* \"#utility.yul\":5931:5946   */\n      revert\n        /* \"#utility.yul\":5958:6152   */\n    tag_35:\n        /* \"#utility.yul\":5998:6002   */\n      0x00\n        /* \"#utility.yul\":6018:6038   */\n      tag_166\n        /* \"#utility.yul\":6036:6037   */\n      dup3\n        /* \"#utility.yul\":6018:6038   */\n      tag_53\n      jump\t// in\n    tag_166:\n        /* \"#utility.yul\":6013:6038   */\n      swap2\n      pop\n        /* \"#utility.yul\":6052:6072   */\n      tag_167\n        /* \"#utility.yul\":6070:6071   */\n      dup4\n        /* \"#utility.yul\":6052:6072   */\n      tag_53\n      jump\t// in\n    tag_167:\n        /* \"#utility.yul\":6047:6072   */\n      swap3\n      pop\n        /* \"#utility.yul\":6096:6097   */\n      dup3\n        /* \"#utility.yul\":6093:6094   */\n      dup3\n        /* \"#utility.yul\":6089:6098   */\n      sub\n        /* \"#utility.yul\":6081:6098   */\n      swap1\n      pop\n        /* \"#utility.yul\":6120:6121   */\n      dup2\n        /* \"#utility.yul\":6114:6118   */\n      dup2\n        /* \"#utility.yul\":6111:6122   */\n      gt\n        /* \"#utility.yul\":6108:6145   */\n      iszero\n      tag_168\n      jumpi\n        /* \"#utility.yul\":6125:6143   */\n      tag_169\n      tag_76\n      jump\t// in\n    tag_169:\n        /* \"#utility.yul\":6108:6145   */\n    tag_168:\n        /* \"#utility.yul\":5958:6152   */\n      swap3\n      swap2\n      pop\n      pop\n      jump\t// out\n        /* \"#utility.yul\":6158:6306   */\n    tag_77:\n        /* \"#utility.yul\":6260:6271   */\n      0x00\n        /* \"#utility.yul\":6297:6300   */\n      dup2\n        /* \"#utility.yul\":6282:6300   */\n      swap1\n      pop\n        /* \"#utility.yul\":6158:6306   */\n      swap3\n      swap2\n      pop\n      pop\n      jump\t// out\n        /* \"#utility.yul\":6312:6702   */\n    tag_78:\n        /* \"#utility.yul\":6418:6421   */\n      0x00\n        /* \"#utility.yul\":6446:6485   */\n      tag_172\n        /* \"#utility.yul\":6479:6484   */\n      dup3\n        /* \"#utility.yul\":6446:6485   */\n      tag_72\n      jump\t// in\n    tag_172:\n        /* \"#utility.yul\":6501:6590   */\n      tag_173\n        /* \"#utility.yul\":6583:6589   */\n      dup2\n        /* \"#utility.yul\":6578:6581   */\n      dup6\n        /* \"#utility.yul\":6501:6590   */\n      tag_77\n      jump\t// in\n    tag_173:\n        /* \"#utility.yul\":6494:6590   */\n      swap4\n      pop\n        /* \"#utility.yul\":6599:6664   */\n      tag_174\n        /* \"#utility.yul\":6657:6663   */\n      dup2\n        /* \"#utility.yul\":6652:6655   */\n      dup6\n        /* \"#utility.yul\":6645:6649   */\n      0x20\n        /* \"#utility.yul\":6638:6643   */\n      dup7\n        /* \"#utility.yul\":6634:6650   */\n      add\n        /* \"#utility.yul\":6599:6664   */\n      tag_74\n      jump\t// in\n    tag_174:\n        /* \"#utility.yul\":6689:6695   */\n      dup1\n        /* \"#utility.yul\":6684:6687   */\n      dup5\n        /* \"#utility.yul\":6680:6696   */\n      add\n        /* \"#utility.yul\":6673:6696   */\n      swap2\n      pop\n        /* \"#utility.yul\":6422:6702   */\n      pop\n        /* \"#utility.yul\":6312:6702   */\n      swap3\n      swap2\n      pop\n      pop\n      jump\t// out\n        /* \"#utility.yul\":6708:6983   */\n    tag_38:\n        /* \"#utility.yul\":6840:6843   */\n      0x00\n        /* \"#utility.yul\":6862:6957   */\n      tag_176\n        /* \"#utility.yul\":6953:6956   */\n      dup3\n        /* \"#utility.yul\":6944:6950   */\n      dup5\n        /* \"#utility.yul\":6862:6957   */\n      tag_78\n      jump\t// in\n    tag_176:\n        /* \"#utility.yul\":6855:6957   */\n      swap2\n      pop\n        /* \"#utility.yul\":6974:6977   */\n      dup2\n        /* \"#utility.yul\":6967:6977   */\n      swap1\n      pop\n        /* \"#utility.yul\":6708:6983   */\n      swap3\n      swap2\n      pop\n      pop\n      jump\t// out\n        /* \"#utility.yul\":6989:7169   */\n    tag_79:\n        /* \"#utility.yul\":7037:7114   */\n      0x4e487b7100000000000000000000000000000000000000000000000000000000\n        /* \"#utility.yul\":7034:7035   */\n      0x00\n        /* \"#utility.yul\":7027:7115   */\n      mstore\n        /* \"#utility.yul\":7134:7138   */\n      0x22\n        /* \"#utility.yul\":7131:7132   */\n      0x04\n        /* \"#utility.yul\":7124:7139   */\n      mstore\n        /* \"#utility.yul\":7158:7162   */\n      0x24\n        /* \"#utility.yul\":7155:7156   */\n      0x00\n        /* \"#utility.yul\":7148:7163   */\n      revert\n        /* \"#utility.yul\":7175:7495   */\n    tag_42:\n        /* \"#utility.yul\":7219:7225   */\n      0x00\n        /* \"#utility.yul\":7256:7257   */\n      0x02\n        /* \"#utility.yul\":7250:7254   */\n      dup3\n        /* \"#utility.yul\":7246:7258   */\n      div\n        /* \"#utility.yul\":7236:7258   */\n      swap1\n      pop\n        /* \"#utility.yul\":7303:7304   */\n      0x01\n        /* \"#utility.yul\":7297:7301   */\n      dup3\n        /* \"#utility.yul\":7293:7305   */\n      and\n        /* \"#utility.yul\":7324:7342   */\n      dup1\n        /* \"#utility.yul\":7314:7395   */\n      tag_179\n      jumpi\n        /* \"#utility.yul\":7380:7384   */\n      0x7f\n        /* \"#utility.yul\":7372:7378   */\n      dup3\n        /* \"#utility.yul\":7368:7385   */\n      and\n        /* \"#utility.yul\":7358:7385   */\n      swap2\n      pop\n        /* \"#utility.yul\":7314:7395   */\n    tag_179:\n        /* \"#utility.yul\":7442:7444   */\n      0x20\n        /* \"#utility.yul\":7434:7440   */\n      dup3\n        /* \"#utility.yul\":7431:7445   */\n      lt\n        /* \"#utility.yul\":7411:7429   */\n      dup2\n        /* \"#utility.yul\":7408:7446   */\n      sub\n        /* \"#utility.yul\":7405:7489   */\n      tag_180\n      jumpi\n        /* \"#utility.yul\":7461:7479   */\n      tag_181\n      tag_79\n      jump\t// in\n    tag_181:\n        /* \"#utility.yul\":7405:7489   */\n    tag_180:\n        /* \"#utility.yul\":7226:7495   */\n      pop\n        /* \"#utility.yul\":7175:7495   */\n      swap2\n      swap1\n      pop\n      jump\t// out\n        /* \"#utility.yul\":7501:7642   */\n    tag_80:\n        /* \"#utility.yul\":7550:7554   */\n      0x00\n        /* \"#utility.yul\":7573:7576   */\n      dup2\n        /* \"#utility.yul\":7565:7576   */\n      swap1\n      pop\n        /* \"#utility.yul\":7596:7599   */\n      dup2\n        /* \"#utility.yul\":7593:7594   */\n      0x00\n        /* \"#utility.yul\":7586:7600   */\n      mstore\n        /* \"#utility.yul\":7630:7634   */\n      0x20\n        /* \"#utility.yul\":7627:7628   */\n      0x00\n        /* \"#utility.yul\":7617:7635   */\n      keccak256\n        /* \"#utility.yul\":7609:7635   */\n      swap1\n      pop\n        /* \"#utility.yul\":7501:7642   */\n      swap2\n      swap1\n      pop\n      jump\t// out\n        /* \"#utility.yul\":7672:8546   */\n    tag_81:\n        /* \"#utility.yul\":7775:7778   */\n      0x00\n        /* \"#utility.yul\":7812:7817   */\n      dup2\n        /* \"#utility.yul\":7806:7818   */\n      sload\n        /* \"#utility.yul\":7841:7877   */\n      tag_184\n        /* \"#utility.yul\":7867:7876   */\n      dup2\n        /* \"#utility.yul\":7841:7877   */\n      tag_42\n      jump\t// in\n    tag_184:\n        /* \"#utility.yul\":7893:7982   */\n      tag_185\n        /* \"#utility.yul\":7975:7981   */\n      dup2\n        /* \"#utility.yul\":7970:7973   */\n      dup7\n        /* \"#utility.yul\":7893:7982   */\n      tag_77\n      jump\t// in\n    tag_185:\n        /* \"#utility.yul\":7886:7982   */\n      swap5\n      pop\n        /* \"#utility.yul\":8013:8014   */\n      0x01\n        /* \"#utility.yul\":8002:8011   */\n      dup3\n        /* \"#utility.yul\":7998:8015   */\n      and\n        /* \"#utility.yul\":8029:8030   */\n      0x00\n        /* \"#utility.yul\":8024:8190   */\n      dup2\n      eq\n      tag_187\n      jumpi\n        /* \"#utility.yul\":8204:8205   */\n      0x01\n        /* \"#utility.yul\":8199:8540   */\n      dup2\n      eq\n      tag_188\n      jumpi\n        /* \"#utility.yul\":7991:8540   */\n      jump(tag_186)\n        /* \"#utility.yul\":8024:8190   */\n    tag_187:\n        /* \"#utility.yul\":8108:8112   */\n      0xff\n        /* \"#utility.yul\":8104:8113   */\n      not\n        /* \"#utility.yul\":8093:8102   */\n      dup4\n        /* \"#utility.yul\":8089:8114   */\n      and\n        /* \"#utility.yul\":8084:8087   */\n      dup7\n        /* \"#utility.yul\":8077:8115   */\n      mstore\n        /* \"#utility.yul\":8170:8176   */\n      dup2\n        /* \"#utility.yul\":8163:8177   */\n      iszero\n        /* \"#utility.yul\":8156:8178   */\n      iszero\n        /* \"#utility.yul\":8148:8154   */\n      dup3\n        /* \"#utility.yul\":8144:8179   */\n      mul\n        /* \"#utility.yul\":8139:8142   */\n      dup7\n        /* \"#utility.yul\":8135:8180   */\n      add\n        /* \"#utility.yul\":8128:8180   */\n      swap4\n      pop\n        /* \"#utility.yul\":8024:8190   */\n      jump(tag_186)\n        /* \"#utility.yul\":8199:8540   */\n    tag_188:\n        /* \"#utility.yul\":8266:8304   */\n      tag_189\n        /* \"#utility.yul\":8298:8303   */\n      dup6\n        /* \"#utility.yul\":8266:8304   */\n      tag_80\n      jump\t// in\n    tag_189:\n        /* \"#utility.yul\":8326:8327   */\n      0x00\n        /* \"#utility.yul\":8340:8494   */\n    tag_190:\n        /* \"#utility.yul\":8354:8360   */\n      dup4\n        /* \"#utility.yul\":8351:8352   */\n      dup2\n        /* \"#utility.yul\":8348:8361   */\n      lt\n        /* \"#utility.yul\":8340:8494   */\n      iszero\n      tag_192\n      jumpi\n        /* \"#utility.yul\":8428:8435   */\n      dup2\n        /* \"#utility.yul\":8422:8436   */\n      sload\n        /* \"#utility.yul\":8418:8419   */\n      dup2\n        /* \"#utility.yul\":8413:8416   */\n      dup10\n        /* \"#utility.yul\":8409:8420   */\n      add\n        /* \"#utility.yul\":8402:8437   */\n      mstore\n        /* \"#utility.yul\":8478:8479   */\n      0x01\n        /* \"#utility.yul\":8469:8476   */\n      dup3\n        /* \"#utility.yul\":8465:8480   */\n      add\n        /* \"#utility.yul\":8454:8480   */\n      swap2\n      pop\n        /* \"#utility.yul\":8376:8380   */\n      0x20\n        /* \"#utility.yul\":8373:8374   */\n      dup2\n        /* \"#utility.yul\":8369:8381   */\n      add\n        /* \"#utility.yul\":8364:8381   */\n      swap1\n      pop\n        /* \"#utility.yul\":8340:8494   */\n      jump(tag_190)\n    tag_192:\n        /* \"#utility.yul\":8523:8529   */\n      dup4\n        /* \"#utility.yul\":8518:8521   */\n      dup9\n        /* \"#utility.yul\":8514:8530   */\n      add\n        /* \"#utility.yul\":8507:8530   */\n      swap6\n      pop\n        /* \"#utility.yul\":8206:8540   */\n      pop\n      pop\n        /* \"#utility.yul\":7991:8540   */\n    tag_186:\n      pop\n        /* \"#utility.yul\":7779:8546   */\n      pop\n      pop\n        /* \"#utility.yul\":7672:8546   */\n      swap3\n      swap2\n      pop\n      pop\n      jump\t// out\n        /* \"#utility.yul\":8552:8821   */\n    tag_40:\n        /* \"#utility.yul\":8681:8684   */\n      0x00\n        /* \"#utility.yul\":8703:8795   */\n      tag_194\n        /* \"#utility.yul\":8791:8794   */\n      dup3\n        /* \"#utility.yul\":8782:8788   */\n      dup5\n        /* \"#utility.yul\":8703:8795   */\n      tag_81\n      jump\t// in\n    tag_194:\n        /* \"#utility.yul\":8696:8795   */\n      swap2\n      pop\n        /* \"#utility.yul\":8812:8815   */\n      dup2\n        /* \"#utility.yul\":8805:8815   */\n      swap1\n      pop\n        /* \"#utility.yul\":8552:8821   */\n      swap3\n      swap2\n      pop\n      pop\n      jump\t// out\n        /* \"#utility.yul\":8827:8920   */\n    tag_82:\n        /* \"#utility.yul\":8864:8870   */\n      0x00\n        /* \"#utility.yul\":8911:8913   */\n      0x20\n        /* \"#utility.yul\":8906:8908   */\n      0x1f\n        /* \"#utility.yul\":8899:8904   */\n      dup4\n        /* \"#utility.yul\":8895:8909   */\n      add\n        /* \"#utility.yul\":8891:8914   */\n      div\n        /* \"#utility.yul\":8881:8914   */\n      swap1\n      pop\n        /* \"#utility.yul\":8827:8920   */\n      swap2\n      swap1\n      pop\n      jump\t// out\n        /* \"#utility.yul\":8926:9033   */\n    tag_83:\n        /* \"#utility.yul\":8970:8978   */\n      0x00\n        /* \"#utility.yul\":9020:9025   */\n      dup3\n        /* \"#utility.yul\":9014:9018   */\n      dup3\n        /* \"#utility.yul\":9010:9026   */\n      shl\n        /* \"#utility.yul\":8989:9026   */\n      swap1\n      pop\n        /* \"#utility.yul\":8926:9033   */\n      swap3\n      swap2\n      pop\n      pop\n      jump\t// out\n        /* \"#utility.yul\":9039:9432   */\n    tag_84:\n        /* \"#utility.yul\":9108:9114   */\n      0x00\n        /* \"#utility.yul\":9158:9159   */\n      0x08\n        /* \"#utility.yul\":9146:9156   */\n      dup4\n        /* \"#utility.yul\":9142:9160   */\n      mul\n        /* \"#utility.yul\":9181:9278   */\n      tag_198\n        /* \"#utility.yul\":9211:9277   */\n      0xffffffffffffffffffffffffffffffffffffffffffffffffffffffffffffffff\n        /* \"#utility.yul\":9200:9209   */\n      dup3\n        /* \"#utility.yul\":9181:9278   */\n      tag_83\n      jump\t// in\n    tag_198:\n        /* \"#utility.yul\":9299:9338   */\n      tag_199\n        /* \"#utility.yul\":9329:9337   */\n      dup7\n        /* \"#utility.yul\":9318:9327   */\n      dup4\n        /* \"#utility.yul\":9299:9338   */\n      tag_83\n      jump\t// in\n    tag_199:\n        /* \"#utility.yul\":9287:9338   */\n      swap6\n      pop\n        /* \"#utility.yul\":9371:9375   */\n      dup1\n        /* \"#utility.yul\":9367:9376   */\n      not\n        /* \"#utility.yul\":9360:9365   */\n      dup5\n        /* \"#utility.yul\":9356:9377   */\n      and\n        /* \"#utility.yul\":9347:9377   */\n      swap4\n      pop\n        /* \"#utility.yul\":9420:9424   */\n      dup1\n        /* \"#utility.yul\":9410:9418   */\n      dup7\n        /* \"#utility.yul\":9406:9425   */\n      and\n        /* \"#utility.yul\":9399:9404   */\n      dup5\n        /* \"#utility.yul\":9396:9426   */\n      or\n        /* \"#utility.yul\":9386:9426   */\n      swap3\n      pop\n        /* \"#utility.yul\":9115:9432   */\n      pop\n      pop\n        /* \"#utility.yul\":9039:9432   */\n      swap4\n      swap3\n      pop\n      pop\n      pop\n      jump\t// out\n        /* \"#utility.yul\":9438:9498   */\n    tag_85:\n        /* \"#utility.yul\":9466:9469   */\n      0x00\n        /* \"#utility.yul\":9487:9492   */\n      dup2\n        /* \"#utility.yul\":9480:9492   */\n      swap1\n      pop\n        /* \"#utility.yul\":9438:9498   */\n      swap2\n      swap1\n      pop\n      jump\t// out\n        /* \"#utility.yul\":9504:9646   */\n    tag_86:\n        /* \"#utility.yul\":9554:9563   */\n      0x00\n        /* \"#utility.yul\":9587:9640   */\n      tag_202\n        /* \"#utility.yul\":9605:9639   */\n      tag_203\n        /* \"#utility.yul\":9614:9638   */\n      tag_204\n        /* \"#utility.yul\":9632:9637   */\n      dup5\n        /* \"#utility.yul\":9614:9638   */\n      tag_53\n      jump\t// in\n    tag_204:\n        /* \"#utility.yul\":9605:9639   */\n      tag_85\n      jump\t// in\n    tag_203:\n        /* \"#utility.yul\":9587:9640   */\n      tag_53\n      jump\t// in\n    tag_202:\n        /* \"#utility.yul\":9574:9640   */\n      swap1\n      pop\n        /* \"#utility.yul\":9504:9646   */\n      swap2\n      swap1\n      pop\n      jump\t// out\n        /* \"#utility.yul\":9652:9727   */\n    tag_87:\n        /* \"#utility.yul\":9695:9698   */\n      0x00\n        /* \"#utility.yul\":9716:9721   */\n      dup2\n        /* \"#utility.yul\":9709:9721   */\n      swap1\n      pop\n        /* \"#utility.yul\":9652:9727   */\n      swap2\n      swap1\n      pop\n      jump\t// out\n        /* \"#utility.yul\":9733:10002   */\n    tag_88:\n        /* \"#utility.yul\":9843:9882   */\n      tag_207\n        /* \"#utility.yul\":9874:9881   */\n      dup4\n        /* \"#utility.yul\":9843:9882   */\n      tag_86\n      jump\t// in\n    tag_207:\n        /* \"#utility.yul\":9904:9995   */\n      tag_208\n        /* \"#utility.yul\":9953:9994   */\n      tag_209\n        /* \"#utility.yul\":9977:9993   */\n      dup3\n        /* \"#utility.yul\":9953:9994   */\n      tag_87\n      jump\t// in\n    tag_209:\n        /* \"#utility.yul\":9945:9951   */\n      dup5\n        /* \"#utility.yul\":9938:9942   */\n      dup5\n        /* \"#utility.yul\":9932:9943   */\n      sload\n        /* \"#utility.yul\":9904:9995   */\n      tag_84\n      jump\t// in\n    tag_208:\n        /* \"#utility.yul\":9898:9902   */\n      dup3\n        /* \"#utility.yul\":9891:9996   */\n      sstore\n        /* \"#utility.yul\":9809:10002   */\n      pop\n        /* \"#utility.yul\":9733:10002   */\n      pop\n      pop\n      pop\n      jump\t// out\n        /* \"#utility.yul\":10008:10081   */\n    tag_89:\n        /* \"#utility.yul\":10053:10056   */\n      0x00\n        /* \"#utility.yul\":10008:10081   */\n      swap1\n      jump\t// out\n        /* \"#utility.yul\":10087:10276   */\n    tag_90:\n        /* \"#utility.yul\":10164:10196   */\n      tag_212\n      tag_89\n      jump\t// in\n    tag_212:\n        /* \"#utility.yul\":10205:10270   */\n      tag_213\n        /* \"#utility.yul\":10263:10269   */\n      dup2\n        /* \"#utility.yul\":10255:10261   */\n      dup5\n        /* \"#utility.yul\":10249:10253   */\n      dup5\n        /* \"#utility.yul\":10205:10270   */\n      tag_88\n      jump\t// in\n    tag_213:\n        /* \"#utility.yul\":10140:10276   */\n      pop\n        /* \"#utility.yul\":10087:10276   */\n      pop\n      pop\n      jump\t// out\n        /* \"#utility.yul\":10282:10468   */\n    tag_91:\n        /* \"#utility.yul\":10342:10462   */\n    tag_215:\n        /* \"#utility.yul\":10359:10362   */\n      dup2\n        /* \"#utility.yul\":10352:10357   */\n      dup2\n        /* \"#utility.yul\":10349:10363   */\n      lt\n        /* \"#utility.yul\":10342:10462   */\n      iszero\n      tag_217\n      jumpi\n        /* \"#utility.yul\":10413:10452   */\n      tag_218\n        /* \"#utility.yul\":10450:10451   */\n      0x00\n        /* \"#utility.yul\":10443:10448   */\n      dup3\n        /* \"#utility.yul\":10413:10452   */\n      tag_90\n      jump\t// in\n    tag_218:\n        /* \"#utility.yul\":10386:10387   */\n      0x01\n        /* \"#utility.yul\":10379:10384   */\n      dup2\n        /* \"#utility.yul\":10375:10388   */\n      add\n        /* \"#utility.yul\":10366:10388   */\n      swap1\n      pop\n        /* \"#utility.yul\":10342:10462   */\n      jump(tag_215)\n    tag_217:\n        /* \"#utility.yul\":10282:10468   */\n      pop\n      pop\n      jump\t// out\n        /* \"#utility.yul\":10474:11017   */\n    tag_92:\n        /* \"#utility.yul\":10575:10577   */\n      0x1f\n        /* \"#utility.yul\":10570:10573   */\n      dup3\n        /* \"#utility.yul\":10567:10578   */\n      gt\n        /* \"#utility.yul\":10564:11010   */\n      iszero\n      tag_220\n      jumpi\n        /* \"#utility.yul\":10609:10647   */\n      tag_221\n        /* \"#utility.yul\":10641:10646   */\n      dup2\n        /* \"#utility.yul\":10609:10647   */\n      tag_80\n      jump\t// in\n    tag_221:\n        /* \"#utility.yul\":10693:10722   */\n      tag_222\n        /* \"#utility.yul\":10711:10721   */\n      dup5\n        /* \"#utility.yul\":10693:10722   */\n      tag_82\n      jump\t// in\n    tag_222:\n        /* \"#utility.yul\":10683:10691   */\n      dup2\n        /* \"#utility.yul\":10679:10723   */\n      add\n        /* \"#utility.yul\":10876:10878   */\n      0x20\n        /* \"#utility.yul\":10864:10874   */\n      dup6\n        /* \"#utility.yul\":10861:10879   */\n      lt\n        /* \"#utility.yul\":10858:10907   */\n      iszero\n      tag_223\n      jumpi\n        /* \"#utility.yul\":10897:10905   */\n      dup2\n        /* \"#utility.yul\":10882:10905   */\n      swap1\n      pop\n        /* \"#utility.yul\":10858:10907   */\n    tag_223:\n        /* \"#utility.yul\":10920:11000   */\n      tag_224\n        /* \"#utility.yul\":10976:10998   */\n      tag_225\n        /* \"#utility.yul\":10994:10997   */\n      dup6\n        /* \"#utility.yul\":10976:10998   */\n      tag_82\n      jump\t// in\n    tag_225:\n        /* \"#utility.yul\":10966:10974   */\n      dup4\n        /* \"#utility.yul\":10962:10999   */\n      add\n        /* \"#utility.yul\":10949:10960   */\n      dup3\n        /* \"#utility.yul\":10920:11000   */\n      tag_91\n      jump\t// in\n    tag_224:\n        /* \"#utility.yul\":10579:11010   */\n      pop\n      pop\n        /* \"#utility.yul\":10564:11010   */\n    tag_220:\n        /* \"#utility.yul\":10474:11017   */\n      pop\n      pop\n      pop\n      jump\t// out\n        /* \"#utility.yul\":11023:11140   */\n    tag_93:\n        /* \"#utility.yul\":11077:11085   */\n      0x00\n        /* \"#utility.yul\":11127:11132   */\n      dup3\n        /* \"#utility.yul\":11121:11125   */\n      dup3\n        /* \"#utility.yul\":11117:11133   */\n      shr\n        /* \"#utility.yul\":11096:11133   */\n      swap1\n      pop\n        /* \"#utility.yul\":11023:11140   */\n      swap3\n      swap2\n      pop\n      pop\n      jump\t// out\n        /* \"#utility.yul\":11146:11315   */\n    tag_94:\n        /* \"#utility.yul\":11190:11196   */\n      0x00\n        /* \"#utility.yul\":11223:11274   */\n      tag_228\n        /* \"#utility.yul\":11271:11272   */\n      0x00\n        /* \"#utility.yul\":11267:11273   */\n      not\n        /* \"#utility.yul\":11259:11264   */\n      dup5\n        /* \"#utility.yul\":11256:11257   */\n      0x08\n        /* \"#utility.yul\":11252:11265   */\n      mul\n        /* \"#utility.yul\":11223:11274   */\n      tag_93\n      jump\t// in\n    tag_228:\n        /* \"#utility.yul\":11219:11275   */\n      not\n        /* \"#utility.yul\":11304:11308   */\n      dup1\n        /* \"#utility.yul\":11298:11302   */\n      dup4\n        /* \"#utility.yul\":11294:11309   */\n      and\n        /* \"#utility.yul\":11284:11309   */\n      swap2\n      pop\n        /* \"#utility.yul\":11197:11315   */\n      pop\n        /* \"#utility.yul\":11146:11315   */\n      swap3\n      swap2\n      pop\n      pop\n      jump\t// out\n        /* \"#utility.yul\":11320:11615   */\n    tag_95:\n        /* \"#utility.yul\":11396:11400   */\n      0x00\n        /* \"#utility.yul\":11542:11571   */\n      tag_230\n        /* \"#utility.yul\":11567:11570   */\n      dup4\n        /* \"#utility.yul\":11561:11565   */\n      dup4\n        /* \"#utility.yul\":11542:11571   */\n      tag_94\n      jump\t// in\n    tag_230:\n        /* \"#utility.yul\":11534:11571   */\n      swap2\n      pop\n        /* \"#utility.yul\":11604:11607   */\n      dup3\n        /* \"#utility.yul\":11601:11602   */\n      0x02\n        /* \"#utility.yul\":11597:11608   */\n      mul\n        /* \"#utility.yul\":11591:11595   */\n      dup3\n        /* \"#utility.yul\":11588:11609   */\n      or\n        /* \"#utility.yul\":11580:11609   */\n      swap1\n      pop\n        /* \"#utility.yul\":11320:11615   */\n      swap3\n      swap2\n      pop\n      pop\n      jump\t// out\n        /* \"#utility.yul\":11620:13015   */\n    tag_49:\n        /* \"#utility.yul\":11737:11774   */\n      tag_232\n        /* \"#utility.yul\":11770:11773   */\n      dup3\n        /* \"#utility.yul\":11737:11774   */\n      tag_72\n      jump\t// in\n    tag_232:\n        /* \"#utility.yul\":11839:11857   */\n      0xffffffffffffffff\n        /* \"#utility.yul\":11831:11837   */\n      dup2\n        /* \"#utility.yul\":11828:11858   */\n      gt\n        /* \"#utility.yul\":11825:11881   */\n      iszero\n      tag_233\n      jumpi\n        /* \"#utility.yul\":11861:11879   */\n      tag_234\n      tag_63\n      jump\t// in\n    tag_234:\n        /* \"#utility.yul\":11825:11881   */\n    tag_233:\n        /* \"#utility.yul\":11905:11943   */\n      tag_235\n        /* \"#utility.yul\":11937:11941   */\n      dup3\n        /* \"#utility.yul\":11931:11942   */\n      sload\n        /* \"#utility.yul\":11905:11943   */\n      tag_42\n      jump\t// in\n    tag_235:\n        /* \"#utility.yul\":11990:12057   */\n      tag_236\n        /* \"#utility.yul\":12050:12056   */\n      dup3\n        /* \"#utility.yul\":12042:12048   */\n      dup3\n        /* \"#utility.yul\":12036:12040   */\n      dup6\n        /* \"#utility.yul\":11990:12057   */\n      tag_92\n      jump\t// in\n    tag_236:\n        /* \"#utility.yul\":12084:12085   */\n      0x00\n        /* \"#utility.yul\":12108:12112   */\n      0x20\n        /* \"#utility.yul\":12095:12112   */\n      swap1\n      pop\n        /* \"#utility.yul\":12140:12142   */\n      0x1f\n        /* \"#utility.yul\":12132:12138   */\n      dup4\n        /* \"#utility.yul\":12129:12143   */\n      gt\n        /* \"#utility.yul\":12157:12158   */\n      0x01\n        /* \"#utility.yul\":12152:12770   */\n      dup2\n      eq\n      tag_238\n      jumpi\n        /* \"#utility.yul\":12814:12815   */\n      0x00\n        /* \"#utility.yul\":12831:12837   */\n      dup5\n        /* \"#utility.yul\":12828:12905   */\n      iszero\n      tag_239\n      jumpi\n        /* \"#utility.yul\":12880:12889   */\n      dup3\n        /* \"#utility.yul\":12875:12878   */\n      dup8\n        /* \"#utility.yul\":12871:12890   */\n      add\n        /* \"#utility.yul\":12865:12891   */\n      mload\n        /* \"#utility.yul\":12856:12891   */\n      swap1\n      pop\n        /* \"#utility.yul\":12828:12905   */\n    tag_239:\n        /* \"#utility.yul\":12931:12998   */\n      tag_240\n        /* \"#utility.yul\":12991:12997   */\n      dup6\n        /* \"#utility.yul\":12984:12989   */\n      dup3\n        /* \"#utility.yul\":12931:12998   */\n      tag_95\n      jump\t// in\n    tag_240:\n        /* \"#utility.yul\":12925:12929   */\n      dup7\n        /* \"#utility.yul\":12918:12999   */\n      sstore\n        /* \"#utility.yul\":12787:13009   */\n      pop\n        /* \"#utility.yul\":12122:13009   */\n      jump(tag_237)\n        /* \"#utility.yul\":12152:12770   */\n    tag_238:\n        /* \"#utility.yul\":12204:12208   */\n      0x1f\n        /* \"#utility.yul\":12200:12209   */\n      not\n        /* \"#utility.yul\":12192:12198   */\n      dup5\n        /* \"#utility.yul\":12188:12210   */\n      and\n        /* \"#utility.yul\":12238:12275   */\n      tag_241\n        /* \"#utility.yul\":12270:12274   */\n      dup7\n        /* \"#utility.yul\":12238:12275   */\n      tag_80\n      jump\t// in\n    tag_241:\n        /* \"#utility.yul\":12297:12298   */\n      0x00\n        /* \"#utility.yul\":12311:12519   */\n    tag_242:\n        /* \"#utility.yul\":12325:12332   */\n      dup3\n        /* \"#utility.yul\":12322:12323   */\n      dup2\n        /* \"#utility.yul\":12319:12333   */\n      lt\n        /* \"#utility.yul\":12311:12519   */\n      iszero\n      tag_244\n      jumpi\n        /* \"#utility.yul\":12404:12413   */\n      dup5\n        /* \"#utility.yul\":12399:12402   */\n      dup10\n        /* \"#utility.yul\":12395:12414   */\n      add\n        /* \"#utility.yul\":12389:12415   */\n      mload\n        /* \"#utility.yul\":12381:12387   */\n      dup3\n        /* \"#utility.yul\":12374:12416   */\n      sstore\n        /* \"#utility.yul\":12455:12456   */\n      0x01\n        /* \"#utility.yul\":12447:12453   */\n      dup3\n        /* \"#utility.yul\":12443:12457   */\n      add\n        /* \"#utility.yul\":12433:12457   */\n      swap2\n      pop\n        /* \"#utility.yul\":12502:12504   */\n      0x20\n        /* \"#utility.yul\":12491:12500   */\n      dup6\n        /* \"#utility.yul\":12487:12505   */\n      add\n        /* \"#utility.yul\":12474:12505   */\n      swap5\n      pop\n        /* \"#utility.yul\":12348:12352   */\n      0x20\n        /* \"#utility.yul\":12345:12346   */\n      dup2\n        /* \"#utility.yul\":12341:12353   */\n      add\n        /* \"#utility.yul\":12336:12353   */\n      swap1\n      pop\n        /* \"#utility.yul\":12311:12519   */\n      jump(tag_242)\n    tag_244:\n        /* \"#utility.yul\":12547:12553   */\n      dup7\n        /* \"#utility.yul\":12538:12545   */\n      dup4\n        /* \"#utility.yul\":12535:12554   */\n      lt\n        /* \"#utility.yul\":12532:12711   */\n      iszero\n      tag_245\n      jumpi\n        /* \"#utility.yul\":12605:12614   */\n      dup5\n        /* \"#utility.yul\":12600:12603   */\n      dup10\n        /* \"#utility.yul\":12596:12615   */\n      add\n        /* \"#utility.yul\":12590:12616   */\n      mload\n        /* \"#utility.yul\":12648:12696   */\n      tag_246\n        /* \"#utility.yul\":12690:12694   */\n      0x1f\n        /* \"#utility.yul\":12682:12688   */\n      dup10\n        /* \"#utility.yul\":12678:12695   */\n      and\n        /* \"#utility.yul\":12667:12676   */\n      dup3\n        /* \"#utility.yul\":12648:12696   */\n      tag_94\n      jump\t// in\n    tag_246:\n        /* \"#utility.yul\":12640:12646   */\n      dup4\n        /* \"#utility.yul\":12633:12697   */\n      sstore\n        /* \"#utility.yul\":12555:12711   */\n      pop\n        /* \"#utility.yul\":12532:12711   */\n    tag_245:\n        /* \"#utility.yul\":12757:12758   */\n      0x01\n        /* \"#utility.yul\":12753:12754   */\n      0x02\n        /* \"#utility.yul\":12745:12751   */\n      dup9\n        /* \"#utility.yul\":12741:12755   */\n      mul\n        /* \"#utility.yul\":12737:12759   */\n      add\n        /* \"#utility.yul\":12731:12735   */\n      dup9\n        /* \"#utility.yul\":12724:12760   */\n      sstore\n        /* \"#utility.yul\":12159:12770   */\n      pop\n      pop\n      pop\n        /* \"#utility.yul\":12122:13009   */\n    tag_237:\n      pop\n        /* \"#utility.yul\":11712:13015   */\n      pop\n      pop\n      pop\n        /* \"#utility.yul\":11620:13015   */\n      pop\n      pop\n      jump\t// out\n        /* \"#utility.yul\":13021:13212   */\n    tag_52:\n        /* \"#utility.yul\":13061:13064   */\n      0x00\n        /* \"#utility.yul\":13080:13100   */\n      tag_248\n        /* \"#utility.yul\":13098:13099   */\n      dup3\n        /* \"#utility.yul\":13080:13100   */\n      tag_53\n      jump\t// in\n    tag_248:\n        /* \"#utility.yul\":13075:13100   */\n      swap2\n      pop\n        /* \"#utility.yul\":13114:13134   */\n      tag_249\n        /* \"#utility.yul\":13132:13133   */\n      dup4\n        /* \"#utility.yul\":13114:13134   */\n      tag_53\n      jump\t// in\n    tag_249:\n        /* \"#utility.yul\":13109:13134   */\n      swap3\n      pop\n        /* \"#utility.yul\":13157:13158   */\n      dup3\n        /* \"#utility.yul\":13154:13155   */\n      dup3\n        /* \"#utility.yul\":13150:13159   */\n      add\n        /* \"#utility.yul\":13143:13159   */\n      swap1\n      pop\n        /* \"#utility.yul\":13178:13181   */\n      dup1\n        /* \"#utility.yul\":13175:13176   */\n      dup3\n        /* \"#utility.yul\":13172:13182   */\n      gt\n        /* \"#utility.yul\":13169:13205   */\n      iszero\n      tag_250\n      jumpi\n        /* \"#utility.yul\":13185:13203   */\n      tag_251\n      tag_76\n      jump\t// in\n    tag_251:\n        /* \"#utility.yul\":13169:13205   */\n    tag_250:\n        /* \"#utility.yul\":13021:13212   */\n      swap3\n      swap2\n      pop\n      pop\n      jump\t// out\n\n    auxdata: 0xa2646970667358221220913706c311d6b6157d5653485e9263aeefeb71d90deb53a4f7096f10f643c43064736f6c63430008140033\n}\n",
				"bytecode": {
					"linkReferences": {},
					"object": "60806040526040518060400160405280600c81526020017f48656c6c6f20476972696b2100000000000000000000000000000000000000008152505f9081620000499190620002c1565b5034801562000056575f80fd5b50620003a5565b5f81519050919050565b7f4e487b71000000000000000000000000000000000000000000000000000000005f52604160045260245ffd5b7f4e487b71000000000000000000000000000000000000000000000000000000005f52602260045260245ffd5b5f6002820490506001821680620000d957607f821691505b602082108103620000ef57620000ee62000094565b5b50919050565b5f819050815f5260205f209050919050565b5f6020601f8301049050919050565b5f82821b905092915050565b5f60088302620001537fffffffffffffffffffffffffffffffffffffffffffffffffffffffffffffffff8262000116565b6200015f868362000116565b95508019841693508086168417925050509392505050565b5f819050919050565b5f819050919050565b5f620001a9620001a36200019d8462000177565b62000180565b62000177565b9050919050565b5f819050919050565b620001c48362000189565b620001dc620001d382620001b0565b84845462000122565b825550505050565b5f90565b620001f2620001e4565b620001ff818484620001b9565b505050565b5b8181101562000226576200021a5f82620001e8565b60018101905062000205565b5050565b601f82111562000275576200023f81620000f5565b6200024a8462000107565b810160208510156200025a578190505b62000272620002698562000107565b83018262000204565b50505b505050565b5f82821c905092915050565b5f620002975f19846008026200027a565b1980831691505092915050565b5f620002b1838362000286565b9150826002028217905092915050565b620002cc826200005d565b67ffffffffffffffff811115620002e857620002e762000067565b5b620002f48254620000c1565b620003018282856200022a565b5f60209050601f83116001811462000337575f841562000322578287015190505b6200032e8582620002a4565b8655506200039d565b601f1984166200034786620000f5565b5f5b82811015620003705784890151825560018201915060208501945060208101905062000349565b868310156200039057848901516200038c601f89168262000286565b8355505b6001600288020188555050505b505050505050565b6109ab80620003b35f395ff3fe608060405234801561000f575f80fd5b5060043610610060575f3560e01c80632cb777a6146100645780635949b1dc146100825780635ce253531461009e578063c261fa36146100ce578063c3ccf402146100ec578063ceddb7b114610108575b5f80fd5b61006c610124565b6040516100799190610264565b60405180910390f35b61009c600480360381019061009791906102b8565b61012a565b005b6100b860048036038101906100b3919061041f565b610141565b6040516100c59190610480565b60405180910390f35b6100d6610198565b6040516100e39190610513565b60405180910390f35b6101066004803603810190610101919061041f565b610223565b005b610122600480360381019061011d91906102b8565b610235565b005b60015481565b806001546101389190610560565b60018190555050565b5f8160405160200161015391906105cd565b604051602081830303815290604052805190602001205f60405160200161017a91906106d2565b60405160208183030381529060405280519060200120149050919050565b5f80546101a490610610565b80601f01602080910402602001604051908101604052809291908181526020018280546101d090610610565b801561021b5780601f106101f25761010080835404028352916020019161021b565b820191905f5260205f20905b8154815290600101906020018083116101fe57829003601f168201915b505050505081565b805f90816102319190610873565b5050565b806001546102439190610942565b60018190555050565b5f819050919050565b61025e8161024c565b82525050565b5f6020820190506102775f830184610255565b92915050565b5f604051905090565b5f80fd5b5f80fd5b6102978161024c565b81146102a1575f80fd5b50565b5f813590506102b28161028e565b92915050565b5f602082840312156102cd576102cc610286565b5b5f6102da848285016102a4565b91505092915050565b5f80fd5b5f80fd5b5f601f19601f8301169050919050565b7f4e487b71000000000000000000000000000000000000000000000000000000005f52604160045260245ffd5b610331826102eb565b810181811067ffffffffffffffff821117156103505761034f6102fb565b5b80604052505050565b5f61036261027d565b905061036e8282610328565b919050565b5f67ffffffffffffffff82111561038d5761038c6102fb565b5b610396826102eb565b9050602081019050919050565b828183375f83830152505050565b5f6103c36103be84610373565b610359565b9050828152602081018484840111156103df576103de6102e7565b5b6103ea8482856103a3565b509392505050565b5f82601f830112610406576104056102e3565b5b81356104168482602086016103b1565b91505092915050565b5f6020828403121561043457610433610286565b5b5f82013567ffffffffffffffff8111156104515761045061028a565b5b61045d848285016103f2565b91505092915050565b5f8115159050919050565b61047a81610466565b82525050565b5f6020820190506104935f830184610471565b92915050565b5f81519050919050565b5f82825260208201905092915050565b5f5b838110156104d05780820151818401526020810190506104b5565b5f8484015250505050565b5f6104e582610499565b6104ef81856104a3565b93506104ff8185602086016104b3565b610508816102eb565b840191505092915050565b5f6020820190508181035f83015261052b81846104db565b905092915050565b7f4e487b71000000000000000000000000000000000000000000000000000000005f52601160045260245ffd5b5f61056a8261024c565b91506105758361024c565b925082820390508181111561058d5761058c610533565b5b92915050565b5f81905092915050565b5f6105a782610499565b6105b18185610593565b93506105c18185602086016104b3565b80840191505092915050565b5f6105d8828461059d565b915081905092915050565b7f4e487b71000000000000000000000000000000000000000000000000000000005f52602260045260245ffd5b5f600282049050600182168061062757607f821691505b60208210810361063a576106396105e3565b5b50919050565b5f819050815f5260205f209050919050565b5f815461065e81610610565b6106688186610593565b9450600182165f81146106825760018114610697576106c9565b60ff19831686528115158202860193506106c9565b6106a085610640565b5f5b838110156106c1578154818901526001820191506020810190506106a2565b838801955050505b50505092915050565b5f6106dd8284610652565b915081905092915050565b5f6020601f8301049050919050565b5f82821b905092915050565b5f600883026107327fffffffffffffffffffffffffffffffffffffffffffffffffffffffffffffffff826106f7565b61073c86836106f7565b95508019841693508086168417925050509392505050565b5f819050919050565b5f61077761077261076d8461024c565b610754565b61024c565b9050919050565b5f819050919050565b6107908361075d565b6107a461079c8261077e565b848454610703565b825550505050565b5f90565b6107b86107ac565b6107c3818484610787565b505050565b5b818110156107e6576107db5f826107b0565b6001810190506107c9565b5050565b601f82111561082b576107fc81610640565b610805846106e8565b81016020851015610814578190505b610828610820856106e8565b8301826107c8565b50505b505050565b5f82821c905092915050565b5f61084b5f1984600802610830565b1980831691505092915050565b5f610863838361083c565b9150826002028217905092915050565b61087c82610499565b67ffffffffffffffff811115610895576108946102fb565b5b61089f8254610610565b6108aa8282856107ea565b5f60209050601f8311600181146108db575f84156108c9578287015190505b6108d38582610858565b86555061093a565b601f1984166108e986610640565b5f5b82811015610910578489015182556001820191506020850194506020810190506108eb565b8683101561092d5784890151610929601f89168261083c565b8355505b6001600288020188555050505b505050505050565b5f61094c8261024c565b91506109578361024c565b925082820190508082111561096f5761096e610533565b5b9291505056fea2646970667358221220913706c311d6b6157d5653485e9263aeefeb71d90deb53a4f7096f10f643c43064736f6c63430008140033",
					"opcodes": "PUSH1 0x80 PUSH1 0x40 MSTORE PUSH1 0x40 MLOAD DUP1 PUSH1 0x40 ADD PUSH1 0x40 MSTORE DUP1 PUSH1 0xC DUP2 MSTORE PUSH1 0x20 ADD PUSH32 0x48656C6C6F20476972696B210000000000000000000000000000000000000000 DUP2 MSTORE POP PUSH0 SWAP1 DUP2 PUSH3 0x49 SWAP2 SWAP1 PUSH3 0x2C1 JUMP JUMPDEST POP CALLVALUE DUP1 ISZERO PUSH3 0x56 JUMPI PUSH0 DUP1 REVERT JUMPDEST POP PUSH3 0x3A5 JUMP JUMPDEST PUSH0 DUP2 MLOAD SWAP1 POP SWAP2 SWAP1 POP JUMP JUMPDEST PUSH32 0x4E487B7100000000000000000000000000000000000000000000000000000000 PUSH0 MSTORE PUSH1 0x41 PUSH1 0x4 MSTORE PUSH1 0x24 PUSH0 REVERT JUMPDEST PUSH32 0x4E487B7100000000000000000000000000000000000000000000000000000000 PUSH0 MSTORE PUSH1 0x22 PUSH1 0x4 MSTORE PUSH1 0x24 PUSH0 REVERT JUMPDEST PUSH0 PUSH1 0x2 DUP3 DIV SWAP1 POP PUSH1 0x1 DUP3 AND DUP1 PUSH3 0xD9 JUMPI PUSH1 0x7F DUP3 AND SWAP2 POP JUMPDEST PUSH1 0x20 DUP3 LT DUP2 SUB PUSH3 0xEF JUMPI PUSH3 0xEE PUSH3 0x94 JUMP JUMPDEST JUMPDEST POP SWAP2 SWAP1 POP JUMP JUMPDEST PUSH0 DUP2 SWAP1 POP DUP2 PUSH0 MSTORE PUSH1 0x20 PUSH0 KECCAK256 SWAP1 POP SWAP2 SWAP1 POP JUMP JUMPDEST PUSH0 PUSH1 0x20 PUSH1 0x1F DUP4 ADD DIV SWAP1 POP SWAP2 SWAP1 POP JUMP JUMPDEST PUSH0 DUP3 DUP3 SHL SWAP1 POP SWAP3 SWAP2 POP POP JUMP JUMPDEST PUSH0 PUSH1 0x8 DUP4 MUL PUSH3 0x153 PUSH32 0xFFFFFFFFFFFFFFFFFFFFFFFFFFFFFFFFFFFFFFFFFFFFFFFFFFFFFFFFFFFFFFFF DUP3 PUSH3 0x116 JUMP JUMPDEST PUSH3 0x15F DUP7 DUP4 PUSH3 0x116 JUMP JUMPDEST SWAP6 POP DUP1 NOT DUP5 AND SWAP4 POP DUP1 DUP7 AND DUP5 OR SWAP3 POP POP POP SWAP4 SWAP3 POP POP POP JUMP JUMPDEST PUSH0 DUP2 SWAP1 POP SWAP2 SWAP1 POP JUMP JUMPDEST PUSH0 DUP2 SWAP1 POP SWAP2 SWAP1 POP JUMP JUMPDEST PUSH0 PUSH3 0x1A9 PUSH3 0x1A3 PUSH3 0x19D DUP5 PUSH3 0x177 JUMP JUMPDEST PUSH3 0x180 JUMP JUMPDEST PUSH3 0x177 JUMP JUMPDEST SWAP1 POP SWAP2 SWAP1 POP JUMP JUMPDEST PUSH0 DUP2 SWAP1 POP SWAP2 SWAP1 POP JUMP JUMPDEST PUSH3 0x1C4 DUP4 PUSH3 0x189 JUMP JUMPDEST PUSH3 0x1DC PUSH3 0x1D3 DUP3 PUSH3 0x1B0 JUMP JUMPDEST DUP5 DUP5 SLOAD PUSH3 0x122 JUMP JUMPDEST DUP3 SSTORE POP POP POP POP JUMP JUMPDEST PUSH0 SWAP1 JUMP JUMPDEST PUSH3 0x1F2 PUSH3 0x1E4 JUMP JUMPDEST PUSH3 0x1FF DUP2 DUP5 DUP5 PUSH3 0x1B9 JUMP JUMPDEST POP POP POP JUMP JUMPDEST JUMPDEST DUP2 DUP2 LT ISZERO PUSH3 0x226 JUMPI PUSH3 0x21A PUSH0 DUP3 PUSH3 0x1E8 JUMP JUMPDEST PUSH1 0x1 DUP2 ADD SWAP1 POP PUSH3 0x205 JUMP JUMPDEST POP POP JUMP JUMPDEST PUSH1 0x1F DUP3 GT ISZERO PUSH3 0x275 JUMPI PUSH3 0x23F DUP2 PUSH3 0xF5 JUMP JUMPDEST PUSH3 0x24A DUP5 PUSH3 0x107 JUMP JUMPDEST DUP2 ADD PUSH1 0x20 DUP6 LT ISZERO PUSH3 0x25A JUMPI DUP2 SWAP1 POP JUMPDEST PUSH3 0x272 PUSH3 0x269 DUP6 PUSH3 0x107 JUMP JUMPDEST DUP4 ADD DUP3 PUSH3 0x204 JUMP JUMPDEST POP POP JUMPDEST POP POP POP JUMP JUMPDEST PUSH0 DUP3 DUP3 SHR SWAP1 POP SWAP3 SWAP2 POP POP JUMP JUMPDEST PUSH0 PUSH3 0x297 PUSH0 NOT DUP5 PUSH1 0x8 MUL PUSH3 0x27A JUMP JUMPDEST NOT DUP1 DUP4 AND SWAP2 POP POP SWAP3 SWAP2 POP POP JUMP JUMPDEST PUSH0 PUSH3 0x2B1 DUP4 DUP4 PUSH3 0x286 JUMP JUMPDEST SWAP2 POP DUP3 PUSH1 0x2 MUL DUP3 OR SWAP1 POP SWAP3 SWAP2 POP POP JUMP JUMPDEST PUSH3 0x2CC DUP3 PUSH3 0x5D JUMP JUMPDEST PUSH8 0xFFFFFFFFFFFFFFFF DUP2 GT ISZERO PUSH3 0x2E8 JUMPI PUSH3 0x2E7 PUSH3 0x67 JUMP JUMPDEST JUMPDEST PUSH3 0x2F4 DUP3 SLOAD PUSH3 0xC1 JUMP JUMPDEST PUSH3 0x301 DUP3 DUP3 DUP6 PUSH3 0x22A JUMP JUMPDEST PUSH0 PUSH1 0x20 SWAP1 POP PUSH1 0x1F DUP4 GT PUSH1 0x1 DUP2 EQ PUSH3 0x337 JUMPI PUSH0 DUP5 ISZERO PUSH3 0x322 JUMPI DUP3 DUP8 ADD MLOAD SWAP1 POP JUMPDEST PUSH3 0x32E DUP6 DUP3 PUSH3 0x2A4 JUMP JUMPDEST DUP7 SSTORE POP PUSH3 0x39D JUMP JUMPDEST PUSH1 0x1F NOT DUP5 AND PUSH3 0x347 DUP7 PUSH3 0xF5 JUMP JUMPDEST PUSH0 JUMPDEST DUP3 DUP2 LT ISZERO PUSH3 0x370 JUMPI DUP5 DUP10 ADD MLOAD DUP3 SSTORE PUSH1 0x1 DUP3 ADD SWAP2 POP PUSH1 0x20 DUP6 ADD SWAP5 POP PUSH1 0x20 DUP2 ADD SWAP1 POP PUSH3 0x349 JUMP JUMPDEST DUP7 DUP4 LT ISZERO PUSH3 0x390 JUMPI DUP5 DUP10 ADD MLOAD PUSH3 0x38C PUSH1 0x1F DUP10 AND DUP3 PUSH3 0x286 JUMP JUMPDEST DUP4 SSTORE POP JUMPDEST PUSH1 0x1 PUSH1 0x2 DUP9 MUL ADD DUP9 SSTORE POP POP POP JUMPDEST POP POP POP POP POP POP JUMP JUMPDEST PUSH2 0x9AB DUP1 PUSH3 0x3B3 PUSH0 CODECOPY PUSH0 RETURN INVALID PUSH1 0x80 PUSH1 0x40 MSTORE CALLVALUE DUP1 ISZERO PUSH2 0xF JUMPI PUSH0 DUP1 REVERT JUMPDEST POP PUSH1 0x4 CALLDATASIZE LT PUSH2 0x60 JUMPI PUSH0 CALLDATALOAD PUSH1 0xE0 SHR DUP1 PUSH4 0x2CB777A6 EQ PUSH2 0x64 JUMPI DUP1 PUSH4 0x5949B1DC EQ PUSH2 0x82 JUMPI DUP1 PUSH4 0x5CE25353 EQ PUSH2 0x9E JUMPI DUP1 PUSH4 0xC261FA36 EQ PUSH2 0xCE JUMPI DUP1 PUSH4 0xC3CCF402 EQ PUSH2 0xEC JUMPI DUP1 PUSH4 0xCEDDB7B1 EQ PUSH2 0x108 JUMPI JUMPDEST PUSH0 DUP1 REVERT JUMPDEST PUSH2 0x6C PUSH2 0x124 JUMP JUMPDEST PUSH1 0x40 MLOAD PUSH2 0x79 SWAP2 SWAP1 PUSH2 0x264 JUMP JUMPDEST PUSH1 0x40 MLOAD DUP1 SWAP2 SUB SWAP1 RETURN JUMPDEST PUSH2 0x9C PUSH1 0x4 DUP1 CALLDATASIZE SUB DUP2 ADD SWAP1 PUSH2 0x97 SWAP2 SWAP1 PUSH2 0x2B8 JUMP JUMPDEST PUSH2 0x12A JUMP JUMPDEST STOP JUMPDEST PUSH2 0xB8 PUSH1 0x4 DUP1 CALLDATASIZE SUB DUP2 ADD SWAP1 PUSH2 0xB3 SWAP2 SWAP1 PUSH2 0x41F JUMP JUMPDEST PUSH2 0x141 JUMP JUMPDEST PUSH1 0x40 MLOAD PUSH2 0xC5 SWAP2 SWAP1 PUSH2 0x480 JUMP JUMPDEST PUSH1 0x40 MLOAD DUP1 SWAP2 SUB SWAP1 RETURN JUMPDEST PUSH2 0xD6 PUSH2 0x198 JUMP JUMPDEST PUSH1 0x40 MLOAD PUSH2 0xE3 SWAP2 SWAP1 PUSH2 0x513 JUMP JUMPDEST PUSH1 0x40 MLOAD DUP1 SWAP2 SUB SWAP1 RETURN JUMPDEST PUSH2 0x106 PUSH1 0x4 DUP1 CALLDATASIZE SUB DUP2 ADD SWAP1 PUSH2 0x101 SWAP2 SWAP1 PUSH2 0x41F JUMP JUMPDEST PUSH2 0x223 JUMP JUMPDEST STOP JUMPDEST PUSH2 0x122 PUSH1 0x4 DUP1 CALLDATASIZE SUB DUP2 ADD SWAP1 PUSH2 0x11D SWAP2 SWAP1 PUSH2 0x2B8 JUMP JUMPDEST PUSH2 0x235 JUMP JUMPDEST STOP JUMPDEST PUSH1 0x1 SLOAD DUP2 JUMP JUMPDEST DUP1 PUSH1 0x1 SLOAD PUSH2 0x138 SWAP2 SWAP1 PUSH2 0x560 JUMP JUMPDEST PUSH1 0x1 DUP2 SWAP1 SSTORE POP POP JUMP JUMPDEST PUSH0 DUP2 PUSH1 0x40 MLOAD PUSH1 0x20 ADD PUSH2 0x153 SWAP2 SWAP1 PUSH2 0x5CD JUMP JUMPDEST PUSH1 0x40 MLOAD PUSH1 0x20 DUP2 DUP4 SUB SUB DUP2 MSTORE SWAP1 PUSH1 0x40 MSTORE DUP1 MLOAD SWAP1 PUSH1 0x20 ADD KECCAK256 PUSH0 PUSH1 0x40 MLOAD PUSH1 0x20 ADD PUSH2 0x17A SWAP2 SWAP1 PUSH2 0x6D2 JUMP JUMPDEST PUSH1 0x40 MLOAD PUSH1 0x20 DUP2 DUP4 SUB SUB DUP2 MSTORE SWAP1 PUSH1 0x40 MSTORE DUP1 MLOAD SWAP1 PUSH1 0x20 ADD KECCAK256 EQ SWAP1 POP SWAP2 SWAP1 POP JUMP JUMPDEST PUSH0 DUP1 SLOAD PUSH2 0x1A4 SWAP1 PUSH2 0x610 JUMP JUMPDEST DUP1 PUSH1 0x1F ADD PUSH1 0x20 DUP1 SWAP2 DIV MUL PUSH1 0x20 ADD PUSH1 0x40 MLOAD SWAP1 DUP2 ADD PUSH1 0x40 MSTORE DUP1 SWAP3 SWAP2 SWAP1 DUP2 DUP2 MSTORE PUSH1 0x20 ADD DUP3 DUP1 SLOAD PUSH2 0x1D0 SWAP1 PUSH2 0x610 JUMP JUMPDEST DUP1 ISZERO PUSH2 0x21B JUMPI DUP1 PUSH1 0x1F LT PUSH2 0x1F2 JUMPI PUSH2 0x100 DUP1 DUP4 SLOAD DIV MUL DUP4 MSTORE SWAP2 PUSH1 0x20 ADD SWAP2 PUSH2 0x21B JUMP JUMPDEST DUP3 ADD SWAP2 SWAP1 PUSH0 MSTORE PUSH1 0x20 PUSH0 KECCAK256 SWAP1 JUMPDEST DUP2 SLOAD DUP2 MSTORE SWAP1 PUSH1 0x1 ADD SWAP1 PUSH1 0x20 ADD DUP1 DUP4 GT PUSH2 0x1FE JUMPI DUP3 SWAP1 SUB PUSH1 0x1F AND DUP3 ADD SWAP2 JUMPDEST POP POP POP POP POP DUP2 JUMP JUMPDEST DUP1 PUSH0 SWAP1 DUP2 PUSH2 0x231 SWAP2 SWAP1 PUSH2 0x873 JUMP JUMPDEST POP POP JUMP JUMPDEST DUP1 PUSH1 0x1 SLOAD PUSH2 0x243 SWAP2 SWAP1 PUSH2 0x942 JUMP JUMPDEST PUSH1 0x1 DUP2 SWAP1 SSTORE POP POP JUMP JUMPDEST PUSH0 DUP2 SWAP1 POP SWAP2 SWAP1 POP JUMP JUMPDEST PUSH2 0x25E DUP2 PUSH2 0x24C JUMP JUMPDEST DUP3 MSTORE POP POP JUMP JUMPDEST PUSH0 PUSH1 0x20 DUP3 ADD SWAP1 POP PUSH2 0x277 PUSH0 DUP4 ADD DUP5 PUSH2 0x255 JUMP JUMPDEST SWAP3 SWAP2 POP POP JUMP JUMPDEST PUSH0 PUSH1 0x40 MLOAD SWAP1 POP SWAP1 JUMP JUMPDEST PUSH0 DUP1 REVERT JUMPDEST PUSH0 DUP1 REVERT JUMPDEST PUSH2 0x297 DUP2 PUSH2 0x24C JUMP JUMPDEST DUP2 EQ PUSH2 0x2A1 JUMPI PUSH0 DUP1 REVERT JUMPDEST POP JUMP JUMPDEST PUSH0 DUP2 CALLDATALOAD SWAP1 POP PUSH2 0x2B2 DUP2 PUSH2 0x28E JUMP JUMPDEST SWAP3 SWAP2 POP POP JUMP JUMPDEST PUSH0 PUSH1 0x20 DUP3 DUP5 SUB SLT ISZERO PUSH2 0x2CD JUMPI PUSH2 0x2CC PUSH2 0x286 JUMP JUMPDEST JUMPDEST PUSH0 PUSH2 0x2DA DUP5 DUP3 DUP6 ADD PUSH2 0x2A4 JUMP JUMPDEST SWAP2 POP POP SWAP3 SWAP2 POP POP JUMP JUMPDEST PUSH0 DUP1 REVERT JUMPDEST PUSH0 DUP1 REVERT JUMPDEST PUSH0 PUSH1 0x1F NOT PUSH1 0x1F DUP4 ADD AND SWAP1 POP SWAP2 SWAP1 POP JUMP JUMPDEST PUSH32 0x4E487B7100000000000000000000000000000000000000000000000000000000 PUSH0 MSTORE PUSH1 0x41 PUSH1 0x4 MSTORE PUSH1 0x24 PUSH0 REVERT JUMPDEST PUSH2 0x331 DUP3 PUSH2 0x2EB JUMP JUMPDEST DUP2 ADD DUP2 DUP2 LT PUSH8 0xFFFFFFFFFFFFFFFF DUP3 GT OR ISZERO PUSH2 0x350 JUMPI PUSH2 0x34F PUSH2 0x2FB JUMP JUMPDEST JUMPDEST DUP1 PUSH1 0x40 MSTORE POP POP POP JUMP JUMPDEST PUSH0 PUSH2 0x362 PUSH2 0x27D JUMP JUMPDEST SWAP1 POP PUSH2 0x36E DUP3 DUP3 PUSH2 0x328 JUMP JUMPDEST SWAP2 SWAP1 POP JUMP JUMPDEST PUSH0 PUSH8 0xFFFFFFFFFFFFFFFF DUP3 GT ISZERO PUSH2 0x38D JUMPI PUSH2 0x38C PUSH2 0x2FB JUMP JUMPDEST JUMPDEST PUSH2 0x396 DUP3 PUSH2 0x2EB JUMP JUMPDEST SWAP1 POP PUSH1 0x20 DUP2 ADD SWAP1 POP SWAP2 SWAP1 POP JUMP JUMPDEST DUP3 DUP2 DUP4 CALLDATACOPY PUSH0 DUP4 DUP4 ADD MSTORE POP POP POP JUMP JUMPDEST PUSH0 PUSH2 0x3C3 PUSH2 0x3BE DUP5 PUSH2 0x373 JUMP JUMPDEST PUSH2 0x359 JUMP JUMPDEST SWAP1 POP DUP3 DUP2 MSTORE PUSH1 0x20 DUP2 ADD DUP5 DUP5 DUP5 ADD GT ISZERO PUSH2 0x3DF JUMPI PUSH2 0x3DE PUSH2 0x2E7 JUMP JUMPDEST JUMPDEST PUSH2 0x3EA DUP5 DUP3 DUP6 PUSH2 0x3A3 JUMP JUMPDEST POP SWAP4 SWAP3 POP POP POP JUMP JUMPDEST PUSH0 DUP3 PUSH1 0x1F DUP4 ADD SLT PUSH2 0x406 JUMPI PUSH2 0x405 PUSH2 0x2E3 JUMP JUMPDEST JUMPDEST DUP2 CALLDATALOAD PUSH2 0x416 DUP5 DUP3 PUSH1 0x20 DUP7 ADD PUSH2 0x3B1 JUMP JUMPDEST SWAP2 POP POP SWAP3 SWAP2 POP POP JUMP JUMPDEST PUSH0 PUSH1 0x20 DUP3 DUP5 SUB SLT ISZERO PUSH2 0x434 JUMPI PUSH2 0x433 PUSH2 0x286 JUMP JUMPDEST JUMPDEST PUSH0 DUP3 ADD CALLDATALOAD PUSH8 0xFFFFFFFFFFFFFFFF DUP2 GT ISZERO PUSH2 0x451 JUMPI PUSH2 0x450 PUSH2 0x28A JUMP JUMPDEST JUMPDEST PUSH2 0x45D DUP5 DUP3 DUP6 ADD PUSH2 0x3F2 JUMP JUMPDEST SWAP2 POP POP SWAP3 SWAP2 POP POP JUMP JUMPDEST PUSH0 DUP2 ISZERO ISZERO SWAP1 POP SWAP2 SWAP1 POP JUMP JUMPDEST PUSH2 0x47A DUP2 PUSH2 0x466 JUMP JUMPDEST DUP3 MSTORE POP POP JUMP JUMPDEST PUSH0 PUSH1 0x20 DUP3 ADD SWAP1 POP PUSH2 0x493 PUSH0 DUP4 ADD DUP5 PUSH2 0x471 JUMP JUMPDEST SWAP3 SWAP2 POP POP JUMP JUMPDEST PUSH0 DUP2 MLOAD SWAP1 POP SWAP2 SWAP1 POP JUMP JUMPDEST PUSH0 DUP3 DUP3 MSTORE PUSH1 0x20 DUP3 ADD SWAP1 POP SWAP3 SWAP2 POP POP JUMP JUMPDEST PUSH0 JUMPDEST DUP4 DUP2 LT ISZERO PUSH2 0x4D0 JUMPI DUP1 DUP3 ADD MLOAD DUP2 DUP5 ADD MSTORE PUSH1 0x20 DUP2 ADD SWAP1 POP PUSH2 0x4B5 JUMP JUMPDEST PUSH0 DUP5 DUP5 ADD MSTORE POP POP POP POP JUMP JUMPDEST PUSH0 PUSH2 0x4E5 DUP3 PUSH2 0x499 JUMP JUMPDEST PUSH2 0x4EF DUP2 DUP6 PUSH2 0x4A3 JUMP JUMPDEST SWAP4 POP PUSH2 0x4FF DUP2 DUP6 PUSH1 0x20 DUP7 ADD PUSH2 0x4B3 JUMP JUMPDEST PUSH2 0x508 DUP2 PUSH2 0x2EB JUMP JUMPDEST DUP5 ADD SWAP2 POP POP SWAP3 SWAP2 POP POP JUMP JUMPDEST PUSH0 PUSH1 0x20 DUP3 ADD SWAP1 POP DUP2 DUP2 SUB PUSH0 DUP4 ADD MSTORE PUSH2 0x52B DUP2 DUP5 PUSH2 0x4DB JUMP JUMPDEST SWAP1 POP SWAP3 SWAP2 POP POP JUMP JUMPDEST PUSH32 0x4E487B7100000000000000000000000000000000000000000000000000000000 PUSH0 MSTORE PUSH1 0x11 PUSH1 0x4 MSTORE PUSH1 0x24 PUSH0 REVERT JUMPDEST PUSH0 PUSH2 0x56A DUP3 PUSH2 0x24C JUMP JUMPDEST SWAP2 POP PUSH2 0x575 DUP4 PUSH2 0x24C JUMP JUMPDEST SWAP3 POP DUP3 DUP3 SUB SWAP1 POP DUP2 DUP2 GT ISZERO PUSH2 0x58D JUMPI PUSH2 0x58C PUSH2 0x533 JUMP JUMPDEST JUMPDEST SWAP3 SWAP2 POP POP JUMP JUMPDEST PUSH0 DUP2 SWAP1 POP SWAP3 SWAP2 POP POP JUMP JUMPDEST PUSH0 PUSH2 0x5A7 DUP3 PUSH2 0x499 JUMP JUMPDEST PUSH2 0x5B1 DUP2 DUP6 PUSH2 0x593 JUMP JUMPDEST SWAP4 POP PUSH2 0x5C1 DUP2 DUP6 PUSH1 0x20 DUP7 ADD PUSH2 0x4B3 JUMP JUMPDEST DUP1 DUP5 ADD SWAP2 POP POP SWAP3 SWAP2 POP POP JUMP JUMPDEST PUSH0 PUSH2 0x5D8 DUP3 DUP5 PUSH2 0x59D JUMP JUMPDEST SWAP2 POP DUP2 SWAP1 POP SWAP3 SWAP2 POP POP JUMP JUMPDEST PUSH32 0x4E487B7100000000000000000000000000000000000000000000000000000000 PUSH0 MSTORE PUSH1 0x22 PUSH1 0x4 MSTORE PUSH1 0x24 PUSH0 REVERT JUMPDEST PUSH0 PUSH1 0x2 DUP3 DIV SWAP1 POP PUSH1 0x1 DUP3 AND DUP1 PUSH2 0x627 JUMPI PUSH1 0x7F DUP3 AND SWAP2 POP JUMPDEST PUSH1 0x20 DUP3 LT DUP2 SUB PUSH2 0x63A JUMPI PUSH2 0x639 PUSH2 0x5E3 JUMP JUMPDEST JUMPDEST POP SWAP2 SWAP1 POP JUMP JUMPDEST PUSH0 DUP2 SWAP1 POP DUP2 PUSH0 MSTORE PUSH1 0x20 PUSH0 KECCAK256 SWAP1 POP SWAP2 SWAP1 POP JUMP JUMPDEST PUSH0 DUP2 SLOAD PUSH2 0x65E DUP2 PUSH2 0x610 JUMP JUMPDEST PUSH2 0x668 DUP2 DUP7 PUSH2 0x593 JUMP JUMPDEST SWAP5 POP PUSH1 0x1 DUP3 AND PUSH0 DUP2 EQ PUSH2 0x682 JUMPI PUSH1 0x1 DUP2 EQ PUSH2 0x697 JUMPI PUSH2 0x6C9 JUMP JUMPDEST PUSH1 0xFF NOT DUP4 AND DUP7 MSTORE DUP2 ISZERO ISZERO DUP3 MUL DUP7 ADD SWAP4 POP PUSH2 0x6C9 JUMP JUMPDEST PUSH2 0x6A0 DUP6 PUSH2 0x640 JUMP JUMPDEST PUSH0 JUMPDEST DUP4 DUP2 LT ISZERO PUSH2 0x6C1 JUMPI DUP2 SLOAD DUP2 DUP10 ADD MSTORE PUSH1 0x1 DUP3 ADD SWAP2 POP PUSH1 0x20 DUP2 ADD SWAP1 POP PUSH2 0x6A2 JUMP JUMPDEST DUP4 DUP9 ADD SWAP6 POP POP POP JUMPDEST POP POP POP SWAP3 SWAP2 POP POP JUMP JUMPDEST PUSH0 PUSH2 0x6DD DUP3 DUP5 PUSH2 0x652 JUMP JUMPDEST SWAP2 POP DUP2 SWAP1 POP SWAP3 SWAP2 POP POP JUMP JUMPDEST PUSH0 PUSH1 0x20 PUSH1 0x1F DUP4 ADD DIV SWAP1 POP SWAP2 SWAP1 POP JUMP JUMPDEST PUSH0 DUP3 DUP3 SHL SWAP1 POP SWAP3 SWAP2 POP POP JUMP JUMPDEST PUSH0 PUSH1 0x8 DUP4 MUL PUSH2 0x732 PUSH32 0xFFFFFFFFFFFFFFFFFFFFFFFFFFFFFFFFFFFFFFFFFFFFFFFFFFFFFFFFFFFFFFFF DUP3 PUSH2 0x6F7 JUMP JUMPDEST PUSH2 0x73C DUP7 DUP4 PUSH2 0x6F7 JUMP JUMPDEST SWAP6 POP DUP1 NOT DUP5 AND SWAP4 POP DUP1 DUP7 AND DUP5 OR SWAP3 POP POP POP SWAP4 SWAP3 POP POP POP JUMP JUMPDEST PUSH0 DUP2 SWAP1 POP SWAP2 SWAP1 POP JUMP JUMPDEST PUSH0 PUSH2 0x777 PUSH2 0x772 PUSH2 0x76D DUP5 PUSH2 0x24C JUMP JUMPDEST PUSH2 0x754 JUMP JUMPDEST PUSH2 0x24C JUMP JUMPDEST SWAP1 POP SWAP2 SWAP1 POP JUMP JUMPDEST PUSH0 DUP2 SWAP1 POP SWAP2 SWAP1 POP JUMP JUMPDEST PUSH2 0x790 DUP4 PUSH2 0x75D JUMP JUMPDEST PUSH2 0x7A4 PUSH2 0x79C DUP3 PUSH2 0x77E JUMP JUMPDEST DUP5 DUP5 SLOAD PUSH2 0x703 JUMP JUMPDEST DUP3 SSTORE POP POP POP POP JUMP JUMPDEST PUSH0 SWAP1 JUMP JUMPDEST PUSH2 0x7B8 PUSH2 0x7AC JUMP JUMPDEST PUSH2 0x7C3 DUP2 DUP5 DUP5 PUSH2 0x787 JUMP JUMPDEST POP POP POP JUMP JUMPDEST JUMPDEST DUP2 DUP2 LT ISZERO PUSH2 0x7E6 JUMPI PUSH2 0x7DB PUSH0 DUP3 PUSH2 0x7B0 JUMP JUMPDEST PUSH1 0x1 DUP2 ADD SWAP1 POP PUSH2 0x7C9 JUMP JUMPDEST POP POP JUMP JUMPDEST PUSH1 0x1F DUP3 GT ISZERO PUSH2 0x82B JUMPI PUSH2 0x7FC DUP2 PUSH2 0x640 JUMP JUMPDEST PUSH2 0x805 DUP5 PUSH2 0x6E8 JUMP JUMPDEST DUP2 ADD PUSH1 0x20 DUP6 LT ISZERO PUSH2 0x814 JUMPI DUP2 SWAP1 POP JUMPDEST PUSH2 0x828 PUSH2 0x820 DUP6 PUSH2 0x6E8 JUMP JUMPDEST DUP4 ADD DUP3 PUSH2 0x7C8 JUMP JUMPDEST POP POP JUMPDEST POP POP POP JUMP JUMPDEST PUSH0 DUP3 DUP3 SHR SWAP1 POP SWAP3 SWAP2 POP POP JUMP JUMPDEST PUSH0 PUSH2 0x84B PUSH0 NOT DUP5 PUSH1 0x8 MUL PUSH2 0x830 JUMP JUMPDEST NOT DUP1 DUP4 AND SWAP2 POP POP SWAP3 SWAP2 POP POP JUMP JUMPDEST PUSH0 PUSH2 0x863 DUP4 DUP4 PUSH2 0x83C JUMP JUMPDEST SWAP2 POP DUP3 PUSH1 0x2 MUL DUP3 OR SWAP1 POP SWAP3 SWAP2 POP POP JUMP JUMPDEST PUSH2 0x87C DUP3 PUSH2 0x499 JUMP JUMPDEST PUSH8 0xFFFFFFFFFFFFFFFF DUP2 GT ISZERO PUSH2 0x895 JUMPI PUSH2 0x894 PUSH2 0x2FB JUMP JUMPDEST JUMPDEST PUSH2 0x89F DUP3 SLOAD PUSH2 0x610 JUMP JUMPDEST PUSH2 0x8AA DUP3 DUP3 DUP6 PUSH2 0x7EA JUMP JUMPDEST PUSH0 PUSH1 0x20 SWAP1 POP PUSH1 0x1F DUP4 GT PUSH1 0x1 DUP2 EQ PUSH2 0x8DB JUMPI PUSH0 DUP5 ISZERO PUSH2 0x8C9 JUMPI DUP3 DUP8 ADD MLOAD SWAP1 POP JUMPDEST PUSH2 0x8D3 DUP6 DUP3 PUSH2 0x858 JUMP JUMPDEST DUP7 SSTORE POP PUSH2 0x93A JUMP JUMPDEST PUSH1 0x1F NOT DUP5 AND PUSH2 0x8E9 DUP7 PUSH2 0x640 JUMP JUMPDEST PUSH0 JUMPDEST DUP3 DUP2 LT ISZERO PUSH2 0x910 JUMPI DUP5 DUP10 ADD MLOAD DUP3 SSTORE PUSH1 0x1 DUP3 ADD SWAP2 POP PUSH1 0x20 DUP6 ADD SWAP5 POP PUSH1 0x20 DUP2 ADD SWAP1 POP PUSH2 0x8EB JUMP JUMPDEST DUP7 DUP4 LT ISZERO PUSH2 0x92D JUMPI DUP5 DUP10 ADD MLOAD PUSH2 0x929 PUSH1 0x1F DUP10 AND DUP3 PUSH2 0x83C JUMP JUMPDEST DUP4 SSTORE POP JUMPDEST PUSH1 0x1 PUSH1 0x2 DUP9 MUL ADD DUP9 SSTORE POP POP POP JUMPDEST POP POP POP POP POP POP JUMP JUMPDEST PUSH0 PUSH2 0x94C DUP3 PUSH2 0x24C JUMP JUMPDEST SWAP2 POP PUSH2 0x957 DUP4 PUSH2 0x24C JUMP JUMPDEST SWAP3 POP DUP3 DUP3 ADD SWAP1 POP DUP1 DUP3 GT ISZERO PUSH2 0x96F JUMPI PUSH2 0x96E PUSH2 0x533 JUMP JUMPDEST JUMPDEST SWAP3 SWAP2 POP POP JUMP INVALID LOG2 PUSH5 0x6970667358 0x22 SLT KECCAK256 SWAP2 CALLDATACOPY MOD 0xC3 GT 0xD6 0xB6 ISZERO PUSH30 0x5653485E9263AEEFEB71D90DEB53A4F7096F10F643C43064736F6C634300 ADDMOD EQ STOP CALLER "
				},
				"gasEstimates": {
					"creation": {
						"codeDepositCost": "495000",
						"executionCost": "infinite",
						"totalCost": "infinite"
					},
					"external": {
						"compareTwoStrings(string)": "infinite",
						"decrementMyInt(uint256)": "infinite",
						"incrementMyInt(uint256)": "infinite",
						"myInt()": "2403",
						"mystring()": "infinite",
						"updateString(string)": "infinite"
					}
				},
				"methodIdentifiers": {
					"compareTwoStrings(string)": "5ce25353",
					"decrementMyInt(uint256)": "5949b1dc",
					"incrementMyInt(uint256)": "ceddb7b1",
					"myInt()": "2cb777a6",
					"mystring()": "c261fa36",
					"updateString(string)": "c3ccf402"
				}
			},
			"storageLayout": {
				"storage": [
					{
						"astId": 4,
						"contract": "remix-project-files/contracts/myCodeFiles/MyContract.sol:MyContract",
						"label": "mystring",
						"offset": 0,
						"slot": "0",
						"type": "t_string_storage"
					},
					{
						"astId": 6,
						"contract": "remix-project-files/contracts/myCodeFiles/MyContract.sol:MyContract",
						"label": "myInt",
						"offset": 0,
						"slot": "1",
						"type": "t_uint256"
					}
				],
				"types": {
					"t_string_storage": {
						"encoding": "bytes",
						"label": "string",
						"numberOfBytes": "32"
					},
					"t_uint256": {
						"encoding": "inplace",
						"label": "uint256",
						"numberOfBytes": "32"
					}
				}
			},
			"userdoc": {
				"kind": "user",
				"methods": {},
				"version": 1
			}
		}
	}
}