{
	"remix-project-files/contracts/lowLevelContractInteractions/ExampleSendAndTransfer.sol": {
		"ReceiverNoAction": {
			"abi": [
				{
					"inputs": [],
					"name": "getBalanace",
					"outputs": [
						{
							"internalType": "uint256",
							"name": "",
							"type": "uint256"
						}
					],
					"stateMutability": "view",
					"type": "function"
				},
				{
					"stateMutability": "payable",
					"type": "receive"
				}
			],
			"devdoc": {
				"kind": "dev",
				"methods": {},
				"version": 1
			},
			"evm": {
				"assembly": "    /* \"remix-project-files/contracts/lowLevelContractInteractions/ExampleSendAndTransfer.sol\":1057:1321  contract ReceiverNoAction {... */\n  mstore(0x40, 0x80)\n  callvalue\n  dup1\n  iszero\n  tag_1\n  jumpi\n  0x00\n  dup1\n  revert\ntag_1:\n  pop\n  dataSize(sub_0)\n  dup1\n  dataOffset(sub_0)\n  0x00\n  codecopy\n  0x00\n  return\nstop\n\nsub_0: assembly {\n        /* \"remix-project-files/contracts/lowLevelContractInteractions/ExampleSendAndTransfer.sol\":1057:1321  contract ReceiverNoAction {... */\n      mstore(0x40, 0x80)\n      jumpi(tag_1, lt(calldatasize, 0x04))\n      shr(0xe0, calldataload(0x00))\n      dup1\n      0x44643434\n      eq\n      tag_3\n      jumpi\n      jump(tag_2)\n    tag_1:\n      jumpi(tag_2, calldatasize)\n      stop\n    tag_2:\n      0x00\n      dup1\n      revert\n        /* \"remix-project-files/contracts/lowLevelContractInteractions/ExampleSendAndTransfer.sol\":1181:1318  function getBalanace() public view returns (uint) {... */\n    tag_3:\n      callvalue\n      dup1\n      iszero\n      tag_6\n      jumpi\n      0x00\n      dup1\n      revert\n    tag_6:\n      pop\n      tag_7\n      tag_8\n      jump\t// in\n    tag_7:\n      mload(0x40)\n      tag_9\n      swap2\n      swap1\n      tag_10\n      jump\t// in\n    tag_9:\n      mload(0x40)\n      dup1\n      swap2\n      sub\n      swap1\n      return\n    tag_8:\n        /* \"remix-project-files/contracts/lowLevelContractInteractions/ExampleSendAndTransfer.sol\":1225:1229  uint */\n      0x00\n        /* \"remix-project-files/contracts/lowLevelContractInteractions/ExampleSendAndTransfer.sol\":1248:1269  address(this).balance */\n      selfbalance\n        /* \"remix-project-files/contracts/lowLevelContractInteractions/ExampleSendAndTransfer.sol\":1241:1269  return address(this).balance */\n      swap1\n      pop\n        /* \"remix-project-files/contracts/lowLevelContractInteractions/ExampleSendAndTransfer.sol\":1181:1318  function getBalanace() public view returns (uint) {... */\n      swap1\n      jump\t// out\n        /* \"#utility.yul\":7:84   */\n    tag_12:\n        /* \"#utility.yul\":44:51   */\n      0x00\n        /* \"#utility.yul\":73:78   */\n      dup2\n        /* \"#utility.yul\":62:78   */\n      swap1\n      pop\n        /* \"#utility.yul\":7:84   */\n      swap2\n      swap1\n      pop\n      jump\t// out\n        /* \"#utility.yul\":90:208   */\n    tag_13:\n        /* \"#utility.yul\":177:201   */\n      tag_17\n        /* \"#utility.yul\":195:200   */\n      dup2\n        /* \"#utility.yul\":177:201   */\n      tag_12\n      jump\t// in\n    tag_17:\n        /* \"#utility.yul\":172:175   */\n      dup3\n        /* \"#utility.yul\":165:202   */\n      mstore\n        /* \"#utility.yul\":90:208   */\n      pop\n      pop\n      jump\t// out\n        /* \"#utility.yul\":214:436   */\n    tag_10:\n        /* \"#utility.yul\":307:311   */\n      0x00\n        /* \"#utility.yul\":345:347   */\n      0x20\n        /* \"#utility.yul\":334:343   */\n      dup3\n        /* \"#utility.yul\":330:348   */\n      add\n        /* \"#utility.yul\":322:348   */\n      swap1\n      pop\n        /* \"#utility.yul\":358:429   */\n      tag_19\n        /* \"#utility.yul\":426:427   */\n      0x00\n        /* \"#utility.yul\":415:424   */\n      dup4\n        /* \"#utility.yul\":411:428   */\n      add\n        /* \"#utility.yul\":402:408   */\n      dup5\n        /* \"#utility.yul\":358:429   */\n      tag_13\n      jump\t// in\n    tag_19:\n        /* \"#utility.yul\":214:436   */\n      swap3\n      swap2\n      pop\n      pop\n      jump\t// out\n\n    auxdata: 0xa2646970667358221220156e72568292329e13fdfca02a9c5e5da520c740f056fd13b80d768fdf11c52e64736f6c63430008140033\n}\n",
				"bytecode": {
					"linkReferences": {},
					"object": "608060405234801561000f575f80fd5b5060b78061001c5f395ff3fe608060405260043610601e575f3560e01c806344643434146028576024565b36602457005b5f80fd5b3480156032575f80fd5b506039604d565b60405160449190606a565b60405180910390f35b5f47905090565b5f819050919050565b6064816054565b82525050565b5f602082019050607b5f830184605d565b9291505056fea2646970667358221220156e72568292329e13fdfca02a9c5e5da520c740f056fd13b80d768fdf11c52e64736f6c63430008140033",
					"opcodes": "PUSH1 0x80 PUSH1 0x40 MSTORE CALLVALUE DUP1 ISZERO PUSH2 0xF JUMPI PUSH0 DUP1 REVERT JUMPDEST POP PUSH1 0xB7 DUP1 PUSH2 0x1C PUSH0 CODECOPY PUSH0 RETURN INVALID PUSH1 0x80 PUSH1 0x40 MSTORE PUSH1 0x4 CALLDATASIZE LT PUSH1 0x1E JUMPI PUSH0 CALLDATALOAD PUSH1 0xE0 SHR DUP1 PUSH4 0x44643434 EQ PUSH1 0x28 JUMPI PUSH1 0x24 JUMP JUMPDEST CALLDATASIZE PUSH1 0x24 JUMPI STOP JUMPDEST PUSH0 DUP1 REVERT JUMPDEST CALLVALUE DUP1 ISZERO PUSH1 0x32 JUMPI PUSH0 DUP1 REVERT JUMPDEST POP PUSH1 0x39 PUSH1 0x4D JUMP JUMPDEST PUSH1 0x40 MLOAD PUSH1 0x44 SWAP2 SWAP1 PUSH1 0x6A JUMP JUMPDEST PUSH1 0x40 MLOAD DUP1 SWAP2 SUB SWAP1 RETURN JUMPDEST PUSH0 SELFBALANCE SWAP1 POP SWAP1 JUMP JUMPDEST PUSH0 DUP2 SWAP1 POP SWAP2 SWAP1 POP JUMP JUMPDEST PUSH1 0x64 DUP2 PUSH1 0x54 JUMP JUMPDEST DUP3 MSTORE POP POP JUMP JUMPDEST PUSH0 PUSH1 0x20 DUP3 ADD SWAP1 POP PUSH1 0x7B PUSH0 DUP4 ADD DUP5 PUSH1 0x5D JUMP JUMPDEST SWAP3 SWAP2 POP POP JUMP INVALID LOG2 PUSH5 0x6970667358 0x22 SLT KECCAK256 ISZERO PUSH15 0x72568292329E13FDFCA02A9C5E5DA5 KECCAK256 0xC7 BLOCKHASH CREATE JUMP REVERT SGT 0xB8 0xD PUSH23 0x8FDF11C52E64736F6C6343000814003300000000000000 "
				},
				"gasEstimates": {
					"creation": {
						"codeDepositCost": "36600",
						"executionCost": "85",
						"totalCost": "36685"
					},
					"external": {
						"getBalanace()": "312"
					}
				},
				"methodIdentifiers": {
					"getBalanace()": "44643434"
				}
			},
			"storageLayout": {
				"storage": [],
				"types": null
			},
			"userdoc": {
				"kind": "user",
				"methods": {},
				"version": 1
			}
		}
	}
}