{
	"remix-project-files/contracts/lowLevelContractInteractions/SendMoreGasToContracts.sol": {
		"ContractTwo": {
			"abi": [
				{
					"inputs": [],
					"name": "deposit",
					"outputs": [],
					"stateMutability": "payable",
					"type": "function"
				},
				{
					"inputs": [
						{
							"internalType": "address",
							"name": "_contractOneAddress",
							"type": "address"
						}
					],
					"name": "depositToContractOne",
					"outputs": [],
					"stateMutability": "nonpayable",
					"type": "function"
				}
			],
			"devdoc": {
				"kind": "dev",
				"methods": {},
				"version": 1
			},
			"evm": {
				"assembly": "    /* \"remix-project-files/contracts/lowLevelContractInteractions/SendMoreGasToContracts.sol\":1107:1729  contract ContractTwo {... */\n  mstore(0x40, 0x80)\n  callvalue\n  dup1\n  iszero\n  tag_1\n  jumpi\n  0x00\n  dup1\n  revert\ntag_1:\n  pop\n  dataSize(sub_0)\n  dup1\n  dataOffset(sub_0)\n  0x00\n  codecopy\n  0x00\n  return\nstop\n\nsub_0: assembly {\n        /* \"remix-project-files/contracts/lowLevelContractInteractions/SendMoreGasToContracts.sol\":1107:1729  contract ContractTwo {... */\n      mstore(0x40, 0x80)\n      jumpi(tag_1, lt(calldatasize, 0x04))\n      shr(0xe0, calldataload(0x00))\n      dup1\n      0x9962d69d\n      eq\n      tag_2\n      jumpi\n      dup1\n      0xd0e30db0\n      eq\n      tag_3\n      jumpi\n    tag_1:\n      0x00\n      dup1\n      revert\n        /* \"remix-project-files/contracts/lowLevelContractInteractions/SendMoreGasToContracts.sol\":1231:1726  function depositToContractOne(address _contractOneAddress) public {... */\n    tag_2:\n      callvalue\n      dup1\n      iszero\n      tag_4\n      jumpi\n      0x00\n      dup1\n      revert\n    tag_4:\n      pop\n      tag_5\n      0x04\n      dup1\n      calldatasize\n      sub\n      dup2\n      add\n      swap1\n      tag_6\n      swap2\n      swap1\n      tag_7\n      jump\t// in\n    tag_6:\n      tag_8\n      jump\t// in\n    tag_5:\n      stop\n        /* \"remix-project-files/contracts/lowLevelContractInteractions/SendMoreGasToContracts.sol\":1135:1225  function deposit() public payable {... */\n    tag_3:\n      tag_9\n      tag_10\n      jump\t// in\n    tag_9:\n      stop\n        /* \"remix-project-files/contracts/lowLevelContractInteractions/SendMoreGasToContracts.sol\":1231:1726  function depositToContractOne(address _contractOneAddress) public {... */\n    tag_8:\n        /* \"remix-project-files/contracts/lowLevelContractInteractions/SendMoreGasToContracts.sol\":1307:1322  ContractOne one */\n      0x00\n        /* \"remix-project-files/contracts/lowLevelContractInteractions/SendMoreGasToContracts.sol\":1337:1356  _contractOneAddress */\n      dup2\n        /* \"remix-project-files/contracts/lowLevelContractInteractions/SendMoreGasToContracts.sol\":1307:1357  ContractOne one = ContractOne(_contractOneAddress) */\n      swap1\n      pop\n        /* \"remix-project-files/contracts/lowLevelContractInteractions/SendMoreGasToContracts.sol\":1612:1615  one */\n      dup1\n        /* \"remix-project-files/contracts/lowLevelContractInteractions/SendMoreGasToContracts.sol\":1612:1623  one.deposit */\n      0xffffffffffffffffffffffffffffffffffffffff\n      and\n      0xd0e30db0\n        /* \"remix-project-files/contracts/lowLevelContractInteractions/SendMoreGasToContracts.sol\":1631:1633  10 */\n      0x0a\n        /* \"remix-project-files/contracts/lowLevelContractInteractions/SendMoreGasToContracts.sol\":1640:1646  100000 */\n      0x0186a0\n        /* \"remix-project-files/contracts/lowLevelContractInteractions/SendMoreGasToContracts.sol\":1612:1649  one.deposit{value: 10, gas: 100000}() */\n      swap1\n      mload(0x40)\n      dup4\n      0xffffffff\n      and\n      0xe0\n      shl\n      dup2\n      mstore\n      0x04\n      add\n      0x00\n      mload(0x40)\n      dup1\n      dup4\n      sub\n      dup2\n      dup6\n      dup10\n      dup1\n      extcodesize\n      iszero\n      dup1\n      iszero\n      tag_12\n      jumpi\n      0x00\n      dup1\n      revert\n    tag_12:\n      pop\n      dup9\n      call\n      iszero\n      dup1\n      iszero\n      tag_14\n      jumpi\n      returndatasize\n      0x00\n      dup1\n      returndatacopy\n      revert(0x00, returndatasize)\n    tag_14:\n      pop\n      pop\n      pop\n      pop\n      pop\n      pop\n        /* \"remix-project-files/contracts/lowLevelContractInteractions/SendMoreGasToContracts.sol\":1297:1726  {... */\n      pop\n        /* \"remix-project-files/contracts/lowLevelContractInteractions/SendMoreGasToContracts.sol\":1231:1726  function depositToContractOne(address _contractOneAddress) public {... */\n      pop\n      jump\t// out\n        /* \"remix-project-files/contracts/lowLevelContractInteractions/SendMoreGasToContracts.sol\":1135:1225  function deposit() public payable {... */\n    tag_10:\n      jump\t// out\n        /* \"#utility.yul\":88:205   */\n    tag_17:\n        /* \"#utility.yul\":197:198   */\n      0x00\n        /* \"#utility.yul\":194:195   */\n      dup1\n        /* \"#utility.yul\":187:199   */\n      revert\n        /* \"#utility.yul\":334:460   */\n    tag_19:\n        /* \"#utility.yul\":371:378   */\n      0x00\n        /* \"#utility.yul\":411:453   */\n      0xffffffffffffffffffffffffffffffffffffffff\n        /* \"#utility.yul\":404:409   */\n      dup3\n        /* \"#utility.yul\":400:454   */\n      and\n        /* \"#utility.yul\":389:454   */\n      swap1\n      pop\n        /* \"#utility.yul\":334:460   */\n      swap2\n      swap1\n      pop\n      jump\t// out\n        /* \"#utility.yul\":466:562   */\n    tag_20:\n        /* \"#utility.yul\":503:510   */\n      0x00\n        /* \"#utility.yul\":532:556   */\n      tag_29\n        /* \"#utility.yul\":550:555   */\n      dup3\n        /* \"#utility.yul\":532:556   */\n      tag_19\n      jump\t// in\n    tag_29:\n        /* \"#utility.yul\":521:556   */\n      swap1\n      pop\n        /* \"#utility.yul\":466:562   */\n      swap2\n      swap1\n      pop\n      jump\t// out\n        /* \"#utility.yul\":568:690   */\n    tag_21:\n        /* \"#utility.yul\":641:665   */\n      tag_31\n        /* \"#utility.yul\":659:664   */\n      dup2\n        /* \"#utility.yul\":641:665   */\n      tag_20\n      jump\t// in\n    tag_31:\n        /* \"#utility.yul\":634:639   */\n      dup2\n        /* \"#utility.yul\":631:666   */\n      eq\n        /* \"#utility.yul\":621:684   */\n      tag_32\n      jumpi\n        /* \"#utility.yul\":680:681   */\n      0x00\n        /* \"#utility.yul\":677:678   */\n      dup1\n        /* \"#utility.yul\":670:682   */\n      revert\n        /* \"#utility.yul\":621:684   */\n    tag_32:\n        /* \"#utility.yul\":568:690   */\n      pop\n      jump\t// out\n        /* \"#utility.yul\":696:835   */\n    tag_22:\n        /* \"#utility.yul\":742:747   */\n      0x00\n        /* \"#utility.yul\":780:786   */\n      dup2\n        /* \"#utility.yul\":767:787   */\n      calldataload\n        /* \"#utility.yul\":758:787   */\n      swap1\n      pop\n        /* \"#utility.yul\":796:829   */\n      tag_34\n        /* \"#utility.yul\":823:828   */\n      dup2\n        /* \"#utility.yul\":796:829   */\n      tag_21\n      jump\t// in\n    tag_34:\n        /* \"#utility.yul\":696:835   */\n      swap3\n      swap2\n      pop\n      pop\n      jump\t// out\n        /* \"#utility.yul\":841:1170   */\n    tag_7:\n        /* \"#utility.yul\":900:906   */\n      0x00\n        /* \"#utility.yul\":949:951   */\n      0x20\n        /* \"#utility.yul\":937:946   */\n      dup3\n        /* \"#utility.yul\":928:935   */\n      dup5\n        /* \"#utility.yul\":924:947   */\n      sub\n        /* \"#utility.yul\":920:952   */\n      slt\n        /* \"#utility.yul\":917:1036   */\n      iszero\n      tag_36\n      jumpi\n        /* \"#utility.yul\":955:1034   */\n      tag_37\n      tag_17\n      jump\t// in\n    tag_37:\n        /* \"#utility.yul\":917:1036   */\n    tag_36:\n        /* \"#utility.yul\":1075:1076   */\n      0x00\n        /* \"#utility.yul\":1100:1153   */\n      tag_38\n        /* \"#utility.yul\":1145:1152   */\n      dup5\n        /* \"#utility.yul\":1136:1142   */\n      dup3\n        /* \"#utility.yul\":1125:1134   */\n      dup6\n        /* \"#utility.yul\":1121:1143   */\n      add\n        /* \"#utility.yul\":1100:1153   */\n      tag_22\n      jump\t// in\n    tag_38:\n        /* \"#utility.yul\":1090:1153   */\n      swap2\n      pop\n        /* \"#utility.yul\":1046:1163   */\n      pop\n        /* \"#utility.yul\":841:1170   */\n      swap3\n      swap2\n      pop\n      pop\n      jump\t// out\n\n    auxdata: 0xa26469706673582212200554b4373998ac724b41b877ea3aee3128c3563da2161201b8d2c52059d987b064736f6c63430008140033\n}\n",
				"bytecode": {
					"linkReferences": {},
					"object": "608060405234801561000f575f80fd5b5061018b8061001d5f395ff3fe608060405260043610610028575f3560e01c80639962d69d1461002c578063d0e30db014610054575b5f80fd5b348015610037575f80fd5b50610052600480360381019061004d919061012a565b61005e565b005b61005c6100ca565b005b5f8190508073ffffffffffffffffffffffffffffffffffffffff1663d0e30db0600a620186a0906040518363ffffffff1660e01b81526004015f604051808303818589803b1580156100ae575f80fd5b5088f11580156100c0573d5f803e3d5ffd5b5050505050505050565b565b5f80fd5b5f73ffffffffffffffffffffffffffffffffffffffff82169050919050565b5f6100f9826100d0565b9050919050565b610109816100ef565b8114610113575f80fd5b50565b5f8135905061012481610100565b92915050565b5f6020828403121561013f5761013e6100cc565b5b5f61014c84828501610116565b9150509291505056fea26469706673582212200554b4373998ac724b41b877ea3aee3128c3563da2161201b8d2c52059d987b064736f6c63430008140033",
					"opcodes": "PUSH1 0x80 PUSH1 0x40 MSTORE CALLVALUE DUP1 ISZERO PUSH2 0xF JUMPI PUSH0 DUP1 REVERT JUMPDEST POP PUSH2 0x18B DUP1 PUSH2 0x1D PUSH0 CODECOPY PUSH0 RETURN INVALID PUSH1 0x80 PUSH1 0x40 MSTORE PUSH1 0x4 CALLDATASIZE LT PUSH2 0x28 JUMPI PUSH0 CALLDATALOAD PUSH1 0xE0 SHR DUP1 PUSH4 0x9962D69D EQ PUSH2 0x2C JUMPI DUP1 PUSH4 0xD0E30DB0 EQ PUSH2 0x54 JUMPI JUMPDEST PUSH0 DUP1 REVERT JUMPDEST CALLVALUE DUP1 ISZERO PUSH2 0x37 JUMPI PUSH0 DUP1 REVERT JUMPDEST POP PUSH2 0x52 PUSH1 0x4 DUP1 CALLDATASIZE SUB DUP2 ADD SWAP1 PUSH2 0x4D SWAP2 SWAP1 PUSH2 0x12A JUMP JUMPDEST PUSH2 0x5E JUMP JUMPDEST STOP JUMPDEST PUSH2 0x5C PUSH2 0xCA JUMP JUMPDEST STOP JUMPDEST PUSH0 DUP2 SWAP1 POP DUP1 PUSH20 0xFFFFFFFFFFFFFFFFFFFFFFFFFFFFFFFFFFFFFFFF AND PUSH4 0xD0E30DB0 PUSH1 0xA PUSH3 0x186A0 SWAP1 PUSH1 0x40 MLOAD DUP4 PUSH4 0xFFFFFFFF AND PUSH1 0xE0 SHL DUP2 MSTORE PUSH1 0x4 ADD PUSH0 PUSH1 0x40 MLOAD DUP1 DUP4 SUB DUP2 DUP6 DUP10 DUP1 EXTCODESIZE ISZERO DUP1 ISZERO PUSH2 0xAE JUMPI PUSH0 DUP1 REVERT JUMPDEST POP DUP9 CALL ISZERO DUP1 ISZERO PUSH2 0xC0 JUMPI RETURNDATASIZE PUSH0 DUP1 RETURNDATACOPY RETURNDATASIZE PUSH0 REVERT JUMPDEST POP POP POP POP POP POP POP POP JUMP JUMPDEST JUMP JUMPDEST PUSH0 DUP1 REVERT JUMPDEST PUSH0 PUSH20 0xFFFFFFFFFFFFFFFFFFFFFFFFFFFFFFFFFFFFFFFF DUP3 AND SWAP1 POP SWAP2 SWAP1 POP JUMP JUMPDEST PUSH0 PUSH2 0xF9 DUP3 PUSH2 0xD0 JUMP JUMPDEST SWAP1 POP SWAP2 SWAP1 POP JUMP JUMPDEST PUSH2 0x109 DUP2 PUSH2 0xEF JUMP JUMPDEST DUP2 EQ PUSH2 0x113 JUMPI PUSH0 DUP1 REVERT JUMPDEST POP JUMP JUMPDEST PUSH0 DUP2 CALLDATALOAD SWAP1 POP PUSH2 0x124 DUP2 PUSH2 0x100 JUMP JUMPDEST SWAP3 SWAP2 POP POP JUMP JUMPDEST PUSH0 PUSH1 0x20 DUP3 DUP5 SUB SLT ISZERO PUSH2 0x13F JUMPI PUSH2 0x13E PUSH2 0xCC JUMP JUMPDEST JUMPDEST PUSH0 PUSH2 0x14C DUP5 DUP3 DUP6 ADD PUSH2 0x116 JUMP JUMPDEST SWAP2 POP POP SWAP3 SWAP2 POP POP JUMP INVALID LOG2 PUSH5 0x6970667358 0x22 SLT KECCAK256 SDIV SLOAD 0xB4 CALLDATACOPY CODECOPY SWAP9 0xAC PUSH19 0x4B41B877EA3AEE3128C3563DA2161201B8D2C5 KECCAK256 MSIZE 0xD9 DUP8 0xB0 PUSH5 0x736F6C6343 STOP ADDMOD EQ STOP CALLER "
				},
				"gasEstimates": {
					"creation": {
						"codeDepositCost": "79000",
						"executionCost": "127",
						"totalCost": "79127"
					},
					"external": {
						"deposit()": "119",
						"depositToContractOne(address)": "infinite"
					}
				},
				"methodIdentifiers": {
					"deposit()": "d0e30db0",
					"depositToContractOne(address)": "9962d69d"
				}
			},
			"storageLayout": {
				"storage": [],
				"types": null
			},
			"userdoc": {
				"kind": "user",
				"methods": {},
				"version": 1
			}
		}
	}
}