{
	"remix-project-files/contracts/lowLevelContractInteractions/SendMoreGasToContracts.sol": {
		"ContractOne": {
			"abi": [
				{
					"inputs": [],
					"name": "deposit",
					"outputs": [],
					"stateMutability": "payable",
					"type": "function"
				},
				{
					"inputs": [],
					"name": "getAddressBalance",
					"outputs": [
						{
							"internalType": "uint256",
							"name": "",
							"type": "uint256"
						}
					],
					"stateMutability": "view",
					"type": "function"
				},
				{
					"inputs": [],
					"name": "getTotalContractBalance",
					"outputs": [
						{
							"internalType": "uint256",
							"name": "",
							"type": "uint256"
						}
					],
					"stateMutability": "view",
					"type": "function"
				}
			],
			"devdoc": {
				"kind": "dev",
				"methods": {},
				"version": 1
			},
			"evm": {
				"assembly": "    /* \"remix-project-files/contracts/lowLevelContractInteractions/SendMoreGasToContracts.sol\":709:1104  contract ContractOne {... */\n  mstore(0x40, 0x80)\n  callvalue\n  dup1\n  iszero\n  tag_1\n  jumpi\n  0x00\n  dup1\n  revert\ntag_1:\n  pop\n  dataSize(sub_0)\n  dup1\n  dataOffset(sub_0)\n  0x00\n  codecopy\n  0x00\n  return\nstop\n\nsub_0: assembly {\n        /* \"remix-project-files/contracts/lowLevelContractInteractions/SendMoreGasToContracts.sol\":709:1104  contract ContractOne {... */\n      mstore(0x40, 0x80)\n      jumpi(tag_1, lt(calldatasize, 0x04))\n      shr(0xe0, calldataload(0x00))\n      dup1\n      0x75eb2ad1\n      eq\n      tag_2\n      jumpi\n      dup1\n      0xd0e30db0\n      eq\n      tag_3\n      jumpi\n      dup1\n      0xd9e3fd64\n      eq\n      tag_4\n      jumpi\n    tag_1:\n      0x00\n      dup1\n      revert\n        /* \"remix-project-files/contracts/lowLevelContractInteractions/SendMoreGasToContracts.sol\":784:891  function getAddressBalance() public view returns (uint) {... */\n    tag_2:\n      callvalue\n      dup1\n      iszero\n      tag_5\n      jumpi\n      0x00\n      dup1\n      revert\n    tag_5:\n      pop\n      tag_6\n      tag_7\n      jump\t// in\n    tag_6:\n      mload(0x40)\n      tag_8\n      swap2\n      swap1\n      tag_9\n      jump\t// in\n    tag_8:\n      mload(0x40)\n      dup1\n      swap2\n      sub\n      swap1\n      return\n        /* \"remix-project-files/contracts/lowLevelContractInteractions/SendMoreGasToContracts.sol\":1010:1101  function deposit() public payable {... */\n    tag_3:\n      tag_10\n      tag_11\n      jump\t// in\n    tag_10:\n      stop\n        /* \"remix-project-files/contracts/lowLevelContractInteractions/SendMoreGasToContracts.sol\":897:1004  function getTotalContractBalance() public view returns (uint) {... */\n    tag_4:\n      callvalue\n      dup1\n      iszero\n      tag_12\n      jumpi\n      0x00\n      dup1\n      revert\n    tag_12:\n      pop\n      tag_13\n      tag_14\n      jump\t// in\n    tag_13:\n      mload(0x40)\n      tag_15\n      swap2\n      swap1\n      tag_9\n      jump\t// in\n    tag_15:\n      mload(0x40)\n      dup1\n      swap2\n      sub\n      swap1\n      return\n        /* \"remix-project-files/contracts/lowLevelContractInteractions/SendMoreGasToContracts.sol\":784:891  function getAddressBalance() public view returns (uint) {... */\n    tag_7:\n        /* \"remix-project-files/contracts/lowLevelContractInteractions/SendMoreGasToContracts.sol\":834:838  uint */\n      0x00\n        /* \"remix-project-files/contracts/lowLevelContractInteractions/SendMoreGasToContracts.sol\":857:872  addressBalances */\n      dup1\n        /* \"remix-project-files/contracts/lowLevelContractInteractions/SendMoreGasToContracts.sol\":857:884  addressBalances[msg.sender] */\n      0x00\n        /* \"remix-project-files/contracts/lowLevelContractInteractions/SendMoreGasToContracts.sol\":873:883  msg.sender */\n      caller\n        /* \"remix-project-files/contracts/lowLevelContractInteractions/SendMoreGasToContracts.sol\":857:884  addressBalances[msg.sender] */\n      0xffffffffffffffffffffffffffffffffffffffff\n      and\n      0xffffffffffffffffffffffffffffffffffffffff\n      and\n      dup2\n      mstore\n      0x20\n      add\n      swap1\n      dup2\n      mstore\n      0x20\n      add\n      0x00\n      keccak256\n      sload\n        /* \"remix-project-files/contracts/lowLevelContractInteractions/SendMoreGasToContracts.sol\":850:884  return addressBalances[msg.sender] */\n      swap1\n      pop\n        /* \"remix-project-files/contracts/lowLevelContractInteractions/SendMoreGasToContracts.sol\":784:891  function getAddressBalance() public view returns (uint) {... */\n      swap1\n      jump\t// out\n        /* \"remix-project-files/contracts/lowLevelContractInteractions/SendMoreGasToContracts.sol\":1010:1101  function deposit() public payable {... */\n    tag_11:\n        /* \"remix-project-files/contracts/lowLevelContractInteractions/SendMoreGasToContracts.sol\":1085:1094  msg.value */\n      callvalue\n        /* \"remix-project-files/contracts/lowLevelContractInteractions/SendMoreGasToContracts.sol\":1054:1069  addressBalances */\n      0x00\n        /* \"remix-project-files/contracts/lowLevelContractInteractions/SendMoreGasToContracts.sol\":1054:1081  addressBalances[msg.sender] */\n      dup1\n        /* \"remix-project-files/contracts/lowLevelContractInteractions/SendMoreGasToContracts.sol\":1070:1080  msg.sender */\n      caller\n        /* \"remix-project-files/contracts/lowLevelContractInteractions/SendMoreGasToContracts.sol\":1054:1081  addressBalances[msg.sender] */\n      0xffffffffffffffffffffffffffffffffffffffff\n      and\n      0xffffffffffffffffffffffffffffffffffffffff\n      and\n      dup2\n      mstore\n      0x20\n      add\n      swap1\n      dup2\n      mstore\n      0x20\n      add\n      0x00\n      keccak256\n      0x00\n        /* \"remix-project-files/contracts/lowLevelContractInteractions/SendMoreGasToContracts.sol\":1054:1094  addressBalances[msg.sender] += msg.value */\n      dup3\n      dup3\n      sload\n      tag_18\n      swap2\n      swap1\n      tag_19\n      jump\t// in\n    tag_18:\n      swap3\n      pop\n      pop\n      dup2\n      swap1\n      sstore\n      pop\n        /* \"remix-project-files/contracts/lowLevelContractInteractions/SendMoreGasToContracts.sol\":1010:1101  function deposit() public payable {... */\n      jump\t// out\n        /* \"remix-project-files/contracts/lowLevelContractInteractions/SendMoreGasToContracts.sol\":897:1004  function getTotalContractBalance() public view returns (uint) {... */\n    tag_14:\n        /* \"remix-project-files/contracts/lowLevelContractInteractions/SendMoreGasToContracts.sol\":953:957  uint */\n      0x00\n        /* \"remix-project-files/contracts/lowLevelContractInteractions/SendMoreGasToContracts.sol\":976:997  address(this).balance */\n      selfbalance\n        /* \"remix-project-files/contracts/lowLevelContractInteractions/SendMoreGasToContracts.sol\":969:997  return address(this).balance */\n      swap1\n      pop\n        /* \"remix-project-files/contracts/lowLevelContractInteractions/SendMoreGasToContracts.sol\":897:1004  function getTotalContractBalance() public view returns (uint) {... */\n      swap1\n      jump\t// out\n        /* \"#utility.yul\":7:84   */\n    tag_21:\n        /* \"#utility.yul\":44:51   */\n      0x00\n        /* \"#utility.yul\":73:78   */\n      dup2\n        /* \"#utility.yul\":62:78   */\n      swap1\n      pop\n        /* \"#utility.yul\":7:84   */\n      swap2\n      swap1\n      pop\n      jump\t// out\n        /* \"#utility.yul\":90:208   */\n    tag_22:\n        /* \"#utility.yul\":177:201   */\n      tag_27\n        /* \"#utility.yul\":195:200   */\n      dup2\n        /* \"#utility.yul\":177:201   */\n      tag_21\n      jump\t// in\n    tag_27:\n        /* \"#utility.yul\":172:175   */\n      dup3\n        /* \"#utility.yul\":165:202   */\n      mstore\n        /* \"#utility.yul\":90:208   */\n      pop\n      pop\n      jump\t// out\n        /* \"#utility.yul\":214:436   */\n    tag_9:\n        /* \"#utility.yul\":307:311   */\n      0x00\n        /* \"#utility.yul\":345:347   */\n      0x20\n        /* \"#utility.yul\":334:343   */\n      dup3\n        /* \"#utility.yul\":330:348   */\n      add\n        /* \"#utility.yul\":322:348   */\n      swap1\n      pop\n        /* \"#utility.yul\":358:429   */\n      tag_29\n        /* \"#utility.yul\":426:427   */\n      0x00\n        /* \"#utility.yul\":415:424   */\n      dup4\n        /* \"#utility.yul\":411:428   */\n      add\n        /* \"#utility.yul\":402:408   */\n      dup5\n        /* \"#utility.yul\":358:429   */\n      tag_22\n      jump\t// in\n    tag_29:\n        /* \"#utility.yul\":214:436   */\n      swap3\n      swap2\n      pop\n      pop\n      jump\t// out\n        /* \"#utility.yul\":442:622   */\n    tag_23:\n        /* \"#utility.yul\":490:567   */\n      0x4e487b7100000000000000000000000000000000000000000000000000000000\n        /* \"#utility.yul\":487:488   */\n      0x00\n        /* \"#utility.yul\":480:568   */\n      mstore\n        /* \"#utility.yul\":587:591   */\n      0x11\n        /* \"#utility.yul\":584:585   */\n      0x04\n        /* \"#utility.yul\":577:592   */\n      mstore\n        /* \"#utility.yul\":611:615   */\n      0x24\n        /* \"#utility.yul\":608:609   */\n      0x00\n        /* \"#utility.yul\":601:616   */\n      revert\n        /* \"#utility.yul\":628:819   */\n    tag_19:\n        /* \"#utility.yul\":668:671   */\n      0x00\n        /* \"#utility.yul\":687:707   */\n      tag_32\n        /* \"#utility.yul\":705:706   */\n      dup3\n        /* \"#utility.yul\":687:707   */\n      tag_21\n      jump\t// in\n    tag_32:\n        /* \"#utility.yul\":682:707   */\n      swap2\n      pop\n        /* \"#utility.yul\":721:741   */\n      tag_33\n        /* \"#utility.yul\":739:740   */\n      dup4\n        /* \"#utility.yul\":721:741   */\n      tag_21\n      jump\t// in\n    tag_33:\n        /* \"#utility.yul\":716:741   */\n      swap3\n      pop\n        /* \"#utility.yul\":764:765   */\n      dup3\n        /* \"#utility.yul\":761:762   */\n      dup3\n        /* \"#utility.yul\":757:766   */\n      add\n        /* \"#utility.yul\":750:766   */\n      swap1\n      pop\n        /* \"#utility.yul\":785:788   */\n      dup1\n        /* \"#utility.yul\":782:783   */\n      dup3\n        /* \"#utility.yul\":779:789   */\n      gt\n        /* \"#utility.yul\":776:812   */\n      iszero\n      tag_34\n      jumpi\n        /* \"#utility.yul\":792:810   */\n      tag_35\n      tag_23\n      jump\t// in\n    tag_35:\n        /* \"#utility.yul\":776:812   */\n    tag_34:\n        /* \"#utility.yul\":628:819   */\n      swap3\n      swap2\n      pop\n      pop\n      jump\t// out\n\n    auxdata: 0xa26469706673582212202c614c419e8662086f5a92a8e4cf23a36f9db8e6e119d75ae94f0d6c320dd8bc64736f6c63430008140033\n}\n",
				"bytecode": {
					"linkReferences": {},
					"object": "608060405234801561000f575f80fd5b506101fa8061001d5f395ff3fe608060405260043610610033575f3560e01c806375eb2ad114610037578063d0e30db014610061578063d9e3fd641461006b575b5f80fd5b348015610042575f80fd5b5061004b610095565b604051610058919061014b565b60405180910390f35b6100696100d8565b005b348015610076575f80fd5b5061007f61012c565b60405161008c919061014b565b60405180910390f35b5f805f3373ffffffffffffffffffffffffffffffffffffffff1673ffffffffffffffffffffffffffffffffffffffff1681526020019081526020015f2054905090565b345f803373ffffffffffffffffffffffffffffffffffffffff1673ffffffffffffffffffffffffffffffffffffffff1681526020019081526020015f205f8282546101239190610191565b92505081905550565b5f47905090565b5f819050919050565b61014581610133565b82525050565b5f60208201905061015e5f83018461013c565b92915050565b7f4e487b71000000000000000000000000000000000000000000000000000000005f52601160045260245ffd5b5f61019b82610133565b91506101a683610133565b92508282019050808211156101be576101bd610164565b5b9291505056fea26469706673582212202c614c419e8662086f5a92a8e4cf23a36f9db8e6e119d75ae94f0d6c320dd8bc64736f6c63430008140033",
					"opcodes": "PUSH1 0x80 PUSH1 0x40 MSTORE CALLVALUE DUP1 ISZERO PUSH2 0xF JUMPI PUSH0 DUP1 REVERT JUMPDEST POP PUSH2 0x1FA DUP1 PUSH2 0x1D PUSH0 CODECOPY PUSH0 RETURN INVALID PUSH1 0x80 PUSH1 0x40 MSTORE PUSH1 0x4 CALLDATASIZE LT PUSH2 0x33 JUMPI PUSH0 CALLDATALOAD PUSH1 0xE0 SHR DUP1 PUSH4 0x75EB2AD1 EQ PUSH2 0x37 JUMPI DUP1 PUSH4 0xD0E30DB0 EQ PUSH2 0x61 JUMPI DUP1 PUSH4 0xD9E3FD64 EQ PUSH2 0x6B JUMPI JUMPDEST PUSH0 DUP1 REVERT JUMPDEST CALLVALUE DUP1 ISZERO PUSH2 0x42 JUMPI PUSH0 DUP1 REVERT JUMPDEST POP PUSH2 0x4B PUSH2 0x95 JUMP JUMPDEST PUSH1 0x40 MLOAD PUSH2 0x58 SWAP2 SWAP1 PUSH2 0x14B JUMP JUMPDEST PUSH1 0x40 MLOAD DUP1 SWAP2 SUB SWAP1 RETURN JUMPDEST PUSH2 0x69 PUSH2 0xD8 JUMP JUMPDEST STOP JUMPDEST CALLVALUE DUP1 ISZERO PUSH2 0x76 JUMPI PUSH0 DUP1 REVERT JUMPDEST POP PUSH2 0x7F PUSH2 0x12C JUMP JUMPDEST PUSH1 0x40 MLOAD PUSH2 0x8C SWAP2 SWAP1 PUSH2 0x14B JUMP JUMPDEST PUSH1 0x40 MLOAD DUP1 SWAP2 SUB SWAP1 RETURN JUMPDEST PUSH0 DUP1 PUSH0 CALLER PUSH20 0xFFFFFFFFFFFFFFFFFFFFFFFFFFFFFFFFFFFFFFFF AND PUSH20 0xFFFFFFFFFFFFFFFFFFFFFFFFFFFFFFFFFFFFFFFF AND DUP2 MSTORE PUSH1 0x20 ADD SWAP1 DUP2 MSTORE PUSH1 0x20 ADD PUSH0 KECCAK256 SLOAD SWAP1 POP SWAP1 JUMP JUMPDEST CALLVALUE PUSH0 DUP1 CALLER PUSH20 0xFFFFFFFFFFFFFFFFFFFFFFFFFFFFFFFFFFFFFFFF AND PUSH20 0xFFFFFFFFFFFFFFFFFFFFFFFFFFFFFFFFFFFFFFFF AND DUP2 MSTORE PUSH1 0x20 ADD SWAP1 DUP2 MSTORE PUSH1 0x20 ADD PUSH0 KECCAK256 PUSH0 DUP3 DUP3 SLOAD PUSH2 0x123 SWAP2 SWAP1 PUSH2 0x191 JUMP JUMPDEST SWAP3 POP POP DUP2 SWAP1 SSTORE POP JUMP JUMPDEST PUSH0 SELFBALANCE SWAP1 POP SWAP1 JUMP JUMPDEST PUSH0 DUP2 SWAP1 POP SWAP2 SWAP1 POP JUMP JUMPDEST PUSH2 0x145 DUP2 PUSH2 0x133 JUMP JUMPDEST DUP3 MSTORE POP POP JUMP JUMPDEST PUSH0 PUSH1 0x20 DUP3 ADD SWAP1 POP PUSH2 0x15E PUSH0 DUP4 ADD DUP5 PUSH2 0x13C JUMP JUMPDEST SWAP3 SWAP2 POP POP JUMP JUMPDEST PUSH32 0x4E487B7100000000000000000000000000000000000000000000000000000000 PUSH0 MSTORE PUSH1 0x11 PUSH1 0x4 MSTORE PUSH1 0x24 PUSH0 REVERT JUMPDEST PUSH0 PUSH2 0x19B DUP3 PUSH2 0x133 JUMP JUMPDEST SWAP2 POP PUSH2 0x1A6 DUP4 PUSH2 0x133 JUMP JUMPDEST SWAP3 POP DUP3 DUP3 ADD SWAP1 POP DUP1 DUP3 GT ISZERO PUSH2 0x1BE JUMPI PUSH2 0x1BD PUSH2 0x164 JUMP JUMPDEST JUMPDEST SWAP3 SWAP2 POP POP JUMP INVALID LOG2 PUSH5 0x6970667358 0x22 SLT KECCAK256 0x2C PUSH2 0x4C41 SWAP15 DUP7 PUSH3 0x86F5A SWAP3 0xA8 0xE4 0xCF 0x23 LOG3 PUSH16 0x9DB8E6E119D75AE94F0D6C320DD8BC64 PUSH20 0x6F6C634300081400330000000000000000000000 "
				},
				"gasEstimates": {
					"creation": {
						"codeDepositCost": "101200",
						"executionCost": "145",
						"totalCost": "101345"
					},
					"external": {
						"deposit()": "infinite",
						"getAddressBalance()": "2497",
						"getTotalContractBalance()": "356"
					}
				},
				"methodIdentifiers": {
					"deposit()": "d0e30db0",
					"getAddressBalance()": "75eb2ad1",
					"getTotalContractBalance()": "d9e3fd64"
				}
			},
			"storageLayout": {
				"storage": [
					{
						"astId": 5,
						"contract": "remix-project-files/contracts/lowLevelContractInteractions/SendMoreGasToContracts.sol:ContractOne",
						"label": "addressBalances",
						"offset": 0,
						"slot": "0",
						"type": "t_mapping(t_address,t_uint256)"
					}
				],
				"types": {
					"t_address": {
						"encoding": "inplace",
						"label": "address",
						"numberOfBytes": "20"
					},
					"t_mapping(t_address,t_uint256)": {
						"encoding": "mapping",
						"key": "t_address",
						"label": "mapping(address => uint256)",
						"numberOfBytes": "32",
						"value": "t_uint256"
					},
					"t_uint256": {
						"encoding": "inplace",
						"label": "uint256",
						"numberOfBytes": "32"
					}
				}
			},
			"userdoc": {
				"kind": "user",
				"methods": {},
				"version": 1
			}
		}
	}
}