{
	"remix-project-files/contracts/Exceptions/ExampleExceptionRequire.sol": {
		"ExampleExceptionRequire": {
			"abi": [
				{
					"inputs": [],
					"name": "addMoney",
					"outputs": [],
					"stateMutability": "payable",
					"type": "function"
				},
				{
					"inputs": [
						{
							"internalType": "address",
							"name": "",
							"type": "address"
						}
					],
					"name": "addressBalance",
					"outputs": [
						{
							"internalType": "uint8",
							"name": "",
							"type": "uint8"
						}
					],
					"stateMutability": "view",
					"type": "function"
				},
				{
					"inputs": [
						{
							"internalType": "address payable",
							"name": "_to",
							"type": "address"
						},
						{
							"internalType": "uint8",
							"name": "_amountRequested",
							"type": "uint8"
						}
					],
					"name": "withdrawMoney",
					"outputs": [],
					"stateMutability": "nonpayable",
					"type": "function"
				}
			],
			"devdoc": {
				"kind": "dev",
				"methods": {},
				"version": 1
			},
			"evm": {
				"assembly": "    /* \"remix-project-files/contracts/Exceptions/ExampleExceptionRequire.sol\":57:596  contract ExampleExceptionRequire {... */\n  mstore(0x40, 0x80)\n  callvalue\n  dup1\n  iszero\n  tag_1\n  jumpi\n  0x00\n  dup1\n  revert\ntag_1:\n  pop\n  dataSize(sub_0)\n  dup1\n  dataOffset(sub_0)\n  0x00\n  codecopy\n  0x00\n  return\nstop\n\nsub_0: assembly {\n        /* \"remix-project-files/contracts/Exceptions/ExampleExceptionRequire.sol\":57:596  contract ExampleExceptionRequire {... */\n      mstore(0x40, 0x80)\n      jumpi(tag_1, lt(calldatasize, 0x04))\n      shr(0xe0, calldataload(0x00))\n      dup1\n      0x1b3f4842\n      eq\n      tag_2\n      jumpi\n      dup1\n      0x3ec4de35\n      eq\n      tag_3\n      jumpi\n      dup1\n      0x67c114b8\n      eq\n      tag_4\n      jumpi\n    tag_1:\n      0x00\n      dup1\n      revert\n        /* \"remix-project-files/contracts/Exceptions/ExampleExceptionRequire.sol\":151:297  function addMoney() public payable {... */\n    tag_2:\n      tag_5\n      tag_6\n      jump\t// in\n    tag_5:\n      stop\n        /* \"remix-project-files/contracts/Exceptions/ExampleExceptionRequire.sol\":97:144  mapping(address => uint8) public addressBalance */\n    tag_3:\n      callvalue\n      dup1\n      iszero\n      tag_7\n      jumpi\n      0x00\n      dup1\n      revert\n    tag_7:\n      pop\n      tag_8\n      0x04\n      dup1\n      calldatasize\n      sub\n      0x20\n      dup2\n      lt\n      iszero\n      tag_9\n      jumpi\n      0x00\n      dup1\n      revert\n    tag_9:\n      dup2\n      add\n      swap1\n      dup1\n      dup1\n      calldataload\n      0xffffffffffffffffffffffffffffffffffffffff\n      and\n      swap1\n      0x20\n      add\n      swap1\n      swap3\n      swap2\n      swap1\n      pop\n      pop\n      pop\n      tag_10\n      jump\t// in\n    tag_8:\n      mload(0x40)\n      dup1\n      dup3\n      0xff\n      and\n      dup2\n      mstore\n      0x20\n      add\n      swap2\n      pop\n      pop\n      mload(0x40)\n      dup1\n      swap2\n      sub\n      swap1\n      return\n        /* \"remix-project-files/contracts/Exceptions/ExampleExceptionRequire.sol\":303:592  function withdrawMoney(address payable _to, uint8 _amountRequested) public {... */\n    tag_4:\n      callvalue\n      dup1\n      iszero\n      tag_11\n      jumpi\n      0x00\n      dup1\n      revert\n    tag_11:\n      pop\n      tag_12\n      0x04\n      dup1\n      calldatasize\n      sub\n      0x40\n      dup2\n      lt\n      iszero\n      tag_13\n      jumpi\n      0x00\n      dup1\n      revert\n    tag_13:\n      dup2\n      add\n      swap1\n      dup1\n      dup1\n      calldataload\n      0xffffffffffffffffffffffffffffffffffffffff\n      and\n      swap1\n      0x20\n      add\n      swap1\n      swap3\n      swap2\n      swap1\n      dup1\n      calldataload\n      0xff\n      and\n      swap1\n      0x20\n      add\n      swap1\n      swap3\n      swap2\n      swap1\n      pop\n      pop\n      pop\n      tag_14\n      jump\t// in\n    tag_12:\n      stop\n        /* \"remix-project-files/contracts/Exceptions/ExampleExceptionRequire.sol\":151:297  function addMoney() public payable {... */\n    tag_6:\n        /* \"remix-project-files/contracts/Exceptions/ExampleExceptionRequire.sol\":222:231  msg.value */\n      callvalue\n        /* \"remix-project-files/contracts/Exceptions/ExampleExceptionRequire.sol\":203:232  msg.value == uint8(msg.value) */\n      0xff\n      and\n        /* \"remix-project-files/contracts/Exceptions/ExampleExceptionRequire.sol\":203:212  msg.value */\n      callvalue\n        /* \"remix-project-files/contracts/Exceptions/ExampleExceptionRequire.sol\":203:232  msg.value == uint8(msg.value) */\n      eq\n        /* \"remix-project-files/contracts/Exceptions/ExampleExceptionRequire.sol\":196:233  assert(msg.value == uint8(msg.value)) */\n      tag_16\n      jumpi\n      invalid\n    tag_16:\n        /* \"remix-project-files/contracts/Exceptions/ExampleExceptionRequire.sol\":279:288  msg.value */\n      callvalue\n        /* \"remix-project-files/contracts/Exceptions/ExampleExceptionRequire.sol\":243:257  addressBalance */\n      0x00\n        /* \"remix-project-files/contracts/Exceptions/ExampleExceptionRequire.sol\":243:269  addressBalance[msg.sender] */\n      dup1\n        /* \"remix-project-files/contracts/Exceptions/ExampleExceptionRequire.sol\":258:268  msg.sender */\n      caller\n        /* \"remix-project-files/contracts/Exceptions/ExampleExceptionRequire.sol\":243:269  addressBalance[msg.sender] */\n      0xffffffffffffffffffffffffffffffffffffffff\n      and\n      0xffffffffffffffffffffffffffffffffffffffff\n      and\n      dup2\n      mstore\n      0x20\n      add\n      swap1\n      dup2\n      mstore\n      0x20\n      add\n      0x00\n      keccak256\n      0x00\n        /* \"remix-project-files/contracts/Exceptions/ExampleExceptionRequire.sol\":243:289  addressBalance[msg.sender] += uint8(msg.value) */\n      dup3\n      dup3\n      dup3\n      swap1\n      sload\n      swap1\n      0x0100\n      exp\n      swap1\n      div\n      0xff\n      and\n      add\n      swap3\n      pop\n      0x0100\n      exp\n      dup2\n      sload\n      dup2\n      0xff\n      mul\n      not\n      and\n      swap1\n      dup4\n      0xff\n      and\n      mul\n      or\n      swap1\n      sstore\n      pop\n        /* \"remix-project-files/contracts/Exceptions/ExampleExceptionRequire.sol\":151:297  function addMoney() public payable {... */\n      jump\t// out\n        /* \"remix-project-files/contracts/Exceptions/ExampleExceptionRequire.sol\":97:144  mapping(address => uint8) public addressBalance */\n    tag_10:\n      mstore(0x20, 0x00)\n      dup1\n      0x00\n      mstore\n      keccak256(0x00, 0x40)\n      0x00\n      swap2\n      pop\n      sload\n      swap1\n      0x0100\n      exp\n      swap1\n      div\n      0xff\n      and\n      dup2\n      jump\t// out\n        /* \"remix-project-files/contracts/Exceptions/ExampleExceptionRequire.sol\":303:592  function withdrawMoney(address payable _to, uint8 _amountRequested) public {... */\n    tag_14:\n        /* \"remix-project-files/contracts/Exceptions/ExampleExceptionRequire.sol\":426:442  _amountRequested */\n      dup1\n        /* \"remix-project-files/contracts/Exceptions/ExampleExceptionRequire.sol\":396:442  addressBalance[msg.sender] >= _amountRequested */\n      0xff\n      and\n        /* \"remix-project-files/contracts/Exceptions/ExampleExceptionRequire.sol\":396:410  addressBalance */\n      0x00\n        /* \"remix-project-files/contracts/Exceptions/ExampleExceptionRequire.sol\":396:422  addressBalance[msg.sender] */\n      dup1\n        /* \"remix-project-files/contracts/Exceptions/ExampleExceptionRequire.sol\":411:421  msg.sender */\n      caller\n        /* \"remix-project-files/contracts/Exceptions/ExampleExceptionRequire.sol\":396:422  addressBalance[msg.sender] */\n      0xffffffffffffffffffffffffffffffffffffffff\n      and\n      0xffffffffffffffffffffffffffffffffffffffff\n      and\n      dup2\n      mstore\n      0x20\n      add\n      swap1\n      dup2\n      mstore\n      0x20\n      add\n      0x00\n      keccak256\n      0x00\n      swap1\n      sload\n      swap1\n      0x0100\n      exp\n      swap1\n      div\n      0xff\n      and\n        /* \"remix-project-files/contracts/Exceptions/ExampleExceptionRequire.sol\":396:442  addressBalance[msg.sender] >= _amountRequested */\n      0xff\n      and\n      lt\n      iszero\n        /* \"remix-project-files/contracts/Exceptions/ExampleExceptionRequire.sol\":388:489  require(addressBalance[msg.sender] >= _amountRequested, \"Note enough balance, Aborting transaction!\") */\n      tag_18\n      jumpi\n      mload(0x40)\n      0x08c379a000000000000000000000000000000000000000000000000000000000\n      dup2\n      mstore\n      0x04\n      add\n      dup1\n      dup1\n      0x20\n      add\n      dup3\n      dup2\n      sub\n      dup3\n      mstore\n      0x2a\n      dup2\n      mstore\n      0x20\n      add\n      dup1\n      data_8c5e92b0b65cfa206ae9eef97d8f1b81e479dffcfd168a85dbd563a38594920a\n      0x2a\n      swap2\n      codecopy\n      0x40\n      add\n      swap2\n      pop\n      pop\n      mload(0x40)\n      dup1\n      swap2\n      sub\n      swap1\n      revert\n    tag_18:\n        /* \"remix-project-files/contracts/Exceptions/ExampleExceptionRequire.sol\":529:545  _amountRequested */\n      dup1\n        /* \"remix-project-files/contracts/Exceptions/ExampleExceptionRequire.sol\":499:513  addressBalance */\n      0x00\n        /* \"remix-project-files/contracts/Exceptions/ExampleExceptionRequire.sol\":499:525  addressBalance[msg.sender] */\n      dup1\n        /* \"remix-project-files/contracts/Exceptions/ExampleExceptionRequire.sol\":514:524  msg.sender */\n      caller\n        /* \"remix-project-files/contracts/Exceptions/ExampleExceptionRequire.sol\":499:525  addressBalance[msg.sender] */\n      0xffffffffffffffffffffffffffffffffffffffff\n      and\n      0xffffffffffffffffffffffffffffffffffffffff\n      and\n      dup2\n      mstore\n      0x20\n      add\n      swap1\n      dup2\n      mstore\n      0x20\n      add\n      0x00\n      keccak256\n      0x00\n        /* \"remix-project-files/contracts/Exceptions/ExampleExceptionRequire.sol\":499:545  addressBalance[msg.sender] -= _amountRequested */\n      dup3\n      dup3\n      dup3\n      swap1\n      sload\n      swap1\n      0x0100\n      exp\n      swap1\n      div\n      0xff\n      and\n      sub\n      swap3\n      pop\n      0x0100\n      exp\n      dup2\n      sload\n      dup2\n      0xff\n      mul\n      not\n      and\n      swap1\n      dup4\n      0xff\n      and\n      mul\n      or\n      swap1\n      sstore\n      pop\n        /* \"remix-project-files/contracts/Exceptions/ExampleExceptionRequire.sol\":555:558  _to */\n      dup2\n        /* \"remix-project-files/contracts/Exceptions/ExampleExceptionRequire.sol\":555:567  _to.transfer */\n      0xffffffffffffffffffffffffffffffffffffffff\n      and\n        /* \"remix-project-files/contracts/Exceptions/ExampleExceptionRequire.sol\":555:585  _to.transfer(_amountRequested) */\n      0x08fc\n        /* \"remix-project-files/contracts/Exceptions/ExampleExceptionRequire.sol\":568:584  _amountRequested */\n      dup3\n        /* \"remix-project-files/contracts/Exceptions/ExampleExceptionRequire.sol\":555:585  _to.transfer(_amountRequested) */\n      0xff\n      and\n      swap1\n      dup2\n      iszero\n      mul\n      swap1\n      mload(0x40)\n      0x00\n      mload(0x40)\n      dup1\n      dup4\n      sub\n      dup2\n      dup6\n      dup9\n      dup9\n      call\n      swap4\n      pop\n      pop\n      pop\n      pop\n      iszero\n      dup1\n      iszero\n      tag_20\n      jumpi\n      returndatasize\n      0x00\n      dup1\n      returndatacopy\n      revert(0x00, returndatasize)\n    tag_20:\n      pop\n        /* \"remix-project-files/contracts/Exceptions/ExampleExceptionRequire.sol\":303:592  function withdrawMoney(address payable _to, uint8 _amountRequested) public {... */\n      pop\n      pop\n      jump\t// out\n    stop\n    data_8c5e92b0b65cfa206ae9eef97d8f1b81e479dffcfd168a85dbd563a38594920a 4e6f746520656e6f7567682062616c616e63652c2041626f7274696e67207472616e73616374696f6e21\n\n    auxdata: 0xa264697066735822122020d7c61618198be7f54b2e2eaf9aac06127e17f0f9d86de8586d149af43d87ea64736f6c63430007000033\n}\n",
				"bytecode": {
					"linkReferences": {},
					"object": "608060405234801561001057600080fd5b50610361806100206000396000f3fe6080604052600436106100345760003560e01c80631b3f4842146100395780633ec4de351461004357806367c114b8146100ab575b600080fd5b610041610109565b005b34801561004f57600080fd5b506100926004803603602081101561006657600080fd5b81019080803573ffffffffffffffffffffffffffffffffffffffff169060200190929190505050610180565b604051808260ff16815260200191505060405180910390f35b3480156100b757600080fd5b50610107600480360360408110156100ce57600080fd5b81019080803573ffffffffffffffffffffffffffffffffffffffff169060200190929190803560ff1690602001909291905050506101a0565b005b3460ff16341461011557fe5b346000803373ffffffffffffffffffffffffffffffffffffffff1673ffffffffffffffffffffffffffffffffffffffff16815260200190815260200160002060008282829054906101000a900460ff160192506101000a81548160ff021916908360ff160217905550565b60006020528060005260406000206000915054906101000a900460ff1681565b8060ff166000803373ffffffffffffffffffffffffffffffffffffffff1673ffffffffffffffffffffffffffffffffffffffff16815260200190815260200160002060009054906101000a900460ff1660ff16101561024a576040517f08c379a000000000000000000000000000000000000000000000000000000000815260040180806020018281038252602a815260200180610302602a913960400191505060405180910390fd5b806000803373ffffffffffffffffffffffffffffffffffffffff1673ffffffffffffffffffffffffffffffffffffffff16815260200190815260200160002060008282829054906101000a900460ff160392506101000a81548160ff021916908360ff1602179055508173ffffffffffffffffffffffffffffffffffffffff166108fc8260ff169081150290604051600060405180830381858888f193505050501580156102fc573d6000803e3d6000fd5b50505056fe4e6f746520656e6f7567682062616c616e63652c2041626f7274696e67207472616e73616374696f6e21a264697066735822122020d7c61618198be7f54b2e2eaf9aac06127e17f0f9d86de8586d149af43d87ea64736f6c63430007000033",
					"opcodes": "PUSH1 0x80 PUSH1 0x40 MSTORE CALLVALUE DUP1 ISZERO PUSH2 0x10 JUMPI PUSH1 0x0 DUP1 REVERT JUMPDEST POP PUSH2 0x361 DUP1 PUSH2 0x20 PUSH1 0x0 CODECOPY PUSH1 0x0 RETURN INVALID PUSH1 0x80 PUSH1 0x40 MSTORE PUSH1 0x4 CALLDATASIZE LT PUSH2 0x34 JUMPI PUSH1 0x0 CALLDATALOAD PUSH1 0xE0 SHR DUP1 PUSH4 0x1B3F4842 EQ PUSH2 0x39 JUMPI DUP1 PUSH4 0x3EC4DE35 EQ PUSH2 0x43 JUMPI DUP1 PUSH4 0x67C114B8 EQ PUSH2 0xAB JUMPI JUMPDEST PUSH1 0x0 DUP1 REVERT JUMPDEST PUSH2 0x41 PUSH2 0x109 JUMP JUMPDEST STOP JUMPDEST CALLVALUE DUP1 ISZERO PUSH2 0x4F JUMPI PUSH1 0x0 DUP1 REVERT JUMPDEST POP PUSH2 0x92 PUSH1 0x4 DUP1 CALLDATASIZE SUB PUSH1 0x20 DUP2 LT ISZERO PUSH2 0x66 JUMPI PUSH1 0x0 DUP1 REVERT JUMPDEST DUP2 ADD SWAP1 DUP1 DUP1 CALLDATALOAD PUSH20 0xFFFFFFFFFFFFFFFFFFFFFFFFFFFFFFFFFFFFFFFF AND SWAP1 PUSH1 0x20 ADD SWAP1 SWAP3 SWAP2 SWAP1 POP POP POP PUSH2 0x180 JUMP JUMPDEST PUSH1 0x40 MLOAD DUP1 DUP3 PUSH1 0xFF AND DUP2 MSTORE PUSH1 0x20 ADD SWAP2 POP POP PUSH1 0x40 MLOAD DUP1 SWAP2 SUB SWAP1 RETURN JUMPDEST CALLVALUE DUP1 ISZERO PUSH2 0xB7 JUMPI PUSH1 0x0 DUP1 REVERT JUMPDEST POP PUSH2 0x107 PUSH1 0x4 DUP1 CALLDATASIZE SUB PUSH1 0x40 DUP2 LT ISZERO PUSH2 0xCE JUMPI PUSH1 0x0 DUP1 REVERT JUMPDEST DUP2 ADD SWAP1 DUP1 DUP1 CALLDATALOAD PUSH20 0xFFFFFFFFFFFFFFFFFFFFFFFFFFFFFFFFFFFFFFFF AND SWAP1 PUSH1 0x20 ADD SWAP1 SWAP3 SWAP2 SWAP1 DUP1 CALLDATALOAD PUSH1 0xFF AND SWAP1 PUSH1 0x20 ADD SWAP1 SWAP3 SWAP2 SWAP1 POP POP POP PUSH2 0x1A0 JUMP JUMPDEST STOP JUMPDEST CALLVALUE PUSH1 0xFF AND CALLVALUE EQ PUSH2 0x115 JUMPI INVALID JUMPDEST CALLVALUE PUSH1 0x0 DUP1 CALLER PUSH20 0xFFFFFFFFFFFFFFFFFFFFFFFFFFFFFFFFFFFFFFFF AND PUSH20 0xFFFFFFFFFFFFFFFFFFFFFFFFFFFFFFFFFFFFFFFF AND DUP2 MSTORE PUSH1 0x20 ADD SWAP1 DUP2 MSTORE PUSH1 0x20 ADD PUSH1 0x0 KECCAK256 PUSH1 0x0 DUP3 DUP3 DUP3 SWAP1 SLOAD SWAP1 PUSH2 0x100 EXP SWAP1 DIV PUSH1 0xFF AND ADD SWAP3 POP PUSH2 0x100 EXP DUP2 SLOAD DUP2 PUSH1 0xFF MUL NOT AND SWAP1 DUP4 PUSH1 0xFF AND MUL OR SWAP1 SSTORE POP JUMP JUMPDEST PUSH1 0x0 PUSH1 0x20 MSTORE DUP1 PUSH1 0x0 MSTORE PUSH1 0x40 PUSH1 0x0 KECCAK256 PUSH1 0x0 SWAP2 POP SLOAD SWAP1 PUSH2 0x100 EXP SWAP1 DIV PUSH1 0xFF AND DUP2 JUMP JUMPDEST DUP1 PUSH1 0xFF AND PUSH1 0x0 DUP1 CALLER PUSH20 0xFFFFFFFFFFFFFFFFFFFFFFFFFFFFFFFFFFFFFFFF AND PUSH20 0xFFFFFFFFFFFFFFFFFFFFFFFFFFFFFFFFFFFFFFFF AND DUP2 MSTORE PUSH1 0x20 ADD SWAP1 DUP2 MSTORE PUSH1 0x20 ADD PUSH1 0x0 KECCAK256 PUSH1 0x0 SWAP1 SLOAD SWAP1 PUSH2 0x100 EXP SWAP1 DIV PUSH1 0xFF AND PUSH1 0xFF AND LT ISZERO PUSH2 0x24A JUMPI PUSH1 0x40 MLOAD PUSH32 0x8C379A000000000000000000000000000000000000000000000000000000000 DUP2 MSTORE PUSH1 0x4 ADD DUP1 DUP1 PUSH1 0x20 ADD DUP3 DUP2 SUB DUP3 MSTORE PUSH1 0x2A DUP2 MSTORE PUSH1 0x20 ADD DUP1 PUSH2 0x302 PUSH1 0x2A SWAP2 CODECOPY PUSH1 0x40 ADD SWAP2 POP POP PUSH1 0x40 MLOAD DUP1 SWAP2 SUB SWAP1 REVERT JUMPDEST DUP1 PUSH1 0x0 DUP1 CALLER PUSH20 0xFFFFFFFFFFFFFFFFFFFFFFFFFFFFFFFFFFFFFFFF AND PUSH20 0xFFFFFFFFFFFFFFFFFFFFFFFFFFFFFFFFFFFFFFFF AND DUP2 MSTORE PUSH1 0x20 ADD SWAP1 DUP2 MSTORE PUSH1 0x20 ADD PUSH1 0x0 KECCAK256 PUSH1 0x0 DUP3 DUP3 DUP3 SWAP1 SLOAD SWAP1 PUSH2 0x100 EXP SWAP1 DIV PUSH1 0xFF AND SUB SWAP3 POP PUSH2 0x100 EXP DUP2 SLOAD DUP2 PUSH1 0xFF MUL NOT AND SWAP1 DUP4 PUSH1 0xFF AND MUL OR SWAP1 SSTORE POP DUP2 PUSH20 0xFFFFFFFFFFFFFFFFFFFFFFFFFFFFFFFFFFFFFFFF AND PUSH2 0x8FC DUP3 PUSH1 0xFF AND SWAP1 DUP2 ISZERO MUL SWAP1 PUSH1 0x40 MLOAD PUSH1 0x0 PUSH1 0x40 MLOAD DUP1 DUP4 SUB DUP2 DUP6 DUP9 DUP9 CALL SWAP4 POP POP POP POP ISZERO DUP1 ISZERO PUSH2 0x2FC JUMPI RETURNDATASIZE PUSH1 0x0 DUP1 RETURNDATACOPY RETURNDATASIZE PUSH1 0x0 REVERT JUMPDEST POP POP POP JUMP INVALID 0x4E PUSH16 0x746520656E6F7567682062616C616E63 PUSH6 0x2C2041626F72 PUSH21 0x696E67207472616E73616374696F6E21A264697066 PUSH20 0x5822122020D7C61618198BE7F54B2E2EAF9AAC06 SLT PUSH31 0x17F0F9D86DE8586D149AF43D87EA64736F6C63430007000033000000000000 "
				},
				"gasEstimates": {
					"creation": {
						"codeDepositCost": "173000",
						"executionCost": "220",
						"totalCost": "173220"
					},
					"external": {
						"addMoney()": "21930",
						"addressBalance(address)": "1200",
						"withdrawMoney(address,uint8)": "infinite"
					}
				},
				"methodIdentifiers": {
					"addMoney()": "1b3f4842",
					"addressBalance(address)": "3ec4de35",
					"withdrawMoney(address,uint8)": "67c114b8"
				}
			},
			"storageLayout": {
				"storage": [
					{
						"astId": 5,
						"contract": "remix-project-files/contracts/Exceptions/ExampleExceptionRequire.sol:ExampleExceptionRequire",
						"label": "addressBalance",
						"offset": 0,
						"slot": "0",
						"type": "t_mapping(t_address,t_uint8)"
					}
				],
				"types": {
					"t_address": {
						"encoding": "inplace",
						"label": "address",
						"numberOfBytes": "20"
					},
					"t_mapping(t_address,t_uint8)": {
						"encoding": "mapping",
						"key": "t_address",
						"label": "mapping(address => uint8)",
						"numberOfBytes": "32",
						"value": "t_uint8"
					},
					"t_uint8": {
						"encoding": "inplace",
						"label": "uint8",
						"numberOfBytes": "1"
					}
				}
			},
			"userdoc": {
				"kind": "user",
				"methods": {},
				"version": 1
			}
		}
	}
}