{
	"data": {
		"bytecode": {
			"linkReferences": {},
			"object": "608060405234801561000f575f80fd5b506101138061001d5f395ff3fe6080604052348015600e575f80fd5b50600436106026575f3560e01c80632f7643a814602a575b5f80fd5b60306032565b005b6040517f74f0925300000000000000000000000000000000000000000000000000000000815260040160629060c1565b60405180910390fd5b5f82825260208201905092915050565b7f4d79437573746f6d457863657074696f6e2100000000000000000000000000005f82015250565b5f60ad601283606b565b915060b682607b565b602082019050919050565b5f6020820190508181035f83015260d68160a3565b905091905056fea26469706673582212201a3084ea26e479d0b364fe5731c19d37c9b20e8eaf0bd4b1f01903a2ad64944264736f6c63430008140033",
			"opcodes": "PUSH1 0x80 PUSH1 0x40 MSTORE CALLVALUE DUP1 ISZERO PUSH2 0xF JUMPI PUSH0 DUP1 REVERT JUMPDEST POP PUSH2 0x113 DUP1 PUSH2 0x1D PUSH0 CODECOPY PUSH0 RETURN INVALID PUSH1 0x80 PUSH1 0x40 MSTORE CALLVALUE DUP1 ISZERO PUSH1 0xE JUMPI PUSH0 DUP1 REVERT JUMPDEST POP PUSH1 0x4 CALLDATASIZE LT PUSH1 0x26 JUMPI PUSH0 CALLDATALOAD PUSH1 0xE0 SHR DUP1 PUSH4 0x2F7643A8 EQ PUSH1 0x2A JUMPI JUMPDEST PUSH0 DUP1 REVERT JUMPDEST PUSH1 0x30 PUSH1 0x32 JUMP JUMPDEST STOP JUMPDEST PUSH1 0x40 MLOAD PUSH32 0x74F0925300000000000000000000000000000000000000000000000000000000 DUP2 MSTORE PUSH1 0x4 ADD PUSH1 0x62 SWAP1 PUSH1 0xC1 JUMP JUMPDEST PUSH1 0x40 MLOAD DUP1 SWAP2 SUB SWAP1 REVERT JUMPDEST PUSH0 DUP3 DUP3 MSTORE PUSH1 0x20 DUP3 ADD SWAP1 POP SWAP3 SWAP2 POP POP JUMP JUMPDEST PUSH32 0x4D79437573746F6D457863657074696F6E210000000000000000000000000000 PUSH0 DUP3 ADD MSTORE POP JUMP JUMPDEST PUSH0 PUSH1 0xAD PUSH1 0x12 DUP4 PUSH1 0x6B JUMP JUMPDEST SWAP2 POP PUSH1 0xB6 DUP3 PUSH1 0x7B JUMP JUMPDEST PUSH1 0x20 DUP3 ADD SWAP1 POP SWAP2 SWAP1 POP JUMP JUMPDEST PUSH0 PUSH1 0x20 DUP3 ADD SWAP1 POP DUP2 DUP2 SUB PUSH0 DUP4 ADD MSTORE PUSH1 0xD6 DUP2 PUSH1 0xA3 JUMP JUMPDEST SWAP1 POP SWAP2 SWAP1 POP JUMP INVALID LOG2 PUSH5 0x6970667358 0x22 SLT KECCAK256 BYTE ADDRESS DUP5 0xEA 0x26 0xE4 PUSH26 0xD0B364FE5731C19D37C9B20E8EAF0BD4B1F01903A2AD64944264 PUSH20 0x6F6C634300081400330000000000000000000000 "
		},
		"gasEstimates": {
			"creation": {
				"codeDepositCost": "55000",
				"executionCost": "103",
				"totalCost": "55103"
			},
			"external": {
				"throwError()": "406"
			}
		},
		"methodIdentifiers": {
			"throwError()": "2f7643a8"
		}
	},
	"abi": [
		{
			"inputs": [
				{
					"internalType": "string",
					"name": "",
					"type": "string"
				}
			],
			"name": "MyCustomException",
			"type": "error"
		},
		{
			"inputs": [],
			"name": "throwError",
			"outputs": [],
			"stateMutability": "pure",
			"type": "function"
		}
	]
}