{
	"data": {
		"bytecode": {
			"linkReferences": {},
			"object": "608060405260405161001090610079565b604051809103905ff080158015610029573d5f803e3d5ffd5b505f806101000a81548173ffffffffffffffffffffffffffffffffffffffff021916908373ffffffffffffffffffffffffffffffffffffffff160217905550348015610073575f80fd5b50610086565b6101308061053383390190565b6104a0806100935f395ff3fe608060405234801561000f575f80fd5b5060043610610029575f3560e01c80638b1885161461002d575b5f80fd5b610035610037565b005b5f8054906101000a900473ffffffffffffffffffffffffffffffffffffffff1673ffffffffffffffffffffffffffffffffffffffff16632f7643a86040518163ffffffff1660e01b81526004015f6040518083038186803b15801561009a575f80fd5b505afa9250505080156100ab575060015b6101db576100b76101ea565b806308c379a00361011357506100cb610280565b806100d6575061016d565b7ffe46ad7cf507184ab42d7a2576647d779ff7bc7f831bfbead75fbe056c1adb63816040516101059190610389565b60405180910390a1506101d6565b634e487b710361016d576101256103a9565b90610130575061016d565b7f29b40167f3248a50a300e50f3ea6088477baca03aa8065424bd02d92d8b879708160405161015f91906103df565b60405180910390a1506101d6565b3d805f8114610197576040519150601f19603f3d011682016040523d82523d5f602084013e61019c565b606091505b507fca0c98a5e8f87f29ffdaadfa103d8e525236a2912c2caedb8aa606eb60041f10816040516101cc919061044a565b60405180910390a1505b6101dc565b5b565b5f8160e01c9050919050565b5f60033d11156102065760045f803e6102035f516101de565b90505b90565b5f604051905090565b5f601f19601f8301169050919050565b7f4e487b71000000000000000000000000000000000000000000000000000000005f52604160045260245ffd5b61025882610212565b810181811067ffffffffffffffff8211171561027757610276610222565b5b80604052505050565b5f60443d1061030c57610291610209565b60043d036004823e80513d602482011167ffffffffffffffff821117156102b957505061030c565b808201805167ffffffffffffffff8111156102d7575050505061030c565b80602083010160043d0385018111156102f457505050505061030c565b6103038260200185018661024f565b82955050505050505b90565b5f81519050919050565b5f82825260208201905092915050565b5f5b8381101561034657808201518184015260208101905061032b565b5f8484015250505050565b5f61035b8261030f565b6103658185610319565b9350610375818560208601610329565b61037e81610212565b840191505092915050565b5f6020820190508181035f8301526103a18184610351565b905092915050565b5f8060233d11156103c357602060045f3e600191505f5190505b9091565b5f819050919050565b6103d9816103c7565b82525050565b5f6020820190506103f25f8301846103d0565b92915050565b5f81519050919050565b5f82825260208201905092915050565b5f61041c826103f8565b6104268185610402565b9350610436818560208601610329565b61043f81610212565b840191505092915050565b5f6020820190508181035f8301526104628184610412565b90509291505056fea2646970667358221220d3e5b46c74f5b3618f22ec8899d51bf88ab0d8a549a2eff7d0c886b2d7711f8364736f6c63430008140033608060405234801561000f575f80fd5b506101138061001d5f395ff3fe6080604052348015600e575f80fd5b50600436106026575f3560e01c80632f7643a814602a575b5f80fd5b60306032565b005b6040517f74f0925300000000000000000000000000000000000000000000000000000000815260040160629060c1565b60405180910390fd5b5f82825260208201905092915050565b7f4d79437573746f6d457863657074696f6e2100000000000000000000000000005f82015250565b5f60ad601283606b565b915060b682607b565b602082019050919050565b5f6020820190508181035f83015260d68160a3565b905091905056fea26469706673582212201a3084ea26e479d0b364fe5731c19d37c9b20e8eaf0bd4b1f01903a2ad64944264736f6c63430008140033",
			"opcodes": "PUSH1 0x80 PUSH1 0x40 MSTORE PUSH1 0x40 MLOAD PUSH2 0x10 SWAP1 PUSH2 0x79 JUMP JUMPDEST PUSH1 0x40 MLOAD DUP1 SWAP2 SUB SWAP1 PUSH0 CREATE DUP1 ISZERO DUP1 ISZERO PUSH2 0x29 JUMPI RETURNDATASIZE PUSH0 DUP1 RETURNDATACOPY RETURNDATASIZE PUSH0 REVERT JUMPDEST POP PUSH0 DUP1 PUSH2 0x100 EXP DUP2 SLOAD DUP2 PUSH20 0xFFFFFFFFFFFFFFFFFFFFFFFFFFFFFFFFFFFFFFFF MUL NOT AND SWAP1 DUP4 PUSH20 0xFFFFFFFFFFFFFFFFFFFFFFFFFFFFFFFFFFFFFFFF AND MUL OR SWAP1 SSTORE POP CALLVALUE DUP1 ISZERO PUSH2 0x73 JUMPI PUSH0 DUP1 REVERT JUMPDEST POP PUSH2 0x86 JUMP JUMPDEST PUSH2 0x130 DUP1 PUSH2 0x533 DUP4 CODECOPY ADD SWAP1 JUMP JUMPDEST PUSH2 0x4A0 DUP1 PUSH2 0x93 PUSH0 CODECOPY PUSH0 RETURN INVALID PUSH1 0x80 PUSH1 0x40 MSTORE CALLVALUE DUP1 ISZERO PUSH2 0xF JUMPI PUSH0 DUP1 REVERT JUMPDEST POP PUSH1 0x4 CALLDATASIZE LT PUSH2 0x29 JUMPI PUSH0 CALLDATALOAD PUSH1 0xE0 SHR DUP1 PUSH4 0x8B188516 EQ PUSH2 0x2D JUMPI JUMPDEST PUSH0 DUP1 REVERT JUMPDEST PUSH2 0x35 PUSH2 0x37 JUMP JUMPDEST STOP JUMPDEST PUSH0 DUP1 SLOAD SWAP1 PUSH2 0x100 EXP SWAP1 DIV PUSH20 0xFFFFFFFFFFFFFFFFFFFFFFFFFFFFFFFFFFFFFFFF AND PUSH20 0xFFFFFFFFFFFFFFFFFFFFFFFFFFFFFFFFFFFFFFFF AND PUSH4 0x2F7643A8 PUSH1 0x40 MLOAD DUP2 PUSH4 0xFFFFFFFF AND PUSH1 0xE0 SHL DUP2 MSTORE PUSH1 0x4 ADD PUSH0 PUSH1 0x40 MLOAD DUP1 DUP4 SUB DUP2 DUP7 DUP1 EXTCODESIZE ISZERO DUP1 ISZERO PUSH2 0x9A JUMPI PUSH0 DUP1 REVERT JUMPDEST POP GAS STATICCALL SWAP3 POP POP POP DUP1 ISZERO PUSH2 0xAB JUMPI POP PUSH1 0x1 JUMPDEST PUSH2 0x1DB JUMPI PUSH2 0xB7 PUSH2 0x1EA JUMP JUMPDEST DUP1 PUSH4 0x8C379A0 SUB PUSH2 0x113 JUMPI POP PUSH2 0xCB PUSH2 0x280 JUMP JUMPDEST DUP1 PUSH2 0xD6 JUMPI POP PUSH2 0x16D JUMP JUMPDEST PUSH32 0xFE46AD7CF507184AB42D7A2576647D779FF7BC7F831BFBEAD75FBE056C1ADB63 DUP2 PUSH1 0x40 MLOAD PUSH2 0x105 SWAP2 SWAP1 PUSH2 0x389 JUMP JUMPDEST PUSH1 0x40 MLOAD DUP1 SWAP2 SUB SWAP1 LOG1 POP PUSH2 0x1D6 JUMP JUMPDEST PUSH4 0x4E487B71 SUB PUSH2 0x16D JUMPI PUSH2 0x125 PUSH2 0x3A9 JUMP JUMPDEST SWAP1 PUSH2 0x130 JUMPI POP PUSH2 0x16D JUMP JUMPDEST PUSH32 0x29B40167F3248A50A300E50F3EA6088477BACA03AA8065424BD02D92D8B87970 DUP2 PUSH1 0x40 MLOAD PUSH2 0x15F SWAP2 SWAP1 PUSH2 0x3DF JUMP JUMPDEST PUSH1 0x40 MLOAD DUP1 SWAP2 SUB SWAP1 LOG1 POP PUSH2 0x1D6 JUMP JUMPDEST RETURNDATASIZE DUP1 PUSH0 DUP2 EQ PUSH2 0x197 JUMPI PUSH1 0x40 MLOAD SWAP2 POP PUSH1 0x1F NOT PUSH1 0x3F RETURNDATASIZE ADD AND DUP3 ADD PUSH1 0x40 MSTORE RETURNDATASIZE DUP3 MSTORE RETURNDATASIZE PUSH0 PUSH1 0x20 DUP5 ADD RETURNDATACOPY PUSH2 0x19C JUMP JUMPDEST PUSH1 0x60 SWAP2 POP JUMPDEST POP PUSH32 0xCA0C98A5E8F87F29FFDAADFA103D8E525236A2912C2CAEDB8AA606EB60041F10 DUP2 PUSH1 0x40 MLOAD PUSH2 0x1CC SWAP2 SWAP1 PUSH2 0x44A JUMP JUMPDEST PUSH1 0x40 MLOAD DUP1 SWAP2 SUB SWAP1 LOG1 POP JUMPDEST PUSH2 0x1DC JUMP JUMPDEST JUMPDEST JUMP JUMPDEST PUSH0 DUP2 PUSH1 0xE0 SHR SWAP1 POP SWAP2 SWAP1 POP JUMP JUMPDEST PUSH0 PUSH1 0x3 RETURNDATASIZE GT ISZERO PUSH2 0x206 JUMPI PUSH1 0x4 PUSH0 DUP1 RETURNDATACOPY PUSH2 0x203 PUSH0 MLOAD PUSH2 0x1DE JUMP JUMPDEST SWAP1 POP JUMPDEST SWAP1 JUMP JUMPDEST PUSH0 PUSH1 0x40 MLOAD SWAP1 POP SWAP1 JUMP JUMPDEST PUSH0 PUSH1 0x1F NOT PUSH1 0x1F DUP4 ADD AND SWAP1 POP SWAP2 SWAP1 POP JUMP JUMPDEST PUSH32 0x4E487B7100000000000000000000000000000000000000000000000000000000 PUSH0 MSTORE PUSH1 0x41 PUSH1 0x4 MSTORE PUSH1 0x24 PUSH0 REVERT JUMPDEST PUSH2 0x258 DUP3 PUSH2 0x212 JUMP JUMPDEST DUP2 ADD DUP2 DUP2 LT PUSH8 0xFFFFFFFFFFFFFFFF DUP3 GT OR ISZERO PUSH2 0x277 JUMPI PUSH2 0x276 PUSH2 0x222 JUMP JUMPDEST JUMPDEST DUP1 PUSH1 0x40 MSTORE POP POP POP JUMP JUMPDEST PUSH0 PUSH1 0x44 RETURNDATASIZE LT PUSH2 0x30C JUMPI PUSH2 0x291 PUSH2 0x209 JUMP JUMPDEST PUSH1 0x4 RETURNDATASIZE SUB PUSH1 0x4 DUP3 RETURNDATACOPY DUP1 MLOAD RETURNDATASIZE PUSH1 0x24 DUP3 ADD GT PUSH8 0xFFFFFFFFFFFFFFFF DUP3 GT OR ISZERO PUSH2 0x2B9 JUMPI POP POP PUSH2 0x30C JUMP JUMPDEST DUP1 DUP3 ADD DUP1 MLOAD PUSH8 0xFFFFFFFFFFFFFFFF DUP2 GT ISZERO PUSH2 0x2D7 JUMPI POP POP POP POP PUSH2 0x30C JUMP JUMPDEST DUP1 PUSH1 0x20 DUP4 ADD ADD PUSH1 0x4 RETURNDATASIZE SUB DUP6 ADD DUP2 GT ISZERO PUSH2 0x2F4 JUMPI POP POP POP POP POP PUSH2 0x30C JUMP JUMPDEST PUSH2 0x303 DUP3 PUSH1 0x20 ADD DUP6 ADD DUP7 PUSH2 0x24F JUMP JUMPDEST DUP3 SWAP6 POP POP POP POP POP POP JUMPDEST SWAP1 JUMP JUMPDEST PUSH0 DUP2 MLOAD SWAP1 POP SWAP2 SWAP1 POP JUMP JUMPDEST PUSH0 DUP3 DUP3 MSTORE PUSH1 0x20 DUP3 ADD SWAP1 POP SWAP3 SWAP2 POP POP JUMP JUMPDEST PUSH0 JUMPDEST DUP4 DUP2 LT ISZERO PUSH2 0x346 JUMPI DUP1 DUP3 ADD MLOAD DUP2 DUP5 ADD MSTORE PUSH1 0x20 DUP2 ADD SWAP1 POP PUSH2 0x32B JUMP JUMPDEST PUSH0 DUP5 DUP5 ADD MSTORE POP POP POP POP JUMP JUMPDEST PUSH0 PUSH2 0x35B DUP3 PUSH2 0x30F JUMP JUMPDEST PUSH2 0x365 DUP2 DUP6 PUSH2 0x319 JUMP JUMPDEST SWAP4 POP PUSH2 0x375 DUP2 DUP6 PUSH1 0x20 DUP7 ADD PUSH2 0x329 JUMP JUMPDEST PUSH2 0x37E DUP2 PUSH2 0x212 JUMP JUMPDEST DUP5 ADD SWAP2 POP POP SWAP3 SWAP2 POP POP JUMP JUMPDEST PUSH0 PUSH1 0x20 DUP3 ADD SWAP1 POP DUP2 DUP2 SUB PUSH0 DUP4 ADD MSTORE PUSH2 0x3A1 DUP2 DUP5 PUSH2 0x351 JUMP JUMPDEST SWAP1 POP SWAP3 SWAP2 POP POP JUMP JUMPDEST PUSH0 DUP1 PUSH1 0x23 RETURNDATASIZE GT ISZERO PUSH2 0x3C3 JUMPI PUSH1 0x20 PUSH1 0x4 PUSH0 RETURNDATACOPY PUSH1 0x1 SWAP2 POP PUSH0 MLOAD SWAP1 POP JUMPDEST SWAP1 SWAP2 JUMP JUMPDEST PUSH0 DUP2 SWAP1 POP SWAP2 SWAP1 POP JUMP JUMPDEST PUSH2 0x3D9 DUP2 PUSH2 0x3C7 JUMP JUMPDEST DUP3 MSTORE POP POP JUMP JUMPDEST PUSH0 PUSH1 0x20 DUP3 ADD SWAP1 POP PUSH2 0x3F2 PUSH0 DUP4 ADD DUP5 PUSH2 0x3D0 JUMP JUMPDEST SWAP3 SWAP2 POP POP JUMP JUMPDEST PUSH0 DUP2 MLOAD SWAP1 POP SWAP2 SWAP1 POP JUMP JUMPDEST PUSH0 DUP3 DUP3 MSTORE PUSH1 0x20 DUP3 ADD SWAP1 POP SWAP3 SWAP2 POP POP JUMP JUMPDEST PUSH0 PUSH2 0x41C DUP3 PUSH2 0x3F8 JUMP JUMPDEST PUSH2 0x426 DUP2 DUP6 PUSH2 0x402 JUMP JUMPDEST SWAP4 POP PUSH2 0x436 DUP2 DUP6 PUSH1 0x20 DUP7 ADD PUSH2 0x329 JUMP JUMPDEST PUSH2 0x43F DUP2 PUSH2 0x212 JUMP JUMPDEST DUP5 ADD SWAP2 POP POP SWAP3 SWAP2 POP POP JUMP JUMPDEST PUSH0 PUSH1 0x20 DUP3 ADD SWAP1 POP DUP2 DUP2 SUB PUSH0 DUP4 ADD MSTORE PUSH2 0x462 DUP2 DUP5 PUSH2 0x412 JUMP JUMPDEST SWAP1 POP SWAP3 SWAP2 POP POP JUMP INVALID LOG2 PUSH5 0x6970667358 0x22 SLT KECCAK256 0xD3 0xE5 0xB4 PUSH13 0x74F5B3618F22EC8899D51BF88A 0xB0 0xD8 0xA5 0x49 LOG2 0xEF 0xF7 0xD0 0xC8 DUP7 0xB2 0xD7 PUSH18 0x1F8364736F6C634300081400336080604052 CALLVALUE DUP1 ISZERO PUSH2 0xF JUMPI PUSH0 DUP1 REVERT JUMPDEST POP PUSH2 0x113 DUP1 PUSH2 0x1D PUSH0 CODECOPY PUSH0 RETURN INVALID PUSH1 0x80 PUSH1 0x40 MSTORE CALLVALUE DUP1 ISZERO PUSH1 0xE JUMPI PUSH0 DUP1 REVERT JUMPDEST POP PUSH1 0x4 CALLDATASIZE LT PUSH1 0x26 JUMPI PUSH0 CALLDATALOAD PUSH1 0xE0 SHR DUP1 PUSH4 0x2F7643A8 EQ PUSH1 0x2A JUMPI JUMPDEST PUSH0 DUP1 REVERT JUMPDEST PUSH1 0x30 PUSH1 0x32 JUMP JUMPDEST STOP JUMPDEST PUSH1 0x40 MLOAD PUSH32 0x74F0925300000000000000000000000000000000000000000000000000000000 DUP2 MSTORE PUSH1 0x4 ADD PUSH1 0x62 SWAP1 PUSH1 0xC1 JUMP JUMPDEST PUSH1 0x40 MLOAD DUP1 SWAP2 SUB SWAP1 REVERT JUMPDEST PUSH0 DUP3 DUP3 MSTORE PUSH1 0x20 DUP3 ADD SWAP1 POP SWAP3 SWAP2 POP POP JUMP JUMPDEST PUSH32 0x4D79437573746F6D457863657074696F6E210000000000000000000000000000 PUSH0 DUP3 ADD MSTORE POP JUMP JUMPDEST PUSH0 PUSH1 0xAD PUSH1 0x12 DUP4 PUSH1 0x6B JUMP JUMPDEST SWAP2 POP PUSH1 0xB6 DUP3 PUSH1 0x7B JUMP JUMPDEST PUSH1 0x20 DUP3 ADD SWAP1 POP SWAP2 SWAP1 POP JUMP JUMPDEST PUSH0 PUSH1 0x20 DUP3 ADD SWAP1 POP DUP2 DUP2 SUB PUSH0 DUP4 ADD MSTORE PUSH1 0xD6 DUP2 PUSH1 0xA3 JUMP JUMPDEST SWAP1 POP SWAP2 SWAP1 POP JUMP INVALID LOG2 PUSH5 0x6970667358 0x22 SLT KECCAK256 BYTE ADDRESS DUP5 0xEA 0x26 0xE4 PUSH26 0xD0B364FE5731C19D37C9B20E8EAF0BD4B1F01903A2AD64944264 PUSH20 0x6F6C634300081400330000000000000000000000 "
		},
		"gasEstimates": {
			"creation": {
				"codeDepositCost": "236800",
				"executionCost": "infinite",
				"totalCost": "infinite"
			},
			"external": {
				"catchError()": "infinite"
			}
		},
		"methodIdentifiers": {
			"catchError()": "8b188516"
		}
	},
	"abi": [
		{
			"anonymous": false,
			"inputs": [
				{
					"indexed": false,
					"internalType": "string",
					"name": "reason",
					"type": "string"
				}
			],
			"name": "ErrorLog",
			"type": "event"
		},
		{
			"anonymous": false,
			"inputs": [
				{
					"indexed": false,
					"internalType": "bytes",
					"name": "lowLevelData",
					"type": "bytes"
				}
			],
			"name": "ErrorLogBytes",
			"type": "event"
		},
		{
			"anonymous": false,
			"inputs": [
				{
					"indexed": false,
					"internalType": "uint256",
					"name": "code",
					"type": "uint256"
				}
			],
			"name": "ErrorLogCode",
			"type": "event"
		},
		{
			"inputs": [],
			"name": "catchError",
			"outputs": [],
			"stateMutability": "nonpayable",
			"type": "function"
		}
	]
}