{
	"contracts/myProjectContracts/Messanger.sol": {
		"MessangerExample": {
			"abi": [
				{
					"inputs": [],
					"stateMutability": "nonpayable",
					"type": "constructor"
				},
				{
					"inputs": [],
					"name": "messageUpdateCounter",
					"outputs": [
						{
							"internalType": "uint256",
							"name": "",
							"type": "uint256"
						}
					],
					"stateMutability": "view",
					"type": "function"
				},
				{
					"inputs": [],
					"name": "messgae",
					"outputs": [
						{
							"internalType": "string",
							"name": "",
							"type": "string"
						}
					],
					"stateMutability": "view",
					"type": "function"
				},
				{
					"inputs": [],
					"name": "owner",
					"outputs": [
						{
							"internalType": "address",
							"name": "",
							"type": "address"
						}
					],
					"stateMutability": "view",
					"type": "function"
				},
				{
					"inputs": [
						{
							"internalType": "string",
							"name": "_newMessage",
							"type": "string"
						}
					],
					"name": "updateMessage",
					"outputs": [],
					"stateMutability": "nonpayable",
					"type": "function"
				}
			],
			"devdoc": {
				"kind": "dev",
				"methods": {},
				"version": 1
			},
			"evm": {
				"assembly": "    /* \"contracts/myProjectContracts/Messanger.sol\":59:424  contract MessangerExample {... */\n  mstore(0x40, 0x80)\n    /* \"contracts/myProjectContracts/Messanger.sol\":186:236  constructor () {... */\n  callvalue\n  dup1\n  iszero\n  tag_1\n  jumpi\n  0x00\n  dup1\n  revert\ntag_1:\n  pop\n    /* \"contracts/myProjectContracts/Messanger.sol\":219:229  msg.sender */\n  caller\n    /* \"contracts/myProjectContracts/Messanger.sol\":211:216  owner */\n  0x01\n  0x00\n    /* \"contracts/myProjectContracts/Messanger.sol\":211:229  owner = msg.sender */\n  0x0100\n  exp\n  dup2\n  sload\n  dup2\n  0xffffffffffffffffffffffffffffffffffffffff\n  mul\n  not\n  and\n  swap1\n  dup4\n  0xffffffffffffffffffffffffffffffffffffffff\n  and\n  mul\n  or\n  swap1\n  sstore\n  pop\n    /* \"contracts/myProjectContracts/Messanger.sol\":59:424  contract MessangerExample {... */\n  dataSize(sub_0)\n  dup1\n  dataOffset(sub_0)\n  0x00\n  codecopy\n  0x00\n  return\nstop\n\nsub_0: assembly {\n        /* \"contracts/myProjectContracts/Messanger.sol\":59:424  contract MessangerExample {... */\n      mstore(0x40, 0x80)\n      callvalue\n      dup1\n      iszero\n      tag_1\n      jumpi\n      0x00\n      dup1\n      revert\n    tag_1:\n      pop\n      jumpi(tag_2, lt(calldatasize, 0x04))\n      shr(0xe0, calldataload(0x00))\n      dup1\n      0x1923be24\n      eq\n      tag_3\n      jumpi\n      dup1\n      0x69fe76b0\n      eq\n      tag_4\n      jumpi\n      dup1\n      0x8da5cb5b\n      eq\n      tag_5\n      jumpi\n      dup1\n      0xc9d96ad2\n      eq\n      tag_6\n      jumpi\n    tag_2:\n      0x00\n      dup1\n      revert\n        /* \"contracts/myProjectContracts/Messanger.sol\":242:421  function updateMessage(string memory _newMessage) public {... */\n    tag_3:\n      tag_7\n      0x04\n      dup1\n      calldatasize\n      sub\n      dup2\n      add\n      swap1\n      tag_8\n      swap2\n      swap1\n      tag_9\n      jump\t// in\n    tag_8:\n      tag_10\n      jump\t// in\n    tag_7:\n      stop\n        /* \"contracts/myProjectContracts/Messanger.sol\":147:179  uint public messageUpdateCounter */\n    tag_4:\n      tag_11\n      tag_12\n      jump\t// in\n    tag_11:\n      mload(0x40)\n      tag_13\n      swap2\n      swap1\n      tag_14\n      jump\t// in\n    tag_13:\n      mload(0x40)\n      dup1\n      swap2\n      sub\n      swap1\n      return\n        /* \"contracts/myProjectContracts/Messanger.sol\":120:140  address public owner */\n    tag_5:\n      tag_15\n      tag_16\n      jump\t// in\n    tag_15:\n      mload(0x40)\n      tag_17\n      swap2\n      swap1\n      tag_18\n      jump\t// in\n    tag_17:\n      mload(0x40)\n      dup1\n      swap2\n      sub\n      swap1\n      return\n        /* \"contracts/myProjectContracts/Messanger.sol\":92:113  string public messgae */\n    tag_6:\n      tag_19\n      tag_20\n      jump\t// in\n    tag_19:\n      mload(0x40)\n      tag_21\n      swap2\n      swap1\n      tag_22\n      jump\t// in\n    tag_21:\n      mload(0x40)\n      dup1\n      swap2\n      sub\n      swap1\n      return\n        /* \"contracts/myProjectContracts/Messanger.sol\":242:421  function updateMessage(string memory _newMessage) public {... */\n    tag_10:\n        /* \"contracts/myProjectContracts/Messanger.sol\":326:331  owner */\n      0x01\n      0x00\n      swap1\n      sload\n      swap1\n      0x0100\n      exp\n      swap1\n      div\n      0xffffffffffffffffffffffffffffffffffffffff\n      and\n        /* \"contracts/myProjectContracts/Messanger.sol\":312:331  msg.sender == owner */\n      0xffffffffffffffffffffffffffffffffffffffff\n      and\n        /* \"contracts/myProjectContracts/Messanger.sol\":312:322  msg.sender */\n      caller\n        /* \"contracts/myProjectContracts/Messanger.sol\":312:331  msg.sender == owner */\n      0xffffffffffffffffffffffffffffffffffffffff\n      and\n      sub\n        /* \"contracts/myProjectContracts/Messanger.sol\":309:415  if(msg.sender == owner) {... */\n      tag_24\n      jumpi\n        /* \"contracts/myProjectContracts/Messanger.sol\":347:367  messageUpdateCounter */\n      0x02\n      0x00\n        /* \"contracts/myProjectContracts/Messanger.sol\":347:369  messageUpdateCounter++ */\n      dup2\n      sload\n      dup1\n      swap3\n      swap2\n      swap1\n      tag_25\n      swap1\n      tag_26\n      jump\t// in\n    tag_25:\n      swap2\n      swap1\n      pop\n      sstore\n      pop\n        /* \"contracts/myProjectContracts/Messanger.sol\":393:404  _newMessage */\n      dup1\n        /* \"contracts/myProjectContracts/Messanger.sol\":383:390  messgae */\n      0x00\n        /* \"contracts/myProjectContracts/Messanger.sol\":383:404  messgae = _newMessage */\n      swap1\n      dup2\n      tag_27\n      swap2\n      swap1\n      tag_28\n      jump\t// in\n    tag_27:\n      pop\n        /* \"contracts/myProjectContracts/Messanger.sol\":309:415  if(msg.sender == owner) {... */\n    tag_24:\n        /* \"contracts/myProjectContracts/Messanger.sol\":242:421  function updateMessage(string memory _newMessage) public {... */\n      pop\n      jump\t// out\n        /* \"contracts/myProjectContracts/Messanger.sol\":147:179  uint public messageUpdateCounter */\n    tag_12:\n      sload(0x02)\n      dup2\n      jump\t// out\n        /* \"contracts/myProjectContracts/Messanger.sol\":120:140  address public owner */\n    tag_16:\n      0x01\n      0x00\n      swap1\n      sload\n      swap1\n      0x0100\n      exp\n      swap1\n      div\n      0xffffffffffffffffffffffffffffffffffffffff\n      and\n      dup2\n      jump\t// out\n        /* \"contracts/myProjectContracts/Messanger.sol\":92:113  string public messgae */\n    tag_20:\n      0x00\n      dup1\n      sload\n      tag_29\n      swap1\n      tag_30\n      jump\t// in\n    tag_29:\n      dup1\n      0x1f\n      add\n      0x20\n      dup1\n      swap2\n      div\n      mul\n      0x20\n      add\n      mload(0x40)\n      swap1\n      dup2\n      add\n      0x40\n      mstore\n      dup1\n      swap3\n      swap2\n      swap1\n      dup2\n      dup2\n      mstore\n      0x20\n      add\n      dup3\n      dup1\n      sload\n      tag_31\n      swap1\n      tag_30\n      jump\t// in\n    tag_31:\n      dup1\n      iszero\n      tag_32\n      jumpi\n      dup1\n      0x1f\n      lt\n      tag_33\n      jumpi\n      0x0100\n      dup1\n      dup4\n      sload\n      div\n      mul\n      dup4\n      mstore\n      swap2\n      0x20\n      add\n      swap2\n      jump(tag_32)\n    tag_33:\n      dup3\n      add\n      swap2\n      swap1\n      0x00\n      mstore\n      keccak256(0x00, 0x20)\n      swap1\n    tag_34:\n      dup2\n      sload\n      dup2\n      mstore\n      swap1\n      0x01\n      add\n      swap1\n      0x20\n      add\n      dup1\n      dup4\n      gt\n      tag_34\n      jumpi\n      dup3\n      swap1\n      sub\n      0x1f\n      and\n      dup3\n      add\n      swap2\n    tag_32:\n      pop\n      pop\n      pop\n      pop\n      pop\n      dup2\n      jump\t// out\n        /* \"#utility.yul\":7:82   */\n    tag_35:\n        /* \"#utility.yul\":40:46   */\n      0x00\n        /* \"#utility.yul\":73:75   */\n      0x40\n        /* \"#utility.yul\":67:76   */\n      mload\n        /* \"#utility.yul\":57:76   */\n      swap1\n      pop\n        /* \"#utility.yul\":7:82   */\n      swap1\n      jump\t// out\n        /* \"#utility.yul\":88:205   */\n    tag_36:\n        /* \"#utility.yul\":197:198   */\n      0x00\n        /* \"#utility.yul\":194:195   */\n      dup1\n        /* \"#utility.yul\":187:199   */\n      revert\n        /* \"#utility.yul\":211:328   */\n    tag_37:\n        /* \"#utility.yul\":320:321   */\n      0x00\n        /* \"#utility.yul\":317:318   */\n      dup1\n        /* \"#utility.yul\":310:322   */\n      revert\n        /* \"#utility.yul\":334:451   */\n    tag_38:\n        /* \"#utility.yul\":443:444   */\n      0x00\n        /* \"#utility.yul\":440:441   */\n      dup1\n        /* \"#utility.yul\":433:445   */\n      revert\n        /* \"#utility.yul\":457:574   */\n    tag_39:\n        /* \"#utility.yul\":566:567   */\n      0x00\n        /* \"#utility.yul\":563:564   */\n      dup1\n        /* \"#utility.yul\":556:568   */\n      revert\n        /* \"#utility.yul\":580:682   */\n    tag_40:\n        /* \"#utility.yul\":621:627   */\n      0x00\n        /* \"#utility.yul\":672:674   */\n      0x1f\n        /* \"#utility.yul\":668:675   */\n      not\n        /* \"#utility.yul\":663:665   */\n      0x1f\n        /* \"#utility.yul\":656:661   */\n      dup4\n        /* \"#utility.yul\":652:666   */\n      add\n        /* \"#utility.yul\":648:676   */\n      and\n        /* \"#utility.yul\":638:676   */\n      swap1\n      pop\n        /* \"#utility.yul\":580:682   */\n      swap2\n      swap1\n      pop\n      jump\t// out\n        /* \"#utility.yul\":688:868   */\n    tag_41:\n        /* \"#utility.yul\":736:813   */\n      0x4e487b7100000000000000000000000000000000000000000000000000000000\n        /* \"#utility.yul\":733:734   */\n      0x00\n        /* \"#utility.yul\":726:814   */\n      mstore\n        /* \"#utility.yul\":833:837   */\n      0x41\n        /* \"#utility.yul\":830:831   */\n      0x04\n        /* \"#utility.yul\":823:838   */\n      mstore\n        /* \"#utility.yul\":857:861   */\n      0x24\n        /* \"#utility.yul\":854:855   */\n      0x00\n        /* \"#utility.yul\":847:862   */\n      revert\n        /* \"#utility.yul\":874:1155   */\n    tag_42:\n        /* \"#utility.yul\":957:984   */\n      tag_83\n        /* \"#utility.yul\":979:983   */\n      dup3\n        /* \"#utility.yul\":957:984   */\n      tag_40\n      jump\t// in\n    tag_83:\n        /* \"#utility.yul\":949:955   */\n      dup2\n        /* \"#utility.yul\":945:985   */\n      add\n        /* \"#utility.yul\":1087:1093   */\n      dup2\n        /* \"#utility.yul\":1075:1085   */\n      dup2\n        /* \"#utility.yul\":1072:1094   */\n      lt\n        /* \"#utility.yul\":1051:1069   */\n      0xffffffffffffffff\n        /* \"#utility.yul\":1039:1049   */\n      dup3\n        /* \"#utility.yul\":1036:1070   */\n      gt\n        /* \"#utility.yul\":1033:1095   */\n      or\n        /* \"#utility.yul\":1030:1118   */\n      iszero\n      tag_84\n      jumpi\n        /* \"#utility.yul\":1098:1116   */\n      tag_85\n      tag_41\n      jump\t// in\n    tag_85:\n        /* \"#utility.yul\":1030:1118   */\n    tag_84:\n        /* \"#utility.yul\":1138:1148   */\n      dup1\n        /* \"#utility.yul\":1134:1136   */\n      0x40\n        /* \"#utility.yul\":1127:1149   */\n      mstore\n        /* \"#utility.yul\":917:1155   */\n      pop\n        /* \"#utility.yul\":874:1155   */\n      pop\n      pop\n      jump\t// out\n        /* \"#utility.yul\":1161:1290   */\n    tag_43:\n        /* \"#utility.yul\":1195:1201   */\n      0x00\n        /* \"#utility.yul\":1222:1242   */\n      tag_87\n      tag_35\n      jump\t// in\n    tag_87:\n        /* \"#utility.yul\":1212:1242   */\n      swap1\n      pop\n        /* \"#utility.yul\":1251:1284   */\n      tag_88\n        /* \"#utility.yul\":1279:1283   */\n      dup3\n        /* \"#utility.yul\":1271:1277   */\n      dup3\n        /* \"#utility.yul\":1251:1284   */\n      tag_42\n      jump\t// in\n    tag_88:\n        /* \"#utility.yul\":1161:1290   */\n      swap2\n      swap1\n      pop\n      jump\t// out\n        /* \"#utility.yul\":1296:1604   */\n    tag_44:\n        /* \"#utility.yul\":1358:1362   */\n      0x00\n        /* \"#utility.yul\":1448:1466   */\n      0xffffffffffffffff\n        /* \"#utility.yul\":1440:1446   */\n      dup3\n        /* \"#utility.yul\":1437:1467   */\n      gt\n        /* \"#utility.yul\":1434:1490   */\n      iszero\n      tag_90\n      jumpi\n        /* \"#utility.yul\":1470:1488   */\n      tag_91\n      tag_41\n      jump\t// in\n    tag_91:\n        /* \"#utility.yul\":1434:1490   */\n    tag_90:\n        /* \"#utility.yul\":1508:1537   */\n      tag_92\n        /* \"#utility.yul\":1530:1536   */\n      dup3\n        /* \"#utility.yul\":1508:1537   */\n      tag_40\n      jump\t// in\n    tag_92:\n        /* \"#utility.yul\":1500:1537   */\n      swap1\n      pop\n        /* \"#utility.yul\":1592:1596   */\n      0x20\n        /* \"#utility.yul\":1586:1590   */\n      dup2\n        /* \"#utility.yul\":1582:1597   */\n      add\n        /* \"#utility.yul\":1574:1597   */\n      swap1\n      pop\n        /* \"#utility.yul\":1296:1604   */\n      swap2\n      swap1\n      pop\n      jump\t// out\n        /* \"#utility.yul\":1610:1756   */\n    tag_45:\n        /* \"#utility.yul\":1707:1713   */\n      dup3\n        /* \"#utility.yul\":1702:1705   */\n      dup2\n        /* \"#utility.yul\":1697:1700   */\n      dup4\n        /* \"#utility.yul\":1684:1714   */\n      calldatacopy\n        /* \"#utility.yul\":1748:1749   */\n      0x00\n        /* \"#utility.yul\":1739:1745   */\n      dup4\n        /* \"#utility.yul\":1734:1737   */\n      dup4\n        /* \"#utility.yul\":1730:1746   */\n      add\n        /* \"#utility.yul\":1723:1750   */\n      mstore\n        /* \"#utility.yul\":1610:1756   */\n      pop\n      pop\n      pop\n      jump\t// out\n        /* \"#utility.yul\":1762:2187   */\n    tag_46:\n        /* \"#utility.yul\":1840:1845   */\n      0x00\n        /* \"#utility.yul\":1865:1931   */\n      tag_95\n        /* \"#utility.yul\":1881:1930   */\n      tag_96\n        /* \"#utility.yul\":1923:1929   */\n      dup5\n        /* \"#utility.yul\":1881:1930   */\n      tag_44\n      jump\t// in\n    tag_96:\n        /* \"#utility.yul\":1865:1931   */\n      tag_43\n      jump\t// in\n    tag_95:\n        /* \"#utility.yul\":1856:1931   */\n      swap1\n      pop\n        /* \"#utility.yul\":1954:1960   */\n      dup3\n        /* \"#utility.yul\":1947:1952   */\n      dup2\n        /* \"#utility.yul\":1940:1961   */\n      mstore\n        /* \"#utility.yul\":1992:1996   */\n      0x20\n        /* \"#utility.yul\":1985:1990   */\n      dup2\n        /* \"#utility.yul\":1981:1997   */\n      add\n        /* \"#utility.yul\":2030:2033   */\n      dup5\n        /* \"#utility.yul\":2021:2027   */\n      dup5\n        /* \"#utility.yul\":2016:2019   */\n      dup5\n        /* \"#utility.yul\":2012:2028   */\n      add\n        /* \"#utility.yul\":2009:2034   */\n      gt\n        /* \"#utility.yul\":2006:2118   */\n      iszero\n      tag_97\n      jumpi\n        /* \"#utility.yul\":2037:2116   */\n      tag_98\n      tag_39\n      jump\t// in\n    tag_98:\n        /* \"#utility.yul\":2006:2118   */\n    tag_97:\n        /* \"#utility.yul\":2127:2181   */\n      tag_99\n        /* \"#utility.yul\":2174:2180   */\n      dup5\n        /* \"#utility.yul\":2169:2172   */\n      dup3\n        /* \"#utility.yul\":2164:2167   */\n      dup6\n        /* \"#utility.yul\":2127:2181   */\n      tag_45\n      jump\t// in\n    tag_99:\n        /* \"#utility.yul\":1846:2187   */\n      pop\n        /* \"#utility.yul\":1762:2187   */\n      swap4\n      swap3\n      pop\n      pop\n      pop\n      jump\t// out\n        /* \"#utility.yul\":2207:2547   */\n    tag_47:\n        /* \"#utility.yul\":2263:2268   */\n      0x00\n        /* \"#utility.yul\":2312:2315   */\n      dup3\n        /* \"#utility.yul\":2305:2309   */\n      0x1f\n        /* \"#utility.yul\":2297:2303   */\n      dup4\n        /* \"#utility.yul\":2293:2310   */\n      add\n        /* \"#utility.yul\":2289:2316   */\n      slt\n        /* \"#utility.yul\":2279:2401   */\n      tag_101\n      jumpi\n        /* \"#utility.yul\":2320:2399   */\n      tag_102\n      tag_38\n      jump\t// in\n    tag_102:\n        /* \"#utility.yul\":2279:2401   */\n    tag_101:\n        /* \"#utility.yul\":2437:2443   */\n      dup2\n        /* \"#utility.yul\":2424:2444   */\n      calldataload\n        /* \"#utility.yul\":2462:2541   */\n      tag_103\n        /* \"#utility.yul\":2537:2540   */\n      dup5\n        /* \"#utility.yul\":2529:2535   */\n      dup3\n        /* \"#utility.yul\":2522:2526   */\n      0x20\n        /* \"#utility.yul\":2514:2520   */\n      dup7\n        /* \"#utility.yul\":2510:2527   */\n      add\n        /* \"#utility.yul\":2462:2541   */\n      tag_46\n      jump\t// in\n    tag_103:\n        /* \"#utility.yul\":2453:2541   */\n      swap2\n      pop\n        /* \"#utility.yul\":2269:2547   */\n      pop\n        /* \"#utility.yul\":2207:2547   */\n      swap3\n      swap2\n      pop\n      pop\n      jump\t// out\n        /* \"#utility.yul\":2553:3062   */\n    tag_9:\n        /* \"#utility.yul\":2622:2628   */\n      0x00\n        /* \"#utility.yul\":2671:2673   */\n      0x20\n        /* \"#utility.yul\":2659:2668   */\n      dup3\n        /* \"#utility.yul\":2650:2657   */\n      dup5\n        /* \"#utility.yul\":2646:2669   */\n      sub\n        /* \"#utility.yul\":2642:2674   */\n      slt\n        /* \"#utility.yul\":2639:2758   */\n      iszero\n      tag_105\n      jumpi\n        /* \"#utility.yul\":2677:2756   */\n      tag_106\n      tag_36\n      jump\t// in\n    tag_106:\n        /* \"#utility.yul\":2639:2758   */\n    tag_105:\n        /* \"#utility.yul\":2825:2826   */\n      0x00\n        /* \"#utility.yul\":2814:2823   */\n      dup3\n        /* \"#utility.yul\":2810:2827   */\n      add\n        /* \"#utility.yul\":2797:2828   */\n      calldataload\n        /* \"#utility.yul\":2855:2873   */\n      0xffffffffffffffff\n        /* \"#utility.yul\":2847:2853   */\n      dup2\n        /* \"#utility.yul\":2844:2874   */\n      gt\n        /* \"#utility.yul\":2841:2958   */\n      iszero\n      tag_107\n      jumpi\n        /* \"#utility.yul\":2877:2956   */\n      tag_108\n      tag_37\n      jump\t// in\n    tag_108:\n        /* \"#utility.yul\":2841:2958   */\n    tag_107:\n        /* \"#utility.yul\":2982:3045   */\n      tag_109\n        /* \"#utility.yul\":3037:3044   */\n      dup5\n        /* \"#utility.yul\":3028:3034   */\n      dup3\n        /* \"#utility.yul\":3017:3026   */\n      dup6\n        /* \"#utility.yul\":3013:3035   */\n      add\n        /* \"#utility.yul\":2982:3045   */\n      tag_47\n      jump\t// in\n    tag_109:\n        /* \"#utility.yul\":2972:3045   */\n      swap2\n      pop\n        /* \"#utility.yul\":2768:3055   */\n      pop\n        /* \"#utility.yul\":2553:3062   */\n      swap3\n      swap2\n      pop\n      pop\n      jump\t// out\n        /* \"#utility.yul\":3068:3145   */\n    tag_48:\n        /* \"#utility.yul\":3105:3112   */\n      0x00\n        /* \"#utility.yul\":3134:3139   */\n      dup2\n        /* \"#utility.yul\":3123:3139   */\n      swap1\n      pop\n        /* \"#utility.yul\":3068:3145   */\n      swap2\n      swap1\n      pop\n      jump\t// out\n        /* \"#utility.yul\":3151:3269   */\n    tag_49:\n        /* \"#utility.yul\":3238:3262   */\n      tag_112\n        /* \"#utility.yul\":3256:3261   */\n      dup2\n        /* \"#utility.yul\":3238:3262   */\n      tag_48\n      jump\t// in\n    tag_112:\n        /* \"#utility.yul\":3233:3236   */\n      dup3\n        /* \"#utility.yul\":3226:3263   */\n      mstore\n        /* \"#utility.yul\":3151:3269   */\n      pop\n      pop\n      jump\t// out\n        /* \"#utility.yul\":3275:3497   */\n    tag_14:\n        /* \"#utility.yul\":3368:3372   */\n      0x00\n        /* \"#utility.yul\":3406:3408   */\n      0x20\n        /* \"#utility.yul\":3395:3404   */\n      dup3\n        /* \"#utility.yul\":3391:3409   */\n      add\n        /* \"#utility.yul\":3383:3409   */\n      swap1\n      pop\n        /* \"#utility.yul\":3419:3490   */\n      tag_114\n        /* \"#utility.yul\":3487:3488   */\n      0x00\n        /* \"#utility.yul\":3476:3485   */\n      dup4\n        /* \"#utility.yul\":3472:3489   */\n      add\n        /* \"#utility.yul\":3463:3469   */\n      dup5\n        /* \"#utility.yul\":3419:3490   */\n      tag_49\n      jump\t// in\n    tag_114:\n        /* \"#utility.yul\":3275:3497   */\n      swap3\n      swap2\n      pop\n      pop\n      jump\t// out\n        /* \"#utility.yul\":3503:3629   */\n    tag_50:\n        /* \"#utility.yul\":3540:3547   */\n      0x00\n        /* \"#utility.yul\":3580:3622   */\n      0xffffffffffffffffffffffffffffffffffffffff\n        /* \"#utility.yul\":3573:3578   */\n      dup3\n        /* \"#utility.yul\":3569:3623   */\n      and\n        /* \"#utility.yul\":3558:3623   */\n      swap1\n      pop\n        /* \"#utility.yul\":3503:3629   */\n      swap2\n      swap1\n      pop\n      jump\t// out\n        /* \"#utility.yul\":3635:3731   */\n    tag_51:\n        /* \"#utility.yul\":3672:3679   */\n      0x00\n        /* \"#utility.yul\":3701:3725   */\n      tag_117\n        /* \"#utility.yul\":3719:3724   */\n      dup3\n        /* \"#utility.yul\":3701:3725   */\n      tag_50\n      jump\t// in\n    tag_117:\n        /* \"#utility.yul\":3690:3725   */\n      swap1\n      pop\n        /* \"#utility.yul\":3635:3731   */\n      swap2\n      swap1\n      pop\n      jump\t// out\n        /* \"#utility.yul\":3737:3855   */\n    tag_52:\n        /* \"#utility.yul\":3824:3848   */\n      tag_119\n        /* \"#utility.yul\":3842:3847   */\n      dup2\n        /* \"#utility.yul\":3824:3848   */\n      tag_51\n      jump\t// in\n    tag_119:\n        /* \"#utility.yul\":3819:3822   */\n      dup3\n        /* \"#utility.yul\":3812:3849   */\n      mstore\n        /* \"#utility.yul\":3737:3855   */\n      pop\n      pop\n      jump\t// out\n        /* \"#utility.yul\":3861:4083   */\n    tag_18:\n        /* \"#utility.yul\":3954:3958   */\n      0x00\n        /* \"#utility.yul\":3992:3994   */\n      0x20\n        /* \"#utility.yul\":3981:3990   */\n      dup3\n        /* \"#utility.yul\":3977:3995   */\n      add\n        /* \"#utility.yul\":3969:3995   */\n      swap1\n      pop\n        /* \"#utility.yul\":4005:4076   */\n      tag_121\n        /* \"#utility.yul\":4073:4074   */\n      0x00\n        /* \"#utility.yul\":4062:4071   */\n      dup4\n        /* \"#utility.yul\":4058:4075   */\n      add\n        /* \"#utility.yul\":4049:4055   */\n      dup5\n        /* \"#utility.yul\":4005:4076   */\n      tag_52\n      jump\t// in\n    tag_121:\n        /* \"#utility.yul\":3861:4083   */\n      swap3\n      swap2\n      pop\n      pop\n      jump\t// out\n        /* \"#utility.yul\":4089:4188   */\n    tag_53:\n        /* \"#utility.yul\":4141:4147   */\n      0x00\n        /* \"#utility.yul\":4175:4180   */\n      dup2\n        /* \"#utility.yul\":4169:4181   */\n      mload\n        /* \"#utility.yul\":4159:4181   */\n      swap1\n      pop\n        /* \"#utility.yul\":4089:4188   */\n      swap2\n      swap1\n      pop\n      jump\t// out\n        /* \"#utility.yul\":4194:4363   */\n    tag_54:\n        /* \"#utility.yul\":4278:4289   */\n      0x00\n        /* \"#utility.yul\":4312:4318   */\n      dup3\n        /* \"#utility.yul\":4307:4310   */\n      dup3\n        /* \"#utility.yul\":4300:4319   */\n      mstore\n        /* \"#utility.yul\":4352:4356   */\n      0x20\n        /* \"#utility.yul\":4347:4350   */\n      dup3\n        /* \"#utility.yul\":4343:4357   */\n      add\n        /* \"#utility.yul\":4328:4357   */\n      swap1\n      pop\n        /* \"#utility.yul\":4194:4363   */\n      swap3\n      swap2\n      pop\n      pop\n      jump\t// out\n        /* \"#utility.yul\":4369:4615   */\n    tag_55:\n        /* \"#utility.yul\":4450:4451   */\n      0x00\n        /* \"#utility.yul\":4460:4573   */\n    tag_125:\n        /* \"#utility.yul\":4474:4480   */\n      dup4\n        /* \"#utility.yul\":4471:4472   */\n      dup2\n        /* \"#utility.yul\":4468:4481   */\n      lt\n        /* \"#utility.yul\":4460:4573   */\n      iszero\n      tag_127\n      jumpi\n        /* \"#utility.yul\":4559:4560   */\n      dup1\n        /* \"#utility.yul\":4554:4557   */\n      dup3\n        /* \"#utility.yul\":4550:4561   */\n      add\n        /* \"#utility.yul\":4544:4562   */\n      mload\n        /* \"#utility.yul\":4540:4541   */\n      dup2\n        /* \"#utility.yul\":4535:4538   */\n      dup5\n        /* \"#utility.yul\":4531:4542   */\n      add\n        /* \"#utility.yul\":4524:4563   */\n      mstore\n        /* \"#utility.yul\":4496:4498   */\n      0x20\n        /* \"#utility.yul\":4493:4494   */\n      dup2\n        /* \"#utility.yul\":4489:4499   */\n      add\n        /* \"#utility.yul\":4484:4499   */\n      swap1\n      pop\n        /* \"#utility.yul\":4460:4573   */\n      jump(tag_125)\n    tag_127:\n        /* \"#utility.yul\":4607:4608   */\n      0x00\n        /* \"#utility.yul\":4598:4604   */\n      dup5\n        /* \"#utility.yul\":4593:4596   */\n      dup5\n        /* \"#utility.yul\":4589:4605   */\n      add\n        /* \"#utility.yul\":4582:4609   */\n      mstore\n        /* \"#utility.yul\":4431:4615   */\n      pop\n        /* \"#utility.yul\":4369:4615   */\n      pop\n      pop\n      pop\n      jump\t// out\n        /* \"#utility.yul\":4621:4998   */\n    tag_56:\n        /* \"#utility.yul\":4709:4712   */\n      0x00\n        /* \"#utility.yul\":4737:4776   */\n      tag_129\n        /* \"#utility.yul\":4770:4775   */\n      dup3\n        /* \"#utility.yul\":4737:4776   */\n      tag_53\n      jump\t// in\n    tag_129:\n        /* \"#utility.yul\":4792:4863   */\n      tag_130\n        /* \"#utility.yul\":4856:4862   */\n      dup2\n        /* \"#utility.yul\":4851:4854   */\n      dup6\n        /* \"#utility.yul\":4792:4863   */\n      tag_54\n      jump\t// in\n    tag_130:\n        /* \"#utility.yul\":4785:4863   */\n      swap4\n      pop\n        /* \"#utility.yul\":4872:4937   */\n      tag_131\n        /* \"#utility.yul\":4930:4936   */\n      dup2\n        /* \"#utility.yul\":4925:4928   */\n      dup6\n        /* \"#utility.yul\":4918:4922   */\n      0x20\n        /* \"#utility.yul\":4911:4916   */\n      dup7\n        /* \"#utility.yul\":4907:4923   */\n      add\n        /* \"#utility.yul\":4872:4937   */\n      tag_55\n      jump\t// in\n    tag_131:\n        /* \"#utility.yul\":4962:4991   */\n      tag_132\n        /* \"#utility.yul\":4984:4990   */\n      dup2\n        /* \"#utility.yul\":4962:4991   */\n      tag_40\n      jump\t// in\n    tag_132:\n        /* \"#utility.yul\":4957:4960   */\n      dup5\n        /* \"#utility.yul\":4953:4992   */\n      add\n        /* \"#utility.yul\":4946:4992   */\n      swap2\n      pop\n        /* \"#utility.yul\":4713:4998   */\n      pop\n        /* \"#utility.yul\":4621:4998   */\n      swap3\n      swap2\n      pop\n      pop\n      jump\t// out\n        /* \"#utility.yul\":5004:5317   */\n    tag_22:\n        /* \"#utility.yul\":5117:5121   */\n      0x00\n        /* \"#utility.yul\":5155:5157   */\n      0x20\n        /* \"#utility.yul\":5144:5153   */\n      dup3\n        /* \"#utility.yul\":5140:5158   */\n      add\n        /* \"#utility.yul\":5132:5158   */\n      swap1\n      pop\n        /* \"#utility.yul\":5204:5213   */\n      dup2\n        /* \"#utility.yul\":5198:5202   */\n      dup2\n        /* \"#utility.yul\":5194:5214   */\n      sub\n        /* \"#utility.yul\":5190:5191   */\n      0x00\n        /* \"#utility.yul\":5179:5188   */\n      dup4\n        /* \"#utility.yul\":5175:5192   */\n      add\n        /* \"#utility.yul\":5168:5215   */\n      mstore\n        /* \"#utility.yul\":5232:5310   */\n      tag_134\n        /* \"#utility.yul\":5305:5309   */\n      dup2\n        /* \"#utility.yul\":5296:5302   */\n      dup5\n        /* \"#utility.yul\":5232:5310   */\n      tag_56\n      jump\t// in\n    tag_134:\n        /* \"#utility.yul\":5224:5310   */\n      swap1\n      pop\n        /* \"#utility.yul\":5004:5317   */\n      swap3\n      swap2\n      pop\n      pop\n      jump\t// out\n        /* \"#utility.yul\":5323:5503   */\n    tag_57:\n        /* \"#utility.yul\":5371:5448   */\n      0x4e487b7100000000000000000000000000000000000000000000000000000000\n        /* \"#utility.yul\":5368:5369   */\n      0x00\n        /* \"#utility.yul\":5361:5449   */\n      mstore\n        /* \"#utility.yul\":5468:5472   */\n      0x11\n        /* \"#utility.yul\":5465:5466   */\n      0x04\n        /* \"#utility.yul\":5458:5473   */\n      mstore\n        /* \"#utility.yul\":5492:5496   */\n      0x24\n        /* \"#utility.yul\":5489:5490   */\n      0x00\n        /* \"#utility.yul\":5482:5497   */\n      revert\n        /* \"#utility.yul\":5509:5742   */\n    tag_26:\n        /* \"#utility.yul\":5548:5551   */\n      0x00\n        /* \"#utility.yul\":5571:5595   */\n      tag_137\n        /* \"#utility.yul\":5589:5594   */\n      dup3\n        /* \"#utility.yul\":5571:5595   */\n      tag_48\n      jump\t// in\n    tag_137:\n        /* \"#utility.yul\":5562:5595   */\n      swap2\n      pop\n        /* \"#utility.yul\":5617:5683   */\n      0xffffffffffffffffffffffffffffffffffffffffffffffffffffffffffffffff\n        /* \"#utility.yul\":5610:5615   */\n      dup3\n        /* \"#utility.yul\":5607:5684   */\n      sub\n        /* \"#utility.yul\":5604:5707   */\n      tag_138\n      jumpi\n        /* \"#utility.yul\":5687:5705   */\n      tag_139\n      tag_57\n      jump\t// in\n    tag_139:\n        /* \"#utility.yul\":5604:5707   */\n    tag_138:\n        /* \"#utility.yul\":5734:5735   */\n      0x01\n        /* \"#utility.yul\":5727:5732   */\n      dup3\n        /* \"#utility.yul\":5723:5736   */\n      add\n        /* \"#utility.yul\":5716:5736   */\n      swap1\n      pop\n        /* \"#utility.yul\":5509:5742   */\n      swap2\n      swap1\n      pop\n      jump\t// out\n        /* \"#utility.yul\":5748:5928   */\n    tag_58:\n        /* \"#utility.yul\":5796:5873   */\n      0x4e487b7100000000000000000000000000000000000000000000000000000000\n        /* \"#utility.yul\":5793:5794   */\n      0x00\n        /* \"#utility.yul\":5786:5874   */\n      mstore\n        /* \"#utility.yul\":5893:5897   */\n      0x22\n        /* \"#utility.yul\":5890:5891   */\n      0x04\n        /* \"#utility.yul\":5883:5898   */\n      mstore\n        /* \"#utility.yul\":5917:5921   */\n      0x24\n        /* \"#utility.yul\":5914:5915   */\n      0x00\n        /* \"#utility.yul\":5907:5922   */\n      revert\n        /* \"#utility.yul\":5934:6254   */\n    tag_30:\n        /* \"#utility.yul\":5978:5984   */\n      0x00\n        /* \"#utility.yul\":6015:6016   */\n      0x02\n        /* \"#utility.yul\":6009:6013   */\n      dup3\n        /* \"#utility.yul\":6005:6017   */\n      div\n        /* \"#utility.yul\":5995:6017   */\n      swap1\n      pop\n        /* \"#utility.yul\":6062:6063   */\n      0x01\n        /* \"#utility.yul\":6056:6060   */\n      dup3\n        /* \"#utility.yul\":6052:6064   */\n      and\n        /* \"#utility.yul\":6083:6101   */\n      dup1\n        /* \"#utility.yul\":6073:6154   */\n      tag_142\n      jumpi\n        /* \"#utility.yul\":6139:6143   */\n      0x7f\n        /* \"#utility.yul\":6131:6137   */\n      dup3\n        /* \"#utility.yul\":6127:6144   */\n      and\n        /* \"#utility.yul\":6117:6144   */\n      swap2\n      pop\n        /* \"#utility.yul\":6073:6154   */\n    tag_142:\n        /* \"#utility.yul\":6201:6203   */\n      0x20\n        /* \"#utility.yul\":6193:6199   */\n      dup3\n        /* \"#utility.yul\":6190:6204   */\n      lt\n        /* \"#utility.yul\":6170:6188   */\n      dup2\n        /* \"#utility.yul\":6167:6205   */\n      sub\n        /* \"#utility.yul\":6164:6248   */\n      tag_143\n      jumpi\n        /* \"#utility.yul\":6220:6238   */\n      tag_144\n      tag_58\n      jump\t// in\n    tag_144:\n        /* \"#utility.yul\":6164:6248   */\n    tag_143:\n        /* \"#utility.yul\":5985:6254   */\n      pop\n        /* \"#utility.yul\":5934:6254   */\n      swap2\n      swap1\n      pop\n      jump\t// out\n        /* \"#utility.yul\":6260:6401   */\n    tag_59:\n        /* \"#utility.yul\":6309:6313   */\n      0x00\n        /* \"#utility.yul\":6332:6335   */\n      dup2\n        /* \"#utility.yul\":6324:6335   */\n      swap1\n      pop\n        /* \"#utility.yul\":6355:6358   */\n      dup2\n        /* \"#utility.yul\":6352:6353   */\n      0x00\n        /* \"#utility.yul\":6345:6359   */\n      mstore\n        /* \"#utility.yul\":6389:6393   */\n      0x20\n        /* \"#utility.yul\":6386:6387   */\n      0x00\n        /* \"#utility.yul\":6376:6394   */\n      keccak256\n        /* \"#utility.yul\":6368:6394   */\n      swap1\n      pop\n        /* \"#utility.yul\":6260:6401   */\n      swap2\n      swap1\n      pop\n      jump\t// out\n        /* \"#utility.yul\":6407:6500   */\n    tag_60:\n        /* \"#utility.yul\":6444:6450   */\n      0x00\n        /* \"#utility.yul\":6491:6493   */\n      0x20\n        /* \"#utility.yul\":6486:6488   */\n      0x1f\n        /* \"#utility.yul\":6479:6484   */\n      dup4\n        /* \"#utility.yul\":6475:6489   */\n      add\n        /* \"#utility.yul\":6471:6494   */\n      div\n        /* \"#utility.yul\":6461:6494   */\n      swap1\n      pop\n        /* \"#utility.yul\":6407:6500   */\n      swap2\n      swap1\n      pop\n      jump\t// out\n        /* \"#utility.yul\":6506:6613   */\n    tag_61:\n        /* \"#utility.yul\":6550:6558   */\n      0x00\n        /* \"#utility.yul\":6600:6605   */\n      dup3\n        /* \"#utility.yul\":6594:6598   */\n      dup3\n        /* \"#utility.yul\":6590:6606   */\n      shl\n        /* \"#utility.yul\":6569:6606   */\n      swap1\n      pop\n        /* \"#utility.yul\":6506:6613   */\n      swap3\n      swap2\n      pop\n      pop\n      jump\t// out\n        /* \"#utility.yul\":6619:7012   */\n    tag_62:\n        /* \"#utility.yul\":6688:6694   */\n      0x00\n        /* \"#utility.yul\":6738:6739   */\n      0x08\n        /* \"#utility.yul\":6726:6736   */\n      dup4\n        /* \"#utility.yul\":6722:6740   */\n      mul\n        /* \"#utility.yul\":6761:6858   */\n      tag_149\n        /* \"#utility.yul\":6791:6857   */\n      0xffffffffffffffffffffffffffffffffffffffffffffffffffffffffffffffff\n        /* \"#utility.yul\":6780:6789   */\n      dup3\n        /* \"#utility.yul\":6761:6858   */\n      tag_61\n      jump\t// in\n    tag_149:\n        /* \"#utility.yul\":6879:6918   */\n      tag_150\n        /* \"#utility.yul\":6909:6917   */\n      dup7\n        /* \"#utility.yul\":6898:6907   */\n      dup4\n        /* \"#utility.yul\":6879:6918   */\n      tag_61\n      jump\t// in\n    tag_150:\n        /* \"#utility.yul\":6867:6918   */\n      swap6\n      pop\n        /* \"#utility.yul\":6951:6955   */\n      dup1\n        /* \"#utility.yul\":6947:6956   */\n      not\n        /* \"#utility.yul\":6940:6945   */\n      dup5\n        /* \"#utility.yul\":6936:6957   */\n      and\n        /* \"#utility.yul\":6927:6957   */\n      swap4\n      pop\n        /* \"#utility.yul\":7000:7004   */\n      dup1\n        /* \"#utility.yul\":6990:6998   */\n      dup7\n        /* \"#utility.yul\":6986:7005   */\n      and\n        /* \"#utility.yul\":6979:6984   */\n      dup5\n        /* \"#utility.yul\":6976:7006   */\n      or\n        /* \"#utility.yul\":6966:7006   */\n      swap3\n      pop\n        /* \"#utility.yul\":6695:7012   */\n      pop\n      pop\n        /* \"#utility.yul\":6619:7012   */\n      swap4\n      swap3\n      pop\n      pop\n      pop\n      jump\t// out\n        /* \"#utility.yul\":7018:7078   */\n    tag_63:\n        /* \"#utility.yul\":7046:7049   */\n      0x00\n        /* \"#utility.yul\":7067:7072   */\n      dup2\n        /* \"#utility.yul\":7060:7072   */\n      swap1\n      pop\n        /* \"#utility.yul\":7018:7078   */\n      swap2\n      swap1\n      pop\n      jump\t// out\n        /* \"#utility.yul\":7084:7226   */\n    tag_64:\n        /* \"#utility.yul\":7134:7143   */\n      0x00\n        /* \"#utility.yul\":7167:7220   */\n      tag_153\n        /* \"#utility.yul\":7185:7219   */\n      tag_154\n        /* \"#utility.yul\":7194:7218   */\n      tag_155\n        /* \"#utility.yul\":7212:7217   */\n      dup5\n        /* \"#utility.yul\":7194:7218   */\n      tag_48\n      jump\t// in\n    tag_155:\n        /* \"#utility.yul\":7185:7219   */\n      tag_63\n      jump\t// in\n    tag_154:\n        /* \"#utility.yul\":7167:7220   */\n      tag_48\n      jump\t// in\n    tag_153:\n        /* \"#utility.yul\":7154:7220   */\n      swap1\n      pop\n        /* \"#utility.yul\":7084:7226   */\n      swap2\n      swap1\n      pop\n      jump\t// out\n        /* \"#utility.yul\":7232:7307   */\n    tag_65:\n        /* \"#utility.yul\":7275:7278   */\n      0x00\n        /* \"#utility.yul\":7296:7301   */\n      dup2\n        /* \"#utility.yul\":7289:7301   */\n      swap1\n      pop\n        /* \"#utility.yul\":7232:7307   */\n      swap2\n      swap1\n      pop\n      jump\t// out\n        /* \"#utility.yul\":7313:7582   */\n    tag_66:\n        /* \"#utility.yul\":7423:7462   */\n      tag_158\n        /* \"#utility.yul\":7454:7461   */\n      dup4\n        /* \"#utility.yul\":7423:7462   */\n      tag_64\n      jump\t// in\n    tag_158:\n        /* \"#utility.yul\":7484:7575   */\n      tag_159\n        /* \"#utility.yul\":7533:7574   */\n      tag_160\n        /* \"#utility.yul\":7557:7573   */\n      dup3\n        /* \"#utility.yul\":7533:7574   */\n      tag_65\n      jump\t// in\n    tag_160:\n        /* \"#utility.yul\":7525:7531   */\n      dup5\n        /* \"#utility.yul\":7518:7522   */\n      dup5\n        /* \"#utility.yul\":7512:7523   */\n      sload\n        /* \"#utility.yul\":7484:7575   */\n      tag_62\n      jump\t// in\n    tag_159:\n        /* \"#utility.yul\":7478:7482   */\n      dup3\n        /* \"#utility.yul\":7471:7576   */\n      sstore\n        /* \"#utility.yul\":7389:7582   */\n      pop\n        /* \"#utility.yul\":7313:7582   */\n      pop\n      pop\n      pop\n      jump\t// out\n        /* \"#utility.yul\":7588:7661   */\n    tag_67:\n        /* \"#utility.yul\":7633:7636   */\n      0x00\n        /* \"#utility.yul\":7588:7661   */\n      swap1\n      jump\t// out\n        /* \"#utility.yul\":7667:7856   */\n    tag_68:\n        /* \"#utility.yul\":7744:7776   */\n      tag_163\n      tag_67\n      jump\t// in\n    tag_163:\n        /* \"#utility.yul\":7785:7850   */\n      tag_164\n        /* \"#utility.yul\":7843:7849   */\n      dup2\n        /* \"#utility.yul\":7835:7841   */\n      dup5\n        /* \"#utility.yul\":7829:7833   */\n      dup5\n        /* \"#utility.yul\":7785:7850   */\n      tag_66\n      jump\t// in\n    tag_164:\n        /* \"#utility.yul\":7720:7856   */\n      pop\n        /* \"#utility.yul\":7667:7856   */\n      pop\n      pop\n      jump\t// out\n        /* \"#utility.yul\":7862:8048   */\n    tag_69:\n        /* \"#utility.yul\":7922:8042   */\n    tag_166:\n        /* \"#utility.yul\":7939:7942   */\n      dup2\n        /* \"#utility.yul\":7932:7937   */\n      dup2\n        /* \"#utility.yul\":7929:7943   */\n      lt\n        /* \"#utility.yul\":7922:8042   */\n      iszero\n      tag_168\n      jumpi\n        /* \"#utility.yul\":7993:8032   */\n      tag_169\n        /* \"#utility.yul\":8030:8031   */\n      0x00\n        /* \"#utility.yul\":8023:8028   */\n      dup3\n        /* \"#utility.yul\":7993:8032   */\n      tag_68\n      jump\t// in\n    tag_169:\n        /* \"#utility.yul\":7966:7967   */\n      0x01\n        /* \"#utility.yul\":7959:7964   */\n      dup2\n        /* \"#utility.yul\":7955:7968   */\n      add\n        /* \"#utility.yul\":7946:7968   */\n      swap1\n      pop\n        /* \"#utility.yul\":7922:8042   */\n      jump(tag_166)\n    tag_168:\n        /* \"#utility.yul\":7862:8048   */\n      pop\n      pop\n      jump\t// out\n        /* \"#utility.yul\":8054:8597   */\n    tag_70:\n        /* \"#utility.yul\":8155:8157   */\n      0x1f\n        /* \"#utility.yul\":8150:8153   */\n      dup3\n        /* \"#utility.yul\":8147:8158   */\n      gt\n        /* \"#utility.yul\":8144:8590   */\n      iszero\n      tag_171\n      jumpi\n        /* \"#utility.yul\":8189:8227   */\n      tag_172\n        /* \"#utility.yul\":8221:8226   */\n      dup2\n        /* \"#utility.yul\":8189:8227   */\n      tag_59\n      jump\t// in\n    tag_172:\n        /* \"#utility.yul\":8273:8302   */\n      tag_173\n        /* \"#utility.yul\":8291:8301   */\n      dup5\n        /* \"#utility.yul\":8273:8302   */\n      tag_60\n      jump\t// in\n    tag_173:\n        /* \"#utility.yul\":8263:8271   */\n      dup2\n        /* \"#utility.yul\":8259:8303   */\n      add\n        /* \"#utility.yul\":8456:8458   */\n      0x20\n        /* \"#utility.yul\":8444:8454   */\n      dup6\n        /* \"#utility.yul\":8441:8459   */\n      lt\n        /* \"#utility.yul\":8438:8487   */\n      iszero\n      tag_174\n      jumpi\n        /* \"#utility.yul\":8477:8485   */\n      dup2\n        /* \"#utility.yul\":8462:8485   */\n      swap1\n      pop\n        /* \"#utility.yul\":8438:8487   */\n    tag_174:\n        /* \"#utility.yul\":8500:8580   */\n      tag_175\n        /* \"#utility.yul\":8556:8578   */\n      tag_176\n        /* \"#utility.yul\":8574:8577   */\n      dup6\n        /* \"#utility.yul\":8556:8578   */\n      tag_60\n      jump\t// in\n    tag_176:\n        /* \"#utility.yul\":8546:8554   */\n      dup4\n        /* \"#utility.yul\":8542:8579   */\n      add\n        /* \"#utility.yul\":8529:8540   */\n      dup3\n        /* \"#utility.yul\":8500:8580   */\n      tag_69\n      jump\t// in\n    tag_175:\n        /* \"#utility.yul\":8159:8590   */\n      pop\n      pop\n        /* \"#utility.yul\":8144:8590   */\n    tag_171:\n        /* \"#utility.yul\":8054:8597   */\n      pop\n      pop\n      pop\n      jump\t// out\n        /* \"#utility.yul\":8603:8720   */\n    tag_71:\n        /* \"#utility.yul\":8657:8665   */\n      0x00\n        /* \"#utility.yul\":8707:8712   */\n      dup3\n        /* \"#utility.yul\":8701:8705   */\n      dup3\n        /* \"#utility.yul\":8697:8713   */\n      shr\n        /* \"#utility.yul\":8676:8713   */\n      swap1\n      pop\n        /* \"#utility.yul\":8603:8720   */\n      swap3\n      swap2\n      pop\n      pop\n      jump\t// out\n        /* \"#utility.yul\":8726:8895   */\n    tag_72:\n        /* \"#utility.yul\":8770:8776   */\n      0x00\n        /* \"#utility.yul\":8803:8854   */\n      tag_179\n        /* \"#utility.yul\":8851:8852   */\n      0x00\n        /* \"#utility.yul\":8847:8853   */\n      not\n        /* \"#utility.yul\":8839:8844   */\n      dup5\n        /* \"#utility.yul\":8836:8837   */\n      0x08\n        /* \"#utility.yul\":8832:8845   */\n      mul\n        /* \"#utility.yul\":8803:8854   */\n      tag_71\n      jump\t// in\n    tag_179:\n        /* \"#utility.yul\":8799:8855   */\n      not\n        /* \"#utility.yul\":8884:8888   */\n      dup1\n        /* \"#utility.yul\":8878:8882   */\n      dup4\n        /* \"#utility.yul\":8874:8889   */\n      and\n        /* \"#utility.yul\":8864:8889   */\n      swap2\n      pop\n        /* \"#utility.yul\":8777:8895   */\n      pop\n        /* \"#utility.yul\":8726:8895   */\n      swap3\n      swap2\n      pop\n      pop\n      jump\t// out\n        /* \"#utility.yul\":8900:9195   */\n    tag_73:\n        /* \"#utility.yul\":8976:8980   */\n      0x00\n        /* \"#utility.yul\":9122:9151   */\n      tag_181\n        /* \"#utility.yul\":9147:9150   */\n      dup4\n        /* \"#utility.yul\":9141:9145   */\n      dup4\n        /* \"#utility.yul\":9122:9151   */\n      tag_72\n      jump\t// in\n    tag_181:\n        /* \"#utility.yul\":9114:9151   */\n      swap2\n      pop\n        /* \"#utility.yul\":9184:9187   */\n      dup3\n        /* \"#utility.yul\":9181:9182   */\n      0x02\n        /* \"#utility.yul\":9177:9188   */\n      mul\n        /* \"#utility.yul\":9171:9175   */\n      dup3\n        /* \"#utility.yul\":9168:9189   */\n      or\n        /* \"#utility.yul\":9160:9189   */\n      swap1\n      pop\n        /* \"#utility.yul\":8900:9195   */\n      swap3\n      swap2\n      pop\n      pop\n      jump\t// out\n        /* \"#utility.yul\":9200:10595   */\n    tag_28:\n        /* \"#utility.yul\":9317:9354   */\n      tag_183\n        /* \"#utility.yul\":9350:9353   */\n      dup3\n        /* \"#utility.yul\":9317:9354   */\n      tag_53\n      jump\t// in\n    tag_183:\n        /* \"#utility.yul\":9419:9437   */\n      0xffffffffffffffff\n        /* \"#utility.yul\":9411:9417   */\n      dup2\n        /* \"#utility.yul\":9408:9438   */\n      gt\n        /* \"#utility.yul\":9405:9461   */\n      iszero\n      tag_184\n      jumpi\n        /* \"#utility.yul\":9441:9459   */\n      tag_185\n      tag_41\n      jump\t// in\n    tag_185:\n        /* \"#utility.yul\":9405:9461   */\n    tag_184:\n        /* \"#utility.yul\":9485:9523   */\n      tag_186\n        /* \"#utility.yul\":9517:9521   */\n      dup3\n        /* \"#utility.yul\":9511:9522   */\n      sload\n        /* \"#utility.yul\":9485:9523   */\n      tag_30\n      jump\t// in\n    tag_186:\n        /* \"#utility.yul\":9570:9637   */\n      tag_187\n        /* \"#utility.yul\":9630:9636   */\n      dup3\n        /* \"#utility.yul\":9622:9628   */\n      dup3\n        /* \"#utility.yul\":9616:9620   */\n      dup6\n        /* \"#utility.yul\":9570:9637   */\n      tag_70\n      jump\t// in\n    tag_187:\n        /* \"#utility.yul\":9664:9665   */\n      0x00\n        /* \"#utility.yul\":9688:9692   */\n      0x20\n        /* \"#utility.yul\":9675:9692   */\n      swap1\n      pop\n        /* \"#utility.yul\":9720:9722   */\n      0x1f\n        /* \"#utility.yul\":9712:9718   */\n      dup4\n        /* \"#utility.yul\":9709:9723   */\n      gt\n        /* \"#utility.yul\":9737:9738   */\n      0x01\n        /* \"#utility.yul\":9732:10350   */\n      dup2\n      eq\n      tag_189\n      jumpi\n        /* \"#utility.yul\":10394:10395   */\n      0x00\n        /* \"#utility.yul\":10411:10417   */\n      dup5\n        /* \"#utility.yul\":10408:10485   */\n      iszero\n      tag_190\n      jumpi\n        /* \"#utility.yul\":10460:10469   */\n      dup3\n        /* \"#utility.yul\":10455:10458   */\n      dup8\n        /* \"#utility.yul\":10451:10470   */\n      add\n        /* \"#utility.yul\":10445:10471   */\n      mload\n        /* \"#utility.yul\":10436:10471   */\n      swap1\n      pop\n        /* \"#utility.yul\":10408:10485   */\n    tag_190:\n        /* \"#utility.yul\":10511:10578   */\n      tag_191\n        /* \"#utility.yul\":10571:10577   */\n      dup6\n        /* \"#utility.yul\":10564:10569   */\n      dup3\n        /* \"#utility.yul\":10511:10578   */\n      tag_73\n      jump\t// in\n    tag_191:\n        /* \"#utility.yul\":10505:10509   */\n      dup7\n        /* \"#utility.yul\":10498:10579   */\n      sstore\n        /* \"#utility.yul\":10367:10589   */\n      pop\n        /* \"#utility.yul\":9702:10589   */\n      jump(tag_188)\n        /* \"#utility.yul\":9732:10350   */\n    tag_189:\n        /* \"#utility.yul\":9784:9788   */\n      0x1f\n        /* \"#utility.yul\":9780:9789   */\n      not\n        /* \"#utility.yul\":9772:9778   */\n      dup5\n        /* \"#utility.yul\":9768:9790   */\n      and\n        /* \"#utility.yul\":9818:9855   */\n      tag_192\n        /* \"#utility.yul\":9850:9854   */\n      dup7\n        /* \"#utility.yul\":9818:9855   */\n      tag_59\n      jump\t// in\n    tag_192:\n        /* \"#utility.yul\":9877:9878   */\n      0x00\n        /* \"#utility.yul\":9891:10099   */\n    tag_193:\n        /* \"#utility.yul\":9905:9912   */\n      dup3\n        /* \"#utility.yul\":9902:9903   */\n      dup2\n        /* \"#utility.yul\":9899:9913   */\n      lt\n        /* \"#utility.yul\":9891:10099   */\n      iszero\n      tag_195\n      jumpi\n        /* \"#utility.yul\":9984:9993   */\n      dup5\n        /* \"#utility.yul\":9979:9982   */\n      dup10\n        /* \"#utility.yul\":9975:9994   */\n      add\n        /* \"#utility.yul\":9969:9995   */\n      mload\n        /* \"#utility.yul\":9961:9967   */\n      dup3\n        /* \"#utility.yul\":9954:9996   */\n      sstore\n        /* \"#utility.yul\":10035:10036   */\n      0x01\n        /* \"#utility.yul\":10027:10033   */\n      dup3\n        /* \"#utility.yul\":10023:10037   */\n      add\n        /* \"#utility.yul\":10013:10037   */\n      swap2\n      pop\n        /* \"#utility.yul\":10082:10084   */\n      0x20\n        /* \"#utility.yul\":10071:10080   */\n      dup6\n        /* \"#utility.yul\":10067:10085   */\n      add\n        /* \"#utility.yul\":10054:10085   */\n      swap5\n      pop\n        /* \"#utility.yul\":9928:9932   */\n      0x20\n        /* \"#utility.yul\":9925:9926   */\n      dup2\n        /* \"#utility.yul\":9921:9933   */\n      add\n        /* \"#utility.yul\":9916:9933   */\n      swap1\n      pop\n        /* \"#utility.yul\":9891:10099   */\n      jump(tag_193)\n    tag_195:\n        /* \"#utility.yul\":10127:10133   */\n      dup7\n        /* \"#utility.yul\":10118:10125   */\n      dup4\n        /* \"#utility.yul\":10115:10134   */\n      lt\n        /* \"#utility.yul\":10112:10291   */\n      iszero\n      tag_196\n      jumpi\n        /* \"#utility.yul\":10185:10194   */\n      dup5\n        /* \"#utility.yul\":10180:10183   */\n      dup10\n        /* \"#utility.yul\":10176:10195   */\n      add\n        /* \"#utility.yul\":10170:10196   */\n      mload\n        /* \"#utility.yul\":10228:10276   */\n      tag_197\n        /* \"#utility.yul\":10270:10274   */\n      0x1f\n        /* \"#utility.yul\":10262:10268   */\n      dup10\n        /* \"#utility.yul\":10258:10275   */\n      and\n        /* \"#utility.yul\":10247:10256   */\n      dup3\n        /* \"#utility.yul\":10228:10276   */\n      tag_72\n      jump\t// in\n    tag_197:\n        /* \"#utility.yul\":10220:10226   */\n      dup4\n        /* \"#utility.yul\":10213:10277   */\n      sstore\n        /* \"#utility.yul\":10135:10291   */\n      pop\n        /* \"#utility.yul\":10112:10291   */\n    tag_196:\n        /* \"#utility.yul\":10337:10338   */\n      0x01\n        /* \"#utility.yul\":10333:10334   */\n      0x02\n        /* \"#utility.yul\":10325:10331   */\n      dup9\n        /* \"#utility.yul\":10321:10335   */\n      mul\n        /* \"#utility.yul\":10317:10339   */\n      add\n        /* \"#utility.yul\":10311:10315   */\n      dup9\n        /* \"#utility.yul\":10304:10340   */\n      sstore\n        /* \"#utility.yul\":9739:10350   */\n      pop\n      pop\n      pop\n        /* \"#utility.yul\":9702:10589   */\n    tag_188:\n      pop\n        /* \"#utility.yul\":9292:10595   */\n      pop\n      pop\n      pop\n        /* \"#utility.yul\":9200:10595   */\n      pop\n      pop\n      jump\t// out\n\n    auxdata: 0xa2646970667358221220fb840c9523988f3b432ca2fa72b301c55569a5abd4751db02170b358a2a68c6764736f6c63430008130033\n}\n",
				"bytecode": {
					"linkReferences": {},
					"object": "608060405234801561001057600080fd5b5033600160006101000a81548173ffffffffffffffffffffffffffffffffffffffff021916908373ffffffffffffffffffffffffffffffffffffffff160217905550610861806100616000396000f3fe608060405234801561001057600080fd5b506004361061004c5760003560e01c80631923be241461005157806369fe76b01461006d5780638da5cb5b1461008b578063c9d96ad2146100a9575b600080fd5b61006b6004803603810190610066919061035c565b6100c7565b005b610075610148565b60405161008291906103be565b60405180910390f35b61009361014e565b6040516100a0919061041a565b60405180910390f35b6100b1610174565b6040516100be91906104b4565b60405180910390f35b600160009054906101000a900473ffffffffffffffffffffffffffffffffffffffff1673ffffffffffffffffffffffffffffffffffffffff163373ffffffffffffffffffffffffffffffffffffffff1603610145576002600081548092919061012f90610505565b919050555080600090816101439190610759565b505b50565b60025481565b600160009054906101000a900473ffffffffffffffffffffffffffffffffffffffff1681565b600080546101819061057c565b80601f01602080910402602001604051908101604052809291908181526020018280546101ad9061057c565b80156101fa5780601f106101cf576101008083540402835291602001916101fa565b820191906000526020600020905b8154815290600101906020018083116101dd57829003601f168201915b505050505081565b6000604051905090565b600080fd5b600080fd5b600080fd5b600080fd5b6000601f19601f8301169050919050565b7f4e487b7100000000000000000000000000000000000000000000000000000000600052604160045260246000fd5b61026982610220565b810181811067ffffffffffffffff8211171561028857610287610231565b5b80604052505050565b600061029b610202565b90506102a78282610260565b919050565b600067ffffffffffffffff8211156102c7576102c6610231565b5b6102d082610220565b9050602081019050919050565b82818337600083830152505050565b60006102ff6102fa846102ac565b610291565b90508281526020810184848401111561031b5761031a61021b565b5b6103268482856102dd565b509392505050565b600082601f83011261034357610342610216565b5b81356103538482602086016102ec565b91505092915050565b6000602082840312156103725761037161020c565b5b600082013567ffffffffffffffff8111156103905761038f610211565b5b61039c8482850161032e565b91505092915050565b6000819050919050565b6103b8816103a5565b82525050565b60006020820190506103d360008301846103af565b92915050565b600073ffffffffffffffffffffffffffffffffffffffff82169050919050565b6000610404826103d9565b9050919050565b610414816103f9565b82525050565b600060208201905061042f600083018461040b565b92915050565b600081519050919050565b600082825260208201905092915050565b60005b8381101561046f578082015181840152602081019050610454565b60008484015250505050565b600061048682610435565b6104908185610440565b93506104a0818560208601610451565b6104a981610220565b840191505092915050565b600060208201905081810360008301526104ce818461047b565b905092915050565b7f4e487b7100000000000000000000000000000000000000000000000000000000600052601160045260246000fd5b6000610510826103a5565b91507fffffffffffffffffffffffffffffffffffffffffffffffffffffffffffffffff8203610542576105416104d6565b5b600182019050919050565b7f4e487b7100000000000000000000000000000000000000000000000000000000600052602260045260246000fd5b6000600282049050600182168061059457607f821691505b6020821081036105a7576105a661054d565b5b50919050565b60008190508160005260206000209050919050565b60006020601f8301049050919050565b600082821b905092915050565b60006008830261060f7fffffffffffffffffffffffffffffffffffffffffffffffffffffffffffffffff826105d2565b61061986836105d2565b95508019841693508086168417925050509392505050565b6000819050919050565b600061065661065161064c846103a5565b610631565b6103a5565b9050919050565b6000819050919050565b6106708361063b565b61068461067c8261065d565b8484546105df565b825550505050565b600090565b61069961068c565b6106a4818484610667565b505050565b5b818110156106c8576106bd600082610691565b6001810190506106aa565b5050565b601f82111561070d576106de816105ad565b6106e7846105c2565b810160208510156106f6578190505b61070a610702856105c2565b8301826106a9565b50505b505050565b600082821c905092915050565b600061073060001984600802610712565b1980831691505092915050565b6000610749838361071f565b9150826002028217905092915050565b61076282610435565b67ffffffffffffffff81111561077b5761077a610231565b5b610785825461057c565b6107908282856106cc565b600060209050601f8311600181146107c357600084156107b1578287015190505b6107bb858261073d565b865550610823565b601f1984166107d1866105ad565b60005b828110156107f9578489015182556001820191506020850194506020810190506107d4565b868310156108165784890151610812601f89168261071f565b8355505b6001600288020188555050505b50505050505056fea2646970667358221220fb840c9523988f3b432ca2fa72b301c55569a5abd4751db02170b358a2a68c6764736f6c63430008130033",
					"opcodes": "PUSH1 0x80 PUSH1 0x40 MSTORE CALLVALUE DUP1 ISZERO PUSH2 0x10 JUMPI PUSH1 0x0 DUP1 REVERT JUMPDEST POP CALLER PUSH1 0x1 PUSH1 0x0 PUSH2 0x100 EXP DUP2 SLOAD DUP2 PUSH20 0xFFFFFFFFFFFFFFFFFFFFFFFFFFFFFFFFFFFFFFFF MUL NOT AND SWAP1 DUP4 PUSH20 0xFFFFFFFFFFFFFFFFFFFFFFFFFFFFFFFFFFFFFFFF AND MUL OR SWAP1 SSTORE POP PUSH2 0x861 DUP1 PUSH2 0x61 PUSH1 0x0 CODECOPY PUSH1 0x0 RETURN INVALID PUSH1 0x80 PUSH1 0x40 MSTORE CALLVALUE DUP1 ISZERO PUSH2 0x10 JUMPI PUSH1 0x0 DUP1 REVERT JUMPDEST POP PUSH1 0x4 CALLDATASIZE LT PUSH2 0x4C JUMPI PUSH1 0x0 CALLDATALOAD PUSH1 0xE0 SHR DUP1 PUSH4 0x1923BE24 EQ PUSH2 0x51 JUMPI DUP1 PUSH4 0x69FE76B0 EQ PUSH2 0x6D JUMPI DUP1 PUSH4 0x8DA5CB5B EQ PUSH2 0x8B JUMPI DUP1 PUSH4 0xC9D96AD2 EQ PUSH2 0xA9 JUMPI JUMPDEST PUSH1 0x0 DUP1 REVERT JUMPDEST PUSH2 0x6B PUSH1 0x4 DUP1 CALLDATASIZE SUB DUP2 ADD SWAP1 PUSH2 0x66 SWAP2 SWAP1 PUSH2 0x35C JUMP JUMPDEST PUSH2 0xC7 JUMP JUMPDEST STOP JUMPDEST PUSH2 0x75 PUSH2 0x148 JUMP JUMPDEST PUSH1 0x40 MLOAD PUSH2 0x82 SWAP2 SWAP1 PUSH2 0x3BE JUMP JUMPDEST PUSH1 0x40 MLOAD DUP1 SWAP2 SUB SWAP1 RETURN JUMPDEST PUSH2 0x93 PUSH2 0x14E JUMP JUMPDEST PUSH1 0x40 MLOAD PUSH2 0xA0 SWAP2 SWAP1 PUSH2 0x41A JUMP JUMPDEST PUSH1 0x40 MLOAD DUP1 SWAP2 SUB SWAP1 RETURN JUMPDEST PUSH2 0xB1 PUSH2 0x174 JUMP JUMPDEST PUSH1 0x40 MLOAD PUSH2 0xBE SWAP2 SWAP1 PUSH2 0x4B4 JUMP JUMPDEST PUSH1 0x40 MLOAD DUP1 SWAP2 SUB SWAP1 RETURN JUMPDEST PUSH1 0x1 PUSH1 0x0 SWAP1 SLOAD SWAP1 PUSH2 0x100 EXP SWAP1 DIV PUSH20 0xFFFFFFFFFFFFFFFFFFFFFFFFFFFFFFFFFFFFFFFF AND PUSH20 0xFFFFFFFFFFFFFFFFFFFFFFFFFFFFFFFFFFFFFFFF AND CALLER PUSH20 0xFFFFFFFFFFFFFFFFFFFFFFFFFFFFFFFFFFFFFFFF AND SUB PUSH2 0x145 JUMPI PUSH1 0x2 PUSH1 0x0 DUP2 SLOAD DUP1 SWAP3 SWAP2 SWAP1 PUSH2 0x12F SWAP1 PUSH2 0x505 JUMP JUMPDEST SWAP2 SWAP1 POP SSTORE POP DUP1 PUSH1 0x0 SWAP1 DUP2 PUSH2 0x143 SWAP2 SWAP1 PUSH2 0x759 JUMP JUMPDEST POP JUMPDEST POP JUMP JUMPDEST PUSH1 0x2 SLOAD DUP2 JUMP JUMPDEST PUSH1 0x1 PUSH1 0x0 SWAP1 SLOAD SWAP1 PUSH2 0x100 EXP SWAP1 DIV PUSH20 0xFFFFFFFFFFFFFFFFFFFFFFFFFFFFFFFFFFFFFFFF AND DUP2 JUMP JUMPDEST PUSH1 0x0 DUP1 SLOAD PUSH2 0x181 SWAP1 PUSH2 0x57C JUMP JUMPDEST DUP1 PUSH1 0x1F ADD PUSH1 0x20 DUP1 SWAP2 DIV MUL PUSH1 0x20 ADD PUSH1 0x40 MLOAD SWAP1 DUP2 ADD PUSH1 0x40 MSTORE DUP1 SWAP3 SWAP2 SWAP1 DUP2 DUP2 MSTORE PUSH1 0x20 ADD DUP3 DUP1 SLOAD PUSH2 0x1AD SWAP1 PUSH2 0x57C JUMP JUMPDEST DUP1 ISZERO PUSH2 0x1FA JUMPI DUP1 PUSH1 0x1F LT PUSH2 0x1CF JUMPI PUSH2 0x100 DUP1 DUP4 SLOAD DIV MUL DUP4 MSTORE SWAP2 PUSH1 0x20 ADD SWAP2 PUSH2 0x1FA JUMP JUMPDEST DUP3 ADD SWAP2 SWAP1 PUSH1 0x0 MSTORE PUSH1 0x20 PUSH1 0x0 KECCAK256 SWAP1 JUMPDEST DUP2 SLOAD DUP2 MSTORE SWAP1 PUSH1 0x1 ADD SWAP1 PUSH1 0x20 ADD DUP1 DUP4 GT PUSH2 0x1DD JUMPI DUP3 SWAP1 SUB PUSH1 0x1F AND DUP3 ADD SWAP2 JUMPDEST POP POP POP POP POP DUP2 JUMP JUMPDEST PUSH1 0x0 PUSH1 0x40 MLOAD SWAP1 POP SWAP1 JUMP JUMPDEST PUSH1 0x0 DUP1 REVERT JUMPDEST PUSH1 0x0 DUP1 REVERT JUMPDEST PUSH1 0x0 DUP1 REVERT JUMPDEST PUSH1 0x0 DUP1 REVERT JUMPDEST PUSH1 0x0 PUSH1 0x1F NOT PUSH1 0x1F DUP4 ADD AND SWAP1 POP SWAP2 SWAP1 POP JUMP JUMPDEST PUSH32 0x4E487B7100000000000000000000000000000000000000000000000000000000 PUSH1 0x0 MSTORE PUSH1 0x41 PUSH1 0x4 MSTORE PUSH1 0x24 PUSH1 0x0 REVERT JUMPDEST PUSH2 0x269 DUP3 PUSH2 0x220 JUMP JUMPDEST DUP2 ADD DUP2 DUP2 LT PUSH8 0xFFFFFFFFFFFFFFFF DUP3 GT OR ISZERO PUSH2 0x288 JUMPI PUSH2 0x287 PUSH2 0x231 JUMP JUMPDEST JUMPDEST DUP1 PUSH1 0x40 MSTORE POP POP POP JUMP JUMPDEST PUSH1 0x0 PUSH2 0x29B PUSH2 0x202 JUMP JUMPDEST SWAP1 POP PUSH2 0x2A7 DUP3 DUP3 PUSH2 0x260 JUMP JUMPDEST SWAP2 SWAP1 POP JUMP JUMPDEST PUSH1 0x0 PUSH8 0xFFFFFFFFFFFFFFFF DUP3 GT ISZERO PUSH2 0x2C7 JUMPI PUSH2 0x2C6 PUSH2 0x231 JUMP JUMPDEST JUMPDEST PUSH2 0x2D0 DUP3 PUSH2 0x220 JUMP JUMPDEST SWAP1 POP PUSH1 0x20 DUP2 ADD SWAP1 POP SWAP2 SWAP1 POP JUMP JUMPDEST DUP3 DUP2 DUP4 CALLDATACOPY PUSH1 0x0 DUP4 DUP4 ADD MSTORE POP POP POP JUMP JUMPDEST PUSH1 0x0 PUSH2 0x2FF PUSH2 0x2FA DUP5 PUSH2 0x2AC JUMP JUMPDEST PUSH2 0x291 JUMP JUMPDEST SWAP1 POP DUP3 DUP2 MSTORE PUSH1 0x20 DUP2 ADD DUP5 DUP5 DUP5 ADD GT ISZERO PUSH2 0x31B JUMPI PUSH2 0x31A PUSH2 0x21B JUMP JUMPDEST JUMPDEST PUSH2 0x326 DUP5 DUP3 DUP6 PUSH2 0x2DD JUMP JUMPDEST POP SWAP4 SWAP3 POP POP POP JUMP JUMPDEST PUSH1 0x0 DUP3 PUSH1 0x1F DUP4 ADD SLT PUSH2 0x343 JUMPI PUSH2 0x342 PUSH2 0x216 JUMP JUMPDEST JUMPDEST DUP2 CALLDATALOAD PUSH2 0x353 DUP5 DUP3 PUSH1 0x20 DUP7 ADD PUSH2 0x2EC JUMP JUMPDEST SWAP2 POP POP SWAP3 SWAP2 POP POP JUMP JUMPDEST PUSH1 0x0 PUSH1 0x20 DUP3 DUP5 SUB SLT ISZERO PUSH2 0x372 JUMPI PUSH2 0x371 PUSH2 0x20C JUMP JUMPDEST JUMPDEST PUSH1 0x0 DUP3 ADD CALLDATALOAD PUSH8 0xFFFFFFFFFFFFFFFF DUP2 GT ISZERO PUSH2 0x390 JUMPI PUSH2 0x38F PUSH2 0x211 JUMP JUMPDEST JUMPDEST PUSH2 0x39C DUP5 DUP3 DUP6 ADD PUSH2 0x32E JUMP JUMPDEST SWAP2 POP POP SWAP3 SWAP2 POP POP JUMP JUMPDEST PUSH1 0x0 DUP2 SWAP1 POP SWAP2 SWAP1 POP JUMP JUMPDEST PUSH2 0x3B8 DUP2 PUSH2 0x3A5 JUMP JUMPDEST DUP3 MSTORE POP POP JUMP JUMPDEST PUSH1 0x0 PUSH1 0x20 DUP3 ADD SWAP1 POP PUSH2 0x3D3 PUSH1 0x0 DUP4 ADD DUP5 PUSH2 0x3AF JUMP JUMPDEST SWAP3 SWAP2 POP POP JUMP JUMPDEST PUSH1 0x0 PUSH20 0xFFFFFFFFFFFFFFFFFFFFFFFFFFFFFFFFFFFFFFFF DUP3 AND SWAP1 POP SWAP2 SWAP1 POP JUMP JUMPDEST PUSH1 0x0 PUSH2 0x404 DUP3 PUSH2 0x3D9 JUMP JUMPDEST SWAP1 POP SWAP2 SWAP1 POP JUMP JUMPDEST PUSH2 0x414 DUP2 PUSH2 0x3F9 JUMP JUMPDEST DUP3 MSTORE POP POP JUMP JUMPDEST PUSH1 0x0 PUSH1 0x20 DUP3 ADD SWAP1 POP PUSH2 0x42F PUSH1 0x0 DUP4 ADD DUP5 PUSH2 0x40B JUMP JUMPDEST SWAP3 SWAP2 POP POP JUMP JUMPDEST PUSH1 0x0 DUP2 MLOAD SWAP1 POP SWAP2 SWAP1 POP JUMP JUMPDEST PUSH1 0x0 DUP3 DUP3 MSTORE PUSH1 0x20 DUP3 ADD SWAP1 POP SWAP3 SWAP2 POP POP JUMP JUMPDEST PUSH1 0x0 JUMPDEST DUP4 DUP2 LT ISZERO PUSH2 0x46F JUMPI DUP1 DUP3 ADD MLOAD DUP2 DUP5 ADD MSTORE PUSH1 0x20 DUP2 ADD SWAP1 POP PUSH2 0x454 JUMP JUMPDEST PUSH1 0x0 DUP5 DUP5 ADD MSTORE POP POP POP POP JUMP JUMPDEST PUSH1 0x0 PUSH2 0x486 DUP3 PUSH2 0x435 JUMP JUMPDEST PUSH2 0x490 DUP2 DUP6 PUSH2 0x440 JUMP JUMPDEST SWAP4 POP PUSH2 0x4A0 DUP2 DUP6 PUSH1 0x20 DUP7 ADD PUSH2 0x451 JUMP JUMPDEST PUSH2 0x4A9 DUP2 PUSH2 0x220 JUMP JUMPDEST DUP5 ADD SWAP2 POP POP SWAP3 SWAP2 POP POP JUMP JUMPDEST PUSH1 0x0 PUSH1 0x20 DUP3 ADD SWAP1 POP DUP2 DUP2 SUB PUSH1 0x0 DUP4 ADD MSTORE PUSH2 0x4CE DUP2 DUP5 PUSH2 0x47B JUMP JUMPDEST SWAP1 POP SWAP3 SWAP2 POP POP JUMP JUMPDEST PUSH32 0x4E487B7100000000000000000000000000000000000000000000000000000000 PUSH1 0x0 MSTORE PUSH1 0x11 PUSH1 0x4 MSTORE PUSH1 0x24 PUSH1 0x0 REVERT JUMPDEST PUSH1 0x0 PUSH2 0x510 DUP3 PUSH2 0x3A5 JUMP JUMPDEST SWAP2 POP PUSH32 0xFFFFFFFFFFFFFFFFFFFFFFFFFFFFFFFFFFFFFFFFFFFFFFFFFFFFFFFFFFFFFFFF DUP3 SUB PUSH2 0x542 JUMPI PUSH2 0x541 PUSH2 0x4D6 JUMP JUMPDEST JUMPDEST PUSH1 0x1 DUP3 ADD SWAP1 POP SWAP2 SWAP1 POP JUMP JUMPDEST PUSH32 0x4E487B7100000000000000000000000000000000000000000000000000000000 PUSH1 0x0 MSTORE PUSH1 0x22 PUSH1 0x4 MSTORE PUSH1 0x24 PUSH1 0x0 REVERT JUMPDEST PUSH1 0x0 PUSH1 0x2 DUP3 DIV SWAP1 POP PUSH1 0x1 DUP3 AND DUP1 PUSH2 0x594 JUMPI PUSH1 0x7F DUP3 AND SWAP2 POP JUMPDEST PUSH1 0x20 DUP3 LT DUP2 SUB PUSH2 0x5A7 JUMPI PUSH2 0x5A6 PUSH2 0x54D JUMP JUMPDEST JUMPDEST POP SWAP2 SWAP1 POP JUMP JUMPDEST PUSH1 0x0 DUP2 SWAP1 POP DUP2 PUSH1 0x0 MSTORE PUSH1 0x20 PUSH1 0x0 KECCAK256 SWAP1 POP SWAP2 SWAP1 POP JUMP JUMPDEST PUSH1 0x0 PUSH1 0x20 PUSH1 0x1F DUP4 ADD DIV SWAP1 POP SWAP2 SWAP1 POP JUMP JUMPDEST PUSH1 0x0 DUP3 DUP3 SHL SWAP1 POP SWAP3 SWAP2 POP POP JUMP JUMPDEST PUSH1 0x0 PUSH1 0x8 DUP4 MUL PUSH2 0x60F PUSH32 0xFFFFFFFFFFFFFFFFFFFFFFFFFFFFFFFFFFFFFFFFFFFFFFFFFFFFFFFFFFFFFFFF DUP3 PUSH2 0x5D2 JUMP JUMPDEST PUSH2 0x619 DUP7 DUP4 PUSH2 0x5D2 JUMP JUMPDEST SWAP6 POP DUP1 NOT DUP5 AND SWAP4 POP DUP1 DUP7 AND DUP5 OR SWAP3 POP POP POP SWAP4 SWAP3 POP POP POP JUMP JUMPDEST PUSH1 0x0 DUP2 SWAP1 POP SWAP2 SWAP1 POP JUMP JUMPDEST PUSH1 0x0 PUSH2 0x656 PUSH2 0x651 PUSH2 0x64C DUP5 PUSH2 0x3A5 JUMP JUMPDEST PUSH2 0x631 JUMP JUMPDEST PUSH2 0x3A5 JUMP JUMPDEST SWAP1 POP SWAP2 SWAP1 POP JUMP JUMPDEST PUSH1 0x0 DUP2 SWAP1 POP SWAP2 SWAP1 POP JUMP JUMPDEST PUSH2 0x670 DUP4 PUSH2 0x63B JUMP JUMPDEST PUSH2 0x684 PUSH2 0x67C DUP3 PUSH2 0x65D JUMP JUMPDEST DUP5 DUP5 SLOAD PUSH2 0x5DF JUMP JUMPDEST DUP3 SSTORE POP POP POP POP JUMP JUMPDEST PUSH1 0x0 SWAP1 JUMP JUMPDEST PUSH2 0x699 PUSH2 0x68C JUMP JUMPDEST PUSH2 0x6A4 DUP2 DUP5 DUP5 PUSH2 0x667 JUMP JUMPDEST POP POP POP JUMP JUMPDEST JUMPDEST DUP2 DUP2 LT ISZERO PUSH2 0x6C8 JUMPI PUSH2 0x6BD PUSH1 0x0 DUP3 PUSH2 0x691 JUMP JUMPDEST PUSH1 0x1 DUP2 ADD SWAP1 POP PUSH2 0x6AA JUMP JUMPDEST POP POP JUMP JUMPDEST PUSH1 0x1F DUP3 GT ISZERO PUSH2 0x70D JUMPI PUSH2 0x6DE DUP2 PUSH2 0x5AD JUMP JUMPDEST PUSH2 0x6E7 DUP5 PUSH2 0x5C2 JUMP JUMPDEST DUP2 ADD PUSH1 0x20 DUP6 LT ISZERO PUSH2 0x6F6 JUMPI DUP2 SWAP1 POP JUMPDEST PUSH2 0x70A PUSH2 0x702 DUP6 PUSH2 0x5C2 JUMP JUMPDEST DUP4 ADD DUP3 PUSH2 0x6A9 JUMP JUMPDEST POP POP JUMPDEST POP POP POP JUMP JUMPDEST PUSH1 0x0 DUP3 DUP3 SHR SWAP1 POP SWAP3 SWAP2 POP POP JUMP JUMPDEST PUSH1 0x0 PUSH2 0x730 PUSH1 0x0 NOT DUP5 PUSH1 0x8 MUL PUSH2 0x712 JUMP JUMPDEST NOT DUP1 DUP4 AND SWAP2 POP POP SWAP3 SWAP2 POP POP JUMP JUMPDEST PUSH1 0x0 PUSH2 0x749 DUP4 DUP4 PUSH2 0x71F JUMP JUMPDEST SWAP2 POP DUP3 PUSH1 0x2 MUL DUP3 OR SWAP1 POP SWAP3 SWAP2 POP POP JUMP JUMPDEST PUSH2 0x762 DUP3 PUSH2 0x435 JUMP JUMPDEST PUSH8 0xFFFFFFFFFFFFFFFF DUP2 GT ISZERO PUSH2 0x77B JUMPI PUSH2 0x77A PUSH2 0x231 JUMP JUMPDEST JUMPDEST PUSH2 0x785 DUP3 SLOAD PUSH2 0x57C JUMP JUMPDEST PUSH2 0x790 DUP3 DUP3 DUP6 PUSH2 0x6CC JUMP JUMPDEST PUSH1 0x0 PUSH1 0x20 SWAP1 POP PUSH1 0x1F DUP4 GT PUSH1 0x1 DUP2 EQ PUSH2 0x7C3 JUMPI PUSH1 0x0 DUP5 ISZERO PUSH2 0x7B1 JUMPI DUP3 DUP8 ADD MLOAD SWAP1 POP JUMPDEST PUSH2 0x7BB DUP6 DUP3 PUSH2 0x73D JUMP JUMPDEST DUP7 SSTORE POP PUSH2 0x823 JUMP JUMPDEST PUSH1 0x1F NOT DUP5 AND PUSH2 0x7D1 DUP7 PUSH2 0x5AD JUMP JUMPDEST PUSH1 0x0 JUMPDEST DUP3 DUP2 LT ISZERO PUSH2 0x7F9 JUMPI DUP5 DUP10 ADD MLOAD DUP3 SSTORE PUSH1 0x1 DUP3 ADD SWAP2 POP PUSH1 0x20 DUP6 ADD SWAP5 POP PUSH1 0x20 DUP2 ADD SWAP1 POP PUSH2 0x7D4 JUMP JUMPDEST DUP7 DUP4 LT ISZERO PUSH2 0x816 JUMPI DUP5 DUP10 ADD MLOAD PUSH2 0x812 PUSH1 0x1F DUP10 AND DUP3 PUSH2 0x71F JUMP JUMPDEST DUP4 SSTORE POP JUMPDEST PUSH1 0x1 PUSH1 0x2 DUP9 MUL ADD DUP9 SSTORE POP POP POP JUMPDEST POP POP POP POP POP POP JUMP INVALID LOG2 PUSH5 0x6970667358 0x22 SLT KECCAK256 0xFB DUP5 0xC SWAP6 0x23 SWAP9 DUP16 EXTCODESIZE NUMBER 0x2C LOG2 STATICCALL PUSH19 0xB301C55569A5ABD4751DB02170B358A2A68C67 PUSH5 0x736F6C6343 STOP ADDMOD SGT STOP CALLER "
				},
				"gasEstimates": {
					"creation": {
						"codeDepositCost": "429000",
						"executionCost": "24734",
						"totalCost": "453734"
					},
					"external": {
						"messageUpdateCounter()": "2429",
						"messgae()": "infinite",
						"owner()": "2536",
						"updateMessage(string)": "infinite"
					}
				},
				"methodIdentifiers": {
					"messageUpdateCounter()": "69fe76b0",
					"messgae()": "c9d96ad2",
					"owner()": "8da5cb5b",
					"updateMessage(string)": "1923be24"
				}
			},
			"storageLayout": {
				"storage": [
					{
						"astId": 3,
						"contract": "contracts/myProjectContracts/Messanger.sol:MessangerExample",
						"label": "messgae",
						"offset": 0,
						"slot": "0",
						"type": "t_string_storage"
					},
					{
						"astId": 5,
						"contract": "contracts/myProjectContracts/Messanger.sol:MessangerExample",
						"label": "owner",
						"offset": 0,
						"slot": "1",
						"type": "t_address"
					},
					{
						"astId": 7,
						"contract": "contracts/myProjectContracts/Messanger.sol:MessangerExample",
						"label": "messageUpdateCounter",
						"offset": 0,
						"slot": "2",
						"type": "t_uint256"
					}
				],
				"types": {
					"t_address": {
						"encoding": "inplace",
						"label": "address",
						"numberOfBytes": "20"
					},
					"t_string_storage": {
						"encoding": "bytes",
						"label": "string",
						"numberOfBytes": "32"
					},
					"t_uint256": {
						"encoding": "inplace",
						"label": "uint256",
						"numberOfBytes": "32"
					}
				}
			},
			"userdoc": {
				"kind": "user",
				"methods": {},
				"version": 1
			}
		}
	}
}