{
	"remix-project-files/contracts/myProjectContracts/SampleWallet.sol": {
		"SampleWalletContract": {
			"abi": [
				{
					"inputs": [],
					"name": "deposit",
					"outputs": [],
					"stateMutability": "payable",
					"type": "function"
				},
				{
					"inputs": [],
					"name": "getWalletContractBalance",
					"outputs": [
						{
							"internalType": "uint256",
							"name": "",
							"type": "uint256"
						}
					],
					"stateMutability": "view",
					"type": "function"
				},
				{
					"inputs": [],
					"name": "walletBalance",
					"outputs": [
						{
							"internalType": "uint256",
							"name": "",
							"type": "uint256"
						}
					],
					"stateMutability": "view",
					"type": "function"
				},
				{
					"inputs": [],
					"name": "withdrawAll",
					"outputs": [],
					"stateMutability": "nonpayable",
					"type": "function"
				},
				{
					"inputs": [
						{
							"internalType": "address payable",
							"name": "to",
							"type": "address"
						}
					],
					"name": "withdrawToAddress",
					"outputs": [],
					"stateMutability": "nonpayable",
					"type": "function"
				}
			],
			"devdoc": {
				"kind": "dev",
				"methods": {},
				"version": 1
			},
			"evm": {
				"assembly": "    /* \"remix-project-files/contracts/myProjectContracts/SampleWallet.sol\":59:635  contract SampleWalletContract {... */\n  mstore(0x40, 0x80)\n  callvalue\n  dup1\n  iszero\n  tag_1\n  jumpi\n  0x00\n  dup1\n  revert\ntag_1:\n  pop\n  dataSize(sub_0)\n  dup1\n  dataOffset(sub_0)\n  0x00\n  codecopy\n  0x00\n  return\nstop\n\nsub_0: assembly {\n        /* \"remix-project-files/contracts/myProjectContracts/SampleWallet.sol\":59:635  contract SampleWalletContract {... */\n      mstore(0x40, 0x80)\n      jumpi(tag_1, lt(calldatasize, 0x04))\n      shr(0xe0, calldataload(0x00))\n      dup1\n      0x853828b6\n      eq\n      tag_2\n      jumpi\n      dup1\n      0xa92bd72c\n      eq\n      tag_3\n      jumpi\n      dup1\n      0xbe719fc9\n      eq\n      tag_4\n      jumpi\n      dup1\n      0xcd0a314b\n      eq\n      tag_5\n      jumpi\n      dup1\n      0xd0e30db0\n      eq\n      tag_6\n      jumpi\n    tag_1:\n      0x00\n      dup1\n      revert\n        /* \"remix-project-files/contracts/myProjectContracts/SampleWallet.sol\":326:489  function withdrawAll() public {... */\n    tag_2:\n      callvalue\n      dup1\n      iszero\n      tag_7\n      jumpi\n      0x00\n      dup1\n      revert\n    tag_7:\n      pop\n      tag_8\n      tag_9\n      jump\t// in\n    tag_8:\n      stop\n        /* \"remix-project-files/contracts/myProjectContracts/SampleWallet.sol\":495:632  function withdrawToAddress(address payable to) public {... */\n    tag_3:\n      callvalue\n      dup1\n      iszero\n      tag_10\n      jumpi\n      0x00\n      dup1\n      revert\n    tag_10:\n      pop\n      tag_11\n      0x04\n      dup1\n      calldatasize\n      sub\n      dup2\n      add\n      swap1\n      tag_12\n      swap2\n      swap1\n      tag_13\n      jump\t// in\n    tag_12:\n      tag_14\n      jump\t// in\n    tag_11:\n      stop\n        /* \"remix-project-files/contracts/myProjectContracts/SampleWallet.sol\":212:320  function getWalletContractBalance() public view returns (uint) {... */\n    tag_4:\n      callvalue\n      dup1\n      iszero\n      tag_15\n      jumpi\n      0x00\n      dup1\n      revert\n    tag_15:\n      pop\n      tag_16\n      tag_17\n      jump\t// in\n    tag_16:\n      mload(0x40)\n      tag_18\n      swap2\n      swap1\n      tag_19\n      jump\t// in\n    tag_18:\n      mload(0x40)\n      dup1\n      swap2\n      sub\n      swap1\n      return\n        /* \"remix-project-files/contracts/myProjectContracts/SampleWallet.sol\":96:121  uint public walletBalance */\n    tag_5:\n      callvalue\n      dup1\n      iszero\n      tag_20\n      jumpi\n      0x00\n      dup1\n      revert\n    tag_20:\n      pop\n      tag_21\n      tag_22\n      jump\t// in\n    tag_21:\n      mload(0x40)\n      tag_23\n      swap2\n      swap1\n      tag_19\n      jump\t// in\n    tag_23:\n      mload(0x40)\n      dup1\n      swap2\n      sub\n      swap1\n      return\n        /* \"remix-project-files/contracts/myProjectContracts/SampleWallet.sol\":128:206  function deposit() public payable {... */\n    tag_6:\n      tag_24\n      tag_25\n      jump\t// in\n    tag_24:\n      stop\n        /* \"remix-project-files/contracts/myProjectContracts/SampleWallet.sol\":326:489  function withdrawAll() public {... */\n    tag_9:\n        /* \"remix-project-files/contracts/myProjectContracts/SampleWallet.sol\":366:384  address payable to */\n      0x00\n        /* \"remix-project-files/contracts/myProjectContracts/SampleWallet.sol\":395:405  msg.sender */\n      caller\n        /* \"remix-project-files/contracts/myProjectContracts/SampleWallet.sol\":366:406  address payable to = payable(msg.sender) */\n      swap1\n      pop\n        /* \"remix-project-files/contracts/myProjectContracts/SampleWallet.sol\":416:418  to */\n      dup1\n        /* \"remix-project-files/contracts/myProjectContracts/SampleWallet.sol\":416:427  to.transfer */\n      0xffffffffffffffffffffffffffffffffffffffff\n      and\n        /* \"remix-project-files/contracts/myProjectContracts/SampleWallet.sol\":416:455  to.transfer(getWalletContractBalance()) */\n      0x08fc\n        /* \"remix-project-files/contracts/myProjectContracts/SampleWallet.sol\":428:454  getWalletContractBalance() */\n      tag_27\n        /* \"remix-project-files/contracts/myProjectContracts/SampleWallet.sol\":428:452  getWalletContractBalance */\n      tag_17\n        /* \"remix-project-files/contracts/myProjectContracts/SampleWallet.sol\":428:454  getWalletContractBalance() */\n      jump\t// in\n    tag_27:\n        /* \"remix-project-files/contracts/myProjectContracts/SampleWallet.sol\":416:455  to.transfer(getWalletContractBalance()) */\n      swap1\n      dup2\n      iszero\n      mul\n      swap1\n      mload(0x40)\n      0x00\n      mload(0x40)\n      dup1\n      dup4\n      sub\n      dup2\n      dup6\n      dup9\n      dup9\n      call\n      swap4\n      pop\n      pop\n      pop\n      pop\n      iszero\n      dup1\n      iszero\n      tag_29\n      jumpi\n      returndatasize\n      0x00\n      dup1\n      returndatacopy\n      revert(0x00, returndatasize)\n    tag_29:\n      pop\n        /* \"remix-project-files/contracts/myProjectContracts/SampleWallet.sol\":481:482  0 */\n      0x00\n        /* \"remix-project-files/contracts/myProjectContracts/SampleWallet.sol\":465:478  walletBalance */\n      dup1\n        /* \"remix-project-files/contracts/myProjectContracts/SampleWallet.sol\":465:482  walletBalance = 0 */\n      dup2\n      swap1\n      sstore\n      pop\n        /* \"remix-project-files/contracts/myProjectContracts/SampleWallet.sol\":356:489  {... */\n      pop\n        /* \"remix-project-files/contracts/myProjectContracts/SampleWallet.sol\":326:489  function withdrawAll() public {... */\n      jump\t// out\n        /* \"remix-project-files/contracts/myProjectContracts/SampleWallet.sol\":495:632  function withdrawToAddress(address payable to) public {... */\n    tag_14:\n        /* \"remix-project-files/contracts/myProjectContracts/SampleWallet.sol\":559:561  to */\n      dup1\n        /* \"remix-project-files/contracts/myProjectContracts/SampleWallet.sol\":559:570  to.transfer */\n      0xffffffffffffffffffffffffffffffffffffffff\n      and\n        /* \"remix-project-files/contracts/myProjectContracts/SampleWallet.sol\":559:598  to.transfer(getWalletContractBalance()) */\n      0x08fc\n        /* \"remix-project-files/contracts/myProjectContracts/SampleWallet.sol\":571:597  getWalletContractBalance() */\n      tag_31\n        /* \"remix-project-files/contracts/myProjectContracts/SampleWallet.sol\":571:595  getWalletContractBalance */\n      tag_17\n        /* \"remix-project-files/contracts/myProjectContracts/SampleWallet.sol\":571:597  getWalletContractBalance() */\n      jump\t// in\n    tag_31:\n        /* \"remix-project-files/contracts/myProjectContracts/SampleWallet.sol\":559:598  to.transfer(getWalletContractBalance()) */\n      swap1\n      dup2\n      iszero\n      mul\n      swap1\n      mload(0x40)\n      0x00\n      mload(0x40)\n      dup1\n      dup4\n      sub\n      dup2\n      dup6\n      dup9\n      dup9\n      call\n      swap4\n      pop\n      pop\n      pop\n      pop\n      iszero\n      dup1\n      iszero\n      tag_33\n      jumpi\n      returndatasize\n      0x00\n      dup1\n      returndatacopy\n      revert(0x00, returndatasize)\n    tag_33:\n      pop\n        /* \"remix-project-files/contracts/myProjectContracts/SampleWallet.sol\":624:625  0 */\n      0x00\n        /* \"remix-project-files/contracts/myProjectContracts/SampleWallet.sol\":608:621  walletBalance */\n      dup1\n        /* \"remix-project-files/contracts/myProjectContracts/SampleWallet.sol\":608:625  walletBalance = 0 */\n      dup2\n      swap1\n      sstore\n      pop\n        /* \"remix-project-files/contracts/myProjectContracts/SampleWallet.sol\":495:632  function withdrawToAddress(address payable to) public {... */\n      pop\n      jump\t// out\n        /* \"remix-project-files/contracts/myProjectContracts/SampleWallet.sol\":212:320  function getWalletContractBalance() public view returns (uint) {... */\n    tag_17:\n        /* \"remix-project-files/contracts/myProjectContracts/SampleWallet.sol\":269:273  uint */\n      0x00\n        /* \"remix-project-files/contracts/myProjectContracts/SampleWallet.sol\":292:313  address(this).balance */\n      selfbalance\n        /* \"remix-project-files/contracts/myProjectContracts/SampleWallet.sol\":285:313  return address(this).balance */\n      swap1\n      pop\n        /* \"remix-project-files/contracts/myProjectContracts/SampleWallet.sol\":212:320  function getWalletContractBalance() public view returns (uint) {... */\n      swap1\n      jump\t// out\n        /* \"remix-project-files/contracts/myProjectContracts/SampleWallet.sol\":96:121  uint public walletBalance */\n    tag_22:\n      sload(0x00)\n      dup2\n      jump\t// out\n        /* \"remix-project-files/contracts/myProjectContracts/SampleWallet.sol\":128:206  function deposit() public payable {... */\n    tag_25:\n        /* \"remix-project-files/contracts/myProjectContracts/SampleWallet.sol\":190:199  msg.value */\n      callvalue\n        /* \"remix-project-files/contracts/myProjectContracts/SampleWallet.sol\":172:185  walletBalance */\n      0x00\n      dup1\n        /* \"remix-project-files/contracts/myProjectContracts/SampleWallet.sol\":172:199  walletBalance +=  msg.value */\n      dup3\n      dup3\n      sload\n      tag_36\n      swap2\n      swap1\n      tag_37\n      jump\t// in\n    tag_36:\n      swap3\n      pop\n      pop\n      dup2\n      swap1\n      sstore\n      pop\n        /* \"remix-project-files/contracts/myProjectContracts/SampleWallet.sol\":128:206  function deposit() public payable {... */\n      jump\t// out\n        /* \"#utility.yul\":88:205   */\n    tag_39:\n        /* \"#utility.yul\":197:198   */\n      0x00\n        /* \"#utility.yul\":194:195   */\n      dup1\n        /* \"#utility.yul\":187:199   */\n      revert\n        /* \"#utility.yul\":334:460   */\n    tag_41:\n        /* \"#utility.yul\":371:378   */\n      0x00\n        /* \"#utility.yul\":411:453   */\n      0xffffffffffffffffffffffffffffffffffffffff\n        /* \"#utility.yul\":404:409   */\n      dup3\n        /* \"#utility.yul\":400:454   */\n      and\n        /* \"#utility.yul\":389:454   */\n      swap1\n      pop\n        /* \"#utility.yul\":334:460   */\n      swap2\n      swap1\n      pop\n      jump\t// out\n        /* \"#utility.yul\":466:570   */\n    tag_42:\n        /* \"#utility.yul\":511:518   */\n      0x00\n        /* \"#utility.yul\":540:564   */\n      tag_54\n        /* \"#utility.yul\":558:563   */\n      dup3\n        /* \"#utility.yul\":540:564   */\n      tag_41\n      jump\t// in\n    tag_54:\n        /* \"#utility.yul\":529:564   */\n      swap1\n      pop\n        /* \"#utility.yul\":466:570   */\n      swap2\n      swap1\n      pop\n      jump\t// out\n        /* \"#utility.yul\":576:714   */\n    tag_43:\n        /* \"#utility.yul\":657:689   */\n      tag_56\n        /* \"#utility.yul\":683:688   */\n      dup2\n        /* \"#utility.yul\":657:689   */\n      tag_42\n      jump\t// in\n    tag_56:\n        /* \"#utility.yul\":650:655   */\n      dup2\n        /* \"#utility.yul\":647:690   */\n      eq\n        /* \"#utility.yul\":637:708   */\n      tag_57\n      jumpi\n        /* \"#utility.yul\":704:705   */\n      0x00\n        /* \"#utility.yul\":701:702   */\n      dup1\n        /* \"#utility.yul\":694:706   */\n      revert\n        /* \"#utility.yul\":637:708   */\n    tag_57:\n        /* \"#utility.yul\":576:714   */\n      pop\n      jump\t// out\n        /* \"#utility.yul\":720:875   */\n    tag_44:\n        /* \"#utility.yul\":774:779   */\n      0x00\n        /* \"#utility.yul\":812:818   */\n      dup2\n        /* \"#utility.yul\":799:819   */\n      calldataload\n        /* \"#utility.yul\":790:819   */\n      swap1\n      pop\n        /* \"#utility.yul\":828:869   */\n      tag_59\n        /* \"#utility.yul\":863:868   */\n      dup2\n        /* \"#utility.yul\":828:869   */\n      tag_43\n      jump\t// in\n    tag_59:\n        /* \"#utility.yul\":720:875   */\n      swap3\n      swap2\n      pop\n      pop\n      jump\t// out\n        /* \"#utility.yul\":881:1226   */\n    tag_13:\n        /* \"#utility.yul\":948:954   */\n      0x00\n        /* \"#utility.yul\":997:999   */\n      0x20\n        /* \"#utility.yul\":985:994   */\n      dup3\n        /* \"#utility.yul\":976:983   */\n      dup5\n        /* \"#utility.yul\":972:995   */\n      sub\n        /* \"#utility.yul\":968:1000   */\n      slt\n        /* \"#utility.yul\":965:1084   */\n      iszero\n      tag_61\n      jumpi\n        /* \"#utility.yul\":1003:1082   */\n      tag_62\n      tag_39\n      jump\t// in\n    tag_62:\n        /* \"#utility.yul\":965:1084   */\n    tag_61:\n        /* \"#utility.yul\":1123:1124   */\n      0x00\n        /* \"#utility.yul\":1148:1209   */\n      tag_63\n        /* \"#utility.yul\":1201:1208   */\n      dup5\n        /* \"#utility.yul\":1192:1198   */\n      dup3\n        /* \"#utility.yul\":1181:1190   */\n      dup6\n        /* \"#utility.yul\":1177:1199   */\n      add\n        /* \"#utility.yul\":1148:1209   */\n      tag_44\n      jump\t// in\n    tag_63:\n        /* \"#utility.yul\":1138:1209   */\n      swap2\n      pop\n        /* \"#utility.yul\":1094:1219   */\n      pop\n        /* \"#utility.yul\":881:1226   */\n      swap3\n      swap2\n      pop\n      pop\n      jump\t// out\n        /* \"#utility.yul\":1232:1309   */\n    tag_45:\n        /* \"#utility.yul\":1269:1276   */\n      0x00\n        /* \"#utility.yul\":1298:1303   */\n      dup2\n        /* \"#utility.yul\":1287:1303   */\n      swap1\n      pop\n        /* \"#utility.yul\":1232:1309   */\n      swap2\n      swap1\n      pop\n      jump\t// out\n        /* \"#utility.yul\":1315:1433   */\n    tag_46:\n        /* \"#utility.yul\":1402:1426   */\n      tag_66\n        /* \"#utility.yul\":1420:1425   */\n      dup2\n        /* \"#utility.yul\":1402:1426   */\n      tag_45\n      jump\t// in\n    tag_66:\n        /* \"#utility.yul\":1397:1400   */\n      dup3\n        /* \"#utility.yul\":1390:1427   */\n      mstore\n        /* \"#utility.yul\":1315:1433   */\n      pop\n      pop\n      jump\t// out\n        /* \"#utility.yul\":1439:1661   */\n    tag_19:\n        /* \"#utility.yul\":1532:1536   */\n      0x00\n        /* \"#utility.yul\":1570:1572   */\n      0x20\n        /* \"#utility.yul\":1559:1568   */\n      dup3\n        /* \"#utility.yul\":1555:1573   */\n      add\n        /* \"#utility.yul\":1547:1573   */\n      swap1\n      pop\n        /* \"#utility.yul\":1583:1654   */\n      tag_68\n        /* \"#utility.yul\":1651:1652   */\n      0x00\n        /* \"#utility.yul\":1640:1649   */\n      dup4\n        /* \"#utility.yul\":1636:1653   */\n      add\n        /* \"#utility.yul\":1627:1633   */\n      dup5\n        /* \"#utility.yul\":1583:1654   */\n      tag_46\n      jump\t// in\n    tag_68:\n        /* \"#utility.yul\":1439:1661   */\n      swap3\n      swap2\n      pop\n      pop\n      jump\t// out\n        /* \"#utility.yul\":1667:1847   */\n    tag_47:\n        /* \"#utility.yul\":1715:1792   */\n      0x4e487b7100000000000000000000000000000000000000000000000000000000\n        /* \"#utility.yul\":1712:1713   */\n      0x00\n        /* \"#utility.yul\":1705:1793   */\n      mstore\n        /* \"#utility.yul\":1812:1816   */\n      0x11\n        /* \"#utility.yul\":1809:1810   */\n      0x04\n        /* \"#utility.yul\":1802:1817   */\n      mstore\n        /* \"#utility.yul\":1836:1840   */\n      0x24\n        /* \"#utility.yul\":1833:1834   */\n      0x00\n        /* \"#utility.yul\":1826:1841   */\n      revert\n        /* \"#utility.yul\":1853:2044   */\n    tag_37:\n        /* \"#utility.yul\":1893:1896   */\n      0x00\n        /* \"#utility.yul\":1912:1932   */\n      tag_71\n        /* \"#utility.yul\":1930:1931   */\n      dup3\n        /* \"#utility.yul\":1912:1932   */\n      tag_45\n      jump\t// in\n    tag_71:\n        /* \"#utility.yul\":1907:1932   */\n      swap2\n      pop\n        /* \"#utility.yul\":1946:1966   */\n      tag_72\n        /* \"#utility.yul\":1964:1965   */\n      dup4\n        /* \"#utility.yul\":1946:1966   */\n      tag_45\n      jump\t// in\n    tag_72:\n        /* \"#utility.yul\":1941:1966   */\n      swap3\n      pop\n        /* \"#utility.yul\":1989:1990   */\n      dup3\n        /* \"#utility.yul\":1986:1987   */\n      dup3\n        /* \"#utility.yul\":1982:1991   */\n      add\n        /* \"#utility.yul\":1975:1991   */\n      swap1\n      pop\n        /* \"#utility.yul\":2010:2013   */\n      dup1\n        /* \"#utility.yul\":2007:2008   */\n      dup3\n        /* \"#utility.yul\":2004:2014   */\n      gt\n        /* \"#utility.yul\":2001:2037   */\n      iszero\n      tag_73\n      jumpi\n        /* \"#utility.yul\":2017:2035   */\n      tag_74\n      tag_47\n      jump\t// in\n    tag_74:\n        /* \"#utility.yul\":2001:2037   */\n    tag_73:\n        /* \"#utility.yul\":1853:2044   */\n      swap3\n      swap2\n      pop\n      pop\n      jump\t// out\n\n    auxdata: 0xa264697066735822122013122f3d7878ccdad3470106e69b05ad73c7f754b2ace86f108a75b80b124fd564736f6c63430008130033\n}\n",
				"bytecode": {
					"linkReferences": {},
					"object": "608060405234801561001057600080fd5b50610329806100206000396000f3fe60806040526004361061004a5760003560e01c8063853828b61461004f578063a92bd72c14610066578063be719fc91461008f578063cd0a314b146100ba578063d0e30db0146100e5575b600080fd5b34801561005b57600080fd5b506100646100ef565b005b34801561007257600080fd5b5061008d6004803603810190610088919061022f565b61014c565b005b34801561009b57600080fd5b506100a46101a4565b6040516100b19190610275565b60405180910390f35b3480156100c657600080fd5b506100cf6101ac565b6040516100dc9190610275565b60405180910390f35b6100ed6101b2565b005b60003390508073ffffffffffffffffffffffffffffffffffffffff166108fc6101166101a4565b9081150290604051600060405180830381858888f19350505050158015610141573d6000803e3d6000fd5b506000808190555050565b8073ffffffffffffffffffffffffffffffffffffffff166108fc61016e6101a4565b9081150290604051600060405180830381858888f19350505050158015610199573d6000803e3d6000fd5b506000808190555050565b600047905090565b60005481565b346000808282546101c391906102bf565b92505081905550565b600080fd5b600073ffffffffffffffffffffffffffffffffffffffff82169050919050565b60006101fc826101d1565b9050919050565b61020c816101f1565b811461021757600080fd5b50565b60008135905061022981610203565b92915050565b600060208284031215610245576102446101cc565b5b60006102538482850161021a565b91505092915050565b6000819050919050565b61026f8161025c565b82525050565b600060208201905061028a6000830184610266565b92915050565b7f4e487b7100000000000000000000000000000000000000000000000000000000600052601160045260246000fd5b60006102ca8261025c565b91506102d58361025c565b92508282019050808211156102ed576102ec610290565b5b9291505056fea264697066735822122013122f3d7878ccdad3470106e69b05ad73c7f754b2ace86f108a75b80b124fd564736f6c63430008130033",
					"opcodes": "PUSH1 0x80 PUSH1 0x40 MSTORE CALLVALUE DUP1 ISZERO PUSH2 0x10 JUMPI PUSH1 0x0 DUP1 REVERT JUMPDEST POP PUSH2 0x329 DUP1 PUSH2 0x20 PUSH1 0x0 CODECOPY PUSH1 0x0 RETURN INVALID PUSH1 0x80 PUSH1 0x40 MSTORE PUSH1 0x4 CALLDATASIZE LT PUSH2 0x4A JUMPI PUSH1 0x0 CALLDATALOAD PUSH1 0xE0 SHR DUP1 PUSH4 0x853828B6 EQ PUSH2 0x4F JUMPI DUP1 PUSH4 0xA92BD72C EQ PUSH2 0x66 JUMPI DUP1 PUSH4 0xBE719FC9 EQ PUSH2 0x8F JUMPI DUP1 PUSH4 0xCD0A314B EQ PUSH2 0xBA JUMPI DUP1 PUSH4 0xD0E30DB0 EQ PUSH2 0xE5 JUMPI JUMPDEST PUSH1 0x0 DUP1 REVERT JUMPDEST CALLVALUE DUP1 ISZERO PUSH2 0x5B JUMPI PUSH1 0x0 DUP1 REVERT JUMPDEST POP PUSH2 0x64 PUSH2 0xEF JUMP JUMPDEST STOP JUMPDEST CALLVALUE DUP1 ISZERO PUSH2 0x72 JUMPI PUSH1 0x0 DUP1 REVERT JUMPDEST POP PUSH2 0x8D PUSH1 0x4 DUP1 CALLDATASIZE SUB DUP2 ADD SWAP1 PUSH2 0x88 SWAP2 SWAP1 PUSH2 0x22F JUMP JUMPDEST PUSH2 0x14C JUMP JUMPDEST STOP JUMPDEST CALLVALUE DUP1 ISZERO PUSH2 0x9B JUMPI PUSH1 0x0 DUP1 REVERT JUMPDEST POP PUSH2 0xA4 PUSH2 0x1A4 JUMP JUMPDEST PUSH1 0x40 MLOAD PUSH2 0xB1 SWAP2 SWAP1 PUSH2 0x275 JUMP JUMPDEST PUSH1 0x40 MLOAD DUP1 SWAP2 SUB SWAP1 RETURN JUMPDEST CALLVALUE DUP1 ISZERO PUSH2 0xC6 JUMPI PUSH1 0x0 DUP1 REVERT JUMPDEST POP PUSH2 0xCF PUSH2 0x1AC JUMP JUMPDEST PUSH1 0x40 MLOAD PUSH2 0xDC SWAP2 SWAP1 PUSH2 0x275 JUMP JUMPDEST PUSH1 0x40 MLOAD DUP1 SWAP2 SUB SWAP1 RETURN JUMPDEST PUSH2 0xED PUSH2 0x1B2 JUMP JUMPDEST STOP JUMPDEST PUSH1 0x0 CALLER SWAP1 POP DUP1 PUSH20 0xFFFFFFFFFFFFFFFFFFFFFFFFFFFFFFFFFFFFFFFF AND PUSH2 0x8FC PUSH2 0x116 PUSH2 0x1A4 JUMP JUMPDEST SWAP1 DUP2 ISZERO MUL SWAP1 PUSH1 0x40 MLOAD PUSH1 0x0 PUSH1 0x40 MLOAD DUP1 DUP4 SUB DUP2 DUP6 DUP9 DUP9 CALL SWAP4 POP POP POP POP ISZERO DUP1 ISZERO PUSH2 0x141 JUMPI RETURNDATASIZE PUSH1 0x0 DUP1 RETURNDATACOPY RETURNDATASIZE PUSH1 0x0 REVERT JUMPDEST POP PUSH1 0x0 DUP1 DUP2 SWAP1 SSTORE POP POP JUMP JUMPDEST DUP1 PUSH20 0xFFFFFFFFFFFFFFFFFFFFFFFFFFFFFFFFFFFFFFFF AND PUSH2 0x8FC PUSH2 0x16E PUSH2 0x1A4 JUMP JUMPDEST SWAP1 DUP2 ISZERO MUL SWAP1 PUSH1 0x40 MLOAD PUSH1 0x0 PUSH1 0x40 MLOAD DUP1 DUP4 SUB DUP2 DUP6 DUP9 DUP9 CALL SWAP4 POP POP POP POP ISZERO DUP1 ISZERO PUSH2 0x199 JUMPI RETURNDATASIZE PUSH1 0x0 DUP1 RETURNDATACOPY RETURNDATASIZE PUSH1 0x0 REVERT JUMPDEST POP PUSH1 0x0 DUP1 DUP2 SWAP1 SSTORE POP POP JUMP JUMPDEST PUSH1 0x0 SELFBALANCE SWAP1 POP SWAP1 JUMP JUMPDEST PUSH1 0x0 SLOAD DUP2 JUMP JUMPDEST CALLVALUE PUSH1 0x0 DUP1 DUP3 DUP3 SLOAD PUSH2 0x1C3 SWAP2 SWAP1 PUSH2 0x2BF JUMP JUMPDEST SWAP3 POP POP DUP2 SWAP1 SSTORE POP JUMP JUMPDEST PUSH1 0x0 DUP1 REVERT JUMPDEST PUSH1 0x0 PUSH20 0xFFFFFFFFFFFFFFFFFFFFFFFFFFFFFFFFFFFFFFFF DUP3 AND SWAP1 POP SWAP2 SWAP1 POP JUMP JUMPDEST PUSH1 0x0 PUSH2 0x1FC DUP3 PUSH2 0x1D1 JUMP JUMPDEST SWAP1 POP SWAP2 SWAP1 POP JUMP JUMPDEST PUSH2 0x20C DUP2 PUSH2 0x1F1 JUMP JUMPDEST DUP2 EQ PUSH2 0x217 JUMPI PUSH1 0x0 DUP1 REVERT JUMPDEST POP JUMP JUMPDEST PUSH1 0x0 DUP2 CALLDATALOAD SWAP1 POP PUSH2 0x229 DUP2 PUSH2 0x203 JUMP JUMPDEST SWAP3 SWAP2 POP POP JUMP JUMPDEST PUSH1 0x0 PUSH1 0x20 DUP3 DUP5 SUB SLT ISZERO PUSH2 0x245 JUMPI PUSH2 0x244 PUSH2 0x1CC JUMP JUMPDEST JUMPDEST PUSH1 0x0 PUSH2 0x253 DUP5 DUP3 DUP6 ADD PUSH2 0x21A JUMP JUMPDEST SWAP2 POP POP SWAP3 SWAP2 POP POP JUMP JUMPDEST PUSH1 0x0 DUP2 SWAP1 POP SWAP2 SWAP1 POP JUMP JUMPDEST PUSH2 0x26F DUP2 PUSH2 0x25C JUMP JUMPDEST DUP3 MSTORE POP POP JUMP JUMPDEST PUSH1 0x0 PUSH1 0x20 DUP3 ADD SWAP1 POP PUSH2 0x28A PUSH1 0x0 DUP4 ADD DUP5 PUSH2 0x266 JUMP JUMPDEST SWAP3 SWAP2 POP POP JUMP JUMPDEST PUSH32 0x4E487B7100000000000000000000000000000000000000000000000000000000 PUSH1 0x0 MSTORE PUSH1 0x11 PUSH1 0x4 MSTORE PUSH1 0x24 PUSH1 0x0 REVERT JUMPDEST PUSH1 0x0 PUSH2 0x2CA DUP3 PUSH2 0x25C JUMP JUMPDEST SWAP2 POP PUSH2 0x2D5 DUP4 PUSH2 0x25C JUMP JUMPDEST SWAP3 POP DUP3 DUP3 ADD SWAP1 POP DUP1 DUP3 GT ISZERO PUSH2 0x2ED JUMPI PUSH2 0x2EC PUSH2 0x290 JUMP JUMPDEST JUMPDEST SWAP3 SWAP2 POP POP JUMP INVALID LOG2 PUSH5 0x6970667358 0x22 SLT KECCAK256 SGT SLT 0x2F RETURNDATASIZE PUSH25 0x78CCDAD3470106E69B05AD73C7F754B2ACE86F108A75B80B12 0x4F 0xD5 PUSH5 0x736F6C6343 STOP ADDMOD SGT STOP CALLER "
				},
				"gasEstimates": {
					"creation": {
						"codeDepositCost": "161800",
						"executionCost": "208",
						"totalCost": "162008"
					},
					"external": {
						"deposit()": "infinite",
						"getWalletContractBalance()": "361",
						"walletBalance()": "2473",
						"withdrawAll()": "infinite",
						"withdrawToAddress(address)": "infinite"
					}
				},
				"methodIdentifiers": {
					"deposit()": "d0e30db0",
					"getWalletContractBalance()": "be719fc9",
					"walletBalance()": "cd0a314b",
					"withdrawAll()": "853828b6",
					"withdrawToAddress(address)": "a92bd72c"
				}
			},
			"storageLayout": {
				"storage": [
					{
						"astId": 3,
						"contract": "remix-project-files/contracts/myProjectContracts/SampleWallet.sol:SampleWalletContract",
						"label": "walletBalance",
						"offset": 0,
						"slot": "0",
						"type": "t_uint256"
					}
				],
				"types": {
					"t_uint256": {
						"encoding": "inplace",
						"label": "uint256",
						"numberOfBytes": "32"
					}
				}
			},
			"userdoc": {
				"kind": "user",
				"methods": {},
				"version": 1
			}
		}
	}
}