{
	"remix-project-files/contracts/FullWalletImplementation/Wallet.sol": {
		"Wallet": {
			"abi": [
				{
					"inputs": [
						{
							"internalType": "address",
							"name": "_owner",
							"type": "address"
						}
					],
					"stateMutability": "nonpayable",
					"type": "constructor"
				},
				{
					"inputs": [
						{
							"internalType": "address",
							"name": "",
							"type": "address"
						}
					],
					"name": "allowences",
					"outputs": [
						{
							"internalType": "uint256",
							"name": "",
							"type": "uint256"
						}
					],
					"stateMutability": "view",
					"type": "function"
				},
				{
					"inputs": [
						{
							"internalType": "address",
							"name": "",
							"type": "address"
						}
					],
					"name": "isAllowedToSend",
					"outputs": [
						{
							"internalType": "bool",
							"name": "",
							"type": "bool"
						}
					],
					"stateMutability": "view",
					"type": "function"
				},
				{
					"inputs": [],
					"name": "myBalance",
					"outputs": [
						{
							"internalType": "uint256",
							"name": "",
							"type": "uint256"
						}
					],
					"stateMutability": "view",
					"type": "function"
				},
				{
					"inputs": [],
					"name": "owner",
					"outputs": [
						{
							"internalType": "address",
							"name": "",
							"type": "address"
						}
					],
					"stateMutability": "view",
					"type": "function"
				},
				{
					"inputs": [
						{
							"internalType": "address payable",
							"name": "_to",
							"type": "address"
						},
						{
							"internalType": "uint256",
							"name": "_amount",
							"type": "uint256"
						},
						{
							"internalType": "bytes",
							"name": "_payload",
							"type": "bytes"
						}
					],
					"name": "sendMoney",
					"outputs": [
						{
							"internalType": "bytes",
							"name": "",
							"type": "bytes"
						}
					],
					"stateMutability": "nonpayable",
					"type": "function"
				},
				{
					"inputs": [
						{
							"internalType": "address",
							"name": "_for",
							"type": "address"
						},
						{
							"internalType": "uint256",
							"name": "_amount",
							"type": "uint256"
						}
					],
					"name": "setAllowences",
					"outputs": [],
					"stateMutability": "nonpayable",
					"type": "function"
				},
				{
					"inputs": [
						{
							"internalType": "address payable",
							"name": "_to",
							"type": "address"
						},
						{
							"internalType": "uint256",
							"name": "amount",
							"type": "uint256"
						}
					],
					"name": "transfer",
					"outputs": [],
					"stateMutability": "nonpayable",
					"type": "function"
				},
				{
					"inputs": [
						{
							"internalType": "address payable",
							"name": "_to",
							"type": "address"
						},
						{
							"internalType": "uint256",
							"name": "_amount",
							"type": "uint256"
						},
						{
							"internalType": "bytes",
							"name": "_payload",
							"type": "bytes"
						}
					],
					"name": "transfer",
					"outputs": [
						{
							"internalType": "bytes",
							"name": "",
							"type": "bytes"
						}
					],
					"stateMutability": "nonpayable",
					"type": "function"
				},
				{
					"stateMutability": "payable",
					"type": "receive"
				}
			],
			"devdoc": {
				"kind": "dev",
				"methods": {},
				"version": 1
			},
			"evm": {
				"assembly": "    /* \"remix-project-files/contracts/FullWalletImplementation/Wallet.sol\":60:2150  contract Wallet {... */\n  mstore(0x40, 0x80)\n    /* \"remix-project-files/contracts/FullWalletImplementation/Wallet.sol\":240:300  constructor (address _owner) {... */\n  callvalue\n  dup1\n  iszero\n  tag_1\n  jumpi\n  0x00\n  dup1\n  revert\ntag_1:\n  pop\n  mload(0x40)\n  sub(codesize, bytecodeSize)\n  dup1\n  bytecodeSize\n  dup4\n  codecopy\n  dup2\n  dup2\n  add\n  0x40\n  mstore\n  dup2\n  add\n  swap1\n  tag_2\n  swap2\n  swap1\n  tag_3\n  jump\t// in\ntag_2:\n    /* \"remix-project-files/contracts/FullWalletImplementation/Wallet.sol\":287:293  _owner */\n  dup1\n    /* \"remix-project-files/contracts/FullWalletImplementation/Wallet.sol\":279:284  owner */\n  0x00\n  dup1\n    /* \"remix-project-files/contracts/FullWalletImplementation/Wallet.sol\":279:293  owner = _owner */\n  0x0100\n  exp\n  dup2\n  sload\n  dup2\n  0xffffffffffffffffffffffffffffffffffffffff\n  mul\n  not\n  and\n  swap1\n  dup4\n  0xffffffffffffffffffffffffffffffffffffffff\n  and\n  mul\n  or\n  swap1\n  sstore\n  pop\n    /* \"remix-project-files/contracts/FullWalletImplementation/Wallet.sol\":240:300  constructor (address _owner) {... */\n  pop\n    /* \"remix-project-files/contracts/FullWalletImplementation/Wallet.sol\":60:2150  contract Wallet {... */\n  jump(tag_6)\n    /* \"#utility.yul\":88:205   */\ntag_8:\n    /* \"#utility.yul\":197:198   */\n  0x00\n    /* \"#utility.yul\":194:195   */\n  dup1\n    /* \"#utility.yul\":187:199   */\n  revert\n    /* \"#utility.yul\":334:460   */\ntag_10:\n    /* \"#utility.yul\":371:378   */\n  0x00\n    /* \"#utility.yul\":411:453   */\n  0xffffffffffffffffffffffffffffffffffffffff\n    /* \"#utility.yul\":404:409   */\n  dup3\n    /* \"#utility.yul\":400:454   */\n  and\n    /* \"#utility.yul\":389:454   */\n  swap1\n  pop\n    /* \"#utility.yul\":334:460   */\n  swap2\n  swap1\n  pop\n  jump\t// out\n    /* \"#utility.yul\":466:562   */\ntag_11:\n    /* \"#utility.yul\":503:510   */\n  0x00\n    /* \"#utility.yul\":532:556   */\n  tag_20\n    /* \"#utility.yul\":550:555   */\n  dup3\n    /* \"#utility.yul\":532:556   */\n  tag_10\n  jump\t// in\ntag_20:\n    /* \"#utility.yul\":521:556   */\n  swap1\n  pop\n    /* \"#utility.yul\":466:562   */\n  swap2\n  swap1\n  pop\n  jump\t// out\n    /* \"#utility.yul\":568:690   */\ntag_12:\n    /* \"#utility.yul\":641:665   */\n  tag_22\n    /* \"#utility.yul\":659:664   */\n  dup2\n    /* \"#utility.yul\":641:665   */\n  tag_11\n  jump\t// in\ntag_22:\n    /* \"#utility.yul\":634:639   */\n  dup2\n    /* \"#utility.yul\":631:666   */\n  eq\n    /* \"#utility.yul\":621:684   */\n  tag_23\n  jumpi\n    /* \"#utility.yul\":680:681   */\n  0x00\n    /* \"#utility.yul\":677:678   */\n  dup1\n    /* \"#utility.yul\":670:682   */\n  revert\n    /* \"#utility.yul\":621:684   */\ntag_23:\n    /* \"#utility.yul\":568:690   */\n  pop\n  jump\t// out\n    /* \"#utility.yul\":696:839   */\ntag_13:\n    /* \"#utility.yul\":753:758   */\n  0x00\n    /* \"#utility.yul\":784:790   */\n  dup2\n    /* \"#utility.yul\":778:791   */\n  mload\n    /* \"#utility.yul\":769:791   */\n  swap1\n  pop\n    /* \"#utility.yul\":800:833   */\n  tag_25\n    /* \"#utility.yul\":827:832   */\n  dup2\n    /* \"#utility.yul\":800:833   */\n  tag_12\n  jump\t// in\ntag_25:\n    /* \"#utility.yul\":696:839   */\n  swap3\n  swap2\n  pop\n  pop\n  jump\t// out\n    /* \"#utility.yul\":845:1196   */\ntag_3:\n    /* \"#utility.yul\":915:921   */\n  0x00\n    /* \"#utility.yul\":964:966   */\n  0x20\n    /* \"#utility.yul\":952:961   */\n  dup3\n    /* \"#utility.yul\":943:950   */\n  dup5\n    /* \"#utility.yul\":939:962   */\n  sub\n    /* \"#utility.yul\":935:967   */\n  slt\n    /* \"#utility.yul\":932:1051   */\n  iszero\n  tag_27\n  jumpi\n    /* \"#utility.yul\":970:1049   */\n  tag_28\n  tag_8\n  jump\t// in\ntag_28:\n    /* \"#utility.yul\":932:1051   */\ntag_27:\n    /* \"#utility.yul\":1090:1091   */\n  0x00\n    /* \"#utility.yul\":1115:1179   */\n  tag_29\n    /* \"#utility.yul\":1171:1178   */\n  dup5\n    /* \"#utility.yul\":1162:1168   */\n  dup3\n    /* \"#utility.yul\":1151:1160   */\n  dup6\n    /* \"#utility.yul\":1147:1169   */\n  add\n    /* \"#utility.yul\":1115:1179   */\n  tag_13\n  jump\t// in\ntag_29:\n    /* \"#utility.yul\":1105:1179   */\n  swap2\n  pop\n    /* \"#utility.yul\":1061:1189   */\n  pop\n    /* \"#utility.yul\":845:1196   */\n  swap3\n  swap2\n  pop\n  pop\n  jump\t// out\n    /* \"remix-project-files/contracts/FullWalletImplementation/Wallet.sol\":60:2150  contract Wallet {... */\ntag_6:\n  dataSize(sub_0)\n  dup1\n  dataOffset(sub_0)\n  0x00\n  codecopy\n  0x00\n  return\nstop\n\nsub_0: assembly {\n        /* \"remix-project-files/contracts/FullWalletImplementation/Wallet.sol\":60:2150  contract Wallet {... */\n      mstore(0x40, 0x80)\n      jumpi(tag_1, lt(calldatasize, 0x04))\n      shr(0xe0, calldataload(0x00))\n      dup1\n      0xa9059cbb\n      gt\n      tag_11\n      jumpi\n      dup1\n      0xa9059cbb\n      eq\n      tag_7\n      jumpi\n      dup1\n      0xbe45fd62\n      eq\n      tag_8\n      jumpi\n      dup1\n      0xc9116b69\n      eq\n      tag_9\n      jumpi\n      dup1\n      0xf8025049\n      eq\n      tag_10\n      jumpi\n      jump(tag_2)\n    tag_11:\n      dup1\n      0x0bc605ad\n      eq\n      tag_3\n      jumpi\n      dup1\n      0x268fffc1\n      eq\n      tag_4\n      jumpi\n      dup1\n      0x7bce1515\n      eq\n      tag_5\n      jumpi\n      dup1\n      0x8da5cb5b\n      eq\n      tag_6\n      jumpi\n      jump(tag_2)\n    tag_1:\n      jumpi(tag_2, calldatasize)\n        /* \"remix-project-files/contracts/FullWalletImplementation/Wallet.sol\":356:365  msg.value */\n      callvalue\n        /* \"remix-project-files/contracts/FullWalletImplementation/Wallet.sol\":343:352  myBalance */\n      0x01\n      0x00\n        /* \"remix-project-files/contracts/FullWalletImplementation/Wallet.sol\":343:365  myBalance += msg.value */\n      dup3\n      dup3\n      sload\n      tag_14\n      swap2\n      swap1\n      tag_15\n      jump\t// in\n    tag_14:\n      swap3\n      pop\n      pop\n      dup2\n      swap1\n      sstore\n      stop\n        /* \"remix-project-files/contracts/FullWalletImplementation/Wallet.sol\":60:2150  contract Wallet {... */\n    tag_2:\n      0x00\n      dup1\n      revert\n        /* \"remix-project-files/contracts/FullWalletImplementation/Wallet.sol\":186:233  mapping(address => bool) public isAllowedToSend */\n    tag_3:\n      callvalue\n      dup1\n      iszero\n      tag_16\n      jumpi\n      0x00\n      dup1\n      revert\n    tag_16:\n      pop\n      tag_17\n      0x04\n      dup1\n      calldatasize\n      sub\n      dup2\n      add\n      swap1\n      tag_18\n      swap2\n      swap1\n      tag_19\n      jump\t// in\n    tag_18:\n      tag_20\n      jump\t// in\n    tag_17:\n      mload(0x40)\n      tag_21\n      swap2\n      swap1\n      tag_22\n      jump\t// in\n    tag_21:\n      mload(0x40)\n      dup1\n      swap2\n      sub\n      swap1\n      return\n        /* \"remix-project-files/contracts/FullWalletImplementation/Wallet.sol\":138:180  mapping(address => uint) public allowences */\n    tag_4:\n      callvalue\n      dup1\n      iszero\n      tag_23\n      jumpi\n      0x00\n      dup1\n      revert\n    tag_23:\n      pop\n      tag_24\n      0x04\n      dup1\n      calldatasize\n      sub\n      dup2\n      add\n      swap1\n      tag_25\n      swap2\n      swap1\n      tag_19\n      jump\t// in\n    tag_25:\n      tag_26\n      jump\t// in\n    tag_24:\n      mload(0x40)\n      tag_27\n      swap2\n      swap1\n      tag_28\n      jump\t// in\n    tag_27:\n      mload(0x40)\n      dup1\n      swap2\n      sub\n      swap1\n      return\n        /* \"remix-project-files/contracts/FullWalletImplementation/Wallet.sol\":1212:1527  function setAllowences(address _for, uint _amount) public {... */\n    tag_5:\n      callvalue\n      dup1\n      iszero\n      tag_29\n      jumpi\n      0x00\n      dup1\n      revert\n    tag_29:\n      pop\n      tag_30\n      0x04\n      dup1\n      calldatasize\n      sub\n      dup2\n      add\n      swap1\n      tag_31\n      swap2\n      swap1\n      tag_32\n      jump\t// in\n    tag_31:\n      tag_33\n      jump\t// in\n    tag_30:\n      stop\n        /* \"remix-project-files/contracts/FullWalletImplementation/Wallet.sol\":83:103  address public owner */\n    tag_6:\n      callvalue\n      dup1\n      iszero\n      tag_34\n      jumpi\n      0x00\n      dup1\n      revert\n    tag_34:\n      pop\n      tag_35\n      tag_36\n      jump\t// in\n    tag_35:\n      mload(0x40)\n      tag_37\n      swap2\n      swap1\n      tag_38\n      jump\t// in\n    tag_37:\n      mload(0x40)\n      dup1\n      swap2\n      sub\n      swap1\n      return\n        /* \"remix-project-files/contracts/FullWalletImplementation/Wallet.sol\":497:765  function transfer(address payable _to, uint amount) public {... */\n    tag_7:\n      callvalue\n      dup1\n      iszero\n      tag_39\n      jumpi\n      0x00\n      dup1\n      revert\n    tag_39:\n      pop\n      tag_40\n      0x04\n      dup1\n      calldatasize\n      sub\n      dup2\n      add\n      swap1\n      tag_41\n      swap2\n      swap1\n      tag_42\n      jump\t// in\n    tag_41:\n      tag_43\n      jump\t// in\n    tag_40:\n      stop\n        /* \"remix-project-files/contracts/FullWalletImplementation/Wallet.sol\":834:1206  function transfer(address payable _to, uint _amount, bytes memory _payload) public returns (bytes memory) {... */\n    tag_8:\n      callvalue\n      dup1\n      iszero\n      tag_44\n      jumpi\n      0x00\n      dup1\n      revert\n    tag_44:\n      pop\n      tag_45\n      0x04\n      dup1\n      calldatasize\n      sub\n      dup2\n      add\n      swap1\n      tag_46\n      swap2\n      swap1\n      tag_47\n      jump\t// in\n    tag_46:\n      tag_48\n      jump\t// in\n    tag_45:\n      mload(0x40)\n      tag_49\n      swap2\n      swap1\n      tag_50\n      jump\t// in\n    tag_49:\n      mload(0x40)\n      dup1\n      swap2\n      sub\n      swap1\n      return\n        /* \"remix-project-files/contracts/FullWalletImplementation/Wallet.sol\":110:131  uint public myBalance */\n    tag_9:\n      callvalue\n      dup1\n      iszero\n      tag_51\n      jumpi\n      0x00\n      dup1\n      revert\n    tag_51:\n      pop\n      tag_52\n      tag_53\n      jump\t// in\n    tag_52:\n      mload(0x40)\n      tag_54\n      swap2\n      swap1\n      tag_28\n      jump\t// in\n    tag_54:\n      mload(0x40)\n      dup1\n      swap2\n      sub\n      swap1\n      return\n        /* \"remix-project-files/contracts/FullWalletImplementation/Wallet.sol\":1533:2146  function sendMoney(address payable _to, uint _amount, bytes memory _payload) public returns (bytes memory) {... */\n    tag_10:\n      callvalue\n      dup1\n      iszero\n      tag_55\n      jumpi\n      0x00\n      dup1\n      revert\n    tag_55:\n      pop\n      tag_56\n      0x04\n      dup1\n      calldatasize\n      sub\n      dup2\n      add\n      swap1\n      tag_57\n      swap2\n      swap1\n      tag_47\n      jump\t// in\n    tag_57:\n      tag_58\n      jump\t// in\n    tag_56:\n      mload(0x40)\n      tag_59\n      swap2\n      swap1\n      tag_50\n      jump\t// in\n    tag_59:\n      mload(0x40)\n      dup1\n      swap2\n      sub\n      swap1\n      return\n        /* \"remix-project-files/contracts/FullWalletImplementation/Wallet.sol\":186:233  mapping(address => bool) public isAllowedToSend */\n    tag_20:\n      mstore(0x20, 0x03)\n      dup1\n      0x00\n      mstore\n      keccak256(0x00, 0x40)\n      0x00\n      swap2\n      pop\n      sload\n      swap1\n      0x0100\n      exp\n      swap1\n      div\n      0xff\n      and\n      dup2\n      jump\t// out\n        /* \"remix-project-files/contracts/FullWalletImplementation/Wallet.sol\":138:180  mapping(address => uint) public allowences */\n    tag_26:\n      mstore(0x20, 0x02)\n      dup1\n      0x00\n      mstore\n      keccak256(0x00, 0x40)\n      0x00\n      swap2\n      pop\n      swap1\n      pop\n      sload\n      dup2\n      jump\t// out\n        /* \"remix-project-files/contracts/FullWalletImplementation/Wallet.sol\":1212:1527  function setAllowences(address _for, uint _amount) public {... */\n    tag_33:\n        /* \"remix-project-files/contracts/FullWalletImplementation/Wallet.sol\":1302:1307  owner */\n      0x00\n      dup1\n      sload\n      swap1\n      0x0100\n      exp\n      swap1\n      div\n      0xffffffffffffffffffffffffffffffffffffffff\n      and\n        /* \"remix-project-files/contracts/FullWalletImplementation/Wallet.sol\":1288:1307  msg.sender == owner */\n      0xffffffffffffffffffffffffffffffffffffffff\n      and\n        /* \"remix-project-files/contracts/FullWalletImplementation/Wallet.sol\":1288:1298  msg.sender */\n      caller\n        /* \"remix-project-files/contracts/FullWalletImplementation/Wallet.sol\":1288:1307  msg.sender == owner */\n      0xffffffffffffffffffffffffffffffffffffffff\n      and\n      eq\n        /* \"remix-project-files/contracts/FullWalletImplementation/Wallet.sol\":1280:1344  require(msg.sender == owner, \"Aborting!, you are not the owner\") */\n      tag_61\n      jumpi\n      mload(0x40)\n      0x08c379a000000000000000000000000000000000000000000000000000000000\n      dup2\n      mstore\n      0x04\n      add\n      tag_62\n      swap1\n      tag_63\n      jump\t// in\n    tag_62:\n      mload(0x40)\n      dup1\n      swap2\n      sub\n      swap1\n      revert\n    tag_61:\n        /* \"remix-project-files/contracts/FullWalletImplementation/Wallet.sol\":1374:1381  _amount */\n      dup1\n        /* \"remix-project-files/contracts/FullWalletImplementation/Wallet.sol\":1354:1364  allowences */\n      0x02\n        /* \"remix-project-files/contracts/FullWalletImplementation/Wallet.sol\":1354:1370  allowences[_for] */\n      0x00\n        /* \"remix-project-files/contracts/FullWalletImplementation/Wallet.sol\":1365:1369  _for */\n      dup5\n        /* \"remix-project-files/contracts/FullWalletImplementation/Wallet.sol\":1354:1370  allowences[_for] */\n      0xffffffffffffffffffffffffffffffffffffffff\n      and\n      0xffffffffffffffffffffffffffffffffffffffff\n      and\n      dup2\n      mstore\n      0x20\n      add\n      swap1\n      dup2\n      mstore\n      0x20\n      add\n      0x00\n      keccak256\n      0x00\n        /* \"remix-project-files/contracts/FullWalletImplementation/Wallet.sol\":1354:1381  allowences[_for] += _amount */\n      dup3\n      dup3\n      sload\n      tag_64\n      swap2\n      swap1\n      tag_15\n      jump\t// in\n    tag_64:\n      swap3\n      pop\n      pop\n      dup2\n      swap1\n      sstore\n      pop\n        /* \"remix-project-files/contracts/FullWalletImplementation/Wallet.sol\":1405:1406  0 */\n      0x00\n        /* \"remix-project-files/contracts/FullWalletImplementation/Wallet.sol\":1395:1402  _amount */\n      dup2\n        /* \"remix-project-files/contracts/FullWalletImplementation/Wallet.sol\":1395:1406  _amount > 0 */\n      gt\n        /* \"remix-project-files/contracts/FullWalletImplementation/Wallet.sol\":1392:1521  if(_amount > 0) {... */\n      iszero\n      tag_65\n      jumpi\n        /* \"remix-project-files/contracts/FullWalletImplementation/Wallet.sol\":1446:1450  true */\n      0x01\n        /* \"remix-project-files/contracts/FullWalletImplementation/Wallet.sol\":1422:1437  isAllowedToSend */\n      0x03\n        /* \"remix-project-files/contracts/FullWalletImplementation/Wallet.sol\":1422:1443  isAllowedToSend[_for] */\n      0x00\n        /* \"remix-project-files/contracts/FullWalletImplementation/Wallet.sol\":1438:1442  _for */\n      dup5\n        /* \"remix-project-files/contracts/FullWalletImplementation/Wallet.sol\":1422:1443  isAllowedToSend[_for] */\n      0xffffffffffffffffffffffffffffffffffffffff\n      and\n      0xffffffffffffffffffffffffffffffffffffffff\n      and\n      dup2\n      mstore\n      0x20\n      add\n      swap1\n      dup2\n      mstore\n      0x20\n      add\n      0x00\n      keccak256\n      0x00\n        /* \"remix-project-files/contracts/FullWalletImplementation/Wallet.sol\":1422:1450  isAllowedToSend[_for] = true */\n      0x0100\n      exp\n      dup2\n      sload\n      dup2\n      0xff\n      mul\n      not\n      and\n      swap1\n      dup4\n      iszero\n      iszero\n      mul\n      or\n      swap1\n      sstore\n      pop\n        /* \"remix-project-files/contracts/FullWalletImplementation/Wallet.sol\":1392:1521  if(_amount > 0) {... */\n      jump(tag_66)\n    tag_65:\n        /* \"remix-project-files/contracts/FullWalletImplementation/Wallet.sol\":1505:1510  false */\n      0x00\n        /* \"remix-project-files/contracts/FullWalletImplementation/Wallet.sol\":1481:1496  isAllowedToSend */\n      0x03\n        /* \"remix-project-files/contracts/FullWalletImplementation/Wallet.sol\":1481:1502  isAllowedToSend[_for] */\n      0x00\n        /* \"remix-project-files/contracts/FullWalletImplementation/Wallet.sol\":1497:1501  _for */\n      dup5\n        /* \"remix-project-files/contracts/FullWalletImplementation/Wallet.sol\":1481:1502  isAllowedToSend[_for] */\n      0xffffffffffffffffffffffffffffffffffffffff\n      and\n      0xffffffffffffffffffffffffffffffffffffffff\n      and\n      dup2\n      mstore\n      0x20\n      add\n      swap1\n      dup2\n      mstore\n      0x20\n      add\n      0x00\n      keccak256\n      0x00\n        /* \"remix-project-files/contracts/FullWalletImplementation/Wallet.sol\":1481:1510  isAllowedToSend[_for] = false */\n      0x0100\n      exp\n      dup2\n      sload\n      dup2\n      0xff\n      mul\n      not\n      and\n      swap1\n      dup4\n      iszero\n      iszero\n      mul\n      or\n      swap1\n      sstore\n      pop\n        /* \"remix-project-files/contracts/FullWalletImplementation/Wallet.sol\":1392:1521  if(_amount > 0) {... */\n    tag_66:\n        /* \"remix-project-files/contracts/FullWalletImplementation/Wallet.sol\":1212:1527  function setAllowences(address _for, uint _amount) public {... */\n      pop\n      pop\n      jump\t// out\n        /* \"remix-project-files/contracts/FullWalletImplementation/Wallet.sol\":83:103  address public owner */\n    tag_36:\n      0x00\n      dup1\n      sload\n      swap1\n      0x0100\n      exp\n      swap1\n      div\n      0xffffffffffffffffffffffffffffffffffffffff\n      and\n      dup2\n      jump\t// out\n        /* \"remix-project-files/contracts/FullWalletImplementation/Wallet.sol\":497:765  function transfer(address payable _to, uint amount) public {... */\n    tag_43:\n        /* \"remix-project-files/contracts/FullWalletImplementation/Wallet.sol\":583:593  msg.sender */\n      caller\n        /* \"remix-project-files/contracts/FullWalletImplementation/Wallet.sol\":574:593  owner == msg.sender */\n      0xffffffffffffffffffffffffffffffffffffffff\n      and\n        /* \"remix-project-files/contracts/FullWalletImplementation/Wallet.sol\":574:579  owner */\n      0x00\n      dup1\n      sload\n      swap1\n      0x0100\n      exp\n      swap1\n      div\n      0xffffffffffffffffffffffffffffffffffffffff\n      and\n        /* \"remix-project-files/contracts/FullWalletImplementation/Wallet.sol\":574:593  owner == msg.sender */\n      0xffffffffffffffffffffffffffffffffffffffff\n      and\n      eq\n        /* \"remix-project-files/contracts/FullWalletImplementation/Wallet.sol\":566:630  require(owner == msg.sender, \"Aborting!, you are nto the owner\") */\n      tag_68\n      jumpi\n      mload(0x40)\n      0x08c379a000000000000000000000000000000000000000000000000000000000\n      dup2\n      mstore\n      0x04\n      add\n      tag_69\n      swap1\n      tag_70\n      jump\t// in\n    tag_69:\n      mload(0x40)\n      dup1\n      swap2\n      sub\n      swap1\n      revert\n    tag_68:\n        /* \"remix-project-files/contracts/FullWalletImplementation/Wallet.sol\":661:667  amount */\n      dup1\n        /* \"remix-project-files/contracts/FullWalletImplementation/Wallet.sol\":648:657  myBalance */\n      sload(0x01)\n        /* \"remix-project-files/contracts/FullWalletImplementation/Wallet.sol\":648:667  myBalance >= amount */\n      lt\n      iszero\n        /* \"remix-project-files/contracts/FullWalletImplementation/Wallet.sol\":640:699  require(myBalance >= amount, \"Aborting!, not enough money\") */\n      tag_71\n      jumpi\n      mload(0x40)\n      0x08c379a000000000000000000000000000000000000000000000000000000000\n      dup2\n      mstore\n      0x04\n      add\n      tag_72\n      swap1\n      tag_73\n      jump\t// in\n    tag_72:\n      mload(0x40)\n      dup1\n      swap2\n      sub\n      swap1\n      revert\n    tag_71:\n        /* \"remix-project-files/contracts/FullWalletImplementation/Wallet.sol\":722:728  amount */\n      dup1\n        /* \"remix-project-files/contracts/FullWalletImplementation/Wallet.sol\":709:718  myBalance */\n      0x01\n      0x00\n        /* \"remix-project-files/contracts/FullWalletImplementation/Wallet.sol\":709:728  myBalance -= amount */\n      dup3\n      dup3\n      sload\n      tag_74\n      swap2\n      swap1\n      tag_75\n      jump\t// in\n    tag_74:\n      swap3\n      pop\n      pop\n      dup2\n      swap1\n      sstore\n      pop\n        /* \"remix-project-files/contracts/FullWalletImplementation/Wallet.sol\":738:741  _to */\n      dup2\n        /* \"remix-project-files/contracts/FullWalletImplementation/Wallet.sol\":738:750  _to.transfer */\n      0xffffffffffffffffffffffffffffffffffffffff\n      and\n        /* \"remix-project-files/contracts/FullWalletImplementation/Wallet.sol\":738:758  _to.transfer(amount) */\n      0x08fc\n        /* \"remix-project-files/contracts/FullWalletImplementation/Wallet.sol\":751:757  amount */\n      dup3\n        /* \"remix-project-files/contracts/FullWalletImplementation/Wallet.sol\":738:758  _to.transfer(amount) */\n      swap1\n      dup2\n      iszero\n      mul\n      swap1\n      mload(0x40)\n      0x00\n      mload(0x40)\n      dup1\n      dup4\n      sub\n      dup2\n      dup6\n      dup9\n      dup9\n      call\n      swap4\n      pop\n      pop\n      pop\n      pop\n      iszero\n      dup1\n      iszero\n      tag_77\n      jumpi\n      returndatasize\n      0x00\n      dup1\n      returndatacopy\n      revert(0x00, returndatasize)\n    tag_77:\n      pop\n        /* \"remix-project-files/contracts/FullWalletImplementation/Wallet.sol\":497:765  function transfer(address payable _to, uint amount) public {... */\n      pop\n      pop\n      jump\t// out\n        /* \"remix-project-files/contracts/FullWalletImplementation/Wallet.sol\":834:1206  function transfer(address payable _to, uint _amount, bytes memory _payload) public returns (bytes memory) {... */\n    tag_48:\n        /* \"remix-project-files/contracts/FullWalletImplementation/Wallet.sol\":926:938  bytes memory */\n      0x60\n        /* \"remix-project-files/contracts/FullWalletImplementation/Wallet.sol\":967:977  msg.sender */\n      caller\n        /* \"remix-project-files/contracts/FullWalletImplementation/Wallet.sol\":958:977  owner == msg.sender */\n      0xffffffffffffffffffffffffffffffffffffffff\n      and\n        /* \"remix-project-files/contracts/FullWalletImplementation/Wallet.sol\":958:963  owner */\n      0x00\n      dup1\n      sload\n      swap1\n      0x0100\n      exp\n      swap1\n      div\n      0xffffffffffffffffffffffffffffffffffffffff\n      and\n        /* \"remix-project-files/contracts/FullWalletImplementation/Wallet.sol\":958:977  owner == msg.sender */\n      0xffffffffffffffffffffffffffffffffffffffff\n      and\n      eq\n        /* \"remix-project-files/contracts/FullWalletImplementation/Wallet.sol\":950:1014  require(owner == msg.sender, \"Aborting!, you are nto the owner\") */\n      tag_79\n      jumpi\n      mload(0x40)\n      0x08c379a000000000000000000000000000000000000000000000000000000000\n      dup2\n      mstore\n      0x04\n      add\n      tag_80\n      swap1\n      tag_70\n      jump\t// in\n    tag_80:\n      mload(0x40)\n      dup1\n      swap2\n      sub\n      swap1\n      revert\n    tag_79:\n        /* \"remix-project-files/contracts/FullWalletImplementation/Wallet.sol\":1034:1046  bool success */\n      0x00\n        /* \"remix-project-files/contracts/FullWalletImplementation/Wallet.sol\":1048:1071  bytes memory returnData */\n      dup1\n        /* \"remix-project-files/contracts/FullWalletImplementation/Wallet.sol\":1075:1078  _to */\n      dup6\n        /* \"remix-project-files/contracts/FullWalletImplementation/Wallet.sol\":1075:1083  _to.call */\n      0xffffffffffffffffffffffffffffffffffffffff\n      and\n        /* \"remix-project-files/contracts/FullWalletImplementation/Wallet.sol\":1091:1098  _amount */\n      dup6\n        /* \"remix-project-files/contracts/FullWalletImplementation/Wallet.sol\":1100:1108  _payload */\n      dup6\n        /* \"remix-project-files/contracts/FullWalletImplementation/Wallet.sol\":1075:1109  _to.call{value: _amount}(_payload) */\n      mload(0x40)\n      tag_81\n      swap2\n      swap1\n      tag_82\n      jump\t// in\n    tag_81:\n      0x00\n      mload(0x40)\n      dup1\n      dup4\n      sub\n      dup2\n      dup6\n      dup8\n      gas\n      call\n      swap3\n      pop\n      pop\n      pop\n      returndatasize\n      dup1\n      0x00\n      dup2\n      eq\n      tag_85\n      jumpi\n      mload(0x40)\n      swap2\n      pop\n      and(add(returndatasize, 0x3f), not(0x1f))\n      dup3\n      add\n      0x40\n      mstore\n      returndatasize\n      dup3\n      mstore\n      returndatasize\n      0x00\n      0x20\n      dup5\n      add\n      returndatacopy\n      jump(tag_84)\n    tag_85:\n      0x60\n      swap2\n      pop\n    tag_84:\n      pop\n        /* \"remix-project-files/contracts/FullWalletImplementation/Wallet.sol\":1033:1109  (bool success, bytes memory returnData) = _to.call{value: _amount}(_payload) */\n      swap2\n      pop\n      swap2\n      pop\n        /* \"remix-project-files/contracts/FullWalletImplementation/Wallet.sol\":1127:1134  success */\n      dup2\n        /* \"remix-project-files/contracts/FullWalletImplementation/Wallet.sol\":1119:1172  require(success, \"Aborting, call was not successful\") */\n      tag_86\n      jumpi\n      mload(0x40)\n      0x08c379a000000000000000000000000000000000000000000000000000000000\n      dup2\n      mstore\n      0x04\n      add\n      tag_87\n      swap1\n      tag_88\n      jump\t// in\n    tag_87:\n      mload(0x40)\n      dup1\n      swap2\n      sub\n      swap1\n      revert\n    tag_86:\n        /* \"remix-project-files/contracts/FullWalletImplementation/Wallet.sol\":1189:1199  returnData */\n      dup1\n        /* \"remix-project-files/contracts/FullWalletImplementation/Wallet.sol\":1182:1199  return returnData */\n      swap3\n      pop\n      pop\n      pop\n        /* \"remix-project-files/contracts/FullWalletImplementation/Wallet.sol\":834:1206  function transfer(address payable _to, uint _amount, bytes memory _payload) public returns (bytes memory) {... */\n      swap4\n      swap3\n      pop\n      pop\n      pop\n      jump\t// out\n        /* \"remix-project-files/contracts/FullWalletImplementation/Wallet.sol\":110:131  uint public myBalance */\n    tag_53:\n      sload(0x01)\n      dup2\n      jump\t// out\n        /* \"remix-project-files/contracts/FullWalletImplementation/Wallet.sol\":1533:2146  function sendMoney(address payable _to, uint _amount, bytes memory _payload) public returns (bytes memory) {... */\n    tag_58:\n        /* \"remix-project-files/contracts/FullWalletImplementation/Wallet.sol\":1626:1638  bytes memory */\n      0x60\n        /* \"remix-project-files/contracts/FullWalletImplementation/Wallet.sol\":1667:1672  owner */\n      0x00\n      dup1\n      sload\n      swap1\n      0x0100\n      exp\n      swap1\n      div\n      0xffffffffffffffffffffffffffffffffffffffff\n      and\n        /* \"remix-project-files/contracts/FullWalletImplementation/Wallet.sol\":1653:1672  msg.sender != owner */\n      0xffffffffffffffffffffffffffffffffffffffff\n      and\n        /* \"remix-project-files/contracts/FullWalletImplementation/Wallet.sol\":1653:1663  msg.sender */\n      caller\n        /* \"remix-project-files/contracts/FullWalletImplementation/Wallet.sol\":1653:1672  msg.sender != owner */\n      0xffffffffffffffffffffffffffffffffffffffff\n      and\n      eq\n        /* \"remix-project-files/contracts/FullWalletImplementation/Wallet.sol\":1650:1945  if(msg.sender != owner) {... */\n      tag_90\n      jumpi\n        /* \"remix-project-files/contracts/FullWalletImplementation/Wallet.sol\":1696:1711  isAllowedToSend */\n      0x03\n        /* \"remix-project-files/contracts/FullWalletImplementation/Wallet.sol\":1696:1723  isAllowedToSend[msg.sender] */\n      0x00\n        /* \"remix-project-files/contracts/FullWalletImplementation/Wallet.sol\":1712:1722  msg.sender */\n      caller\n        /* \"remix-project-files/contracts/FullWalletImplementation/Wallet.sol\":1696:1723  isAllowedToSend[msg.sender] */\n      0xffffffffffffffffffffffffffffffffffffffff\n      and\n      0xffffffffffffffffffffffffffffffffffffffff\n      and\n      dup2\n      mstore\n      0x20\n      add\n      swap1\n      dup2\n      mstore\n      0x20\n      add\n      0x00\n      keccak256\n      0x00\n      swap1\n      sload\n      swap1\n      0x0100\n      exp\n      swap1\n      div\n      0xff\n      and\n        /* \"remix-project-files/contracts/FullWalletImplementation/Wallet.sol\":1688:1784  require(isAllowedToSend[msg.sender], \"Abort, You aren't allowed to send money from this wallet\") */\n      tag_91\n      jumpi\n      mload(0x40)\n      0x08c379a000000000000000000000000000000000000000000000000000000000\n      dup2\n      mstore\n      0x04\n      add\n      tag_92\n      swap1\n      tag_93\n      jump\t// in\n    tag_92:\n      mload(0x40)\n      dup1\n      swap2\n      sub\n      swap1\n      revert\n    tag_91:\n        /* \"remix-project-files/contracts/FullWalletImplementation/Wallet.sol\":1832:1839  _amount */\n      dup3\n        /* \"remix-project-files/contracts/FullWalletImplementation/Wallet.sol\":1806:1816  allowences */\n      0x02\n        /* \"remix-project-files/contracts/FullWalletImplementation/Wallet.sol\":1806:1828  allowences[msg.sender] */\n      0x00\n        /* \"remix-project-files/contracts/FullWalletImplementation/Wallet.sol\":1817:1827  msg.sender */\n      caller\n        /* \"remix-project-files/contracts/FullWalletImplementation/Wallet.sol\":1806:1828  allowences[msg.sender] */\n      0xffffffffffffffffffffffffffffffffffffffff\n      and\n      0xffffffffffffffffffffffffffffffffffffffff\n      and\n      dup2\n      mstore\n      0x20\n      add\n      swap1\n      dup2\n      mstore\n      0x20\n      add\n      0x00\n      keccak256\n      sload\n        /* \"remix-project-files/contracts/FullWalletImplementation/Wallet.sol\":1806:1839  allowences[msg.sender] >= _amount */\n      lt\n      iszero\n        /* \"remix-project-files/contracts/FullWalletImplementation/Wallet.sol\":1798:1887  require(allowences[msg.sender] >= _amount, \"Abort, You do not have enough money to send\") */\n      tag_94\n      jumpi\n      mload(0x40)\n      0x08c379a000000000000000000000000000000000000000000000000000000000\n      dup2\n      mstore\n      0x04\n      add\n      tag_95\n      swap1\n      tag_96\n      jump\t// in\n    tag_95:\n      mload(0x40)\n      dup1\n      swap2\n      sub\n      swap1\n      revert\n    tag_94:\n        /* \"remix-project-files/contracts/FullWalletImplementation/Wallet.sol\":1927:1934  _amount */\n      dup3\n        /* \"remix-project-files/contracts/FullWalletImplementation/Wallet.sol\":1901:1911  allowences */\n      0x02\n        /* \"remix-project-files/contracts/FullWalletImplementation/Wallet.sol\":1901:1923  allowences[msg.sender] */\n      0x00\n        /* \"remix-project-files/contracts/FullWalletImplementation/Wallet.sol\":1912:1922  msg.sender */\n      caller\n        /* \"remix-project-files/contracts/FullWalletImplementation/Wallet.sol\":1901:1923  allowences[msg.sender] */\n      0xffffffffffffffffffffffffffffffffffffffff\n      and\n      0xffffffffffffffffffffffffffffffffffffffff\n      and\n      dup2\n      mstore\n      0x20\n      add\n      swap1\n      dup2\n      mstore\n      0x20\n      add\n      0x00\n      keccak256\n      0x00\n        /* \"remix-project-files/contracts/FullWalletImplementation/Wallet.sol\":1901:1934  allowences[msg.sender] -= _amount */\n      dup3\n      dup3\n      sload\n      tag_97\n      swap2\n      swap1\n      tag_75\n      jump\t// in\n    tag_97:\n      swap3\n      pop\n      pop\n      dup2\n      swap1\n      sstore\n      pop\n        /* \"remix-project-files/contracts/FullWalletImplementation/Wallet.sol\":1650:1945  if(msg.sender != owner) {... */\n    tag_90:\n        /* \"remix-project-files/contracts/FullWalletImplementation/Wallet.sol\":1956:1968  bool success */\n      0x00\n        /* \"remix-project-files/contracts/FullWalletImplementation/Wallet.sol\":1970:1993  bytes memory returnData */\n      dup1\n        /* \"remix-project-files/contracts/FullWalletImplementation/Wallet.sol\":1997:2000  _to */\n      dup6\n        /* \"remix-project-files/contracts/FullWalletImplementation/Wallet.sol\":1997:2005  _to.call */\n      0xffffffffffffffffffffffffffffffffffffffff\n      and\n        /* \"remix-project-files/contracts/FullWalletImplementation/Wallet.sol\":2013:2020  _amount */\n      dup6\n        /* \"remix-project-files/contracts/FullWalletImplementation/Wallet.sol\":2022:2030  _payload */\n      dup6\n        /* \"remix-project-files/contracts/FullWalletImplementation/Wallet.sol\":1997:2031  _to.call{value: _amount}(_payload) */\n      mload(0x40)\n      tag_98\n      swap2\n      swap1\n      tag_82\n      jump\t// in\n    tag_98:\n      0x00\n      mload(0x40)\n      dup1\n      dup4\n      sub\n      dup2\n      dup6\n      dup8\n      gas\n      call\n      swap3\n      pop\n      pop\n      pop\n      returndatasize\n      dup1\n      0x00\n      dup2\n      eq\n      tag_101\n      jumpi\n      mload(0x40)\n      swap2\n      pop\n      and(add(returndatasize, 0x3f), not(0x1f))\n      dup3\n      add\n      0x40\n      mstore\n      returndatasize\n      dup3\n      mstore\n      returndatasize\n      0x00\n      0x20\n      dup5\n      add\n      returndatacopy\n      jump(tag_100)\n    tag_101:\n      0x60\n      swap2\n      pop\n    tag_100:\n      pop\n        /* \"remix-project-files/contracts/FullWalletImplementation/Wallet.sol\":1955:2031  (bool success, bytes memory returnData) = _to.call{value: _amount}(_payload) */\n      swap2\n      pop\n      swap2\n      pop\n        /* \"remix-project-files/contracts/FullWalletImplementation/Wallet.sol\":2049:2056  success */\n      dup2\n        /* \"remix-project-files/contracts/FullWalletImplementation/Wallet.sol\":2041:2112  require(success, \"Abort, Fund transfer failed, calling contract error\") */\n      tag_102\n      jumpi\n      mload(0x40)\n      0x08c379a000000000000000000000000000000000000000000000000000000000\n      dup2\n      mstore\n      0x04\n      add\n      tag_103\n      swap1\n      tag_104\n      jump\t// in\n    tag_103:\n      mload(0x40)\n      dup1\n      swap2\n      sub\n      swap1\n      revert\n    tag_102:\n        /* \"remix-project-files/contracts/FullWalletImplementation/Wallet.sol\":2129:2139  returnData */\n      dup1\n        /* \"remix-project-files/contracts/FullWalletImplementation/Wallet.sol\":2122:2139  return returnData */\n      swap3\n      pop\n      pop\n      pop\n        /* \"remix-project-files/contracts/FullWalletImplementation/Wallet.sol\":1533:2146  function sendMoney(address payable _to, uint _amount, bytes memory _payload) public returns (bytes memory) {... */\n      swap4\n      swap3\n      pop\n      pop\n      pop\n      jump\t// out\n        /* \"#utility.yul\":7:84   */\n    tag_105:\n        /* \"#utility.yul\":44:51   */\n      0x00\n        /* \"#utility.yul\":73:78   */\n      dup2\n        /* \"#utility.yul\":62:78   */\n      swap1\n      pop\n        /* \"#utility.yul\":7:84   */\n      swap2\n      swap1\n      pop\n      jump\t// out\n        /* \"#utility.yul\":90:270   */\n    tag_106:\n        /* \"#utility.yul\":138:215   */\n      0x4e487b7100000000000000000000000000000000000000000000000000000000\n        /* \"#utility.yul\":135:136   */\n      0x00\n        /* \"#utility.yul\":128:216   */\n      mstore\n        /* \"#utility.yul\":235:239   */\n      0x11\n        /* \"#utility.yul\":232:233   */\n      0x04\n        /* \"#utility.yul\":225:240   */\n      mstore\n        /* \"#utility.yul\":259:263   */\n      0x24\n        /* \"#utility.yul\":256:257   */\n      0x00\n        /* \"#utility.yul\":249:264   */\n      revert\n        /* \"#utility.yul\":276:467   */\n    tag_15:\n        /* \"#utility.yul\":316:319   */\n      0x00\n        /* \"#utility.yul\":335:355   */\n      tag_158\n        /* \"#utility.yul\":353:354   */\n      dup3\n        /* \"#utility.yul\":335:355   */\n      tag_105\n      jump\t// in\n    tag_158:\n        /* \"#utility.yul\":330:355   */\n      swap2\n      pop\n        /* \"#utility.yul\":369:389   */\n      tag_159\n        /* \"#utility.yul\":387:388   */\n      dup4\n        /* \"#utility.yul\":369:389   */\n      tag_105\n      jump\t// in\n    tag_159:\n        /* \"#utility.yul\":364:389   */\n      swap3\n      pop\n        /* \"#utility.yul\":412:413   */\n      dup3\n        /* \"#utility.yul\":409:410   */\n      dup3\n        /* \"#utility.yul\":405:414   */\n      add\n        /* \"#utility.yul\":398:414   */\n      swap1\n      pop\n        /* \"#utility.yul\":433:436   */\n      dup1\n        /* \"#utility.yul\":430:431   */\n      dup3\n        /* \"#utility.yul\":427:437   */\n      gt\n        /* \"#utility.yul\":424:460   */\n      iszero\n      tag_160\n      jumpi\n        /* \"#utility.yul\":440:458   */\n      tag_161\n      tag_106\n      jump\t// in\n    tag_161:\n        /* \"#utility.yul\":424:460   */\n    tag_160:\n        /* \"#utility.yul\":276:467   */\n      swap3\n      swap2\n      pop\n      pop\n      jump\t// out\n        /* \"#utility.yul\":473:548   */\n    tag_107:\n        /* \"#utility.yul\":506:512   */\n      0x00\n        /* \"#utility.yul\":539:541   */\n      0x40\n        /* \"#utility.yul\":533:542   */\n      mload\n        /* \"#utility.yul\":523:542   */\n      swap1\n      pop\n        /* \"#utility.yul\":473:548   */\n      swap1\n      jump\t// out\n        /* \"#utility.yul\":554:671   */\n    tag_108:\n        /* \"#utility.yul\":663:664   */\n      0x00\n        /* \"#utility.yul\":660:661   */\n      dup1\n        /* \"#utility.yul\":653:665   */\n      revert\n        /* \"#utility.yul\":677:794   */\n    tag_109:\n        /* \"#utility.yul\":786:787   */\n      0x00\n        /* \"#utility.yul\":783:784   */\n      dup1\n        /* \"#utility.yul\":776:788   */\n      revert\n        /* \"#utility.yul\":800:926   */\n    tag_110:\n        /* \"#utility.yul\":837:844   */\n      0x00\n        /* \"#utility.yul\":877:919   */\n      0xffffffffffffffffffffffffffffffffffffffff\n        /* \"#utility.yul\":870:875   */\n      dup3\n        /* \"#utility.yul\":866:920   */\n      and\n        /* \"#utility.yul\":855:920   */\n      swap1\n      pop\n        /* \"#utility.yul\":800:926   */\n      swap2\n      swap1\n      pop\n      jump\t// out\n        /* \"#utility.yul\":932:1028   */\n    tag_111:\n        /* \"#utility.yul\":969:976   */\n      0x00\n        /* \"#utility.yul\":998:1022   */\n      tag_167\n        /* \"#utility.yul\":1016:1021   */\n      dup3\n        /* \"#utility.yul\":998:1022   */\n      tag_110\n      jump\t// in\n    tag_167:\n        /* \"#utility.yul\":987:1022   */\n      swap1\n      pop\n        /* \"#utility.yul\":932:1028   */\n      swap2\n      swap1\n      pop\n      jump\t// out\n        /* \"#utility.yul\":1034:1156   */\n    tag_112:\n        /* \"#utility.yul\":1107:1131   */\n      tag_169\n        /* \"#utility.yul\":1125:1130   */\n      dup2\n        /* \"#utility.yul\":1107:1131   */\n      tag_111\n      jump\t// in\n    tag_169:\n        /* \"#utility.yul\":1100:1105   */\n      dup2\n        /* \"#utility.yul\":1097:1132   */\n      eq\n        /* \"#utility.yul\":1087:1150   */\n      tag_170\n      jumpi\n        /* \"#utility.yul\":1146:1147   */\n      0x00\n        /* \"#utility.yul\":1143:1144   */\n      dup1\n        /* \"#utility.yul\":1136:1148   */\n      revert\n        /* \"#utility.yul\":1087:1150   */\n    tag_170:\n        /* \"#utility.yul\":1034:1156   */\n      pop\n      jump\t// out\n        /* \"#utility.yul\":1162:1301   */\n    tag_113:\n        /* \"#utility.yul\":1208:1213   */\n      0x00\n        /* \"#utility.yul\":1246:1252   */\n      dup2\n        /* \"#utility.yul\":1233:1253   */\n      calldataload\n        /* \"#utility.yul\":1224:1253   */\n      swap1\n      pop\n        /* \"#utility.yul\":1262:1295   */\n      tag_172\n        /* \"#utility.yul\":1289:1294   */\n      dup2\n        /* \"#utility.yul\":1262:1295   */\n      tag_112\n      jump\t// in\n    tag_172:\n        /* \"#utility.yul\":1162:1301   */\n      swap3\n      swap2\n      pop\n      pop\n      jump\t// out\n        /* \"#utility.yul\":1307:1636   */\n    tag_19:\n        /* \"#utility.yul\":1366:1372   */\n      0x00\n        /* \"#utility.yul\":1415:1417   */\n      0x20\n        /* \"#utility.yul\":1403:1412   */\n      dup3\n        /* \"#utility.yul\":1394:1401   */\n      dup5\n        /* \"#utility.yul\":1390:1413   */\n      sub\n        /* \"#utility.yul\":1386:1418   */\n      slt\n        /* \"#utility.yul\":1383:1502   */\n      iszero\n      tag_174\n      jumpi\n        /* \"#utility.yul\":1421:1500   */\n      tag_175\n      tag_108\n      jump\t// in\n    tag_175:\n        /* \"#utility.yul\":1383:1502   */\n    tag_174:\n        /* \"#utility.yul\":1541:1542   */\n      0x00\n        /* \"#utility.yul\":1566:1619   */\n      tag_176\n        /* \"#utility.yul\":1611:1618   */\n      dup5\n        /* \"#utility.yul\":1602:1608   */\n      dup3\n        /* \"#utility.yul\":1591:1600   */\n      dup6\n        /* \"#utility.yul\":1587:1609   */\n      add\n        /* \"#utility.yul\":1566:1619   */\n      tag_113\n      jump\t// in\n    tag_176:\n        /* \"#utility.yul\":1556:1619   */\n      swap2\n      pop\n        /* \"#utility.yul\":1512:1629   */\n      pop\n        /* \"#utility.yul\":1307:1636   */\n      swap3\n      swap2\n      pop\n      pop\n      jump\t// out\n        /* \"#utility.yul\":1642:1732   */\n    tag_114:\n        /* \"#utility.yul\":1676:1683   */\n      0x00\n        /* \"#utility.yul\":1719:1724   */\n      dup2\n        /* \"#utility.yul\":1712:1725   */\n      iszero\n        /* \"#utility.yul\":1705:1726   */\n      iszero\n        /* \"#utility.yul\":1694:1726   */\n      swap1\n      pop\n        /* \"#utility.yul\":1642:1732   */\n      swap2\n      swap1\n      pop\n      jump\t// out\n        /* \"#utility.yul\":1738:1847   */\n    tag_115:\n        /* \"#utility.yul\":1819:1840   */\n      tag_179\n        /* \"#utility.yul\":1834:1839   */\n      dup2\n        /* \"#utility.yul\":1819:1840   */\n      tag_114\n      jump\t// in\n    tag_179:\n        /* \"#utility.yul\":1814:1817   */\n      dup3\n        /* \"#utility.yul\":1807:1841   */\n      mstore\n        /* \"#utility.yul\":1738:1847   */\n      pop\n      pop\n      jump\t// out\n        /* \"#utility.yul\":1853:2063   */\n    tag_22:\n        /* \"#utility.yul\":1940:1944   */\n      0x00\n        /* \"#utility.yul\":1978:1980   */\n      0x20\n        /* \"#utility.yul\":1967:1976   */\n      dup3\n        /* \"#utility.yul\":1963:1981   */\n      add\n        /* \"#utility.yul\":1955:1981   */\n      swap1\n      pop\n        /* \"#utility.yul\":1991:2056   */\n      tag_181\n        /* \"#utility.yul\":2053:2054   */\n      0x00\n        /* \"#utility.yul\":2042:2051   */\n      dup4\n        /* \"#utility.yul\":2038:2055   */\n      add\n        /* \"#utility.yul\":2029:2035   */\n      dup5\n        /* \"#utility.yul\":1991:2056   */\n      tag_115\n      jump\t// in\n    tag_181:\n        /* \"#utility.yul\":1853:2063   */\n      swap3\n      swap2\n      pop\n      pop\n      jump\t// out\n        /* \"#utility.yul\":2069:2187   */\n    tag_116:\n        /* \"#utility.yul\":2156:2180   */\n      tag_183\n        /* \"#utility.yul\":2174:2179   */\n      dup2\n        /* \"#utility.yul\":2156:2180   */\n      tag_105\n      jump\t// in\n    tag_183:\n        /* \"#utility.yul\":2151:2154   */\n      dup3\n        /* \"#utility.yul\":2144:2181   */\n      mstore\n        /* \"#utility.yul\":2069:2187   */\n      pop\n      pop\n      jump\t// out\n        /* \"#utility.yul\":2193:2415   */\n    tag_28:\n        /* \"#utility.yul\":2286:2290   */\n      0x00\n        /* \"#utility.yul\":2324:2326   */\n      0x20\n        /* \"#utility.yul\":2313:2322   */\n      dup3\n        /* \"#utility.yul\":2309:2327   */\n      add\n        /* \"#utility.yul\":2301:2327   */\n      swap1\n      pop\n        /* \"#utility.yul\":2337:2408   */\n      tag_185\n        /* \"#utility.yul\":2405:2406   */\n      0x00\n        /* \"#utility.yul\":2394:2403   */\n      dup4\n        /* \"#utility.yul\":2390:2407   */\n      add\n        /* \"#utility.yul\":2381:2387   */\n      dup5\n        /* \"#utility.yul\":2337:2408   */\n      tag_116\n      jump\t// in\n    tag_185:\n        /* \"#utility.yul\":2193:2415   */\n      swap3\n      swap2\n      pop\n      pop\n      jump\t// out\n        /* \"#utility.yul\":2421:2543   */\n    tag_117:\n        /* \"#utility.yul\":2494:2518   */\n      tag_187\n        /* \"#utility.yul\":2512:2517   */\n      dup2\n        /* \"#utility.yul\":2494:2518   */\n      tag_105\n      jump\t// in\n    tag_187:\n        /* \"#utility.yul\":2487:2492   */\n      dup2\n        /* \"#utility.yul\":2484:2519   */\n      eq\n        /* \"#utility.yul\":2474:2537   */\n      tag_188\n      jumpi\n        /* \"#utility.yul\":2533:2534   */\n      0x00\n        /* \"#utility.yul\":2530:2531   */\n      dup1\n        /* \"#utility.yul\":2523:2535   */\n      revert\n        /* \"#utility.yul\":2474:2537   */\n    tag_188:\n        /* \"#utility.yul\":2421:2543   */\n      pop\n      jump\t// out\n        /* \"#utility.yul\":2549:2688   */\n    tag_118:\n        /* \"#utility.yul\":2595:2600   */\n      0x00\n        /* \"#utility.yul\":2633:2639   */\n      dup2\n        /* \"#utility.yul\":2620:2640   */\n      calldataload\n        /* \"#utility.yul\":2611:2640   */\n      swap1\n      pop\n        /* \"#utility.yul\":2649:2682   */\n      tag_190\n        /* \"#utility.yul\":2676:2681   */\n      dup2\n        /* \"#utility.yul\":2649:2682   */\n      tag_117\n      jump\t// in\n    tag_190:\n        /* \"#utility.yul\":2549:2688   */\n      swap3\n      swap2\n      pop\n      pop\n      jump\t// out\n        /* \"#utility.yul\":2694:3168   */\n    tag_32:\n        /* \"#utility.yul\":2762:2768   */\n      0x00\n        /* \"#utility.yul\":2770:2776   */\n      dup1\n        /* \"#utility.yul\":2819:2821   */\n      0x40\n        /* \"#utility.yul\":2807:2816   */\n      dup4\n        /* \"#utility.yul\":2798:2805   */\n      dup6\n        /* \"#utility.yul\":2794:2817   */\n      sub\n        /* \"#utility.yul\":2790:2822   */\n      slt\n        /* \"#utility.yul\":2787:2906   */\n      iszero\n      tag_192\n      jumpi\n        /* \"#utility.yul\":2825:2904   */\n      tag_193\n      tag_108\n      jump\t// in\n    tag_193:\n        /* \"#utility.yul\":2787:2906   */\n    tag_192:\n        /* \"#utility.yul\":2945:2946   */\n      0x00\n        /* \"#utility.yul\":2970:3023   */\n      tag_194\n        /* \"#utility.yul\":3015:3022   */\n      dup6\n        /* \"#utility.yul\":3006:3012   */\n      dup3\n        /* \"#utility.yul\":2995:3004   */\n      dup7\n        /* \"#utility.yul\":2991:3013   */\n      add\n        /* \"#utility.yul\":2970:3023   */\n      tag_113\n      jump\t// in\n    tag_194:\n        /* \"#utility.yul\":2960:3023   */\n      swap3\n      pop\n        /* \"#utility.yul\":2916:3033   */\n      pop\n        /* \"#utility.yul\":3072:3074   */\n      0x20\n        /* \"#utility.yul\":3098:3151   */\n      tag_195\n        /* \"#utility.yul\":3143:3150   */\n      dup6\n        /* \"#utility.yul\":3134:3140   */\n      dup3\n        /* \"#utility.yul\":3123:3132   */\n      dup7\n        /* \"#utility.yul\":3119:3141   */\n      add\n        /* \"#utility.yul\":3098:3151   */\n      tag_118\n      jump\t// in\n    tag_195:\n        /* \"#utility.yul\":3088:3151   */\n      swap2\n      pop\n        /* \"#utility.yul\":3043:3161   */\n      pop\n        /* \"#utility.yul\":2694:3168   */\n      swap3\n      pop\n      swap3\n      swap1\n      pop\n      jump\t// out\n        /* \"#utility.yul\":3174:3292   */\n    tag_119:\n        /* \"#utility.yul\":3261:3285   */\n      tag_197\n        /* \"#utility.yul\":3279:3284   */\n      dup2\n        /* \"#utility.yul\":3261:3285   */\n      tag_111\n      jump\t// in\n    tag_197:\n        /* \"#utility.yul\":3256:3259   */\n      dup3\n        /* \"#utility.yul\":3249:3286   */\n      mstore\n        /* \"#utility.yul\":3174:3292   */\n      pop\n      pop\n      jump\t// out\n        /* \"#utility.yul\":3298:3520   */\n    tag_38:\n        /* \"#utility.yul\":3391:3395   */\n      0x00\n        /* \"#utility.yul\":3429:3431   */\n      0x20\n        /* \"#utility.yul\":3418:3427   */\n      dup3\n        /* \"#utility.yul\":3414:3432   */\n      add\n        /* \"#utility.yul\":3406:3432   */\n      swap1\n      pop\n        /* \"#utility.yul\":3442:3513   */\n      tag_199\n        /* \"#utility.yul\":3510:3511   */\n      0x00\n        /* \"#utility.yul\":3499:3508   */\n      dup4\n        /* \"#utility.yul\":3495:3512   */\n      add\n        /* \"#utility.yul\":3486:3492   */\n      dup5\n        /* \"#utility.yul\":3442:3513   */\n      tag_119\n      jump\t// in\n    tag_199:\n        /* \"#utility.yul\":3298:3520   */\n      swap3\n      swap2\n      pop\n      pop\n      jump\t// out\n        /* \"#utility.yul\":3526:3630   */\n    tag_120:\n        /* \"#utility.yul\":3571:3578   */\n      0x00\n        /* \"#utility.yul\":3600:3624   */\n      tag_201\n        /* \"#utility.yul\":3618:3623   */\n      dup3\n        /* \"#utility.yul\":3600:3624   */\n      tag_110\n      jump\t// in\n    tag_201:\n        /* \"#utility.yul\":3589:3624   */\n      swap1\n      pop\n        /* \"#utility.yul\":3526:3630   */\n      swap2\n      swap1\n      pop\n      jump\t// out\n        /* \"#utility.yul\":3636:3774   */\n    tag_121:\n        /* \"#utility.yul\":3717:3749   */\n      tag_203\n        /* \"#utility.yul\":3743:3748   */\n      dup2\n        /* \"#utility.yul\":3717:3749   */\n      tag_120\n      jump\t// in\n    tag_203:\n        /* \"#utility.yul\":3710:3715   */\n      dup2\n        /* \"#utility.yul\":3707:3750   */\n      eq\n        /* \"#utility.yul\":3697:3768   */\n      tag_204\n      jumpi\n        /* \"#utility.yul\":3764:3765   */\n      0x00\n        /* \"#utility.yul\":3761:3762   */\n      dup1\n        /* \"#utility.yul\":3754:3766   */\n      revert\n        /* \"#utility.yul\":3697:3768   */\n    tag_204:\n        /* \"#utility.yul\":3636:3774   */\n      pop\n      jump\t// out\n        /* \"#utility.yul\":3780:3935   */\n    tag_122:\n        /* \"#utility.yul\":3834:3839   */\n      0x00\n        /* \"#utility.yul\":3872:3878   */\n      dup2\n        /* \"#utility.yul\":3859:3879   */\n      calldataload\n        /* \"#utility.yul\":3850:3879   */\n      swap1\n      pop\n        /* \"#utility.yul\":3888:3929   */\n      tag_206\n        /* \"#utility.yul\":3923:3928   */\n      dup2\n        /* \"#utility.yul\":3888:3929   */\n      tag_121\n      jump\t// in\n    tag_206:\n        /* \"#utility.yul\":3780:3935   */\n      swap3\n      swap2\n      pop\n      pop\n      jump\t// out\n        /* \"#utility.yul\":3941:4431   */\n    tag_42:\n        /* \"#utility.yul\":4017:4023   */\n      0x00\n        /* \"#utility.yul\":4025:4031   */\n      dup1\n        /* \"#utility.yul\":4074:4076   */\n      0x40\n        /* \"#utility.yul\":4062:4071   */\n      dup4\n        /* \"#utility.yul\":4053:4060   */\n      dup6\n        /* \"#utility.yul\":4049:4072   */\n      sub\n        /* \"#utility.yul\":4045:4077   */\n      slt\n        /* \"#utility.yul\":4042:4161   */\n      iszero\n      tag_208\n      jumpi\n        /* \"#utility.yul\":4080:4159   */\n      tag_209\n      tag_108\n      jump\t// in\n    tag_209:\n        /* \"#utility.yul\":4042:4161   */\n    tag_208:\n        /* \"#utility.yul\":4200:4201   */\n      0x00\n        /* \"#utility.yul\":4225:4286   */\n      tag_210\n        /* \"#utility.yul\":4278:4285   */\n      dup6\n        /* \"#utility.yul\":4269:4275   */\n      dup3\n        /* \"#utility.yul\":4258:4267   */\n      dup7\n        /* \"#utility.yul\":4254:4276   */\n      add\n        /* \"#utility.yul\":4225:4286   */\n      tag_122\n      jump\t// in\n    tag_210:\n        /* \"#utility.yul\":4215:4286   */\n      swap3\n      pop\n        /* \"#utility.yul\":4171:4296   */\n      pop\n        /* \"#utility.yul\":4335:4337   */\n      0x20\n        /* \"#utility.yul\":4361:4414   */\n      tag_211\n        /* \"#utility.yul\":4406:4413   */\n      dup6\n        /* \"#utility.yul\":4397:4403   */\n      dup3\n        /* \"#utility.yul\":4386:4395   */\n      dup7\n        /* \"#utility.yul\":4382:4404   */\n      add\n        /* \"#utility.yul\":4361:4414   */\n      tag_118\n      jump\t// in\n    tag_211:\n        /* \"#utility.yul\":4351:4414   */\n      swap2\n      pop\n        /* \"#utility.yul\":4306:4424   */\n      pop\n        /* \"#utility.yul\":3941:4431   */\n      swap3\n      pop\n      swap3\n      swap1\n      pop\n      jump\t// out\n        /* \"#utility.yul\":4437:4554   */\n    tag_123:\n        /* \"#utility.yul\":4546:4547   */\n      0x00\n        /* \"#utility.yul\":4543:4544   */\n      dup1\n        /* \"#utility.yul\":4536:4548   */\n      revert\n        /* \"#utility.yul\":4560:4677   */\n    tag_124:\n        /* \"#utility.yul\":4669:4670   */\n      0x00\n        /* \"#utility.yul\":4666:4667   */\n      dup1\n        /* \"#utility.yul\":4659:4671   */\n      revert\n        /* \"#utility.yul\":4683:4785   */\n    tag_125:\n        /* \"#utility.yul\":4724:4730   */\n      0x00\n        /* \"#utility.yul\":4775:4777   */\n      0x1f\n        /* \"#utility.yul\":4771:4778   */\n      not\n        /* \"#utility.yul\":4766:4768   */\n      0x1f\n        /* \"#utility.yul\":4759:4764   */\n      dup4\n        /* \"#utility.yul\":4755:4769   */\n      add\n        /* \"#utility.yul\":4751:4779   */\n      and\n        /* \"#utility.yul\":4741:4779   */\n      swap1\n      pop\n        /* \"#utility.yul\":4683:4785   */\n      swap2\n      swap1\n      pop\n      jump\t// out\n        /* \"#utility.yul\":4791:4971   */\n    tag_126:\n        /* \"#utility.yul\":4839:4916   */\n      0x4e487b7100000000000000000000000000000000000000000000000000000000\n        /* \"#utility.yul\":4836:4837   */\n      0x00\n        /* \"#utility.yul\":4829:4917   */\n      mstore\n        /* \"#utility.yul\":4936:4940   */\n      0x41\n        /* \"#utility.yul\":4933:4934   */\n      0x04\n        /* \"#utility.yul\":4926:4941   */\n      mstore\n        /* \"#utility.yul\":4960:4964   */\n      0x24\n        /* \"#utility.yul\":4957:4958   */\n      0x00\n        /* \"#utility.yul\":4950:4965   */\n      revert\n        /* \"#utility.yul\":4977:5258   */\n    tag_127:\n        /* \"#utility.yul\":5060:5087   */\n      tag_217\n        /* \"#utility.yul\":5082:5086   */\n      dup3\n        /* \"#utility.yul\":5060:5087   */\n      tag_125\n      jump\t// in\n    tag_217:\n        /* \"#utility.yul\":5052:5058   */\n      dup2\n        /* \"#utility.yul\":5048:5088   */\n      add\n        /* \"#utility.yul\":5190:5196   */\n      dup2\n        /* \"#utility.yul\":5178:5188   */\n      dup2\n        /* \"#utility.yul\":5175:5197   */\n      lt\n        /* \"#utility.yul\":5154:5172   */\n      0xffffffffffffffff\n        /* \"#utility.yul\":5142:5152   */\n      dup3\n        /* \"#utility.yul\":5139:5173   */\n      gt\n        /* \"#utility.yul\":5136:5198   */\n      or\n        /* \"#utility.yul\":5133:5221   */\n      iszero\n      tag_218\n      jumpi\n        /* \"#utility.yul\":5201:5219   */\n      tag_219\n      tag_126\n      jump\t// in\n    tag_219:\n        /* \"#utility.yul\":5133:5221   */\n    tag_218:\n        /* \"#utility.yul\":5241:5251   */\n      dup1\n        /* \"#utility.yul\":5237:5239   */\n      0x40\n        /* \"#utility.yul\":5230:5252   */\n      mstore\n        /* \"#utility.yul\":5020:5258   */\n      pop\n        /* \"#utility.yul\":4977:5258   */\n      pop\n      pop\n      jump\t// out\n        /* \"#utility.yul\":5264:5393   */\n    tag_128:\n        /* \"#utility.yul\":5298:5304   */\n      0x00\n        /* \"#utility.yul\":5325:5345   */\n      tag_221\n      tag_107\n      jump\t// in\n    tag_221:\n        /* \"#utility.yul\":5315:5345   */\n      swap1\n      pop\n        /* \"#utility.yul\":5354:5387   */\n      tag_222\n        /* \"#utility.yul\":5382:5386   */\n      dup3\n        /* \"#utility.yul\":5374:5380   */\n      dup3\n        /* \"#utility.yul\":5354:5387   */\n      tag_127\n      jump\t// in\n    tag_222:\n        /* \"#utility.yul\":5264:5393   */\n      swap2\n      swap1\n      pop\n      jump\t// out\n        /* \"#utility.yul\":5399:5706   */\n    tag_129:\n        /* \"#utility.yul\":5460:5464   */\n      0x00\n        /* \"#utility.yul\":5550:5568   */\n      0xffffffffffffffff\n        /* \"#utility.yul\":5542:5548   */\n      dup3\n        /* \"#utility.yul\":5539:5569   */\n      gt\n        /* \"#utility.yul\":5536:5592   */\n      iszero\n      tag_224\n      jumpi\n        /* \"#utility.yul\":5572:5590   */\n      tag_225\n      tag_126\n      jump\t// in\n    tag_225:\n        /* \"#utility.yul\":5536:5592   */\n    tag_224:\n        /* \"#utility.yul\":5610:5639   */\n      tag_226\n        /* \"#utility.yul\":5632:5638   */\n      dup3\n        /* \"#utility.yul\":5610:5639   */\n      tag_125\n      jump\t// in\n    tag_226:\n        /* \"#utility.yul\":5602:5639   */\n      swap1\n      pop\n        /* \"#utility.yul\":5694:5698   */\n      0x20\n        /* \"#utility.yul\":5688:5692   */\n      dup2\n        /* \"#utility.yul\":5684:5699   */\n      add\n        /* \"#utility.yul\":5676:5699   */\n      swap1\n      pop\n        /* \"#utility.yul\":5399:5706   */\n      swap2\n      swap1\n      pop\n      jump\t// out\n        /* \"#utility.yul\":5712:5858   */\n    tag_130:\n        /* \"#utility.yul\":5809:5815   */\n      dup3\n        /* \"#utility.yul\":5804:5807   */\n      dup2\n        /* \"#utility.yul\":5799:5802   */\n      dup4\n        /* \"#utility.yul\":5786:5816   */\n      calldatacopy\n        /* \"#utility.yul\":5850:5851   */\n      0x00\n        /* \"#utility.yul\":5841:5847   */\n      dup4\n        /* \"#utility.yul\":5836:5839   */\n      dup4\n        /* \"#utility.yul\":5832:5848   */\n      add\n        /* \"#utility.yul\":5825:5852   */\n      mstore\n        /* \"#utility.yul\":5712:5858   */\n      pop\n      pop\n      pop\n      jump\t// out\n        /* \"#utility.yul\":5864:6287   */\n    tag_131:\n        /* \"#utility.yul\":5941:5946   */\n      0x00\n        /* \"#utility.yul\":5966:6031   */\n      tag_229\n        /* \"#utility.yul\":5982:6030   */\n      tag_230\n        /* \"#utility.yul\":6023:6029   */\n      dup5\n        /* \"#utility.yul\":5982:6030   */\n      tag_129\n      jump\t// in\n    tag_230:\n        /* \"#utility.yul\":5966:6031   */\n      tag_128\n      jump\t// in\n    tag_229:\n        /* \"#utility.yul\":5957:6031   */\n      swap1\n      pop\n        /* \"#utility.yul\":6054:6060   */\n      dup3\n        /* \"#utility.yul\":6047:6052   */\n      dup2\n        /* \"#utility.yul\":6040:6061   */\n      mstore\n        /* \"#utility.yul\":6092:6096   */\n      0x20\n        /* \"#utility.yul\":6085:6090   */\n      dup2\n        /* \"#utility.yul\":6081:6097   */\n      add\n        /* \"#utility.yul\":6130:6133   */\n      dup5\n        /* \"#utility.yul\":6121:6127   */\n      dup5\n        /* \"#utility.yul\":6116:6119   */\n      dup5\n        /* \"#utility.yul\":6112:6128   */\n      add\n        /* \"#utility.yul\":6109:6134   */\n      gt\n        /* \"#utility.yul\":6106:6218   */\n      iszero\n      tag_231\n      jumpi\n        /* \"#utility.yul\":6137:6216   */\n      tag_232\n      tag_124\n      jump\t// in\n    tag_232:\n        /* \"#utility.yul\":6106:6218   */\n    tag_231:\n        /* \"#utility.yul\":6227:6281   */\n      tag_233\n        /* \"#utility.yul\":6274:6280   */\n      dup5\n        /* \"#utility.yul\":6269:6272   */\n      dup3\n        /* \"#utility.yul\":6264:6267   */\n      dup6\n        /* \"#utility.yul\":6227:6281   */\n      tag_130\n      jump\t// in\n    tag_233:\n        /* \"#utility.yul\":5947:6287   */\n      pop\n        /* \"#utility.yul\":5864:6287   */\n      swap4\n      swap3\n      pop\n      pop\n      pop\n      jump\t// out\n        /* \"#utility.yul\":6306:6644   */\n    tag_132:\n        /* \"#utility.yul\":6361:6366   */\n      0x00\n        /* \"#utility.yul\":6410:6413   */\n      dup3\n        /* \"#utility.yul\":6403:6407   */\n      0x1f\n        /* \"#utility.yul\":6395:6401   */\n      dup4\n        /* \"#utility.yul\":6391:6408   */\n      add\n        /* \"#utility.yul\":6387:6414   */\n      slt\n        /* \"#utility.yul\":6377:6499   */\n      tag_235\n      jumpi\n        /* \"#utility.yul\":6418:6497   */\n      tag_236\n      tag_123\n      jump\t// in\n    tag_236:\n        /* \"#utility.yul\":6377:6499   */\n    tag_235:\n        /* \"#utility.yul\":6535:6541   */\n      dup2\n        /* \"#utility.yul\":6522:6542   */\n      calldataload\n        /* \"#utility.yul\":6560:6638   */\n      tag_237\n        /* \"#utility.yul\":6634:6637   */\n      dup5\n        /* \"#utility.yul\":6626:6632   */\n      dup3\n        /* \"#utility.yul\":6619:6623   */\n      0x20\n        /* \"#utility.yul\":6611:6617   */\n      dup7\n        /* \"#utility.yul\":6607:6624   */\n      add\n        /* \"#utility.yul\":6560:6638   */\n      tag_131\n      jump\t// in\n    tag_237:\n        /* \"#utility.yul\":6551:6638   */\n      swap2\n      pop\n        /* \"#utility.yul\":6367:6644   */\n      pop\n        /* \"#utility.yul\":6306:6644   */\n      swap3\n      swap2\n      pop\n      pop\n      jump\t// out\n        /* \"#utility.yul\":6650:7463   */\n    tag_47:\n        /* \"#utility.yul\":6744:6750   */\n      0x00\n        /* \"#utility.yul\":6752:6758   */\n      dup1\n        /* \"#utility.yul\":6760:6766   */\n      0x00\n        /* \"#utility.yul\":6809:6811   */\n      0x60\n        /* \"#utility.yul\":6797:6806   */\n      dup5\n        /* \"#utility.yul\":6788:6795   */\n      dup7\n        /* \"#utility.yul\":6784:6807   */\n      sub\n        /* \"#utility.yul\":6780:6812   */\n      slt\n        /* \"#utility.yul\":6777:6896   */\n      iszero\n      tag_239\n      jumpi\n        /* \"#utility.yul\":6815:6894   */\n      tag_240\n      tag_108\n      jump\t// in\n    tag_240:\n        /* \"#utility.yul\":6777:6896   */\n    tag_239:\n        /* \"#utility.yul\":6935:6936   */\n      0x00\n        /* \"#utility.yul\":6960:7021   */\n      tag_241\n        /* \"#utility.yul\":7013:7020   */\n      dup7\n        /* \"#utility.yul\":7004:7010   */\n      dup3\n        /* \"#utility.yul\":6993:7002   */\n      dup8\n        /* \"#utility.yul\":6989:7011   */\n      add\n        /* \"#utility.yul\":6960:7021   */\n      tag_122\n      jump\t// in\n    tag_241:\n        /* \"#utility.yul\":6950:7021   */\n      swap4\n      pop\n        /* \"#utility.yul\":6906:7031   */\n      pop\n        /* \"#utility.yul\":7070:7072   */\n      0x20\n        /* \"#utility.yul\":7096:7149   */\n      tag_242\n        /* \"#utility.yul\":7141:7148   */\n      dup7\n        /* \"#utility.yul\":7132:7138   */\n      dup3\n        /* \"#utility.yul\":7121:7130   */\n      dup8\n        /* \"#utility.yul\":7117:7139   */\n      add\n        /* \"#utility.yul\":7096:7149   */\n      tag_118\n      jump\t// in\n    tag_242:\n        /* \"#utility.yul\":7086:7149   */\n      swap3\n      pop\n        /* \"#utility.yul\":7041:7159   */\n      pop\n        /* \"#utility.yul\":7226:7228   */\n      0x40\n        /* \"#utility.yul\":7215:7224   */\n      dup5\n        /* \"#utility.yul\":7211:7229   */\n      add\n        /* \"#utility.yul\":7198:7230   */\n      calldataload\n        /* \"#utility.yul\":7257:7275   */\n      0xffffffffffffffff\n        /* \"#utility.yul\":7249:7255   */\n      dup2\n        /* \"#utility.yul\":7246:7276   */\n      gt\n        /* \"#utility.yul\":7243:7360   */\n      iszero\n      tag_243\n      jumpi\n        /* \"#utility.yul\":7279:7358   */\n      tag_244\n      tag_109\n      jump\t// in\n    tag_244:\n        /* \"#utility.yul\":7243:7360   */\n    tag_243:\n        /* \"#utility.yul\":7384:7446   */\n      tag_245\n        /* \"#utility.yul\":7438:7445   */\n      dup7\n        /* \"#utility.yul\":7429:7435   */\n      dup3\n        /* \"#utility.yul\":7418:7427   */\n      dup8\n        /* \"#utility.yul\":7414:7436   */\n      add\n        /* \"#utility.yul\":7384:7446   */\n      tag_132\n      jump\t// in\n    tag_245:\n        /* \"#utility.yul\":7374:7446   */\n      swap2\n      pop\n        /* \"#utility.yul\":7169:7456   */\n      pop\n        /* \"#utility.yul\":6650:7463   */\n      swap3\n      pop\n      swap3\n      pop\n      swap3\n      jump\t// out\n        /* \"#utility.yul\":7469:7567   */\n    tag_133:\n        /* \"#utility.yul\":7520:7526   */\n      0x00\n        /* \"#utility.yul\":7554:7559   */\n      dup2\n        /* \"#utility.yul\":7548:7560   */\n      mload\n        /* \"#utility.yul\":7538:7560   */\n      swap1\n      pop\n        /* \"#utility.yul\":7469:7567   */\n      swap2\n      swap1\n      pop\n      jump\t// out\n        /* \"#utility.yul\":7573:7741   */\n    tag_134:\n        /* \"#utility.yul\":7656:7667   */\n      0x00\n        /* \"#utility.yul\":7690:7696   */\n      dup3\n        /* \"#utility.yul\":7685:7688   */\n      dup3\n        /* \"#utility.yul\":7678:7697   */\n      mstore\n        /* \"#utility.yul\":7730:7734   */\n      0x20\n        /* \"#utility.yul\":7725:7728   */\n      dup3\n        /* \"#utility.yul\":7721:7735   */\n      add\n        /* \"#utility.yul\":7706:7735   */\n      swap1\n      pop\n        /* \"#utility.yul\":7573:7741   */\n      swap3\n      swap2\n      pop\n      pop\n      jump\t// out\n        /* \"#utility.yul\":7747:7993   */\n    tag_135:\n        /* \"#utility.yul\":7828:7829   */\n      0x00\n        /* \"#utility.yul\":7838:7951   */\n    tag_249:\n        /* \"#utility.yul\":7852:7858   */\n      dup4\n        /* \"#utility.yul\":7849:7850   */\n      dup2\n        /* \"#utility.yul\":7846:7859   */\n      lt\n        /* \"#utility.yul\":7838:7951   */\n      iszero\n      tag_251\n      jumpi\n        /* \"#utility.yul\":7937:7938   */\n      dup1\n        /* \"#utility.yul\":7932:7935   */\n      dup3\n        /* \"#utility.yul\":7928:7939   */\n      add\n        /* \"#utility.yul\":7922:7940   */\n      mload\n        /* \"#utility.yul\":7918:7919   */\n      dup2\n        /* \"#utility.yul\":7913:7916   */\n      dup5\n        /* \"#utility.yul\":7909:7920   */\n      add\n        /* \"#utility.yul\":7902:7941   */\n      mstore\n        /* \"#utility.yul\":7874:7876   */\n      0x20\n        /* \"#utility.yul\":7871:7872   */\n      dup2\n        /* \"#utility.yul\":7867:7877   */\n      add\n        /* \"#utility.yul\":7862:7877   */\n      swap1\n      pop\n        /* \"#utility.yul\":7838:7951   */\n      jump(tag_249)\n    tag_251:\n        /* \"#utility.yul\":7985:7986   */\n      0x00\n        /* \"#utility.yul\":7976:7982   */\n      dup5\n        /* \"#utility.yul\":7971:7974   */\n      dup5\n        /* \"#utility.yul\":7967:7983   */\n      add\n        /* \"#utility.yul\":7960:7987   */\n      mstore\n        /* \"#utility.yul\":7809:7993   */\n      pop\n        /* \"#utility.yul\":7747:7993   */\n      pop\n      pop\n      pop\n      jump\t// out\n        /* \"#utility.yul\":7999:8372   */\n    tag_136:\n        /* \"#utility.yul\":8085:8088   */\n      0x00\n        /* \"#utility.yul\":8113:8151   */\n      tag_253\n        /* \"#utility.yul\":8145:8150   */\n      dup3\n        /* \"#utility.yul\":8113:8151   */\n      tag_133\n      jump\t// in\n    tag_253:\n        /* \"#utility.yul\":8167:8237   */\n      tag_254\n        /* \"#utility.yul\":8230:8236   */\n      dup2\n        /* \"#utility.yul\":8225:8228   */\n      dup6\n        /* \"#utility.yul\":8167:8237   */\n      tag_134\n      jump\t// in\n    tag_254:\n        /* \"#utility.yul\":8160:8237   */\n      swap4\n      pop\n        /* \"#utility.yul\":8246:8311   */\n      tag_255\n        /* \"#utility.yul\":8304:8310   */\n      dup2\n        /* \"#utility.yul\":8299:8302   */\n      dup6\n        /* \"#utility.yul\":8292:8296   */\n      0x20\n        /* \"#utility.yul\":8285:8290   */\n      dup7\n        /* \"#utility.yul\":8281:8297   */\n      add\n        /* \"#utility.yul\":8246:8311   */\n      tag_135\n      jump\t// in\n    tag_255:\n        /* \"#utility.yul\":8336:8365   */\n      tag_256\n        /* \"#utility.yul\":8358:8364   */\n      dup2\n        /* \"#utility.yul\":8336:8365   */\n      tag_125\n      jump\t// in\n    tag_256:\n        /* \"#utility.yul\":8331:8334   */\n      dup5\n        /* \"#utility.yul\":8327:8366   */\n      add\n        /* \"#utility.yul\":8320:8366   */\n      swap2\n      pop\n        /* \"#utility.yul\":8089:8372   */\n      pop\n        /* \"#utility.yul\":7999:8372   */\n      swap3\n      swap2\n      pop\n      pop\n      jump\t// out\n        /* \"#utility.yul\":8378:8687   */\n    tag_50:\n        /* \"#utility.yul\":8489:8493   */\n      0x00\n        /* \"#utility.yul\":8527:8529   */\n      0x20\n        /* \"#utility.yul\":8516:8525   */\n      dup3\n        /* \"#utility.yul\":8512:8530   */\n      add\n        /* \"#utility.yul\":8504:8530   */\n      swap1\n      pop\n        /* \"#utility.yul\":8576:8585   */\n      dup2\n        /* \"#utility.yul\":8570:8574   */\n      dup2\n        /* \"#utility.yul\":8566:8586   */\n      sub\n        /* \"#utility.yul\":8562:8563   */\n      0x00\n        /* \"#utility.yul\":8551:8560   */\n      dup4\n        /* \"#utility.yul\":8547:8564   */\n      add\n        /* \"#utility.yul\":8540:8587   */\n      mstore\n        /* \"#utility.yul\":8604:8680   */\n      tag_258\n        /* \"#utility.yul\":8675:8679   */\n      dup2\n        /* \"#utility.yul\":8666:8672   */\n      dup5\n        /* \"#utility.yul\":8604:8680   */\n      tag_136\n      jump\t// in\n    tag_258:\n        /* \"#utility.yul\":8596:8680   */\n      swap1\n      pop\n        /* \"#utility.yul\":8378:8687   */\n      swap3\n      swap2\n      pop\n      pop\n      jump\t// out\n        /* \"#utility.yul\":8693:8862   */\n    tag_137:\n        /* \"#utility.yul\":8777:8788   */\n      0x00\n        /* \"#utility.yul\":8811:8817   */\n      dup3\n        /* \"#utility.yul\":8806:8809   */\n      dup3\n        /* \"#utility.yul\":8799:8818   */\n      mstore\n        /* \"#utility.yul\":8851:8855   */\n      0x20\n        /* \"#utility.yul\":8846:8849   */\n      dup3\n        /* \"#utility.yul\":8842:8856   */\n      add\n        /* \"#utility.yul\":8827:8856   */\n      swap1\n      pop\n        /* \"#utility.yul\":8693:8862   */\n      swap3\n      swap2\n      pop\n      pop\n      jump\t// out\n        /* \"#utility.yul\":8868:9050   */\n    tag_138:\n        /* \"#utility.yul\":9008:9042   */\n      0x41626f7274696e67212c20796f7520617265206e6f7420746865206f776e6572\n        /* \"#utility.yul\":9004:9005   */\n      0x00\n        /* \"#utility.yul\":8996:9002   */\n      dup3\n        /* \"#utility.yul\":8992:9006   */\n      add\n        /* \"#utility.yul\":8985:9043   */\n      mstore\n        /* \"#utility.yul\":8868:9050   */\n      pop\n      jump\t// out\n        /* \"#utility.yul\":9056:9422   */\n    tag_139:\n        /* \"#utility.yul\":9198:9201   */\n      0x00\n        /* \"#utility.yul\":9219:9286   */\n      tag_262\n        /* \"#utility.yul\":9283:9285   */\n      0x20\n        /* \"#utility.yul\":9278:9281   */\n      dup4\n        /* \"#utility.yul\":9219:9286   */\n      tag_137\n      jump\t// in\n    tag_262:\n        /* \"#utility.yul\":9212:9286   */\n      swap2\n      pop\n        /* \"#utility.yul\":9295:9388   */\n      tag_263\n        /* \"#utility.yul\":9384:9387   */\n      dup3\n        /* \"#utility.yul\":9295:9388   */\n      tag_138\n      jump\t// in\n    tag_263:\n        /* \"#utility.yul\":9413:9415   */\n      0x20\n        /* \"#utility.yul\":9408:9411   */\n      dup3\n        /* \"#utility.yul\":9404:9416   */\n      add\n        /* \"#utility.yul\":9397:9416   */\n      swap1\n      pop\n        /* \"#utility.yul\":9056:9422   */\n      swap2\n      swap1\n      pop\n      jump\t// out\n        /* \"#utility.yul\":9428:9847   */\n    tag_63:\n        /* \"#utility.yul\":9594:9598   */\n      0x00\n        /* \"#utility.yul\":9632:9634   */\n      0x20\n        /* \"#utility.yul\":9621:9630   */\n      dup3\n        /* \"#utility.yul\":9617:9635   */\n      add\n        /* \"#utility.yul\":9609:9635   */\n      swap1\n      pop\n        /* \"#utility.yul\":9681:9690   */\n      dup2\n        /* \"#utility.yul\":9675:9679   */\n      dup2\n        /* \"#utility.yul\":9671:9691   */\n      sub\n        /* \"#utility.yul\":9667:9668   */\n      0x00\n        /* \"#utility.yul\":9656:9665   */\n      dup4\n        /* \"#utility.yul\":9652:9669   */\n      add\n        /* \"#utility.yul\":9645:9692   */\n      mstore\n        /* \"#utility.yul\":9709:9840   */\n      tag_265\n        /* \"#utility.yul\":9835:9839   */\n      dup2\n        /* \"#utility.yul\":9709:9840   */\n      tag_139\n      jump\t// in\n    tag_265:\n        /* \"#utility.yul\":9701:9840   */\n      swap1\n      pop\n        /* \"#utility.yul\":9428:9847   */\n      swap2\n      swap1\n      pop\n      jump\t// out\n        /* \"#utility.yul\":9853:10035   */\n    tag_140:\n        /* \"#utility.yul\":9993:10027   */\n      0x41626f7274696e67212c20796f7520617265206e746f20746865206f776e6572\n        /* \"#utility.yul\":9989:9990   */\n      0x00\n        /* \"#utility.yul\":9981:9987   */\n      dup3\n        /* \"#utility.yul\":9977:9991   */\n      add\n        /* \"#utility.yul\":9970:10028   */\n      mstore\n        /* \"#utility.yul\":9853:10035   */\n      pop\n      jump\t// out\n        /* \"#utility.yul\":10041:10407   */\n    tag_141:\n        /* \"#utility.yul\":10183:10186   */\n      0x00\n        /* \"#utility.yul\":10204:10271   */\n      tag_268\n        /* \"#utility.yul\":10268:10270   */\n      0x20\n        /* \"#utility.yul\":10263:10266   */\n      dup4\n        /* \"#utility.yul\":10204:10271   */\n      tag_137\n      jump\t// in\n    tag_268:\n        /* \"#utility.yul\":10197:10271   */\n      swap2\n      pop\n        /* \"#utility.yul\":10280:10373   */\n      tag_269\n        /* \"#utility.yul\":10369:10372   */\n      dup3\n        /* \"#utility.yul\":10280:10373   */\n      tag_140\n      jump\t// in\n    tag_269:\n        /* \"#utility.yul\":10398:10400   */\n      0x20\n        /* \"#utility.yul\":10393:10396   */\n      dup3\n        /* \"#utility.yul\":10389:10401   */\n      add\n        /* \"#utility.yul\":10382:10401   */\n      swap1\n      pop\n        /* \"#utility.yul\":10041:10407   */\n      swap2\n      swap1\n      pop\n      jump\t// out\n        /* \"#utility.yul\":10413:10832   */\n    tag_70:\n        /* \"#utility.yul\":10579:10583   */\n      0x00\n        /* \"#utility.yul\":10617:10619   */\n      0x20\n        /* \"#utility.yul\":10606:10615   */\n      dup3\n        /* \"#utility.yul\":10602:10620   */\n      add\n        /* \"#utility.yul\":10594:10620   */\n      swap1\n      pop\n        /* \"#utility.yul\":10666:10675   */\n      dup2\n        /* \"#utility.yul\":10660:10664   */\n      dup2\n        /* \"#utility.yul\":10656:10676   */\n      sub\n        /* \"#utility.yul\":10652:10653   */\n      0x00\n        /* \"#utility.yul\":10641:10650   */\n      dup4\n        /* \"#utility.yul\":10637:10654   */\n      add\n        /* \"#utility.yul\":10630:10677   */\n      mstore\n        /* \"#utility.yul\":10694:10825   */\n      tag_271\n        /* \"#utility.yul\":10820:10824   */\n      dup2\n        /* \"#utility.yul\":10694:10825   */\n      tag_141\n      jump\t// in\n    tag_271:\n        /* \"#utility.yul\":10686:10825   */\n      swap1\n      pop\n        /* \"#utility.yul\":10413:10832   */\n      swap2\n      swap1\n      pop\n      jump\t// out\n        /* \"#utility.yul\":10838:11015   */\n    tag_142:\n        /* \"#utility.yul\":10978:11007   */\n      0x41626f7274696e67212c206e6f7420656e6f756768206d6f6e65790000000000\n        /* \"#utility.yul\":10974:10975   */\n      0x00\n        /* \"#utility.yul\":10966:10972   */\n      dup3\n        /* \"#utility.yul\":10962:10976   */\n      add\n        /* \"#utility.yul\":10955:11008   */\n      mstore\n        /* \"#utility.yul\":10838:11015   */\n      pop\n      jump\t// out\n        /* \"#utility.yul\":11021:11387   */\n    tag_143:\n        /* \"#utility.yul\":11163:11166   */\n      0x00\n        /* \"#utility.yul\":11184:11251   */\n      tag_274\n        /* \"#utility.yul\":11248:11250   */\n      0x1b\n        /* \"#utility.yul\":11243:11246   */\n      dup4\n        /* \"#utility.yul\":11184:11251   */\n      tag_137\n      jump\t// in\n    tag_274:\n        /* \"#utility.yul\":11177:11251   */\n      swap2\n      pop\n        /* \"#utility.yul\":11260:11353   */\n      tag_275\n        /* \"#utility.yul\":11349:11352   */\n      dup3\n        /* \"#utility.yul\":11260:11353   */\n      tag_142\n      jump\t// in\n    tag_275:\n        /* \"#utility.yul\":11378:11380   */\n      0x20\n        /* \"#utility.yul\":11373:11376   */\n      dup3\n        /* \"#utility.yul\":11369:11381   */\n      add\n        /* \"#utility.yul\":11362:11381   */\n      swap1\n      pop\n        /* \"#utility.yul\":11021:11387   */\n      swap2\n      swap1\n      pop\n      jump\t// out\n        /* \"#utility.yul\":11393:11812   */\n    tag_73:\n        /* \"#utility.yul\":11559:11563   */\n      0x00\n        /* \"#utility.yul\":11597:11599   */\n      0x20\n        /* \"#utility.yul\":11586:11595   */\n      dup3\n        /* \"#utility.yul\":11582:11600   */\n      add\n        /* \"#utility.yul\":11574:11600   */\n      swap1\n      pop\n        /* \"#utility.yul\":11646:11655   */\n      dup2\n        /* \"#utility.yul\":11640:11644   */\n      dup2\n        /* \"#utility.yul\":11636:11656   */\n      sub\n        /* \"#utility.yul\":11632:11633   */\n      0x00\n        /* \"#utility.yul\":11621:11630   */\n      dup4\n        /* \"#utility.yul\":11617:11634   */\n      add\n        /* \"#utility.yul\":11610:11657   */\n      mstore\n        /* \"#utility.yul\":11674:11805   */\n      tag_277\n        /* \"#utility.yul\":11800:11804   */\n      dup2\n        /* \"#utility.yul\":11674:11805   */\n      tag_143\n      jump\t// in\n    tag_277:\n        /* \"#utility.yul\":11666:11805   */\n      swap1\n      pop\n        /* \"#utility.yul\":11393:11812   */\n      swap2\n      swap1\n      pop\n      jump\t// out\n        /* \"#utility.yul\":11818:12012   */\n    tag_75:\n        /* \"#utility.yul\":11858:11862   */\n      0x00\n        /* \"#utility.yul\":11878:11898   */\n      tag_279\n        /* \"#utility.yul\":11896:11897   */\n      dup3\n        /* \"#utility.yul\":11878:11898   */\n      tag_105\n      jump\t// in\n    tag_279:\n        /* \"#utility.yul\":11873:11898   */\n      swap2\n      pop\n        /* \"#utility.yul\":11912:11932   */\n      tag_280\n        /* \"#utility.yul\":11930:11931   */\n      dup4\n        /* \"#utility.yul\":11912:11932   */\n      tag_105\n      jump\t// in\n    tag_280:\n        /* \"#utility.yul\":11907:11932   */\n      swap3\n      pop\n        /* \"#utility.yul\":11956:11957   */\n      dup3\n        /* \"#utility.yul\":11953:11954   */\n      dup3\n        /* \"#utility.yul\":11949:11958   */\n      sub\n        /* \"#utility.yul\":11941:11958   */\n      swap1\n      pop\n        /* \"#utility.yul\":11980:11981   */\n      dup2\n        /* \"#utility.yul\":11974:11978   */\n      dup2\n        /* \"#utility.yul\":11971:11982   */\n      gt\n        /* \"#utility.yul\":11968:12005   */\n      iszero\n      tag_281\n      jumpi\n        /* \"#utility.yul\":11985:12003   */\n      tag_282\n      tag_106\n      jump\t// in\n    tag_282:\n        /* \"#utility.yul\":11968:12005   */\n    tag_281:\n        /* \"#utility.yul\":11818:12012   */\n      swap3\n      swap2\n      pop\n      pop\n      jump\t// out\n        /* \"#utility.yul\":12018:12165   */\n    tag_144:\n        /* \"#utility.yul\":12119:12130   */\n      0x00\n        /* \"#utility.yul\":12156:12159   */\n      dup2\n        /* \"#utility.yul\":12141:12159   */\n      swap1\n      pop\n        /* \"#utility.yul\":12018:12165   */\n      swap3\n      swap2\n      pop\n      pop\n      jump\t// out\n        /* \"#utility.yul\":12171:12557   */\n    tag_145:\n        /* \"#utility.yul\":12275:12278   */\n      0x00\n        /* \"#utility.yul\":12303:12341   */\n      tag_285\n        /* \"#utility.yul\":12335:12340   */\n      dup3\n        /* \"#utility.yul\":12303:12341   */\n      tag_133\n      jump\t// in\n    tag_285:\n        /* \"#utility.yul\":12357:12445   */\n      tag_286\n        /* \"#utility.yul\":12438:12444   */\n      dup2\n        /* \"#utility.yul\":12433:12436   */\n      dup6\n        /* \"#utility.yul\":12357:12445   */\n      tag_144\n      jump\t// in\n    tag_286:\n        /* \"#utility.yul\":12350:12445   */\n      swap4\n      pop\n        /* \"#utility.yul\":12454:12519   */\n      tag_287\n        /* \"#utility.yul\":12512:12518   */\n      dup2\n        /* \"#utility.yul\":12507:12510   */\n      dup6\n        /* \"#utility.yul\":12500:12504   */\n      0x20\n        /* \"#utility.yul\":12493:12498   */\n      dup7\n        /* \"#utility.yul\":12489:12505   */\n      add\n        /* \"#utility.yul\":12454:12519   */\n      tag_135\n      jump\t// in\n    tag_287:\n        /* \"#utility.yul\":12544:12550   */\n      dup1\n        /* \"#utility.yul\":12539:12542   */\n      dup5\n        /* \"#utility.yul\":12535:12551   */\n      add\n        /* \"#utility.yul\":12528:12551   */\n      swap2\n      pop\n        /* \"#utility.yul\":12279:12557   */\n      pop\n        /* \"#utility.yul\":12171:12557   */\n      swap3\n      swap2\n      pop\n      pop\n      jump\t// out\n        /* \"#utility.yul\":12563:12834   */\n    tag_82:\n        /* \"#utility.yul\":12693:12696   */\n      0x00\n        /* \"#utility.yul\":12715:12808   */\n      tag_289\n        /* \"#utility.yul\":12804:12807   */\n      dup3\n        /* \"#utility.yul\":12795:12801   */\n      dup5\n        /* \"#utility.yul\":12715:12808   */\n      tag_145\n      jump\t// in\n    tag_289:\n        /* \"#utility.yul\":12708:12808   */\n      swap2\n      pop\n        /* \"#utility.yul\":12825:12828   */\n      dup2\n        /* \"#utility.yul\":12818:12828   */\n      swap1\n      pop\n        /* \"#utility.yul\":12563:12834   */\n      swap3\n      swap2\n      pop\n      pop\n      jump\t// out\n        /* \"#utility.yul\":12840:13060   */\n    tag_146:\n        /* \"#utility.yul\":12980:13014   */\n      0x41626f7274696e672c2063616c6c20776173206e6f7420737563636573736675\n        /* \"#utility.yul\":12976:12977   */\n      0x00\n        /* \"#utility.yul\":12968:12974   */\n      dup3\n        /* \"#utility.yul\":12964:12978   */\n      add\n        /* \"#utility.yul\":12957:13015   */\n      mstore\n        /* \"#utility.yul\":13049:13052   */\n      0x6c00000000000000000000000000000000000000000000000000000000000000\n        /* \"#utility.yul\":13044:13046   */\n      0x20\n        /* \"#utility.yul\":13036:13042   */\n      dup3\n        /* \"#utility.yul\":13032:13047   */\n      add\n        /* \"#utility.yul\":13025:13053   */\n      mstore\n        /* \"#utility.yul\":12840:13060   */\n      pop\n      jump\t// out\n        /* \"#utility.yul\":13066:13432   */\n    tag_147:\n        /* \"#utility.yul\":13208:13211   */\n      0x00\n        /* \"#utility.yul\":13229:13296   */\n      tag_292\n        /* \"#utility.yul\":13293:13295   */\n      0x21\n        /* \"#utility.yul\":13288:13291   */\n      dup4\n        /* \"#utility.yul\":13229:13296   */\n      tag_137\n      jump\t// in\n    tag_292:\n        /* \"#utility.yul\":13222:13296   */\n      swap2\n      pop\n        /* \"#utility.yul\":13305:13398   */\n      tag_293\n        /* \"#utility.yul\":13394:13397   */\n      dup3\n        /* \"#utility.yul\":13305:13398   */\n      tag_146\n      jump\t// in\n    tag_293:\n        /* \"#utility.yul\":13423:13425   */\n      0x40\n        /* \"#utility.yul\":13418:13421   */\n      dup3\n        /* \"#utility.yul\":13414:13426   */\n      add\n        /* \"#utility.yul\":13407:13426   */\n      swap1\n      pop\n        /* \"#utility.yul\":13066:13432   */\n      swap2\n      swap1\n      pop\n      jump\t// out\n        /* \"#utility.yul\":13438:13857   */\n    tag_88:\n        /* \"#utility.yul\":13604:13608   */\n      0x00\n        /* \"#utility.yul\":13642:13644   */\n      0x20\n        /* \"#utility.yul\":13631:13640   */\n      dup3\n        /* \"#utility.yul\":13627:13645   */\n      add\n        /* \"#utility.yul\":13619:13645   */\n      swap1\n      pop\n        /* \"#utility.yul\":13691:13700   */\n      dup2\n        /* \"#utility.yul\":13685:13689   */\n      dup2\n        /* \"#utility.yul\":13681:13701   */\n      sub\n        /* \"#utility.yul\":13677:13678   */\n      0x00\n        /* \"#utility.yul\":13666:13675   */\n      dup4\n        /* \"#utility.yul\":13662:13679   */\n      add\n        /* \"#utility.yul\":13655:13702   */\n      mstore\n        /* \"#utility.yul\":13719:13850   */\n      tag_295\n        /* \"#utility.yul\":13845:13849   */\n      dup2\n        /* \"#utility.yul\":13719:13850   */\n      tag_147\n      jump\t// in\n    tag_295:\n        /* \"#utility.yul\":13711:13850   */\n      swap1\n      pop\n        /* \"#utility.yul\":13438:13857   */\n      swap2\n      swap1\n      pop\n      jump\t// out\n        /* \"#utility.yul\":13863:14106   */\n    tag_148:\n        /* \"#utility.yul\":14003:14037   */\n      0x41626f72742c20596f75206172656e277420616c6c6f77656420746f2073656e\n        /* \"#utility.yul\":13999:14000   */\n      0x00\n        /* \"#utility.yul\":13991:13997   */\n      dup3\n        /* \"#utility.yul\":13987:14001   */\n      add\n        /* \"#utility.yul\":13980:14038   */\n      mstore\n        /* \"#utility.yul\":14072:14098   */\n      0x64206d6f6e65792066726f6d20746869732077616c6c65740000000000000000\n        /* \"#utility.yul\":14067:14069   */\n      0x20\n        /* \"#utility.yul\":14059:14065   */\n      dup3\n        /* \"#utility.yul\":14055:14070   */\n      add\n        /* \"#utility.yul\":14048:14099   */\n      mstore\n        /* \"#utility.yul\":13863:14106   */\n      pop\n      jump\t// out\n        /* \"#utility.yul\":14112:14478   */\n    tag_149:\n        /* \"#utility.yul\":14254:14257   */\n      0x00\n        /* \"#utility.yul\":14275:14342   */\n      tag_298\n        /* \"#utility.yul\":14339:14341   */\n      0x38\n        /* \"#utility.yul\":14334:14337   */\n      dup4\n        /* \"#utility.yul\":14275:14342   */\n      tag_137\n      jump\t// in\n    tag_298:\n        /* \"#utility.yul\":14268:14342   */\n      swap2\n      pop\n        /* \"#utility.yul\":14351:14444   */\n      tag_299\n        /* \"#utility.yul\":14440:14443   */\n      dup3\n        /* \"#utility.yul\":14351:14444   */\n      tag_148\n      jump\t// in\n    tag_299:\n        /* \"#utility.yul\":14469:14471   */\n      0x40\n        /* \"#utility.yul\":14464:14467   */\n      dup3\n        /* \"#utility.yul\":14460:14472   */\n      add\n        /* \"#utility.yul\":14453:14472   */\n      swap1\n      pop\n        /* \"#utility.yul\":14112:14478   */\n      swap2\n      swap1\n      pop\n      jump\t// out\n        /* \"#utility.yul\":14484:14903   */\n    tag_93:\n        /* \"#utility.yul\":14650:14654   */\n      0x00\n        /* \"#utility.yul\":14688:14690   */\n      0x20\n        /* \"#utility.yul\":14677:14686   */\n      dup3\n        /* \"#utility.yul\":14673:14691   */\n      add\n        /* \"#utility.yul\":14665:14691   */\n      swap1\n      pop\n        /* \"#utility.yul\":14737:14746   */\n      dup2\n        /* \"#utility.yul\":14731:14735   */\n      dup2\n        /* \"#utility.yul\":14727:14747   */\n      sub\n        /* \"#utility.yul\":14723:14724   */\n      0x00\n        /* \"#utility.yul\":14712:14721   */\n      dup4\n        /* \"#utility.yul\":14708:14725   */\n      add\n        /* \"#utility.yul\":14701:14748   */\n      mstore\n        /* \"#utility.yul\":14765:14896   */\n      tag_301\n        /* \"#utility.yul\":14891:14895   */\n      dup2\n        /* \"#utility.yul\":14765:14896   */\n      tag_149\n      jump\t// in\n    tag_301:\n        /* \"#utility.yul\":14757:14896   */\n      swap1\n      pop\n        /* \"#utility.yul\":14484:14903   */\n      swap2\n      swap1\n      pop\n      jump\t// out\n        /* \"#utility.yul\":14909:15139   */\n    tag_150:\n        /* \"#utility.yul\":15049:15083   */\n      0x41626f72742c20596f7520646f206e6f74206861766520656e6f756768206d6f\n        /* \"#utility.yul\":15045:15046   */\n      0x00\n        /* \"#utility.yul\":15037:15043   */\n      dup3\n        /* \"#utility.yul\":15033:15047   */\n      add\n        /* \"#utility.yul\":15026:15084   */\n      mstore\n        /* \"#utility.yul\":15118:15131   */\n      0x6e657920746f2073656e64000000000000000000000000000000000000000000\n        /* \"#utility.yul\":15113:15115   */\n      0x20\n        /* \"#utility.yul\":15105:15111   */\n      dup3\n        /* \"#utility.yul\":15101:15116   */\n      add\n        /* \"#utility.yul\":15094:15132   */\n      mstore\n        /* \"#utility.yul\":14909:15139   */\n      pop\n      jump\t// out\n        /* \"#utility.yul\":15145:15511   */\n    tag_151:\n        /* \"#utility.yul\":15287:15290   */\n      0x00\n        /* \"#utility.yul\":15308:15375   */\n      tag_304\n        /* \"#utility.yul\":15372:15374   */\n      0x2b\n        /* \"#utility.yul\":15367:15370   */\n      dup4\n        /* \"#utility.yul\":15308:15375   */\n      tag_137\n      jump\t// in\n    tag_304:\n        /* \"#utility.yul\":15301:15375   */\n      swap2\n      pop\n        /* \"#utility.yul\":15384:15477   */\n      tag_305\n        /* \"#utility.yul\":15473:15476   */\n      dup3\n        /* \"#utility.yul\":15384:15477   */\n      tag_150\n      jump\t// in\n    tag_305:\n        /* \"#utility.yul\":15502:15504   */\n      0x40\n        /* \"#utility.yul\":15497:15500   */\n      dup3\n        /* \"#utility.yul\":15493:15505   */\n      add\n        /* \"#utility.yul\":15486:15505   */\n      swap1\n      pop\n        /* \"#utility.yul\":15145:15511   */\n      swap2\n      swap1\n      pop\n      jump\t// out\n        /* \"#utility.yul\":15517:15936   */\n    tag_96:\n        /* \"#utility.yul\":15683:15687   */\n      0x00\n        /* \"#utility.yul\":15721:15723   */\n      0x20\n        /* \"#utility.yul\":15710:15719   */\n      dup3\n        /* \"#utility.yul\":15706:15724   */\n      add\n        /* \"#utility.yul\":15698:15724   */\n      swap1\n      pop\n        /* \"#utility.yul\":15770:15779   */\n      dup2\n        /* \"#utility.yul\":15764:15768   */\n      dup2\n        /* \"#utility.yul\":15760:15780   */\n      sub\n        /* \"#utility.yul\":15756:15757   */\n      0x00\n        /* \"#utility.yul\":15745:15754   */\n      dup4\n        /* \"#utility.yul\":15741:15758   */\n      add\n        /* \"#utility.yul\":15734:15781   */\n      mstore\n        /* \"#utility.yul\":15798:15929   */\n      tag_307\n        /* \"#utility.yul\":15924:15928   */\n      dup2\n        /* \"#utility.yul\":15798:15929   */\n      tag_151\n      jump\t// in\n    tag_307:\n        /* \"#utility.yul\":15790:15929   */\n      swap1\n      pop\n        /* \"#utility.yul\":15517:15936   */\n      swap2\n      swap1\n      pop\n      jump\t// out\n        /* \"#utility.yul\":15942:16180   */\n    tag_152:\n        /* \"#utility.yul\":16082:16116   */\n      0x41626f72742c2046756e64207472616e73666572206661696c65642c2063616c\n        /* \"#utility.yul\":16078:16079   */\n      0x00\n        /* \"#utility.yul\":16070:16076   */\n      dup3\n        /* \"#utility.yul\":16066:16080   */\n      add\n        /* \"#utility.yul\":16059:16117   */\n      mstore\n        /* \"#utility.yul\":16151:16172   */\n      0x6c696e6720636f6e7472616374206572726f7200000000000000000000000000\n        /* \"#utility.yul\":16146:16148   */\n      0x20\n        /* \"#utility.yul\":16138:16144   */\n      dup3\n        /* \"#utility.yul\":16134:16149   */\n      add\n        /* \"#utility.yul\":16127:16173   */\n      mstore\n        /* \"#utility.yul\":15942:16180   */\n      pop\n      jump\t// out\n        /* \"#utility.yul\":16186:16552   */\n    tag_153:\n        /* \"#utility.yul\":16328:16331   */\n      0x00\n        /* \"#utility.yul\":16349:16416   */\n      tag_310\n        /* \"#utility.yul\":16413:16415   */\n      0x33\n        /* \"#utility.yul\":16408:16411   */\n      dup4\n        /* \"#utility.yul\":16349:16416   */\n      tag_137\n      jump\t// in\n    tag_310:\n        /* \"#utility.yul\":16342:16416   */\n      swap2\n      pop\n        /* \"#utility.yul\":16425:16518   */\n      tag_311\n        /* \"#utility.yul\":16514:16517   */\n      dup3\n        /* \"#utility.yul\":16425:16518   */\n      tag_152\n      jump\t// in\n    tag_311:\n        /* \"#utility.yul\":16543:16545   */\n      0x40\n        /* \"#utility.yul\":16538:16541   */\n      dup3\n        /* \"#utility.yul\":16534:16546   */\n      add\n        /* \"#utility.yul\":16527:16546   */\n      swap1\n      pop\n        /* \"#utility.yul\":16186:16552   */\n      swap2\n      swap1\n      pop\n      jump\t// out\n        /* \"#utility.yul\":16558:16977   */\n    tag_104:\n        /* \"#utility.yul\":16724:16728   */\n      0x00\n        /* \"#utility.yul\":16762:16764   */\n      0x20\n        /* \"#utility.yul\":16751:16760   */\n      dup3\n        /* \"#utility.yul\":16747:16765   */\n      add\n        /* \"#utility.yul\":16739:16765   */\n      swap1\n      pop\n        /* \"#utility.yul\":16811:16820   */\n      dup2\n        /* \"#utility.yul\":16805:16809   */\n      dup2\n        /* \"#utility.yul\":16801:16821   */\n      sub\n        /* \"#utility.yul\":16797:16798   */\n      0x00\n        /* \"#utility.yul\":16786:16795   */\n      dup4\n        /* \"#utility.yul\":16782:16799   */\n      add\n        /* \"#utility.yul\":16775:16822   */\n      mstore\n        /* \"#utility.yul\":16839:16970   */\n      tag_313\n        /* \"#utility.yul\":16965:16969   */\n      dup2\n        /* \"#utility.yul\":16839:16970   */\n      tag_153\n      jump\t// in\n    tag_313:\n        /* \"#utility.yul\":16831:16970   */\n      swap1\n      pop\n        /* \"#utility.yul\":16558:16977   */\n      swap2\n      swap1\n      pop\n      jump\t// out\n\n    auxdata: 0xa264697066735822122082f6416ff082d909ccb2b6f2e70ce98c57936a3e28b5fcdc5484f9666a60554364736f6c63430008140033\n}\n",
				"bytecode": {
					"linkReferences": {},
					"object": "608060405234801562000010575f80fd5b5060405162001309380380620013098339818101604052810190620000369190620000e1565b805f806101000a81548173ffffffffffffffffffffffffffffffffffffffff021916908373ffffffffffffffffffffffffffffffffffffffff1602179055505062000111565b5f80fd5b5f73ffffffffffffffffffffffffffffffffffffffff82169050919050565b5f620000ab8262000080565b9050919050565b620000bd816200009f565b8114620000c8575f80fd5b50565b5f81519050620000db81620000b2565b92915050565b5f60208284031215620000f957620000f86200007c565b5b5f6200010884828501620000cb565b91505092915050565b6111ea806200011f5f395ff3fe60806040526004361061007e575f3560e01c8063a9059cbb1161004d578063a9059cbb1461016a578063be45fd6214610192578063c9116b69146101ce578063f8025049146101f85761009c565b80630bc605ad146100a0578063268fffc1146100dc5780637bce1515146101185780638da5cb5b146101405761009c565b3661009c573460015f8282546100949190610942565b925050819055005b5f80fd5b3480156100ab575f80fd5b506100c660048036038101906100c191906109e0565b610234565b6040516100d39190610a25565b60405180910390f35b3480156100e7575f80fd5b5061010260048036038101906100fd91906109e0565b610251565b60405161010f9190610a4d565b60405180910390f35b348015610123575f80fd5b5061013e60048036038101906101399190610a90565b610266565b005b34801561014b575f80fd5b50610154610401565b6040516101619190610add565b60405180910390f35b348015610175575f80fd5b50610190600480360381019061018b9190610b31565b610424565b005b34801561019d575f80fd5b506101b860048036038101906101b39190610cab565b610556565b6040516101c59190610d91565b60405180910390f35b3480156101d9575f80fd5b506101e261069d565b6040516101ef9190610a4d565b60405180910390f35b348015610203575f80fd5b5061021e60048036038101906102199190610cab565b6106a3565b60405161022b9190610d91565b60405180910390f35b6003602052805f5260405f205f915054906101000a900460ff1681565b6002602052805f5260405f205f915090505481565b5f8054906101000a900473ffffffffffffffffffffffffffffffffffffffff1673ffffffffffffffffffffffffffffffffffffffff163373ffffffffffffffffffffffffffffffffffffffff16146102f3576040517f08c379a00000000000000000000000000000000000000000000000000000000081526004016102ea90610e0b565b60405180910390fd5b8060025f8473ffffffffffffffffffffffffffffffffffffffff1673ffffffffffffffffffffffffffffffffffffffff1681526020019081526020015f205f82825461033f9190610942565b925050819055505f8111156103a857600160035f8473ffffffffffffffffffffffffffffffffffffffff1673ffffffffffffffffffffffffffffffffffffffff1681526020019081526020015f205f6101000a81548160ff0219169083151502179055506103fd565b5f60035f8473ffffffffffffffffffffffffffffffffffffffff1673ffffffffffffffffffffffffffffffffffffffff1681526020019081526020015f205f6101000a81548160ff0219169083151502179055505b5050565b5f8054906101000a900473ffffffffffffffffffffffffffffffffffffffff1681565b3373ffffffffffffffffffffffffffffffffffffffff165f8054906101000a900473ffffffffffffffffffffffffffffffffffffffff1673ffffffffffffffffffffffffffffffffffffffff16146104b1576040517f08c379a00000000000000000000000000000000000000000000000000000000081526004016104a890610e73565b60405180910390fd5b8060015410156104f6576040517f08c379a00000000000000000000000000000000000000000000000000000000081526004016104ed90610edb565b60405180910390fd5b8060015f8282546105079190610ef9565b925050819055508173ffffffffffffffffffffffffffffffffffffffff166108fc8290811502906040515f60405180830381858888f19350505050158015610551573d5f803e3d5ffd5b505050565b60603373ffffffffffffffffffffffffffffffffffffffff165f8054906101000a900473ffffffffffffffffffffffffffffffffffffffff1673ffffffffffffffffffffffffffffffffffffffff16146105e5576040517f08c379a00000000000000000000000000000000000000000000000000000000081526004016105dc90610e73565b60405180910390fd5b5f808573ffffffffffffffffffffffffffffffffffffffff16858560405161060d9190610f66565b5f6040518083038185875af1925050503d805f8114610647576040519150601f19603f3d011682016040523d82523d5f602084013e61064c565b606091505b509150915081610691576040517f08c379a000000000000000000000000000000000000000000000000000000000815260040161068890610fec565b60405180910390fd5b80925050509392505050565b60015481565b60605f8054906101000a900473ffffffffffffffffffffffffffffffffffffffff1673ffffffffffffffffffffffffffffffffffffffff163373ffffffffffffffffffffffffffffffffffffffff16146108545760035f3373ffffffffffffffffffffffffffffffffffffffff1673ffffffffffffffffffffffffffffffffffffffff1681526020019081526020015f205f9054906101000a900460ff16610780576040517f08c379a00000000000000000000000000000000000000000000000000000000081526004016107779061107a565b60405180910390fd5b8260025f3373ffffffffffffffffffffffffffffffffffffffff1673ffffffffffffffffffffffffffffffffffffffff1681526020019081526020015f20541015610800576040517f08c379a00000000000000000000000000000000000000000000000000000000081526004016107f790611108565b60405180910390fd5b8260025f3373ffffffffffffffffffffffffffffffffffffffff1673ffffffffffffffffffffffffffffffffffffffff1681526020019081526020015f205f82825461084c9190610ef9565b925050819055505b5f808573ffffffffffffffffffffffffffffffffffffffff16858560405161087c9190610f66565b5f6040518083038185875af1925050503d805f81146108b6576040519150601f19603f3d011682016040523d82523d5f602084013e6108bb565b606091505b509150915081610900576040517f08c379a00000000000000000000000000000000000000000000000000000000081526004016108f790611196565b60405180910390fd5b80925050509392505050565b5f819050919050565b7f4e487b71000000000000000000000000000000000000000000000000000000005f52601160045260245ffd5b5f61094c8261090c565b91506109578361090c565b925082820190508082111561096f5761096e610915565b5b92915050565b5f604051905090565b5f80fd5b5f80fd5b5f73ffffffffffffffffffffffffffffffffffffffff82169050919050565b5f6109af82610986565b9050919050565b6109bf816109a5565b81146109c9575f80fd5b50565b5f813590506109da816109b6565b92915050565b5f602082840312156109f5576109f461097e565b5b5f610a02848285016109cc565b91505092915050565b5f8115159050919050565b610a1f81610a0b565b82525050565b5f602082019050610a385f830184610a16565b92915050565b610a478161090c565b82525050565b5f602082019050610a605f830184610a3e565b92915050565b610a6f8161090c565b8114610a79575f80fd5b50565b5f81359050610a8a81610a66565b92915050565b5f8060408385031215610aa657610aa561097e565b5b5f610ab3858286016109cc565b9250506020610ac485828601610a7c565b9150509250929050565b610ad7816109a5565b82525050565b5f602082019050610af05f830184610ace565b92915050565b5f610b0082610986565b9050919050565b610b1081610af6565b8114610b1a575f80fd5b50565b5f81359050610b2b81610b07565b92915050565b5f8060408385031215610b4757610b4661097e565b5b5f610b5485828601610b1d565b9250506020610b6585828601610a7c565b9150509250929050565b5f80fd5b5f80fd5b5f601f19601f8301169050919050565b7f4e487b71000000000000000000000000000000000000000000000000000000005f52604160045260245ffd5b610bbd82610b77565b810181811067ffffffffffffffff82111715610bdc57610bdb610b87565b5b80604052505050565b5f610bee610975565b9050610bfa8282610bb4565b919050565b5f67ffffffffffffffff821115610c1957610c18610b87565b5b610c2282610b77565b9050602081019050919050565b828183375f83830152505050565b5f610c4f610c4a84610bff565b610be5565b905082815260208101848484011115610c6b57610c6a610b73565b5b610c76848285610c2f565b509392505050565b5f82601f830112610c9257610c91610b6f565b5b8135610ca2848260208601610c3d565b91505092915050565b5f805f60608486031215610cc257610cc161097e565b5b5f610ccf86828701610b1d565b9350506020610ce086828701610a7c565b925050604084013567ffffffffffffffff811115610d0157610d00610982565b5b610d0d86828701610c7e565b9150509250925092565b5f81519050919050565b5f82825260208201905092915050565b5f5b83811015610d4e578082015181840152602081019050610d33565b5f8484015250505050565b5f610d6382610d17565b610d6d8185610d21565b9350610d7d818560208601610d31565b610d8681610b77565b840191505092915050565b5f6020820190508181035f830152610da98184610d59565b905092915050565b5f82825260208201905092915050565b7f41626f7274696e67212c20796f7520617265206e6f7420746865206f776e65725f82015250565b5f610df5602083610db1565b9150610e0082610dc1565b602082019050919050565b5f6020820190508181035f830152610e2281610de9565b9050919050565b7f41626f7274696e67212c20796f7520617265206e746f20746865206f776e65725f82015250565b5f610e5d602083610db1565b9150610e6882610e29565b602082019050919050565b5f6020820190508181035f830152610e8a81610e51565b9050919050565b7f41626f7274696e67212c206e6f7420656e6f756768206d6f6e657900000000005f82015250565b5f610ec5601b83610db1565b9150610ed082610e91565b602082019050919050565b5f6020820190508181035f830152610ef281610eb9565b9050919050565b5f610f038261090c565b9150610f0e8361090c565b9250828203905081811115610f2657610f25610915565b5b92915050565b5f81905092915050565b5f610f4082610d17565b610f4a8185610f2c565b9350610f5a818560208601610d31565b80840191505092915050565b5f610f718284610f36565b915081905092915050565b7f41626f7274696e672c2063616c6c20776173206e6f74207375636365737366755f8201527f6c00000000000000000000000000000000000000000000000000000000000000602082015250565b5f610fd6602183610db1565b9150610fe182610f7c565b604082019050919050565b5f6020820190508181035f83015261100381610fca565b9050919050565b7f41626f72742c20596f75206172656e277420616c6c6f77656420746f2073656e5f8201527f64206d6f6e65792066726f6d20746869732077616c6c65740000000000000000602082015250565b5f611064603883610db1565b915061106f8261100a565b604082019050919050565b5f6020820190508181035f83015261109181611058565b9050919050565b7f41626f72742c20596f7520646f206e6f74206861766520656e6f756768206d6f5f8201527f6e657920746f2073656e64000000000000000000000000000000000000000000602082015250565b5f6110f2602b83610db1565b91506110fd82611098565b604082019050919050565b5f6020820190508181035f83015261111f816110e6565b9050919050565b7f41626f72742c2046756e64207472616e73666572206661696c65642c2063616c5f8201527f6c696e6720636f6e7472616374206572726f7200000000000000000000000000602082015250565b5f611180603383610db1565b915061118b82611126565b604082019050919050565b5f6020820190508181035f8301526111ad81611174565b905091905056fea264697066735822122082f6416ff082d909ccb2b6f2e70ce98c57936a3e28b5fcdc5484f9666a60554364736f6c63430008140033",
					"opcodes": "PUSH1 0x80 PUSH1 0x40 MSTORE CALLVALUE DUP1 ISZERO PUSH3 0x10 JUMPI PUSH0 DUP1 REVERT JUMPDEST POP PUSH1 0x40 MLOAD PUSH3 0x1309 CODESIZE SUB DUP1 PUSH3 0x1309 DUP4 CODECOPY DUP2 DUP2 ADD PUSH1 0x40 MSTORE DUP2 ADD SWAP1 PUSH3 0x36 SWAP2 SWAP1 PUSH3 0xE1 JUMP JUMPDEST DUP1 PUSH0 DUP1 PUSH2 0x100 EXP DUP2 SLOAD DUP2 PUSH20 0xFFFFFFFFFFFFFFFFFFFFFFFFFFFFFFFFFFFFFFFF MUL NOT AND SWAP1 DUP4 PUSH20 0xFFFFFFFFFFFFFFFFFFFFFFFFFFFFFFFFFFFFFFFF AND MUL OR SWAP1 SSTORE POP POP PUSH3 0x111 JUMP JUMPDEST PUSH0 DUP1 REVERT JUMPDEST PUSH0 PUSH20 0xFFFFFFFFFFFFFFFFFFFFFFFFFFFFFFFFFFFFFFFF DUP3 AND SWAP1 POP SWAP2 SWAP1 POP JUMP JUMPDEST PUSH0 PUSH3 0xAB DUP3 PUSH3 0x80 JUMP JUMPDEST SWAP1 POP SWAP2 SWAP1 POP JUMP JUMPDEST PUSH3 0xBD DUP2 PUSH3 0x9F JUMP JUMPDEST DUP2 EQ PUSH3 0xC8 JUMPI PUSH0 DUP1 REVERT JUMPDEST POP JUMP JUMPDEST PUSH0 DUP2 MLOAD SWAP1 POP PUSH3 0xDB DUP2 PUSH3 0xB2 JUMP JUMPDEST SWAP3 SWAP2 POP POP JUMP JUMPDEST PUSH0 PUSH1 0x20 DUP3 DUP5 SUB SLT ISZERO PUSH3 0xF9 JUMPI PUSH3 0xF8 PUSH3 0x7C JUMP JUMPDEST JUMPDEST PUSH0 PUSH3 0x108 DUP5 DUP3 DUP6 ADD PUSH3 0xCB JUMP JUMPDEST SWAP2 POP POP SWAP3 SWAP2 POP POP JUMP JUMPDEST PUSH2 0x11EA DUP1 PUSH3 0x11F PUSH0 CODECOPY PUSH0 RETURN INVALID PUSH1 0x80 PUSH1 0x40 MSTORE PUSH1 0x4 CALLDATASIZE LT PUSH2 0x7E JUMPI PUSH0 CALLDATALOAD PUSH1 0xE0 SHR DUP1 PUSH4 0xA9059CBB GT PUSH2 0x4D JUMPI DUP1 PUSH4 0xA9059CBB EQ PUSH2 0x16A JUMPI DUP1 PUSH4 0xBE45FD62 EQ PUSH2 0x192 JUMPI DUP1 PUSH4 0xC9116B69 EQ PUSH2 0x1CE JUMPI DUP1 PUSH4 0xF8025049 EQ PUSH2 0x1F8 JUMPI PUSH2 0x9C JUMP JUMPDEST DUP1 PUSH4 0xBC605AD EQ PUSH2 0xA0 JUMPI DUP1 PUSH4 0x268FFFC1 EQ PUSH2 0xDC JUMPI DUP1 PUSH4 0x7BCE1515 EQ PUSH2 0x118 JUMPI DUP1 PUSH4 0x8DA5CB5B EQ PUSH2 0x140 JUMPI PUSH2 0x9C JUMP JUMPDEST CALLDATASIZE PUSH2 0x9C JUMPI CALLVALUE PUSH1 0x1 PUSH0 DUP3 DUP3 SLOAD PUSH2 0x94 SWAP2 SWAP1 PUSH2 0x942 JUMP JUMPDEST SWAP3 POP POP DUP2 SWAP1 SSTORE STOP JUMPDEST PUSH0 DUP1 REVERT JUMPDEST CALLVALUE DUP1 ISZERO PUSH2 0xAB JUMPI PUSH0 DUP1 REVERT JUMPDEST POP PUSH2 0xC6 PUSH1 0x4 DUP1 CALLDATASIZE SUB DUP2 ADD SWAP1 PUSH2 0xC1 SWAP2 SWAP1 PUSH2 0x9E0 JUMP JUMPDEST PUSH2 0x234 JUMP JUMPDEST PUSH1 0x40 MLOAD PUSH2 0xD3 SWAP2 SWAP1 PUSH2 0xA25 JUMP JUMPDEST PUSH1 0x40 MLOAD DUP1 SWAP2 SUB SWAP1 RETURN JUMPDEST CALLVALUE DUP1 ISZERO PUSH2 0xE7 JUMPI PUSH0 DUP1 REVERT JUMPDEST POP PUSH2 0x102 PUSH1 0x4 DUP1 CALLDATASIZE SUB DUP2 ADD SWAP1 PUSH2 0xFD SWAP2 SWAP1 PUSH2 0x9E0 JUMP JUMPDEST PUSH2 0x251 JUMP JUMPDEST PUSH1 0x40 MLOAD PUSH2 0x10F SWAP2 SWAP1 PUSH2 0xA4D JUMP JUMPDEST PUSH1 0x40 MLOAD DUP1 SWAP2 SUB SWAP1 RETURN JUMPDEST CALLVALUE DUP1 ISZERO PUSH2 0x123 JUMPI PUSH0 DUP1 REVERT JUMPDEST POP PUSH2 0x13E PUSH1 0x4 DUP1 CALLDATASIZE SUB DUP2 ADD SWAP1 PUSH2 0x139 SWAP2 SWAP1 PUSH2 0xA90 JUMP JUMPDEST PUSH2 0x266 JUMP JUMPDEST STOP JUMPDEST CALLVALUE DUP1 ISZERO PUSH2 0x14B JUMPI PUSH0 DUP1 REVERT JUMPDEST POP PUSH2 0x154 PUSH2 0x401 JUMP JUMPDEST PUSH1 0x40 MLOAD PUSH2 0x161 SWAP2 SWAP1 PUSH2 0xADD JUMP JUMPDEST PUSH1 0x40 MLOAD DUP1 SWAP2 SUB SWAP1 RETURN JUMPDEST CALLVALUE DUP1 ISZERO PUSH2 0x175 JUMPI PUSH0 DUP1 REVERT JUMPDEST POP PUSH2 0x190 PUSH1 0x4 DUP1 CALLDATASIZE SUB DUP2 ADD SWAP1 PUSH2 0x18B SWAP2 SWAP1 PUSH2 0xB31 JUMP JUMPDEST PUSH2 0x424 JUMP JUMPDEST STOP JUMPDEST CALLVALUE DUP1 ISZERO PUSH2 0x19D JUMPI PUSH0 DUP1 REVERT JUMPDEST POP PUSH2 0x1B8 PUSH1 0x4 DUP1 CALLDATASIZE SUB DUP2 ADD SWAP1 PUSH2 0x1B3 SWAP2 SWAP1 PUSH2 0xCAB JUMP JUMPDEST PUSH2 0x556 JUMP JUMPDEST PUSH1 0x40 MLOAD PUSH2 0x1C5 SWAP2 SWAP1 PUSH2 0xD91 JUMP JUMPDEST PUSH1 0x40 MLOAD DUP1 SWAP2 SUB SWAP1 RETURN JUMPDEST CALLVALUE DUP1 ISZERO PUSH2 0x1D9 JUMPI PUSH0 DUP1 REVERT JUMPDEST POP PUSH2 0x1E2 PUSH2 0x69D JUMP JUMPDEST PUSH1 0x40 MLOAD PUSH2 0x1EF SWAP2 SWAP1 PUSH2 0xA4D JUMP JUMPDEST PUSH1 0x40 MLOAD DUP1 SWAP2 SUB SWAP1 RETURN JUMPDEST CALLVALUE DUP1 ISZERO PUSH2 0x203 JUMPI PUSH0 DUP1 REVERT JUMPDEST POP PUSH2 0x21E PUSH1 0x4 DUP1 CALLDATASIZE SUB DUP2 ADD SWAP1 PUSH2 0x219 SWAP2 SWAP1 PUSH2 0xCAB JUMP JUMPDEST PUSH2 0x6A3 JUMP JUMPDEST PUSH1 0x40 MLOAD PUSH2 0x22B SWAP2 SWAP1 PUSH2 0xD91 JUMP JUMPDEST PUSH1 0x40 MLOAD DUP1 SWAP2 SUB SWAP1 RETURN JUMPDEST PUSH1 0x3 PUSH1 0x20 MSTORE DUP1 PUSH0 MSTORE PUSH1 0x40 PUSH0 KECCAK256 PUSH0 SWAP2 POP SLOAD SWAP1 PUSH2 0x100 EXP SWAP1 DIV PUSH1 0xFF AND DUP2 JUMP JUMPDEST PUSH1 0x2 PUSH1 0x20 MSTORE DUP1 PUSH0 MSTORE PUSH1 0x40 PUSH0 KECCAK256 PUSH0 SWAP2 POP SWAP1 POP SLOAD DUP2 JUMP JUMPDEST PUSH0 DUP1 SLOAD SWAP1 PUSH2 0x100 EXP SWAP1 DIV PUSH20 0xFFFFFFFFFFFFFFFFFFFFFFFFFFFFFFFFFFFFFFFF AND PUSH20 0xFFFFFFFFFFFFFFFFFFFFFFFFFFFFFFFFFFFFFFFF AND CALLER PUSH20 0xFFFFFFFFFFFFFFFFFFFFFFFFFFFFFFFFFFFFFFFF AND EQ PUSH2 0x2F3 JUMPI PUSH1 0x40 MLOAD PUSH32 0x8C379A000000000000000000000000000000000000000000000000000000000 DUP2 MSTORE PUSH1 0x4 ADD PUSH2 0x2EA SWAP1 PUSH2 0xE0B JUMP JUMPDEST PUSH1 0x40 MLOAD DUP1 SWAP2 SUB SWAP1 REVERT JUMPDEST DUP1 PUSH1 0x2 PUSH0 DUP5 PUSH20 0xFFFFFFFFFFFFFFFFFFFFFFFFFFFFFFFFFFFFFFFF AND PUSH20 0xFFFFFFFFFFFFFFFFFFFFFFFFFFFFFFFFFFFFFFFF AND DUP2 MSTORE PUSH1 0x20 ADD SWAP1 DUP2 MSTORE PUSH1 0x20 ADD PUSH0 KECCAK256 PUSH0 DUP3 DUP3 SLOAD PUSH2 0x33F SWAP2 SWAP1 PUSH2 0x942 JUMP JUMPDEST SWAP3 POP POP DUP2 SWAP1 SSTORE POP PUSH0 DUP2 GT ISZERO PUSH2 0x3A8 JUMPI PUSH1 0x1 PUSH1 0x3 PUSH0 DUP5 PUSH20 0xFFFFFFFFFFFFFFFFFFFFFFFFFFFFFFFFFFFFFFFF AND PUSH20 0xFFFFFFFFFFFFFFFFFFFFFFFFFFFFFFFFFFFFFFFF AND DUP2 MSTORE PUSH1 0x20 ADD SWAP1 DUP2 MSTORE PUSH1 0x20 ADD PUSH0 KECCAK256 PUSH0 PUSH2 0x100 EXP DUP2 SLOAD DUP2 PUSH1 0xFF MUL NOT AND SWAP1 DUP4 ISZERO ISZERO MUL OR SWAP1 SSTORE POP PUSH2 0x3FD JUMP JUMPDEST PUSH0 PUSH1 0x3 PUSH0 DUP5 PUSH20 0xFFFFFFFFFFFFFFFFFFFFFFFFFFFFFFFFFFFFFFFF AND PUSH20 0xFFFFFFFFFFFFFFFFFFFFFFFFFFFFFFFFFFFFFFFF AND DUP2 MSTORE PUSH1 0x20 ADD SWAP1 DUP2 MSTORE PUSH1 0x20 ADD PUSH0 KECCAK256 PUSH0 PUSH2 0x100 EXP DUP2 SLOAD DUP2 PUSH1 0xFF MUL NOT AND SWAP1 DUP4 ISZERO ISZERO MUL OR SWAP1 SSTORE POP JUMPDEST POP POP JUMP JUMPDEST PUSH0 DUP1 SLOAD SWAP1 PUSH2 0x100 EXP SWAP1 DIV PUSH20 0xFFFFFFFFFFFFFFFFFFFFFFFFFFFFFFFFFFFFFFFF AND DUP2 JUMP JUMPDEST CALLER PUSH20 0xFFFFFFFFFFFFFFFFFFFFFFFFFFFFFFFFFFFFFFFF AND PUSH0 DUP1 SLOAD SWAP1 PUSH2 0x100 EXP SWAP1 DIV PUSH20 0xFFFFFFFFFFFFFFFFFFFFFFFFFFFFFFFFFFFFFFFF AND PUSH20 0xFFFFFFFFFFFFFFFFFFFFFFFFFFFFFFFFFFFFFFFF AND EQ PUSH2 0x4B1 JUMPI PUSH1 0x40 MLOAD PUSH32 0x8C379A000000000000000000000000000000000000000000000000000000000 DUP2 MSTORE PUSH1 0x4 ADD PUSH2 0x4A8 SWAP1 PUSH2 0xE73 JUMP JUMPDEST PUSH1 0x40 MLOAD DUP1 SWAP2 SUB SWAP1 REVERT JUMPDEST DUP1 PUSH1 0x1 SLOAD LT ISZERO PUSH2 0x4F6 JUMPI PUSH1 0x40 MLOAD PUSH32 0x8C379A000000000000000000000000000000000000000000000000000000000 DUP2 MSTORE PUSH1 0x4 ADD PUSH2 0x4ED SWAP1 PUSH2 0xEDB JUMP JUMPDEST PUSH1 0x40 MLOAD DUP1 SWAP2 SUB SWAP1 REVERT JUMPDEST DUP1 PUSH1 0x1 PUSH0 DUP3 DUP3 SLOAD PUSH2 0x507 SWAP2 SWAP1 PUSH2 0xEF9 JUMP JUMPDEST SWAP3 POP POP DUP2 SWAP1 SSTORE POP DUP2 PUSH20 0xFFFFFFFFFFFFFFFFFFFFFFFFFFFFFFFFFFFFFFFF AND PUSH2 0x8FC DUP3 SWAP1 DUP2 ISZERO MUL SWAP1 PUSH1 0x40 MLOAD PUSH0 PUSH1 0x40 MLOAD DUP1 DUP4 SUB DUP2 DUP6 DUP9 DUP9 CALL SWAP4 POP POP POP POP ISZERO DUP1 ISZERO PUSH2 0x551 JUMPI RETURNDATASIZE PUSH0 DUP1 RETURNDATACOPY RETURNDATASIZE PUSH0 REVERT JUMPDEST POP POP POP JUMP JUMPDEST PUSH1 0x60 CALLER PUSH20 0xFFFFFFFFFFFFFFFFFFFFFFFFFFFFFFFFFFFFFFFF AND PUSH0 DUP1 SLOAD SWAP1 PUSH2 0x100 EXP SWAP1 DIV PUSH20 0xFFFFFFFFFFFFFFFFFFFFFFFFFFFFFFFFFFFFFFFF AND PUSH20 0xFFFFFFFFFFFFFFFFFFFFFFFFFFFFFFFFFFFFFFFF AND EQ PUSH2 0x5E5 JUMPI PUSH1 0x40 MLOAD PUSH32 0x8C379A000000000000000000000000000000000000000000000000000000000 DUP2 MSTORE PUSH1 0x4 ADD PUSH2 0x5DC SWAP1 PUSH2 0xE73 JUMP JUMPDEST PUSH1 0x40 MLOAD DUP1 SWAP2 SUB SWAP1 REVERT JUMPDEST PUSH0 DUP1 DUP6 PUSH20 0xFFFFFFFFFFFFFFFFFFFFFFFFFFFFFFFFFFFFFFFF AND DUP6 DUP6 PUSH1 0x40 MLOAD PUSH2 0x60D SWAP2 SWAP1 PUSH2 0xF66 JUMP JUMPDEST PUSH0 PUSH1 0x40 MLOAD DUP1 DUP4 SUB DUP2 DUP6 DUP8 GAS CALL SWAP3 POP POP POP RETURNDATASIZE DUP1 PUSH0 DUP2 EQ PUSH2 0x647 JUMPI PUSH1 0x40 MLOAD SWAP2 POP PUSH1 0x1F NOT PUSH1 0x3F RETURNDATASIZE ADD AND DUP3 ADD PUSH1 0x40 MSTORE RETURNDATASIZE DUP3 MSTORE RETURNDATASIZE PUSH0 PUSH1 0x20 DUP5 ADD RETURNDATACOPY PUSH2 0x64C JUMP JUMPDEST PUSH1 0x60 SWAP2 POP JUMPDEST POP SWAP2 POP SWAP2 POP DUP2 PUSH2 0x691 JUMPI PUSH1 0x40 MLOAD PUSH32 0x8C379A000000000000000000000000000000000000000000000000000000000 DUP2 MSTORE PUSH1 0x4 ADD PUSH2 0x688 SWAP1 PUSH2 0xFEC JUMP JUMPDEST PUSH1 0x40 MLOAD DUP1 SWAP2 SUB SWAP1 REVERT JUMPDEST DUP1 SWAP3 POP POP POP SWAP4 SWAP3 POP POP POP JUMP JUMPDEST PUSH1 0x1 SLOAD DUP2 JUMP JUMPDEST PUSH1 0x60 PUSH0 DUP1 SLOAD SWAP1 PUSH2 0x100 EXP SWAP1 DIV PUSH20 0xFFFFFFFFFFFFFFFFFFFFFFFFFFFFFFFFFFFFFFFF AND PUSH20 0xFFFFFFFFFFFFFFFFFFFFFFFFFFFFFFFFFFFFFFFF AND CALLER PUSH20 0xFFFFFFFFFFFFFFFFFFFFFFFFFFFFFFFFFFFFFFFF AND EQ PUSH2 0x854 JUMPI PUSH1 0x3 PUSH0 CALLER PUSH20 0xFFFFFFFFFFFFFFFFFFFFFFFFFFFFFFFFFFFFFFFF AND PUSH20 0xFFFFFFFFFFFFFFFFFFFFFFFFFFFFFFFFFFFFFFFF AND DUP2 MSTORE PUSH1 0x20 ADD SWAP1 DUP2 MSTORE PUSH1 0x20 ADD PUSH0 KECCAK256 PUSH0 SWAP1 SLOAD SWAP1 PUSH2 0x100 EXP SWAP1 DIV PUSH1 0xFF AND PUSH2 0x780 JUMPI PUSH1 0x40 MLOAD PUSH32 0x8C379A000000000000000000000000000000000000000000000000000000000 DUP2 MSTORE PUSH1 0x4 ADD PUSH2 0x777 SWAP1 PUSH2 0x107A JUMP JUMPDEST PUSH1 0x40 MLOAD DUP1 SWAP2 SUB SWAP1 REVERT JUMPDEST DUP3 PUSH1 0x2 PUSH0 CALLER PUSH20 0xFFFFFFFFFFFFFFFFFFFFFFFFFFFFFFFFFFFFFFFF AND PUSH20 0xFFFFFFFFFFFFFFFFFFFFFFFFFFFFFFFFFFFFFFFF AND DUP2 MSTORE PUSH1 0x20 ADD SWAP1 DUP2 MSTORE PUSH1 0x20 ADD PUSH0 KECCAK256 SLOAD LT ISZERO PUSH2 0x800 JUMPI PUSH1 0x40 MLOAD PUSH32 0x8C379A000000000000000000000000000000000000000000000000000000000 DUP2 MSTORE PUSH1 0x4 ADD PUSH2 0x7F7 SWAP1 PUSH2 0x1108 JUMP JUMPDEST PUSH1 0x40 MLOAD DUP1 SWAP2 SUB SWAP1 REVERT JUMPDEST DUP3 PUSH1 0x2 PUSH0 CALLER PUSH20 0xFFFFFFFFFFFFFFFFFFFFFFFFFFFFFFFFFFFFFFFF AND PUSH20 0xFFFFFFFFFFFFFFFFFFFFFFFFFFFFFFFFFFFFFFFF AND DUP2 MSTORE PUSH1 0x20 ADD SWAP1 DUP2 MSTORE PUSH1 0x20 ADD PUSH0 KECCAK256 PUSH0 DUP3 DUP3 SLOAD PUSH2 0x84C SWAP2 SWAP1 PUSH2 0xEF9 JUMP JUMPDEST SWAP3 POP POP DUP2 SWAP1 SSTORE POP JUMPDEST PUSH0 DUP1 DUP6 PUSH20 0xFFFFFFFFFFFFFFFFFFFFFFFFFFFFFFFFFFFFFFFF AND DUP6 DUP6 PUSH1 0x40 MLOAD PUSH2 0x87C SWAP2 SWAP1 PUSH2 0xF66 JUMP JUMPDEST PUSH0 PUSH1 0x40 MLOAD DUP1 DUP4 SUB DUP2 DUP6 DUP8 GAS CALL SWAP3 POP POP POP RETURNDATASIZE DUP1 PUSH0 DUP2 EQ PUSH2 0x8B6 JUMPI PUSH1 0x40 MLOAD SWAP2 POP PUSH1 0x1F NOT PUSH1 0x3F RETURNDATASIZE ADD AND DUP3 ADD PUSH1 0x40 MSTORE RETURNDATASIZE DUP3 MSTORE RETURNDATASIZE PUSH0 PUSH1 0x20 DUP5 ADD RETURNDATACOPY PUSH2 0x8BB JUMP JUMPDEST PUSH1 0x60 SWAP2 POP JUMPDEST POP SWAP2 POP SWAP2 POP DUP2 PUSH2 0x900 JUMPI PUSH1 0x40 MLOAD PUSH32 0x8C379A000000000000000000000000000000000000000000000000000000000 DUP2 MSTORE PUSH1 0x4 ADD PUSH2 0x8F7 SWAP1 PUSH2 0x1196 JUMP JUMPDEST PUSH1 0x40 MLOAD DUP1 SWAP2 SUB SWAP1 REVERT JUMPDEST DUP1 SWAP3 POP POP POP SWAP4 SWAP3 POP POP POP JUMP JUMPDEST PUSH0 DUP2 SWAP1 POP SWAP2 SWAP1 POP JUMP JUMPDEST PUSH32 0x4E487B7100000000000000000000000000000000000000000000000000000000 PUSH0 MSTORE PUSH1 0x11 PUSH1 0x4 MSTORE PUSH1 0x24 PUSH0 REVERT JUMPDEST PUSH0 PUSH2 0x94C DUP3 PUSH2 0x90C JUMP JUMPDEST SWAP2 POP PUSH2 0x957 DUP4 PUSH2 0x90C JUMP JUMPDEST SWAP3 POP DUP3 DUP3 ADD SWAP1 POP DUP1 DUP3 GT ISZERO PUSH2 0x96F JUMPI PUSH2 0x96E PUSH2 0x915 JUMP JUMPDEST JUMPDEST SWAP3 SWAP2 POP POP JUMP JUMPDEST PUSH0 PUSH1 0x40 MLOAD SWAP1 POP SWAP1 JUMP JUMPDEST PUSH0 DUP1 REVERT JUMPDEST PUSH0 DUP1 REVERT JUMPDEST PUSH0 PUSH20 0xFFFFFFFFFFFFFFFFFFFFFFFFFFFFFFFFFFFFFFFF DUP3 AND SWAP1 POP SWAP2 SWAP1 POP JUMP JUMPDEST PUSH0 PUSH2 0x9AF DUP3 PUSH2 0x986 JUMP JUMPDEST SWAP1 POP SWAP2 SWAP1 POP JUMP JUMPDEST PUSH2 0x9BF DUP2 PUSH2 0x9A5 JUMP JUMPDEST DUP2 EQ PUSH2 0x9C9 JUMPI PUSH0 DUP1 REVERT JUMPDEST POP JUMP JUMPDEST PUSH0 DUP2 CALLDATALOAD SWAP1 POP PUSH2 0x9DA DUP2 PUSH2 0x9B6 JUMP JUMPDEST SWAP3 SWAP2 POP POP JUMP JUMPDEST PUSH0 PUSH1 0x20 DUP3 DUP5 SUB SLT ISZERO PUSH2 0x9F5 JUMPI PUSH2 0x9F4 PUSH2 0x97E JUMP JUMPDEST JUMPDEST PUSH0 PUSH2 0xA02 DUP5 DUP3 DUP6 ADD PUSH2 0x9CC JUMP JUMPDEST SWAP2 POP POP SWAP3 SWAP2 POP POP JUMP JUMPDEST PUSH0 DUP2 ISZERO ISZERO SWAP1 POP SWAP2 SWAP1 POP JUMP JUMPDEST PUSH2 0xA1F DUP2 PUSH2 0xA0B JUMP JUMPDEST DUP3 MSTORE POP POP JUMP JUMPDEST PUSH0 PUSH1 0x20 DUP3 ADD SWAP1 POP PUSH2 0xA38 PUSH0 DUP4 ADD DUP5 PUSH2 0xA16 JUMP JUMPDEST SWAP3 SWAP2 POP POP JUMP JUMPDEST PUSH2 0xA47 DUP2 PUSH2 0x90C JUMP JUMPDEST DUP3 MSTORE POP POP JUMP JUMPDEST PUSH0 PUSH1 0x20 DUP3 ADD SWAP1 POP PUSH2 0xA60 PUSH0 DUP4 ADD DUP5 PUSH2 0xA3E JUMP JUMPDEST SWAP3 SWAP2 POP POP JUMP JUMPDEST PUSH2 0xA6F DUP2 PUSH2 0x90C JUMP JUMPDEST DUP2 EQ PUSH2 0xA79 JUMPI PUSH0 DUP1 REVERT JUMPDEST POP JUMP JUMPDEST PUSH0 DUP2 CALLDATALOAD SWAP1 POP PUSH2 0xA8A DUP2 PUSH2 0xA66 JUMP JUMPDEST SWAP3 SWAP2 POP POP JUMP JUMPDEST PUSH0 DUP1 PUSH1 0x40 DUP4 DUP6 SUB SLT ISZERO PUSH2 0xAA6 JUMPI PUSH2 0xAA5 PUSH2 0x97E JUMP JUMPDEST JUMPDEST PUSH0 PUSH2 0xAB3 DUP6 DUP3 DUP7 ADD PUSH2 0x9CC JUMP JUMPDEST SWAP3 POP POP PUSH1 0x20 PUSH2 0xAC4 DUP6 DUP3 DUP7 ADD PUSH2 0xA7C JUMP JUMPDEST SWAP2 POP POP SWAP3 POP SWAP3 SWAP1 POP JUMP JUMPDEST PUSH2 0xAD7 DUP2 PUSH2 0x9A5 JUMP JUMPDEST DUP3 MSTORE POP POP JUMP JUMPDEST PUSH0 PUSH1 0x20 DUP3 ADD SWAP1 POP PUSH2 0xAF0 PUSH0 DUP4 ADD DUP5 PUSH2 0xACE JUMP JUMPDEST SWAP3 SWAP2 POP POP JUMP JUMPDEST PUSH0 PUSH2 0xB00 DUP3 PUSH2 0x986 JUMP JUMPDEST SWAP1 POP SWAP2 SWAP1 POP JUMP JUMPDEST PUSH2 0xB10 DUP2 PUSH2 0xAF6 JUMP JUMPDEST DUP2 EQ PUSH2 0xB1A JUMPI PUSH0 DUP1 REVERT JUMPDEST POP JUMP JUMPDEST PUSH0 DUP2 CALLDATALOAD SWAP1 POP PUSH2 0xB2B DUP2 PUSH2 0xB07 JUMP JUMPDEST SWAP3 SWAP2 POP POP JUMP JUMPDEST PUSH0 DUP1 PUSH1 0x40 DUP4 DUP6 SUB SLT ISZERO PUSH2 0xB47 JUMPI PUSH2 0xB46 PUSH2 0x97E JUMP JUMPDEST JUMPDEST PUSH0 PUSH2 0xB54 DUP6 DUP3 DUP7 ADD PUSH2 0xB1D JUMP JUMPDEST SWAP3 POP POP PUSH1 0x20 PUSH2 0xB65 DUP6 DUP3 DUP7 ADD PUSH2 0xA7C JUMP JUMPDEST SWAP2 POP POP SWAP3 POP SWAP3 SWAP1 POP JUMP JUMPDEST PUSH0 DUP1 REVERT JUMPDEST PUSH0 DUP1 REVERT JUMPDEST PUSH0 PUSH1 0x1F NOT PUSH1 0x1F DUP4 ADD AND SWAP1 POP SWAP2 SWAP1 POP JUMP JUMPDEST PUSH32 0x4E487B7100000000000000000000000000000000000000000000000000000000 PUSH0 MSTORE PUSH1 0x41 PUSH1 0x4 MSTORE PUSH1 0x24 PUSH0 REVERT JUMPDEST PUSH2 0xBBD DUP3 PUSH2 0xB77 JUMP JUMPDEST DUP2 ADD DUP2 DUP2 LT PUSH8 0xFFFFFFFFFFFFFFFF DUP3 GT OR ISZERO PUSH2 0xBDC JUMPI PUSH2 0xBDB PUSH2 0xB87 JUMP JUMPDEST JUMPDEST DUP1 PUSH1 0x40 MSTORE POP POP POP JUMP JUMPDEST PUSH0 PUSH2 0xBEE PUSH2 0x975 JUMP JUMPDEST SWAP1 POP PUSH2 0xBFA DUP3 DUP3 PUSH2 0xBB4 JUMP JUMPDEST SWAP2 SWAP1 POP JUMP JUMPDEST PUSH0 PUSH8 0xFFFFFFFFFFFFFFFF DUP3 GT ISZERO PUSH2 0xC19 JUMPI PUSH2 0xC18 PUSH2 0xB87 JUMP JUMPDEST JUMPDEST PUSH2 0xC22 DUP3 PUSH2 0xB77 JUMP JUMPDEST SWAP1 POP PUSH1 0x20 DUP2 ADD SWAP1 POP SWAP2 SWAP1 POP JUMP JUMPDEST DUP3 DUP2 DUP4 CALLDATACOPY PUSH0 DUP4 DUP4 ADD MSTORE POP POP POP JUMP JUMPDEST PUSH0 PUSH2 0xC4F PUSH2 0xC4A DUP5 PUSH2 0xBFF JUMP JUMPDEST PUSH2 0xBE5 JUMP JUMPDEST SWAP1 POP DUP3 DUP2 MSTORE PUSH1 0x20 DUP2 ADD DUP5 DUP5 DUP5 ADD GT ISZERO PUSH2 0xC6B JUMPI PUSH2 0xC6A PUSH2 0xB73 JUMP JUMPDEST JUMPDEST PUSH2 0xC76 DUP5 DUP3 DUP6 PUSH2 0xC2F JUMP JUMPDEST POP SWAP4 SWAP3 POP POP POP JUMP JUMPDEST PUSH0 DUP3 PUSH1 0x1F DUP4 ADD SLT PUSH2 0xC92 JUMPI PUSH2 0xC91 PUSH2 0xB6F JUMP JUMPDEST JUMPDEST DUP2 CALLDATALOAD PUSH2 0xCA2 DUP5 DUP3 PUSH1 0x20 DUP7 ADD PUSH2 0xC3D JUMP JUMPDEST SWAP2 POP POP SWAP3 SWAP2 POP POP JUMP JUMPDEST PUSH0 DUP1 PUSH0 PUSH1 0x60 DUP5 DUP7 SUB SLT ISZERO PUSH2 0xCC2 JUMPI PUSH2 0xCC1 PUSH2 0x97E JUMP JUMPDEST JUMPDEST PUSH0 PUSH2 0xCCF DUP7 DUP3 DUP8 ADD PUSH2 0xB1D JUMP JUMPDEST SWAP4 POP POP PUSH1 0x20 PUSH2 0xCE0 DUP7 DUP3 DUP8 ADD PUSH2 0xA7C JUMP JUMPDEST SWAP3 POP POP PUSH1 0x40 DUP5 ADD CALLDATALOAD PUSH8 0xFFFFFFFFFFFFFFFF DUP2 GT ISZERO PUSH2 0xD01 JUMPI PUSH2 0xD00 PUSH2 0x982 JUMP JUMPDEST JUMPDEST PUSH2 0xD0D DUP7 DUP3 DUP8 ADD PUSH2 0xC7E JUMP JUMPDEST SWAP2 POP POP SWAP3 POP SWAP3 POP SWAP3 JUMP JUMPDEST PUSH0 DUP2 MLOAD SWAP1 POP SWAP2 SWAP1 POP JUMP JUMPDEST PUSH0 DUP3 DUP3 MSTORE PUSH1 0x20 DUP3 ADD SWAP1 POP SWAP3 SWAP2 POP POP JUMP JUMPDEST PUSH0 JUMPDEST DUP4 DUP2 LT ISZERO PUSH2 0xD4E JUMPI DUP1 DUP3 ADD MLOAD DUP2 DUP5 ADD MSTORE PUSH1 0x20 DUP2 ADD SWAP1 POP PUSH2 0xD33 JUMP JUMPDEST PUSH0 DUP5 DUP5 ADD MSTORE POP POP POP POP JUMP JUMPDEST PUSH0 PUSH2 0xD63 DUP3 PUSH2 0xD17 JUMP JUMPDEST PUSH2 0xD6D DUP2 DUP6 PUSH2 0xD21 JUMP JUMPDEST SWAP4 POP PUSH2 0xD7D DUP2 DUP6 PUSH1 0x20 DUP7 ADD PUSH2 0xD31 JUMP JUMPDEST PUSH2 0xD86 DUP2 PUSH2 0xB77 JUMP JUMPDEST DUP5 ADD SWAP2 POP POP SWAP3 SWAP2 POP POP JUMP JUMPDEST PUSH0 PUSH1 0x20 DUP3 ADD SWAP1 POP DUP2 DUP2 SUB PUSH0 DUP4 ADD MSTORE PUSH2 0xDA9 DUP2 DUP5 PUSH2 0xD59 JUMP JUMPDEST SWAP1 POP SWAP3 SWAP2 POP POP JUMP JUMPDEST PUSH0 DUP3 DUP3 MSTORE PUSH1 0x20 DUP3 ADD SWAP1 POP SWAP3 SWAP2 POP POP JUMP JUMPDEST PUSH32 0x41626F7274696E67212C20796F7520617265206E6F7420746865206F776E6572 PUSH0 DUP3 ADD MSTORE POP JUMP JUMPDEST PUSH0 PUSH2 0xDF5 PUSH1 0x20 DUP4 PUSH2 0xDB1 JUMP JUMPDEST SWAP2 POP PUSH2 0xE00 DUP3 PUSH2 0xDC1 JUMP JUMPDEST PUSH1 0x20 DUP3 ADD SWAP1 POP SWAP2 SWAP1 POP JUMP JUMPDEST PUSH0 PUSH1 0x20 DUP3 ADD SWAP1 POP DUP2 DUP2 SUB PUSH0 DUP4 ADD MSTORE PUSH2 0xE22 DUP2 PUSH2 0xDE9 JUMP JUMPDEST SWAP1 POP SWAP2 SWAP1 POP JUMP JUMPDEST PUSH32 0x41626F7274696E67212C20796F7520617265206E746F20746865206F776E6572 PUSH0 DUP3 ADD MSTORE POP JUMP JUMPDEST PUSH0 PUSH2 0xE5D PUSH1 0x20 DUP4 PUSH2 0xDB1 JUMP JUMPDEST SWAP2 POP PUSH2 0xE68 DUP3 PUSH2 0xE29 JUMP JUMPDEST PUSH1 0x20 DUP3 ADD SWAP1 POP SWAP2 SWAP1 POP JUMP JUMPDEST PUSH0 PUSH1 0x20 DUP3 ADD SWAP1 POP DUP2 DUP2 SUB PUSH0 DUP4 ADD MSTORE PUSH2 0xE8A DUP2 PUSH2 0xE51 JUMP JUMPDEST SWAP1 POP SWAP2 SWAP1 POP JUMP JUMPDEST PUSH32 0x41626F7274696E67212C206E6F7420656E6F756768206D6F6E65790000000000 PUSH0 DUP3 ADD MSTORE POP JUMP JUMPDEST PUSH0 PUSH2 0xEC5 PUSH1 0x1B DUP4 PUSH2 0xDB1 JUMP JUMPDEST SWAP2 POP PUSH2 0xED0 DUP3 PUSH2 0xE91 JUMP JUMPDEST PUSH1 0x20 DUP3 ADD SWAP1 POP SWAP2 SWAP1 POP JUMP JUMPDEST PUSH0 PUSH1 0x20 DUP3 ADD SWAP1 POP DUP2 DUP2 SUB PUSH0 DUP4 ADD MSTORE PUSH2 0xEF2 DUP2 PUSH2 0xEB9 JUMP JUMPDEST SWAP1 POP SWAP2 SWAP1 POP JUMP JUMPDEST PUSH0 PUSH2 0xF03 DUP3 PUSH2 0x90C JUMP JUMPDEST SWAP2 POP PUSH2 0xF0E DUP4 PUSH2 0x90C JUMP JUMPDEST SWAP3 POP DUP3 DUP3 SUB SWAP1 POP DUP2 DUP2 GT ISZERO PUSH2 0xF26 JUMPI PUSH2 0xF25 PUSH2 0x915 JUMP JUMPDEST JUMPDEST SWAP3 SWAP2 POP POP JUMP JUMPDEST PUSH0 DUP2 SWAP1 POP SWAP3 SWAP2 POP POP JUMP JUMPDEST PUSH0 PUSH2 0xF40 DUP3 PUSH2 0xD17 JUMP JUMPDEST PUSH2 0xF4A DUP2 DUP6 PUSH2 0xF2C JUMP JUMPDEST SWAP4 POP PUSH2 0xF5A DUP2 DUP6 PUSH1 0x20 DUP7 ADD PUSH2 0xD31 JUMP JUMPDEST DUP1 DUP5 ADD SWAP2 POP POP SWAP3 SWAP2 POP POP JUMP JUMPDEST PUSH0 PUSH2 0xF71 DUP3 DUP5 PUSH2 0xF36 JUMP JUMPDEST SWAP2 POP DUP2 SWAP1 POP SWAP3 SWAP2 POP POP JUMP JUMPDEST PUSH32 0x41626F7274696E672C2063616C6C20776173206E6F7420737563636573736675 PUSH0 DUP3 ADD MSTORE PUSH32 0x6C00000000000000000000000000000000000000000000000000000000000000 PUSH1 0x20 DUP3 ADD MSTORE POP JUMP JUMPDEST PUSH0 PUSH2 0xFD6 PUSH1 0x21 DUP4 PUSH2 0xDB1 JUMP JUMPDEST SWAP2 POP PUSH2 0xFE1 DUP3 PUSH2 0xF7C JUMP JUMPDEST PUSH1 0x40 DUP3 ADD SWAP1 POP SWAP2 SWAP1 POP JUMP JUMPDEST PUSH0 PUSH1 0x20 DUP3 ADD SWAP1 POP DUP2 DUP2 SUB PUSH0 DUP4 ADD MSTORE PUSH2 0x1003 DUP2 PUSH2 0xFCA JUMP JUMPDEST SWAP1 POP SWAP2 SWAP1 POP JUMP JUMPDEST PUSH32 0x41626F72742C20596F75206172656E277420616C6C6F77656420746F2073656E PUSH0 DUP3 ADD MSTORE PUSH32 0x64206D6F6E65792066726F6D20746869732077616C6C65740000000000000000 PUSH1 0x20 DUP3 ADD MSTORE POP JUMP JUMPDEST PUSH0 PUSH2 0x1064 PUSH1 0x38 DUP4 PUSH2 0xDB1 JUMP JUMPDEST SWAP2 POP PUSH2 0x106F DUP3 PUSH2 0x100A JUMP JUMPDEST PUSH1 0x40 DUP3 ADD SWAP1 POP SWAP2 SWAP1 POP JUMP JUMPDEST PUSH0 PUSH1 0x20 DUP3 ADD SWAP1 POP DUP2 DUP2 SUB PUSH0 DUP4 ADD MSTORE PUSH2 0x1091 DUP2 PUSH2 0x1058 JUMP JUMPDEST SWAP1 POP SWAP2 SWAP1 POP JUMP JUMPDEST PUSH32 0x41626F72742C20596F7520646F206E6F74206861766520656E6F756768206D6F PUSH0 DUP3 ADD MSTORE PUSH32 0x6E657920746F2073656E64000000000000000000000000000000000000000000 PUSH1 0x20 DUP3 ADD MSTORE POP JUMP JUMPDEST PUSH0 PUSH2 0x10F2 PUSH1 0x2B DUP4 PUSH2 0xDB1 JUMP JUMPDEST SWAP2 POP PUSH2 0x10FD DUP3 PUSH2 0x1098 JUMP JUMPDEST PUSH1 0x40 DUP3 ADD SWAP1 POP SWAP2 SWAP1 POP JUMP JUMPDEST PUSH0 PUSH1 0x20 DUP3 ADD SWAP1 POP DUP2 DUP2 SUB PUSH0 DUP4 ADD MSTORE PUSH2 0x111F DUP2 PUSH2 0x10E6 JUMP JUMPDEST SWAP1 POP SWAP2 SWAP1 POP JUMP JUMPDEST PUSH32 0x41626F72742C2046756E64207472616E73666572206661696C65642C2063616C PUSH0 DUP3 ADD MSTORE PUSH32 0x6C696E6720636F6E7472616374206572726F7200000000000000000000000000 PUSH1 0x20 DUP3 ADD MSTORE POP JUMP JUMPDEST PUSH0 PUSH2 0x1180 PUSH1 0x33 DUP4 PUSH2 0xDB1 JUMP JUMPDEST SWAP2 POP PUSH2 0x118B DUP3 PUSH2 0x1126 JUMP JUMPDEST PUSH1 0x40 DUP3 ADD SWAP1 POP SWAP2 SWAP1 POP JUMP JUMPDEST PUSH0 PUSH1 0x20 DUP3 ADD SWAP1 POP DUP2 DUP2 SUB PUSH0 DUP4 ADD MSTORE PUSH2 0x11AD DUP2 PUSH2 0x1174 JUMP JUMPDEST SWAP1 POP SWAP2 SWAP1 POP JUMP INVALID LOG2 PUSH5 0x6970667358 0x22 SLT KECCAK256 DUP3 0xF6 COINBASE PUSH16 0xF082D909CCB2B6F2E70CE98C57936A3E 0x28 0xB5 0xFC 0xDC SLOAD DUP5 0xF9 PUSH7 0x6A60554364736F PUSH13 0x63430008140033000000000000 "
				},
				"gasEstimates": {
					"creation": {
						"codeDepositCost": "917200",
						"executionCost": "infinite",
						"totalCost": "infinite"
					},
					"external": {
						"allowences(address)": "2825",
						"isAllowedToSend(address)": "2834",
						"myBalance()": "2469",
						"owner()": "2572",
						"sendMoney(address,uint256,bytes)": "infinite",
						"setAllowences(address,uint256)": "infinite",
						"transfer(address,uint256)": "infinite",
						"transfer(address,uint256,bytes)": "infinite"
					}
				},
				"methodIdentifiers": {
					"allowences(address)": "268fffc1",
					"isAllowedToSend(address)": "0bc605ad",
					"myBalance()": "c9116b69",
					"owner()": "8da5cb5b",
					"sendMoney(address,uint256,bytes)": "f8025049",
					"setAllowences(address,uint256)": "7bce1515",
					"transfer(address,uint256)": "a9059cbb",
					"transfer(address,uint256,bytes)": "be45fd62"
				}
			},
			"storageLayout": {
				"storage": [
					{
						"astId": 3,
						"contract": "remix-project-files/contracts/FullWalletImplementation/Wallet.sol:Wallet",
						"label": "owner",
						"offset": 0,
						"slot": "0",
						"type": "t_address"
					},
					{
						"astId": 5,
						"contract": "remix-project-files/contracts/FullWalletImplementation/Wallet.sol:Wallet",
						"label": "myBalance",
						"offset": 0,
						"slot": "1",
						"type": "t_uint256"
					},
					{
						"astId": 9,
						"contract": "remix-project-files/contracts/FullWalletImplementation/Wallet.sol:Wallet",
						"label": "allowences",
						"offset": 0,
						"slot": "2",
						"type": "t_mapping(t_address,t_uint256)"
					},
					{
						"astId": 13,
						"contract": "remix-project-files/contracts/FullWalletImplementation/Wallet.sol:Wallet",
						"label": "isAllowedToSend",
						"offset": 0,
						"slot": "3",
						"type": "t_mapping(t_address,t_bool)"
					}
				],
				"types": {
					"t_address": {
						"encoding": "inplace",
						"label": "address",
						"numberOfBytes": "20"
					},
					"t_bool": {
						"encoding": "inplace",
						"label": "bool",
						"numberOfBytes": "1"
					},
					"t_mapping(t_address,t_bool)": {
						"encoding": "mapping",
						"key": "t_address",
						"label": "mapping(address => bool)",
						"numberOfBytes": "32",
						"value": "t_bool"
					},
					"t_mapping(t_address,t_uint256)": {
						"encoding": "mapping",
						"key": "t_address",
						"label": "mapping(address => uint256)",
						"numberOfBytes": "32",
						"value": "t_uint256"
					},
					"t_uint256": {
						"encoding": "inplace",
						"label": "uint256",
						"numberOfBytes": "32"
					}
				}
			},
			"userdoc": {
				"kind": "user",
				"methods": {},
				"version": 1
			}
		}
	}
}